{
  "contractName": "MyblogApp",
  "abi": [
    {
      "anonymous": false,
      "inputs": [
        {
          "indexed": true,
          "internalType": "bytes32",
          "name": "postId",
          "type": "bytes32"
        },
        {
          "indexed": true,
          "internalType": "bytes32",
          "name": "commentId",
          "type": "bytes32"
        },
        {
          "indexed": false,
          "internalType": "address",
          "name": "commenterAddress",
          "type": "address"
        },
        {
          "indexed": false,
          "internalType": "string",
          "name": "commenterName",
          "type": "string"
        },
        {
          "indexed": false,
          "internalType": "string",
          "name": "content",
          "type": "string"
        },
        {
          "indexed": false,
          "internalType": "uint256",
          "name": "timestamp",
          "type": "uint256"
        }
      ],
      "name": "CommentAdded",
      "type": "event"
    },
    {
      "anonymous": false,
      "inputs": [
        {
          "indexed": true,
          "internalType": "bytes32",
          "name": "postId",
          "type": "bytes32"
        },
        {
          "indexed": true,
          "internalType": "bytes32",
          "name": "commentId",
          "type": "bytes32"
        },
        {
          "indexed": false,
          "internalType": "address",
          "name": "voter",
          "type": "address"
        },
        {
          "indexed": false,
          "internalType": "bool",
          "name": "isUpvote",
          "type": "bool"
        }
      ],
      "name": "CommentVoted",
      "type": "event"
    },
    {
      "anonymous": false,
      "inputs": [
        {
          "indexed": true,
          "internalType": "bytes32",
          "name": "postId",
          "type": "bytes32"
        },
        {
          "indexed": true,
          "internalType": "address",
          "name": "voter",
          "type": "address"
        },
        {
          "indexed": false,
          "internalType": "bool",
          "name": "isUpvote",
          "type": "bool"
        }
      ],
      "name": "PostVoted",
      "type": "event"
    },
    {
      "anonymous": false,
      "inputs": [
        {
          "indexed": true,
          "internalType": "bytes32",
          "name": "postId",
          "type": "bytes32"
        },
        {
          "indexed": false,
          "internalType": "string",
          "name": "title",
          "type": "string"
        },
        {
          "indexed": false,
          "internalType": "string",
          "name": "author",
          "type": "string"
        },
        {
          "indexed": false,
          "internalType": "uint256",
          "name": "timestamp",
          "type": "uint256"
        }
      ],
      "name": "Postcreation",
      "type": "event"
    },
    {
      "inputs": [
        {
          "internalType": "bytes32",
          "name": "",
          "type": "bytes32"
        },
        {
          "internalType": "address",
          "name": "",
          "type": "address"
        }
      ],
      "name": "hasDownVoted",
      "outputs": [
        {
          "internalType": "bool",
          "name": "",
          "type": "bool"
        }
      ],
      "stateMutability": "view",
      "type": "function",
      "constant": true
    },
    {
      "inputs": [
        {
          "internalType": "bytes32",
          "name": "",
          "type": "bytes32"
        },
        {
          "internalType": "address",
          "name": "",
          "type": "address"
        }
      ],
      "name": "hasDownVotedComment",
      "outputs": [
        {
          "internalType": "bool",
          "name": "",
          "type": "bool"
        }
      ],
      "stateMutability": "view",
      "type": "function",
      "constant": true
    },
    {
      "inputs": [
        {
          "internalType": "bytes32",
          "name": "",
          "type": "bytes32"
        },
        {
          "internalType": "address",
          "name": "",
          "type": "address"
        }
      ],
      "name": "hasUpVoted",
      "outputs": [
        {
          "internalType": "bool",
          "name": "",
          "type": "bool"
        }
      ],
      "stateMutability": "view",
      "type": "function",
      "constant": true
    },
    {
      "inputs": [
        {
          "internalType": "bytes32",
          "name": "",
          "type": "bytes32"
        },
        {
          "internalType": "address",
          "name": "",
          "type": "address"
        }
      ],
      "name": "hasUpVotedComment",
      "outputs": [
        {
          "internalType": "bool",
          "name": "",
          "type": "bool"
        }
      ],
      "stateMutability": "view",
      "type": "function",
      "constant": true
    },
    {
      "inputs": [
        {
          "internalType": "string",
          "name": "_author",
          "type": "string"
        },
        {
          "internalType": "string",
          "name": "_title",
          "type": "string"
        },
        {
          "internalType": "string",
          "name": "_contentHash",
          "type": "string"
        }
      ],
      "name": "createPost",
      "outputs": [],
      "stateMutability": "nonpayable",
      "type": "function"
    },
    {
      "inputs": [
        {
          "internalType": "bytes32",
          "name": "_postId",
          "type": "bytes32"
        }
      ],
      "name": "upvotePost",
      "outputs": [],
      "stateMutability": "nonpayable",
      "type": "function"
    },
    {
      "inputs": [
        {
          "internalType": "bytes32",
          "name": "_postId",
          "type": "bytes32"
        }
      ],
      "name": "downvotePost",
      "outputs": [],
      "stateMutability": "nonpayable",
      "type": "function"
    },
    {
      "inputs": [
        {
          "internalType": "bytes32",
          "name": "_postId",
          "type": "bytes32"
        },
        {
          "internalType": "string",
          "name": "_commenterName",
          "type": "string"
        },
        {
          "internalType": "string",
          "name": "_content",
          "type": "string"
        }
      ],
      "name": "addComment",
      "outputs": [],
      "stateMutability": "nonpayable",
      "type": "function"
    },
    {
      "inputs": [
        {
          "internalType": "bytes32",
          "name": "_postId",
          "type": "bytes32"
        },
        {
          "internalType": "bytes32",
          "name": "_commentId",
          "type": "bytes32"
        }
      ],
      "name": "upvoteComment",
      "outputs": [],
      "stateMutability": "nonpayable",
      "type": "function"
    },
    {
      "inputs": [
        {
          "internalType": "bytes32",
          "name": "_postId",
          "type": "bytes32"
        },
        {
          "internalType": "bytes32",
          "name": "_commentId",
          "type": "bytes32"
        }
      ],
      "name": "downvoteComment",
      "outputs": [],
      "stateMutability": "nonpayable",
      "type": "function"
    },
    {
      "inputs": [],
      "name": "getAllPosts",
      "outputs": [
        {
          "components": [
            {
              "internalType": "bytes32",
              "name": "id",
              "type": "bytes32"
            },
            {
              "internalType": "string",
              "name": "author",
              "type": "string"
            },
            {
              "internalType": "string",
              "name": "title",
              "type": "string"
            },
            {
              "internalType": "string",
              "name": "contentHash",
              "type": "string"
            },
            {
              "internalType": "uint256",
              "name": "upvote",
              "type": "uint256"
            },
            {
              "internalType": "uint256",
              "name": "downvote",
              "type": "uint256"
            },
            {
              "internalType": "uint256",
              "name": "timestamp",
              "type": "uint256"
            }
          ],
          "internalType": "struct MyblogApp.Post[]",
          "name": "",
          "type": "tuple[]"
        }
      ],
      "stateMutability": "view",
      "type": "function",
      "constant": true
    },
    {
      "inputs": [
        {
          "internalType": "address",
          "name": "_user",
          "type": "address"
        }
      ],
      "name": "getAllPostsOfUser",
      "outputs": [
        {
          "components": [
            {
              "internalType": "bytes32",
              "name": "id",
              "type": "bytes32"
            },
            {
              "internalType": "string",
              "name": "author",
              "type": "string"
            },
            {
              "internalType": "string",
              "name": "title",
              "type": "string"
            },
            {
              "internalType": "string",
              "name": "contentHash",
              "type": "string"
            },
            {
              "internalType": "uint256",
              "name": "upvote",
              "type": "uint256"
            },
            {
              "internalType": "uint256",
              "name": "downvote",
              "type": "uint256"
            },
            {
              "internalType": "uint256",
              "name": "timestamp",
              "type": "uint256"
            }
          ],
          "internalType": "struct MyblogApp.Post[]",
          "name": "",
          "type": "tuple[]"
        }
      ],
      "stateMutability": "view",
      "type": "function",
      "constant": true
    },
    {
      "inputs": [
        {
          "internalType": "bytes32",
          "name": "_postId",
          "type": "bytes32"
        }
      ],
      "name": "getPostById",
      "outputs": [
        {
          "internalType": "bytes32",
          "name": "id",
          "type": "bytes32"
        },
        {
          "internalType": "string",
          "name": "author",
          "type": "string"
        },
        {
          "internalType": "string",
          "name": "title",
          "type": "string"
        },
        {
          "internalType": "string",
          "name": "contentHash",
          "type": "string"
        },
        {
          "internalType": "uint256",
          "name": "upvote",
          "type": "uint256"
        },
        {
          "internalType": "uint256",
          "name": "downvote",
          "type": "uint256"
        },
        {
          "internalType": "uint256",
          "name": "timestamp",
          "type": "uint256"
        }
      ],
      "stateMutability": "view",
      "type": "function",
      "constant": true
    },
    {
      "inputs": [
        {
          "internalType": "bytes32",
          "name": "_postId",
          "type": "bytes32"
        }
      ],
      "name": "getComments",
      "outputs": [
        {
          "components": [
            {
              "internalType": "bytes32",
              "name": "id",
              "type": "bytes32"
            },
            {
              "internalType": "address",
              "name": "commenterAddress",
              "type": "address"
            },
            {
              "internalType": "string",
              "name": "commenterName",
              "type": "string"
            },
            {
              "internalType": "string",
              "name": "content",
              "type": "string"
            },
            {
              "internalType": "uint256",
              "name": "upvote",
              "type": "uint256"
            },
            {
              "internalType": "uint256",
              "name": "downvote",
              "type": "uint256"
            },
            {
              "internalType": "uint256",
              "name": "timestamp",
              "type": "uint256"
            }
          ],
          "internalType": "struct MyblogApp.Comment[]",
          "name": "",
          "type": "tuple[]"
        }
      ],
      "stateMutability": "view",
      "type": "function",
      "constant": true
    },
    {
      "inputs": [
        {
          "internalType": "address",
          "name": "_user",
          "type": "address"
        }
      ],
      "name": "getCommentsByUser",
      "outputs": [
        {
          "components": [
            {
              "internalType": "bytes32",
              "name": "id",
              "type": "bytes32"
            },
            {
              "internalType": "address",
              "name": "commenterAddress",
              "type": "address"
            },
            {
              "internalType": "string",
              "name": "commenterName",
              "type": "string"
            },
            {
              "internalType": "string",
              "name": "content",
              "type": "string"
            },
            {
              "internalType": "uint256",
              "name": "upvote",
              "type": "uint256"
            },
            {
              "internalType": "uint256",
              "name": "downvote",
              "type": "uint256"
            },
            {
              "internalType": "uint256",
              "name": "timestamp",
              "type": "uint256"
            }
          ],
          "internalType": "struct MyblogApp.Comment[]",
          "name": "",
          "type": "tuple[]"
        }
      ],
      "stateMutability": "view",
      "type": "function",
      "constant": true
    },
    {
      "inputs": [
        {
          "internalType": "bytes32",
          "name": "_commentId",
          "type": "bytes32"
        }
      ],
      "name": "getPostIdfromComment",
      "outputs": [
        {
          "internalType": "bytes32",
          "name": "",
          "type": "bytes32"
        }
      ],
      "stateMutability": "view",
      "type": "function",
      "constant": true
    }
  ],
  "bytecode": "0x608060405234801561001057600080fd5b50612179806100206000396000f3fe608060405234801561001057600080fd5b50600436106101005760003560e01c8063a54ff9ac11610097578063e2fc269111610066578063e2fc26911461029c578063e8a4a1eb146102af578063eee32095146102c2578063f7ba787d146102d557600080fd5b8063a54ff9ac14610222578063a7503db214610235578063ae362ff914610248578063b28ad6131461026e57600080fd5b80635ad39fc9116100d35780635ad39fc9146101855780636b2377ab146101a65780636c00f807146101d45780639e78b8a61461020257600080fd5b806320e46ea5146101055780632cfdcc6b1461014857806330561100146101685780634630536414610170575b600080fd5b610133610113366004611a3b565b600560209081526000928352604080842090915290825290205460ff1681565b60405190151581526020015b60405180910390f35b61015b610156366004611a67565b6102e8565b60405161013f9190611ad9565b61015b61063a565b61018361017e366004611ba3565b61092c565b005b610198610193366004611bc5565b610adf565b60405190815260200161013f565b6101336101b4366004611a3b565b600760209081526000928352604080842090915290825290205460ff1681565b6101336101e2366004611a3b565b600660209081526000928352604080842090915290825290205460ff1681565b610215610210366004611a67565b610b1d565b60405161013f9190611bde565b610183610230366004611bc5565b610e0d565b610183610243366004611d38565b610f16565b61025b610256366004611bc5565b611188565b60405161013f9796959493929190611da5565b61013361027c366004611a3b565b600460209081526000928352604080842090915290825290205460ff1681565b6101836102aa366004611bc5565b6113fd565b6101836102bd366004611e04565b611500565b6101836102d0366004611ba3565b6116aa565b6102156102e3366004611bc5565b61184b565b6001600160a01b038116600090815260016020908152604080832080548251818502810185019093528083526060949383018282801561034757602002820191906000526020600020905b815481526020019060010190808311610333575b505050505090506000815167ffffffffffffffff81111561036a5761036a611c95565b6040519080825280602002602001820160405280156103de57816020015b6103cb6040518060e00160405280600080191681526020016060815260200160608152602001606081526020016000815260200160008152602001600081525090565b8152602001906001900390816103885790505b50905060005b8251811015610632576002600084838151811061040357610403611e53565b602002602001015181526020019081526020016000206040518060e00160405290816000820154815260200160018201805461043e90611e69565b80601f016020809104026020016040519081016040528092919081815260200182805461046a90611e69565b80156104b75780601f1061048c576101008083540402835291602001916104b7565b820191906000526020600020905b81548152906001019060200180831161049a57829003601f168201915b505050505081526020016002820180546104d090611e69565b80601f01602080910402602001604051908101604052809291908181526020018280546104fc90611e69565b80156105495780601f1061051e57610100808354040283529160200191610549565b820191906000526020600020905b81548152906001019060200180831161052c57829003601f168201915b5050505050815260200160038201805461056290611e69565b80601f016020809104026020016040519081016040528092919081815260200182805461058e90611e69565b80156105db5780601f106105b0576101008083540402835291602001916105db565b820191906000526020600020905b8154815290600101906020018083116105be57829003601f168201915b50505050508152602001600482015481526020016005820154815260200160068201548152505082828151811061061457610614611e53565b6020026020010181905250808061062a90611e9d565b9150506103e4565b509392505050565b600080546060919067ffffffffffffffff81111561065a5761065a611c95565b6040519080825280602002602001820160405280156106ce57816020015b6106bb6040518060e00160405280600080191681526020016060815260200160608152602001606081526020016000815260200160008152602001600081525090565b8152602001906001900390816106785790505b50905060005b60005481101561092657600260008083815481106106f4576106f4611e53565b906000526020600020015481526020019081526020016000206040518060e00160405290816000820154815260200160018201805461073290611e69565b80601f016020809104026020016040519081016040528092919081815260200182805461075e90611e69565b80156107ab5780601f10610780576101008083540402835291602001916107ab565b820191906000526020600020905b81548152906001019060200180831161078e57829003601f168201915b505050505081526020016002820180546107c490611e69565b80601f01602080910402602001604051908101604052809291908181526020018280546107f090611e69565b801561083d5780601f106108125761010080835404028352916020019161083d565b820191906000526020600020905b81548152906001019060200180831161082057829003601f168201915b5050505050815260200160038201805461085690611e69565b80601f016020809104026020016040519081016040528092919081815260200182805461088290611e69565b80156108cf5780601f106108a4576101008083540402835291602001916108cf565b820191906000526020600020905b8154815290600101906020018083116108b257829003601f168201915b50505050508152602001600482015481526020016005820154815260200160068201548152505082828151811061090857610908611e53565b6020026020010181905250808061091e90611e9d565b9150506106d4565b50919050565b6000818152600860205260409020546109605760405162461bcd60e51b815260040161095790611ec4565b60405180910390fd5b600081815260066020908152604080832033845290915290205460ff16156109ca5760405162461bcd60e51b815260206004820152601c60248201527f416c7265616479207570766f746564207468697320636f6d6d656e74000000006044820152606401610957565b60008181526006602090815260408083203384528252808320805460ff1916600117905583835260089091528120600401805491610a0783611e9d565b90915550506000828152600360205260408120905b8154811015610a9b5782828281548110610a3857610a38611e53565b90600052602060002090600702016000015403610a8957818181548110610a6157610a61611e53565b600091825260208220600460079092020101805491610a7f83611e9d565b9190505550610a9b565b80610a9381611e9d565b915050610a1c565b506040805133815260016020820152839185917fa718b91703005c7ff3c85ef47cb2b96b8bf518a0934598a085e074a84ad79ba191015b60405180910390a3505050565b600081815260086020526040812054610b0a5760405162461bcd60e51b815260040161095790611ec4565b506000908152600a602052604090205490565b6001600160a01b0381166000908152600960209081526040808320805482518185028101850190935280835260609493830182828015610b7c57602002820191906000526020600020905b815481526020019060010190808311610b68575b505050505090506000815167ffffffffffffffff811115610b9f57610b9f611c95565b604051908082528060200260200182016040528015610c1c57816020015b610c096040518060e001604052806000801916815260200160006001600160a01b0316815260200160608152602001606081526020016000815260200160008152602001600081525090565b815260200190600190039081610bbd5790505b50905060005b82518110156106325760086000848381518110610c4157610c41611e53565b602002602001015181526020019081526020016000206040518060e0016040529081600082015481526020016001820160009054906101000a90046001600160a01b03166001600160a01b03166001600160a01b03168152602001600282018054610cab90611e69565b80601f0160208091040260200160405190810160405280929190818152602001828054610cd790611e69565b8015610d245780601f10610cf957610100808354040283529160200191610d24565b820191906000526020600020905b815481529060010190602001808311610d0757829003601f168201915b50505050508152602001600382018054610d3d90611e69565b80601f0160208091040260200160405190810160405280929190818152602001828054610d6990611e69565b8015610db65780601f10610d8b57610100808354040283529160200191610db6565b820191906000526020600020905b815481529060010190602001808311610d9957829003601f168201915b505050505081526020016004820154815260200160058201548152602001600682015481525050828281518110610def57610def611e53565b60200260200101819052508080610e0590611e9d565b915050610c22565b600081815260026020526040902054610e385760405162461bcd60e51b815260040161095790611ef4565b600081815260056020908152604080832033845290915290205460ff1615610e975760405162461bcd60e51b815260206004820152601260248201527120b63932b0b23c903237bbb73b37ba32b21760711b6044820152606401610957565b6000818152600260205260408120600501805491610eb483611e9d565b9091555050600081815260056020908152604080832033808552908352818420805460ff1916600117905590519283529183917fa7e4c5082f867ea22a45a95c2043209b9ce83d70ca31ccb947e67592ea14c4b191015b60405180910390a350565b600083815260026020526040902054610f415760405162461bcd60e51b815260040161095790611ef4565b602082511115610f935760405162461bcd60e51b815260206004820152601760248201527f436f6d6d656e746572206e616d6520746f6f206c6f6e670000000000000000006044820152606401610957565b6000334283604051602001610faa93929190611f22565b60408051808303601f19018152828252805160209182012060e084018352808452338285019081528484018881526060860188905260006080870181905260a087018190524260c08801528a815260038552948520805460018082018355918752949095208651600790950201938455905193830180546001600160a01b0319166001600160a01b03909516949094179093559151919350829160028201906110539082611fb0565b50606082015160038201906110689082611fb0565b506080820151600482015560a0820151600582015560c09091015160069091015560008281526008602090815260409182902083518155908301516001820180546001600160a01b0319166001600160a01b039092169190911790559082015182919060028201906110da9082611fb0565b50606082015160038201906110ef9082611fb0565b506080820151600482015560a0820151600582015560c090910151600690910155336000818152600960209081526040808320805460018101825590845282842001869055858352600a9091529081902087905551839187917f121f72518586f939bfb34c62bbf7d31b0a8ae8ecbcac0869550705ee4cff80f59161117991899089904290612070565b60405180910390a35050505050565b600081815260026020526040812054606090819081908490819081906111c05760405162461bcd60e51b815260040161095790611ef4565b6000600260008a81526020019081526020016000206040518060e0016040529081600082015481526020016001820180546111fa90611e69565b80601f016020809104026020016040519081016040528092919081815260200182805461122690611e69565b80156112735780601f1061124857610100808354040283529160200191611273565b820191906000526020600020905b81548152906001019060200180831161125657829003601f168201915b5050505050815260200160028201805461128c90611e69565b80601f01602080910402602001604051908101604052809291908181526020018280546112b890611e69565b80156113055780601f106112da57610100808354040283529160200191611305565b820191906000526020600020905b8154815290600101906020018083116112e857829003601f168201915b5050505050815260200160038201805461131e90611e69565b80601f016020809104026020016040519081016040528092919081815260200182805461134a90611e69565b80156113975780601f1061136c57610100808354040283529160200191611397565b820191906000526020600020905b81548152906001019060200180831161137a57829003601f168201915b5050505050815260200160048201548152602001600582015481526020016006820154815250509050806000015181602001518260400151836060015184608001518560a001518660c00151975097509750975097509750975050919395979092949650565b6000818152600260205260409020546114285760405162461bcd60e51b815260040161095790611ef4565b600081815260046020908152604080832033845290915290205460ff16156114855760405162461bcd60e51b815260206004820152601060248201526f20b63932b0b23c903ab83b37ba32b21760811b6044820152606401610957565b60008181526002602052604081206004018054916114a283611e9d565b909155505060008181526004602090815260408083203380855290835292819020805460ff19166001908117909155905190815283917fa7e4c5082f867ea22a45a95c2043209b9ce83d70ca31ccb947e67592ea14c4b19101610f0b565b6020835111156115495760405162461bcd60e51b8152602060048201526014602482015273417574686f72206e616d6520746f6f206c6f6e6760601b6044820152606401610957565b60003342848460405160200161156294939291906120b8565b60408051601f19818403018152828252805160209182012060e0840183528084528382018881528484018890526060850187905260006080860181905260a086018190524260c08701528054600181810183557f290decd9548b62a8d60345a988386fc84ba6bc95484008f6362f93160ef3e563909101849055338252808552858220805480830182559083528583200184905583825260029094529390932084518155925190945083929182019061161b9082611fb0565b50604082015160028201906116309082611fb0565b50606082015160038201906116459082611fb0565b506080820151816004015560a0820151816005015560c08201518160060155905050817f17f34748f078a06d3c7c034ef1cdf60a8b2baf4592df676d3a2ae61596619f9885874260405161169b9392919061210d565b60405180910390a25050505050565b6000818152600860205260409020546116d55760405162461bcd60e51b815260040161095790611ec4565b600081815260076020908152604080832033845290915290205460ff161561173f5760405162461bcd60e51b815260206004820152601e60248201527f416c726561647920646f776e766f746564207468697320636f6d6d656e7400006044820152606401610957565b60008181526007602090815260408083203384528252808320805460ff191660011790558383526008909152812060050180549161177c83611e9d565b90915550506000828152600360205260408120905b815481101561181057828282815481106117ad576117ad611e53565b906000526020600020906007020160000154036117fe578181815481106117d6576117d6611e53565b6000918252602082206005600790920201018054916117f483611e9d565b9190505550611810565b8061180881611e9d565b915050611791565b506040805133815260006020820152839185917fa718b91703005c7ff3c85ef47cb2b96b8bf518a0934598a085e074a84ad79ba19101610ad2565b606060036000838152602001908152602001600020805480602002602001604051908101604052809291908181526020016000905b82821015611a145760008481526020908190206040805160e081018252600786029092018054835260018101546001600160a01b031693830193909352600283018054929392918401916118d390611e69565b80601f01602080910402602001604051908101604052809291908181526020018280546118ff90611e69565b801561194c5780601f106119215761010080835404028352916020019161194c565b820191906000526020600020905b81548152906001019060200180831161192f57829003601f168201915b5050505050815260200160038201805461196590611e69565b80601f016020809104026020016040519081016040528092919081815260200182805461199190611e69565b80156119de5780601f106119b3576101008083540402835291602001916119de565b820191906000526020600020905b8154815290600101906020018083116119c157829003601f168201915b50505050508152602001600482015481526020016005820154815260200160068201548152505081526020019060010190611880565b505050509050919050565b80356001600160a01b0381168114611a3657600080fd5b919050565b60008060408385031215611a4e57600080fd5b82359150611a5e60208401611a1f565b90509250929050565b600060208284031215611a7957600080fd5b611a8282611a1f565b9392505050565b60005b83811015611aa4578181015183820152602001611a8c565b50506000910152565b60008151808452611ac5816020860160208601611a89565b601f01601f19169290920160200192915050565b60006020808301818452808551808352604092508286019150828160051b87010184880160005b83811015611b9557603f19898403018552815160e08151855288820151818a870152611b2e82870182611aad565b9150508782015185820389870152611b468282611aad565b91505060608083015186830382880152611b608382611aad565b6080858101519089015260a0808601519089015260c09485015194909701939093525050509386019390860190600101611b00565b509098975050505050505050565b60008060408385031215611bb657600080fd5b50508035926020909101359150565b600060208284031215611bd757600080fd5b5035919050565b60006020808301818452808551808352604092508286019150828160051b87010184880160005b83811015611b9557888303603f19018552815180518452878101516001600160a01b0316888501528681015160e088860181905290611c4682870182611aad565b91505060608083015186830382880152611c608382611aad565b6080858101519089015260a0808601519089015260c09485015194909701939093525050509386019390860190600101611c05565b634e487b7160e01b600052604160045260246000fd5b600082601f830112611cbc57600080fd5b813567ffffffffffffffff80821115611cd757611cd7611c95565b604051601f8301601f19908116603f01168101908282118183101715611cff57611cff611c95565b81604052838152866020858801011115611d1857600080fd5b836020870160208301376000602085830101528094505050505092915050565b600080600060608486031215611d4d57600080fd5b83359250602084013567ffffffffffffffff80821115611d6c57600080fd5b611d7887838801611cab565b93506040860135915080821115611d8e57600080fd5b50611d9b86828701611cab565b9150509250925092565b87815260e060208201526000611dbe60e0830189611aad565b8281036040840152611dd08189611aad565b90508281036060840152611de48188611aad565b6080840196909652505060a081019290925260c090910152949350505050565b600080600060608486031215611e1957600080fd5b833567ffffffffffffffff80821115611e3157600080fd5b611e3d87838801611cab565b94506020860135915080821115611d6c57600080fd5b634e487b7160e01b600052603260045260246000fd5b600181811c90821680611e7d57607f821691505b60208210810361092657634e487b7160e01b600052602260045260246000fd5b600060018201611ebd57634e487b7160e01b600052601160045260246000fd5b5060010190565b60208082526016908201527510dbdb5b595b9d08191bd95cc81b9bdd08195e1a5cdd60521b604082015260600190565b6020808252601490820152732837b9ba103237b2b9903737ba1032bc34b9ba1760611b604082015260600190565b6bffffffffffffffffffffffff198460601b16815282601482015260008251611f52816034850160208701611a89565b91909101603401949350505050565b601f821115611fab57600081815260208120601f850160051c81016020861015611f885750805b601f850160051c820191505b81811015611fa757828155600101611f94565b5050505b505050565b815167ffffffffffffffff811115611fca57611fca611c95565b611fde81611fd88454611e69565b84611f61565b602080601f8311600181146120135760008415611ffb5750858301515b600019600386901b1c1916600185901b178555611fa7565b600085815260208120601f198616915b8281101561204257888601518255948401946001909101908401612023565b50858210156120605787850151600019600388901b60f8161c191681555b5050505050600190811b01905550565b6001600160a01b038516815260806020820181905260009061209490830186611aad565b82810360408401526120a68186611aad565b91505082606083015295945050505050565b6bffffffffffffffffffffffff198560601b168152836014820152600083516120e8816034850160208801611a89565b8351908301906120ff816034840160208801611a89565b016034019695505050505050565b6060815260006121206060830186611aad565b82810360208401526121328186611aad565b91505082604083015294935050505056fea2646970667358221220a23b2c7d0fb57a6822e1cc6f7b4c62d14c8f22fb1a37844cfc73420b70dadec764736f6c63430008140033",
  "immutableReferences": {},
  "source": "// SPDX-License-Identifier: MIT\r\npragma solidity >=0.8.2 <0.9.0;\r\n\r\ncontract MyblogApp {\r\n    struct Post {\r\n        bytes32 id;\r\n        string author;\r\n        string title;\r\n        string contentHash;\r\n        uint256 upvote;\r\n        uint256 downvote;\r\n        uint256 timestamp;\r\n    }\r\n\r\n    struct Comment {\r\n        bytes32 id;\r\n        address commenterAddress;\r\n        string commenterName;\r\n        string content;\r\n        uint256 upvote;\r\n        uint256 downvote;\r\n        uint256 timestamp;\r\n    }\r\n\r\n    bytes32[] private allPostsIds;\r\n    mapping(address => bytes32[]) private userPosts;\r\n    mapping(bytes32 => Post) private posts;\r\n\r\n    // Comments stored per post\r\n    mapping(bytes32 => Comment[]) private postComments;\r\n\r\n    // Post votes\r\n    mapping(bytes32 => mapping(address => bool)) public hasUpVoted;\r\n    mapping(bytes32 => mapping(address => bool)) public hasDownVoted;\r\n\r\n    // Comment votes \r\n    mapping(bytes32 => mapping(address => bool)) public  hasUpVotedComment;\r\n    mapping(bytes32 => mapping(address => bool)) public hasDownVotedComment;\r\n\r\n    // Global comment lookup + user  comment list\r\n    mapping(bytes32 => Comment) private commentById;\r\n    mapping(address => bytes32[]) private userCommentIds;\r\n\r\n    //Comment->Post Mapping\r\n    mapping(bytes32 => bytes32) private CommentToPost;\r\n\r\n    // Events\r\n\r\n    event Postcreation(bytes32 indexed postId, string title, string author, uint256 timestamp);\r\n    event PostVoted(bytes32 indexed postId, address indexed voter, bool isUpvote);\r\n    event CommentAdded(\r\n        bytes32 indexed postId,\r\n        bytes32 indexed commentId,\r\n        address commenterAddress,\r\n        string commenterName,\r\n        string content,\r\n        uint256 timestamp\r\n    );\r\n    event CommentVoted(\r\n        bytes32 indexed postId,\r\n        bytes32 indexed commentId,\r\n        address voter,\r\n        bool isUpvote\r\n    );\r\n\r\n    // Create Post\r\n\r\n    function createPost(string memory _author, string memory _title, string memory _contentHash) public {\r\n        require(bytes(_author).length <= 32, \"Author name too long\");\r\n\r\n        bytes32 _id = keccak256(abi.encodePacked(msg.sender, block.timestamp, _title, _contentHash));\r\n\r\n        Post memory newpost = Post({\r\n            id: _id,\r\n            author: _author,\r\n            title: _title,\r\n            contentHash: _contentHash,\r\n            upvote: 0,\r\n            downvote: 0,\r\n            timestamp: block.timestamp\r\n        });\r\n\r\n        allPostsIds.push(_id);\r\n        userPosts[msg.sender].push(_id);\r\n        posts[_id] = newpost;\r\n\r\n        emit Postcreation(_id, _title, _author, block.timestamp);\r\n    }\r\n\r\n    // Vote on Post\r\n\r\n    function upvotePost(bytes32 _postId) public {\r\n        require(posts[_postId].id != bytes32(0), \"Post does not exist.\");\r\n        require(!hasUpVoted[_postId][msg.sender], \"Already upvoted.\");\r\n\r\n        posts[_postId].upvote++;\r\n        hasUpVoted[_postId][msg.sender] = true;\r\n\r\n        emit PostVoted(_postId, msg.sender, true);\r\n    }\r\n\r\n    function downvotePost(bytes32 _postId) public {\r\n        require(posts[_postId].id != bytes32(0), \"Post does not exist.\");\r\n        require(!hasDownVoted[_postId][msg.sender], \"Already downvoted.\");\r\n\r\n        posts[_postId].downvote++;\r\n        hasDownVoted[_postId][msg.sender] = true;\r\n\r\n        emit PostVoted(_postId, msg.sender, false);\r\n    }\r\n\r\n    // Add Comment\r\n\r\n    function addComment(bytes32 _postId, string memory _commenterName, string memory _content) public {\r\n        require(posts[_postId].id != bytes32(0), \"Post does not exist.\");\r\n        require(bytes(_commenterName).length <= 32, \"Commenter name too long\");\r\n\r\n        bytes32 commentId = keccak256(abi.encodePacked(msg.sender, block.timestamp, _content));\r\n\r\n        Comment memory newComment = Comment({\r\n            id: commentId,\r\n            commenterAddress: msg.sender,\r\n            commenterName: _commenterName,\r\n            content: _content,\r\n            upvote: 0,\r\n            downvote: 0,\r\n            timestamp: block.timestamp\r\n        });\r\n\r\n        postComments[_postId].push(newComment);\r\n\r\n        // global lookup\r\n        commentById[commentId] = newComment;\r\n\r\n        // store comment under user index\r\n        userCommentIds[msg.sender].push(commentId);\r\n\r\n        //map comment to post\r\n        CommentToPost[commentId] = _postId;\r\n\r\n        emit CommentAdded(_postId, commentId, msg.sender, _commenterName, _content, block.timestamp);\r\n    }\r\n\r\n    // Vote on Comment \r\n\r\n    function upvoteComment(bytes32 _postId, bytes32 _commentId) public {\r\n        require(commentById[_commentId].id != bytes32(0), \"Comment does not exist\");\r\n        require(!hasUpVotedComment[_commentId][msg.sender], \"Already upvoted this comment\");\r\n\r\n        // Update both storage locations\r\n        hasUpVotedComment[_commentId][msg.sender] = true;\r\n        commentById[_commentId].upvote++;\r\n\r\n        // Sync inside postComments array\r\n        Comment[] storage arr = postComments[_postId];\r\n        for (uint i = 0; i < arr.length; i++) {\r\n            if (arr[i].id == _commentId) {\r\n                arr[i].upvote++;\r\n                break;\r\n            }\r\n        }\r\n\r\n        emit CommentVoted(_postId, _commentId, msg.sender, true);\r\n    }\r\n\r\n    function downvoteComment(bytes32 _postId, bytes32 _commentId) public {\r\n        require(commentById[_commentId].id != bytes32(0), \"Comment does not exist\");\r\n        require(!hasDownVotedComment[_commentId][msg.sender], \"Already downvoted this comment\");\r\n\r\n        hasDownVotedComment[_commentId][msg.sender] = true;\r\n        commentById[_commentId].downvote++;\r\n\r\n        Comment[] storage arr = postComments[_postId];\r\n        for (uint i = 0; i < arr.length; i++) {\r\n            if (arr[i].id == _commentId) {\r\n                arr[i].downvote++;\r\n                break;\r\n            }\r\n        }\r\n\r\n        emit CommentVoted(_postId, _commentId, msg.sender, false);\r\n    }\r\n\r\n    // Fetch Functions\r\n\r\n    function getAllPosts() public view returns(Post[] memory) {\r\n        Post[] memory allPosts = new Post[](allPostsIds.length);\r\n        for(uint i = 0; i < allPostsIds.length; i++) {\r\n            allPosts[i] = posts[allPostsIds[i]];\r\n        }\r\n        return allPosts;\r\n    }\r\n\r\n    function getAllPostsOfUser(address _user) public view returns(Post[] memory) {\r\n        bytes32[] memory userPostIds = userPosts[_user];\r\n        Post[] memory allPosts = new Post[](userPostIds.length);\r\n\r\n        for (uint i = 0; i < userPostIds.length; i++) {\r\n            allPosts[i] = posts[userPostIds[i]];\r\n        }\r\n\r\n        return allPosts;\r\n    }\r\n\r\n    function getPostById(bytes32 _postId) public view returns (\r\n        bytes32 id,\r\n        string memory author,\r\n        string memory title,\r\n        string memory contentHash,\r\n        uint256 upvote,\r\n        uint256 downvote,\r\n        uint256 timestamp\r\n    ) {\r\n        require(posts[_postId].id != bytes32(0), \"Post does not exist.\");\r\n        Post memory p = posts[_postId];\r\n        return (p.id, p.author, p.title, p.contentHash, p.upvote, p.downvote, p.timestamp);\r\n    }\r\n\r\n    function getComments(bytes32 _postId) public view returns(Comment[] memory) {\r\n        return postComments[_postId];\r\n    }\r\n\r\n    // Fetch all comments by a user\r\n\r\n    function getCommentsByUser(address _user) public view returns (Comment[] memory) {\r\n        bytes32[] memory ids = userCommentIds[_user];\r\n        Comment[] memory result = new Comment[](ids.length);\r\n\r\n        for (uint256 i = 0; i < ids.length; i++) {\r\n            result[i] = commentById[ids[i]];\r\n        }\r\n\r\n        return result;\r\n    }\r\n\r\n    //Fetch comment to PostId\r\n\r\n    function getPostIdfromComment(bytes32 _commentId) public view returns(bytes32) {\r\n        require(commentById[_commentId].id != bytes32(0), \"Comment does not exist\");\r\n        return CommentToPost[_commentId];\r\n    }\r\n}\r\n",
  "sourcePath": "C:\\Users\\hp\\OneDrive\\Desktop\\Projects\\D_BloggingApp\\blockchain\\contracts\\MyblogApp.sol",
  "compiler": {
    "name": "solc",
    "version": "0.8.20+commit.a1b79de6.Emscripten.clang"
  },
  "schemaVersion": "3.4.16",
  "updatedAt": "2025-12-16T18:03:36.375Z",
  "networkType": "ethereum",
  "devdoc": {
    "kind": "dev",
    "methods": {},
    "version": 1
  },
  "userdoc": {
    "kind": "user",
    "methods": {},
    "version": 1
  }
}