{
  "contractName": "MyblogApp",
  "abi": [
    {
      "anonymous": false,
      "inputs": [
        {
          "indexed": true,
          "internalType": "bytes32",
          "name": "postId",
          "type": "bytes32"
        },
        {
          "indexed": true,
          "internalType": "bytes32",
          "name": "commentId",
          "type": "bytes32"
        },
        {
          "indexed": false,
          "internalType": "address",
          "name": "commenterAddress",
          "type": "address"
        },
        {
          "indexed": false,
          "internalType": "string",
          "name": "commenterName",
          "type": "string"
        },
        {
          "indexed": false,
          "internalType": "string",
          "name": "content",
          "type": "string"
        },
        {
          "indexed": false,
          "internalType": "uint256",
          "name": "timestamp",
          "type": "uint256"
        }
      ],
      "name": "CommentAdded",
      "type": "event"
    },
    {
      "anonymous": false,
      "inputs": [
        {
          "indexed": true,
          "internalType": "bytes32",
          "name": "postId",
          "type": "bytes32"
        },
        {
          "indexed": true,
          "internalType": "bytes32",
          "name": "commentId",
          "type": "bytes32"
        },
        {
          "indexed": false,
          "internalType": "address",
          "name": "voter",
          "type": "address"
        },
        {
          "indexed": false,
          "internalType": "bool",
          "name": "isUpvote",
          "type": "bool"
        }
      ],
      "name": "CommentVoted",
      "type": "event"
    },
    {
      "anonymous": false,
      "inputs": [
        {
          "indexed": true,
          "internalType": "bytes32",
          "name": "postId",
          "type": "bytes32"
        },
        {
          "indexed": true,
          "internalType": "address",
          "name": "voter",
          "type": "address"
        },
        {
          "indexed": false,
          "internalType": "bool",
          "name": "isUpvote",
          "type": "bool"
        }
      ],
      "name": "PostVoted",
      "type": "event"
    },
    {
      "anonymous": false,
      "inputs": [
        {
          "indexed": true,
          "internalType": "bytes32",
          "name": "postId",
          "type": "bytes32"
        },
        {
          "indexed": false,
          "internalType": "string",
          "name": "title",
          "type": "string"
        },
        {
          "indexed": false,
          "internalType": "string",
          "name": "author",
          "type": "string"
        },
        {
          "indexed": false,
          "internalType": "uint256",
          "name": "timestamp",
          "type": "uint256"
        }
      ],
      "name": "Postcreation",
      "type": "event"
    },
    {
      "inputs": [
        {
          "internalType": "bytes32",
          "name": "",
          "type": "bytes32"
        },
        {
          "internalType": "address",
          "name": "",
          "type": "address"
        }
      ],
      "name": "hasDownVoted",
      "outputs": [
        {
          "internalType": "bool",
          "name": "",
          "type": "bool"
        }
      ],
      "stateMutability": "view",
      "type": "function",
      "constant": true
    },
    {
      "inputs": [
        {
          "internalType": "bytes32",
          "name": "",
          "type": "bytes32"
        },
        {
          "internalType": "address",
          "name": "",
          "type": "address"
        }
      ],
      "name": "hasUpVoted",
      "outputs": [
        {
          "internalType": "bool",
          "name": "",
          "type": "bool"
        }
      ],
      "stateMutability": "view",
      "type": "function",
      "constant": true
    },
    {
      "inputs": [
        {
          "internalType": "string",
          "name": "_author",
          "type": "string"
        },
        {
          "internalType": "string",
          "name": "_title",
          "type": "string"
        },
        {
          "internalType": "string",
          "name": "_contentHash",
          "type": "string"
        }
      ],
      "name": "createPost",
      "outputs": [],
      "stateMutability": "nonpayable",
      "type": "function"
    },
    {
      "inputs": [
        {
          "internalType": "bytes32",
          "name": "_postId",
          "type": "bytes32"
        }
      ],
      "name": "upvotePost",
      "outputs": [],
      "stateMutability": "nonpayable",
      "type": "function"
    },
    {
      "inputs": [
        {
          "internalType": "bytes32",
          "name": "_postId",
          "type": "bytes32"
        }
      ],
      "name": "downvotePost",
      "outputs": [],
      "stateMutability": "nonpayable",
      "type": "function"
    },
    {
      "inputs": [
        {
          "internalType": "bytes32",
          "name": "_postId",
          "type": "bytes32"
        },
        {
          "internalType": "string",
          "name": "_commenterName",
          "type": "string"
        },
        {
          "internalType": "string",
          "name": "_content",
          "type": "string"
        }
      ],
      "name": "addComment",
      "outputs": [],
      "stateMutability": "nonpayable",
      "type": "function"
    },
    {
      "inputs": [
        {
          "internalType": "bytes32",
          "name": "_postId",
          "type": "bytes32"
        },
        {
          "internalType": "uint256",
          "name": "_commentIndex",
          "type": "uint256"
        }
      ],
      "name": "upvoteComment",
      "outputs": [],
      "stateMutability": "nonpayable",
      "type": "function"
    },
    {
      "inputs": [
        {
          "internalType": "bytes32",
          "name": "_postId",
          "type": "bytes32"
        },
        {
          "internalType": "uint256",
          "name": "_commentIndex",
          "type": "uint256"
        }
      ],
      "name": "downvoteComment",
      "outputs": [],
      "stateMutability": "nonpayable",
      "type": "function"
    },
    {
      "inputs": [],
      "name": "getAllPosts",
      "outputs": [
        {
          "components": [
            {
              "internalType": "bytes32",
              "name": "id",
              "type": "bytes32"
            },
            {
              "internalType": "string",
              "name": "author",
              "type": "string"
            },
            {
              "internalType": "string",
              "name": "title",
              "type": "string"
            },
            {
              "internalType": "string",
              "name": "contentHash",
              "type": "string"
            },
            {
              "internalType": "uint256",
              "name": "upvote",
              "type": "uint256"
            },
            {
              "internalType": "uint256",
              "name": "downvote",
              "type": "uint256"
            },
            {
              "internalType": "uint256",
              "name": "timestamp",
              "type": "uint256"
            }
          ],
          "internalType": "struct MyblogApp.Post[]",
          "name": "",
          "type": "tuple[]"
        }
      ],
      "stateMutability": "view",
      "type": "function",
      "constant": true
    },
    {
      "inputs": [
        {
          "internalType": "address",
          "name": "_user",
          "type": "address"
        }
      ],
      "name": "getAllPostsOfUser",
      "outputs": [
        {
          "components": [
            {
              "internalType": "bytes32",
              "name": "id",
              "type": "bytes32"
            },
            {
              "internalType": "string",
              "name": "author",
              "type": "string"
            },
            {
              "internalType": "string",
              "name": "title",
              "type": "string"
            },
            {
              "internalType": "string",
              "name": "contentHash",
              "type": "string"
            },
            {
              "internalType": "uint256",
              "name": "upvote",
              "type": "uint256"
            },
            {
              "internalType": "uint256",
              "name": "downvote",
              "type": "uint256"
            },
            {
              "internalType": "uint256",
              "name": "timestamp",
              "type": "uint256"
            }
          ],
          "internalType": "struct MyblogApp.Post[]",
          "name": "",
          "type": "tuple[]"
        }
      ],
      "stateMutability": "view",
      "type": "function",
      "constant": true
    },
    {
      "inputs": [
        {
          "internalType": "bytes32",
          "name": "_postId",
          "type": "bytes32"
        }
      ],
      "name": "getPostById",
      "outputs": [
        {
          "internalType": "bytes32",
          "name": "id",
          "type": "bytes32"
        },
        {
          "internalType": "string",
          "name": "author",
          "type": "string"
        },
        {
          "internalType": "string",
          "name": "title",
          "type": "string"
        },
        {
          "internalType": "string",
          "name": "contentHash",
          "type": "string"
        },
        {
          "internalType": "uint256",
          "name": "upvote",
          "type": "uint256"
        },
        {
          "internalType": "uint256",
          "name": "downvote",
          "type": "uint256"
        },
        {
          "internalType": "uint256",
          "name": "timestamp",
          "type": "uint256"
        }
      ],
      "stateMutability": "view",
      "type": "function",
      "constant": true
    },
    {
      "inputs": [
        {
          "internalType": "bytes32",
          "name": "_postId",
          "type": "bytes32"
        }
      ],
      "name": "getComments",
      "outputs": [
        {
          "components": [
            {
              "internalType": "bytes32",
              "name": "id",
              "type": "bytes32"
            },
            {
              "internalType": "address",
              "name": "commenterAddress",
              "type": "address"
            },
            {
              "internalType": "string",
              "name": "commenterName",
              "type": "string"
            },
            {
              "internalType": "string",
              "name": "content",
              "type": "string"
            },
            {
              "internalType": "uint256",
              "name": "upvote",
              "type": "uint256"
            },
            {
              "internalType": "uint256",
              "name": "downvote",
              "type": "uint256"
            },
            {
              "internalType": "uint256",
              "name": "timestamp",
              "type": "uint256"
            }
          ],
          "internalType": "struct MyblogApp.Comment[]",
          "name": "",
          "type": "tuple[]"
        }
      ],
      "stateMutability": "view",
      "type": "function",
      "constant": true
    }
  ],
  "bytecode": "0x6080604052348015600f57600080fd5b50612c078061001f6000396000f3fe608060405234801561001057600080fd5b50600436106100b45760003560e01c8063ae362ff911610071578063ae362ff91461018b578063b28ad613146101c1578063cdb1d17e146101f1578063e2fc26911461020d578063e8a4a1eb14610229578063f7ba787d14610245576100b4565b806320e46ea5146100b95780632cfdcc6b146100e95780633056110014610119578063a54ff9ac14610137578063a6c86b5b14610153578063a7503db21461016f575b600080fd5b6100d360048036038101906100ce9190611afa565b610275565b6040516100e09190611b55565b60405180910390f35b61010360048036038101906100fe9190611b70565b6102a4565b6040516101109190611dc1565b60405180910390f35b6101216105e9565b60405161012e9190611dc1565b60405180910390f35b610151600480360381019061014c9190611de3565b6108a3565b005b61016d60048036038101906101689190611e3c565b610a84565b005b61018960048036038101906101849190611fb1565b610cc7565b005b6101a560048036038101906101a09190611de3565b610f05565b6040516101b897969594939291906120a4565b60405180910390f35b6101db60048036038101906101d69190611afa565b6111a9565b6040516101e89190611b55565b60405180910390f35b61020b60048036038101906102069190611e3c565b6111d8565b005b61022760048036038101906102229190611de3565b61141b565b005b610243600480360381019061023e9190612128565b6115fc565b005b61025f600480360381019061025a9190611de3565b6117fe565b60405161026c9190612343565b60405180910390f35b60056020528160005260406000206020528060005260406000206000915091509054906101000a900460ff1681565b60606000600160008473ffffffffffffffffffffffffffffffffffffffff1673ffffffffffffffffffffffffffffffffffffffff16815260200190815260200160002080548060200260200160405190810160405280929190818152602001828054801561033157602002820191906000526020600020905b81548152602001906001019080831161031d575b505050505090506000815167ffffffffffffffff81111561035557610354611e86565b5b60405190808252806020026020018201604052801561038e57816020015b61037b611a12565b8152602001906001900390816103735790505b50905060005b82518110156105de57600260008483815181106103b4576103b3612365565b5b602002602001015181526020019081526020016000206040518060e0016040529081600082015481526020016001820180546103ef906123c3565b80601f016020809104026020016040519081016040528092919081815260200182805461041b906123c3565b80156104685780601f1061043d57610100808354040283529160200191610468565b820191906000526020600020905b81548152906001019060200180831161044b57829003601f168201915b50505050508152602001600282018054610481906123c3565b80601f01602080910402602001604051908101604052809291908181526020018280546104ad906123c3565b80156104fa5780601f106104cf576101008083540402835291602001916104fa565b820191906000526020600020905b8154815290600101906020018083116104dd57829003601f168201915b50505050508152602001600382018054610513906123c3565b80601f016020809104026020016040519081016040528092919081815260200182805461053f906123c3565b801561058c5780601f106105615761010080835404028352916020019161058c565b820191906000526020600020905b81548152906001019060200180831161056f57829003601f168201915b5050505050815260200160048201548152602001600582015481526020016006820154815250508282815181106105c6576105c5612365565b5b60200260200101819052508080600101915050610394565b508092505050919050565b60606000808054905067ffffffffffffffff81111561060b5761060a611e86565b5b60405190808252806020026020018201604052801561064457816020015b610631611a12565b8152602001906001900390816106295790505b50905060005b60008054905081101561089b576002600080838154811061066e5761066d612365565b5b906000526020600020015481526020019081526020016000206040518060e0016040529081600082015481526020016001820180546106ac906123c3565b80601f01602080910402602001604051908101604052809291908181526020018280546106d8906123c3565b80156107255780601f106106fa57610100808354040283529160200191610725565b820191906000526020600020905b81548152906001019060200180831161070857829003601f168201915b5050505050815260200160028201805461073e906123c3565b80601f016020809104026020016040519081016040528092919081815260200182805461076a906123c3565b80156107b75780601f1061078c576101008083540402835291602001916107b7565b820191906000526020600020905b81548152906001019060200180831161079a57829003601f168201915b505050505081526020016003820180546107d0906123c3565b80601f01602080910402602001604051908101604052809291908181526020018280546107fc906123c3565b80156108495780601f1061081e57610100808354040283529160200191610849565b820191906000526020600020905b81548152906001019060200180831161082c57829003601f168201915b50505050508152602001600482015481526020016005820154815260200160068201548152505082828151811061088357610882612365565b5b6020026020010181905250808060010191505061064a565b508091505090565b6000801b6002600083815260200190815260200160002060000154036108fe576040517f08c379a00000000000000000000000000000000000000000000000000000000081526004016108f590612440565b60405180910390fd5b6005600082815260200190815260200160002060003373ffffffffffffffffffffffffffffffffffffffff1673ffffffffffffffffffffffffffffffffffffffff16815260200190815260200160002060009054906101000a900460ff161561099c576040517f08c379a0000000000000000000000000000000000000000000000000000000008152600401610993906124ac565b60405180910390fd5b6002600082815260200190815260200160002060050160008154809291906109c3906124fb565b919050555060016005600083815260200190815260200160002060003373ffffffffffffffffffffffffffffffffffffffff1673ffffffffffffffffffffffffffffffffffffffff16815260200190815260200160002060006101000a81548160ff0219169083151502179055503373ffffffffffffffffffffffffffffffffffffffff16817fa7e4c5082f867ea22a45a95c2043209b9ce83d70ca31ccb947e67592ea14c4b16000604051610a799190611b55565b60405180910390a350565b60036000838152602001908152602001600020805490508110610adc576040517f08c379a0000000000000000000000000000000000000000000000000000000008152600401610ad39061258f565b60405180910390fd5b6006600083815260200190815260200160002060003373ffffffffffffffffffffffffffffffffffffffff1673ffffffffffffffffffffffffffffffffffffffff168152602001908152602001600020600082815260200190815260200160002060009054906101000a900460ff1615610b8b576040517f08c379a0000000000000000000000000000000000000000000000000000000008152600401610b82906125fb565b60405180910390fd5b600360008381526020019081526020016000208181548110610bb057610baf612365565b5b90600052602060002090600702016004016000815480929190610bd2906124fb565b919050555060016006600084815260200190815260200160002060003373ffffffffffffffffffffffffffffffffffffffff1673ffffffffffffffffffffffffffffffffffffffff168152602001908152602001600020600083815260200190815260200160002060006101000a81548160ff021916908315150217905550600360008381526020019081526020016000208181548110610c7657610c75612365565b5b906000526020600020906007020160000154827fa718b91703005c7ff3c85ef47cb2b96b8bf518a0934598a085e074a84ad79ba1336001604051610cbb92919061262a565b60405180910390a35050565b6000801b600260008581526020019081526020016000206000015403610d22576040517f08c379a0000000000000000000000000000000000000000000000000000000008152600401610d1990612440565b60405180910390fd5b602082511115610d67576040517f08c379a0000000000000000000000000000000000000000000000000000000008152600401610d5e9061269f565b60405180910390fd5b6000334283604051602001610d7e93929190612764565b60405160208183030381529060405280519060200120905060006040518060e001604052808381526020013373ffffffffffffffffffffffffffffffffffffffff1681526020018581526020018481526020016000815260200160008152602001428152509050600360008681526020019081526020016000208190806001815401808255809150506001900390600052602060002090600702016000909190919091506000820151816000015560208201518160010160006101000a81548173ffffffffffffffffffffffffffffffffffffffff021916908373ffffffffffffffffffffffffffffffffffffffff1602179055506040820151816002019081610e889190612949565b506060820151816003019081610e9e9190612949565b506080820151816004015560a0820151816005015560c08201518160060155505081857f121f72518586f939bfb34c62bbf7d31b0a8ae8ecbcac0869550705ee4cff80f533878742604051610ef69493929190612a1b565b60405180910390a35050505050565b6000606080606060008060008060001b600260008a81526020019081526020016000206000015403610f6c576040517f08c379a0000000000000000000000000000000000000000000000000000000008152600401610f6390612440565b60405180910390fd5b6000600260008a81526020019081526020016000206040518060e001604052908160008201548152602001600182018054610fa6906123c3565b80601f0160208091040260200160405190810160405280929190818152602001828054610fd2906123c3565b801561101f5780601f10610ff45761010080835404028352916020019161101f565b820191906000526020600020905b81548152906001019060200180831161100257829003601f168201915b50505050508152602001600282018054611038906123c3565b80601f0160208091040260200160405190810160405280929190818152602001828054611064906123c3565b80156110b15780601f10611086576101008083540402835291602001916110b1565b820191906000526020600020905b81548152906001019060200180831161109457829003601f168201915b505050505081526020016003820180546110ca906123c3565b80601f01602080910402602001604051908101604052809291908181526020018280546110f6906123c3565b80156111435780601f1061111857610100808354040283529160200191611143565b820191906000526020600020905b81548152906001019060200180831161112657829003601f168201915b5050505050815260200160048201548152602001600582015481526020016006820154815250509050806000015181602001518260400151836060015184608001518560a001518660c00151975097509750975097509750975050919395979092949650565b60046020528160005260406000206020528060005260406000206000915091509054906101000a900460ff1681565b60036000838152602001908152602001600020805490508110611230576040517f08c379a00000000000000000000000000000000000000000000000000000000081526004016112279061258f565b60405180910390fd5b6007600083815260200190815260200160002060003373ffffffffffffffffffffffffffffffffffffffff1673ffffffffffffffffffffffffffffffffffffffff168152602001908152602001600020600082815260200190815260200160002060009054906101000a900460ff16156112df576040517f08c379a00000000000000000000000000000000000000000000000000000000081526004016112d6906125fb565b60405180910390fd5b60036000838152602001908152602001600020818154811061130457611303612365565b5b90600052602060002090600702016005016000815480929190611326906124fb565b919050555060016007600084815260200190815260200160002060003373ffffffffffffffffffffffffffffffffffffffff1673ffffffffffffffffffffffffffffffffffffffff168152602001908152602001600020600083815260200190815260200160002060006101000a81548160ff0219169083151502179055506003600083815260200190815260200160002081815481106113ca576113c9612365565b5b906000526020600020906007020160000154827fa718b91703005c7ff3c85ef47cb2b96b8bf518a0934598a085e074a84ad79ba133600060405161140f92919061262a565b60405180910390a35050565b6000801b600260008381526020019081526020016000206000015403611476576040517f08c379a000000000000000000000000000000000000000000000000000000000815260040161146d90612440565b60405180910390fd5b6004600082815260200190815260200160002060003373ffffffffffffffffffffffffffffffffffffffff1673ffffffffffffffffffffffffffffffffffffffff16815260200190815260200160002060009054906101000a900460ff1615611514576040517f08c379a000000000000000000000000000000000000000000000000000000000815260040161150b90612aba565b60405180910390fd5b60026000828152602001908152602001600020600401600081548092919061153b906124fb565b919050555060016004600083815260200190815260200160002060003373ffffffffffffffffffffffffffffffffffffffff1673ffffffffffffffffffffffffffffffffffffffff16815260200190815260200160002060006101000a81548160ff0219169083151502179055503373ffffffffffffffffffffffffffffffffffffffff16817fa7e4c5082f867ea22a45a95c2043209b9ce83d70ca31ccb947e67592ea14c4b160016040516115f19190611b55565b60405180910390a350565b602083511115611641576040517f08c379a000000000000000000000000000000000000000000000000000000000815260040161163890612b26565b60405180910390fd5b60003342848460405160200161165a9493929190612b46565b60405160208183030381529060405280519060200120905060006040518060e0016040528083815260200186815260200185815260200184815260200160008152602001600081526020014281525090506000829080600181540180825580915050600190039060005260206000200160009091909190915055600160003373ffffffffffffffffffffffffffffffffffffffff1673ffffffffffffffffffffffffffffffffffffffff168152602001908152602001600020829080600181540180825580915050600190039060005260206000200160009091909190915055806002600084815260200190815260200160002060008201518160000155602082015181600101908161176d9190612949565b5060408201518160020190816117839190612949565b5060608201518160030190816117999190612949565b506080820151816004015560a0820151816005015560c08201518160060155905050817f17f34748f078a06d3c7c034ef1cdf60a8b2baf4592df676d3a2ae61596619f988587426040516117ef93929190612b8c565b60405180910390a25050505050565b606060036000838152602001908152602001600020805480602002602001604051908101604052809291908181526020016000905b82821015611a0757838290600052602060002090600702016040518060e0016040529081600082015481526020016001820160009054906101000a900473ffffffffffffffffffffffffffffffffffffffff1673ffffffffffffffffffffffffffffffffffffffff1673ffffffffffffffffffffffffffffffffffffffff1681526020016002820180546118c6906123c3565b80601f01602080910402602001604051908101604052809291908181526020018280546118f2906123c3565b801561193f5780601f106119145761010080835404028352916020019161193f565b820191906000526020600020905b81548152906001019060200180831161192257829003601f168201915b50505050508152602001600382018054611958906123c3565b80601f0160208091040260200160405190810160405280929190818152602001828054611984906123c3565b80156119d15780601f106119a6576101008083540402835291602001916119d1565b820191906000526020600020905b8154815290600101906020018083116119b457829003601f168201915b50505050508152602001600482015481526020016005820154815260200160068201548152505081526020019060010190611833565b505050509050919050565b6040518060e00160405280600080191681526020016060815260200160608152602001606081526020016000815260200160008152602001600081525090565b6000604051905090565b600080fd5b600080fd5b6000819050919050565b611a7981611a66565b8114611a8457600080fd5b50565b600081359050611a9681611a70565b92915050565b600073ffffffffffffffffffffffffffffffffffffffff82169050919050565b6000611ac782611a9c565b9050919050565b611ad781611abc565b8114611ae257600080fd5b50565b600081359050611af481611ace565b92915050565b60008060408385031215611b1157611b10611a5c565b5b6000611b1f85828601611a87565b9250506020611b3085828601611ae5565b9150509250929050565b60008115159050919050565b611b4f81611b3a565b82525050565b6000602082019050611b6a6000830184611b46565b92915050565b600060208284031215611b8657611b85611a5c565b5b6000611b9484828501611ae5565b91505092915050565b600081519050919050565b600082825260208201905092915050565b6000819050602082019050919050565b611bd281611a66565b82525050565b600081519050919050565b600082825260208201905092915050565b60005b83811015611c12578082015181840152602081019050611bf7565b60008484015250505050565b6000601f19601f8301169050919050565b6000611c3a82611bd8565b611c448185611be3565b9350611c54818560208601611bf4565b611c5d81611c1e565b840191505092915050565b6000819050919050565b611c7b81611c68565b82525050565b600060e083016000830151611c996000860182611bc9565b5060208301518482036020860152611cb18282611c2f565b91505060408301518482036040860152611ccb8282611c2f565b91505060608301518482036060860152611ce58282611c2f565b9150506080830151611cfa6080860182611c72565b5060a0830151611d0d60a0860182611c72565b5060c0830151611d2060c0860182611c72565b508091505092915050565b6000611d378383611c81565b905092915050565b6000602082019050919050565b6000611d5782611b9d565b611d618185611ba8565b935083602082028501611d7385611bb9565b8060005b85811015611daf5784840389528151611d908582611d2b565b9450611d9b83611d3f565b925060208a01995050600181019050611d77565b50829750879550505050505092915050565b60006020820190508181036000830152611ddb8184611d4c565b905092915050565b600060208284031215611df957611df8611a5c565b5b6000611e0784828501611a87565b91505092915050565b611e1981611c68565b8114611e2457600080fd5b50565b600081359050611e3681611e10565b92915050565b60008060408385031215611e5357611e52611a5c565b5b6000611e6185828601611a87565b9250506020611e7285828601611e27565b9150509250929050565b600080fd5b600080fd5b7f4e487b7100000000000000000000000000000000000000000000000000000000600052604160045260246000fd5b611ebe82611c1e565b810181811067ffffffffffffffff82111715611edd57611edc611e86565b5b80604052505050565b6000611ef0611a52565b9050611efc8282611eb5565b919050565b600067ffffffffffffffff821115611f1c57611f1b611e86565b5b611f2582611c1e565b9050602081019050919050565b82818337600083830152505050565b6000611f54611f4f84611f01565b611ee6565b905082815260208101848484011115611f7057611f6f611e81565b5b611f7b848285611f32565b509392505050565b600082601f830112611f9857611f97611e7c565b5b8135611fa8848260208601611f41565b91505092915050565b600080600060608486031215611fca57611fc9611a5c565b5b6000611fd886828701611a87565b935050602084013567ffffffffffffffff811115611ff957611ff8611a61565b5b61200586828701611f83565b925050604084013567ffffffffffffffff81111561202657612025611a61565b5b61203286828701611f83565b9150509250925092565b61204581611a66565b82525050565b600082825260208201905092915050565b600061206782611bd8565b612071818561204b565b9350612081818560208601611bf4565b61208a81611c1e565b840191505092915050565b61209e81611c68565b82525050565b600060e0820190506120b9600083018a61203c565b81810360208301526120cb818961205c565b905081810360408301526120df818861205c565b905081810360608301526120f3818761205c565b90506121026080830186612095565b61210f60a0830185612095565b61211c60c0830184612095565b98975050505050505050565b60008060006060848603121561214157612140611a5c565b5b600084013567ffffffffffffffff81111561215f5761215e611a61565b5b61216b86828701611f83565b935050602084013567ffffffffffffffff81111561218c5761218b611a61565b5b61219886828701611f83565b925050604084013567ffffffffffffffff8111156121b9576121b8611a61565b5b6121c586828701611f83565b9150509250925092565b600081519050919050565b600082825260208201905092915050565b6000819050602082019050919050565b61220481611abc565b82525050565b600060e0830160008301516122226000860182611bc9565b50602083015161223560208601826121fb565b506040830151848203604086015261224d8282611c2f565b915050606083015184820360608601526122678282611c2f565b915050608083015161227c6080860182611c72565b5060a083015161228f60a0860182611c72565b5060c08301516122a260c0860182611c72565b508091505092915050565b60006122b9838361220a565b905092915050565b6000602082019050919050565b60006122d9826121cf565b6122e381856121da565b9350836020820285016122f5856121eb565b8060005b85811015612331578484038952815161231285826122ad565b945061231d836122c1565b925060208a019950506001810190506122f9565b50829750879550505050505092915050565b6000602082019050818103600083015261235d81846122ce565b905092915050565b7f4e487b7100000000000000000000000000000000000000000000000000000000600052603260045260246000fd5b7f4e487b7100000000000000000000000000000000000000000000000000000000600052602260045260246000fd5b600060028204905060018216806123db57607f821691505b6020821081036123ee576123ed612394565b5b50919050565b7f506f737420646f6573206e6f742065786973742e000000000000000000000000600082015250565b600061242a60148361204b565b9150612435826123f4565b602082019050919050565b600060208201905081810360008301526124598161241d565b9050919050565b7f416c726561647920646f776e20766f746564206f6e207468697320706f73742e600082015250565b600061249660208361204b565b91506124a182612460565b602082019050919050565b600060208201905081810360008301526124c581612489565b9050919050565b7f4e487b7100000000000000000000000000000000000000000000000000000000600052601160045260246000fd5b600061250682611c68565b91507fffffffffffffffffffffffffffffffffffffffffffffffffffffffffffffffff8203612538576125376124cc565b5b600182019050919050565b7f436f6d6d656e7420646f6573206e6f7420657869737400000000000000000000600082015250565b600061257960168361204b565b915061258482612543565b602082019050919050565b600060208201905081810360008301526125a88161256c565b9050919050565b7f416c726561647920766f746564206f6e207468697320636f6d6d656e74000000600082015250565b60006125e5601d8361204b565b91506125f0826125af565b602082019050919050565b60006020820190508181036000830152612614816125d8565b9050919050565b61262481611abc565b82525050565b600060408201905061263f600083018561261b565b61264c6020830184611b46565b9392505050565b7f436f6d6d656e746572206e616d6520746f6f206c6f6e67000000000000000000600082015250565b600061268960178361204b565b915061269482612653565b602082019050919050565b600060208201905081810360008301526126b88161267c565b9050919050565b60008160601b9050919050565b60006126d7826126bf565b9050919050565b60006126e9826126cc565b9050919050565b6127016126fc82611abc565b6126de565b82525050565b6000819050919050565b61272261271d82611c68565b612707565b82525050565b600081905092915050565b600061273e82611bd8565b6127488185612728565b9350612758818560208601611bf4565b80840191505092915050565b600061277082866126f0565b6014820191506127808285612711565b6020820191506127908284612733565b9150819050949350505050565b60008190508160005260206000209050919050565b60006020601f8301049050919050565b600082821b905092915050565b6000600883026127ff7fffffffffffffffffffffffffffffffffffffffffffffffffffffffffffffffff826127c2565b61280986836127c2565b95508019841693508086168417925050509392505050565b6000819050919050565b600061284661284161283c84611c68565b612821565b611c68565b9050919050565b6000819050919050565b6128608361282b565b61287461286c8261284d565b8484546127cf565b825550505050565b600090565b61288961287c565b612894818484612857565b505050565b5b818110156128b8576128ad600082612881565b60018101905061289a565b5050565b601f8211156128fd576128ce8161279d565b6128d7846127b2565b810160208510156128e6578190505b6128fa6128f2856127b2565b830182612899565b50505b505050565b600082821c905092915050565b600061292060001984600802612902565b1980831691505092915050565b6000612939838361290f565b9150826002028217905092915050565b61295282611bd8565b67ffffffffffffffff81111561296b5761296a611e86565b5b61297582546123c3565b6129808282856128bc565b600060209050601f8311600181146129b357600084156129a1578287015190505b6129ab858261292d565b865550612a13565b601f1984166129c18661279d565b60005b828110156129e9578489015182556001820191506020850194506020810190506129c4565b86831015612a065784890151612a02601f89168261290f565b8355505b6001600288020188555050505b505050505050565b6000608082019050612a30600083018761261b565b8181036020830152612a42818661205c565b90508181036040830152612a56818561205c565b9050612a656060830184612095565b95945050505050565b7f416c726561647920757020766f746564206f6e207468697320706f73742e0000600082015250565b6000612aa4601e8361204b565b9150612aaf82612a6e565b602082019050919050565b60006020820190508181036000830152612ad381612a97565b9050919050565b7f417574686f72206e616d6520746f6f206c6f6e67000000000000000000000000600082015250565b6000612b1060148361204b565b9150612b1b82612ada565b602082019050919050565b60006020820190508181036000830152612b3f81612b03565b9050919050565b6000612b5282876126f0565b601482019150612b628286612711565b602082019150612b728285612733565b9150612b7e8284612733565b915081905095945050505050565b60006060820190508181036000830152612ba6818661205c565b90508181036020830152612bba818561205c565b9050612bc96040830184612095565b94935050505056fea26469706673582212202620dca621a3e56b0e7f1db180e80b254281c4b28f0605fd4ec8b4930b542d4264736f6c634300081e0033",
  "immutableReferences": {},
  "source": "// SPDX-License-Identifier: MIT\r\npragma solidity >=0.8.2 <0.9.0;\r\n\r\ncontract MyblogApp {\r\n    struct Post {\r\n        bytes32 id;\r\n        string author;      // Name of the author\r\n        string title;\r\n        string contentHash; // IPFS hash\r\n        uint256 upvote;\r\n        uint256 downvote;\r\n        uint256 timestamp;\r\n    }\r\n\r\n    struct Comment {\r\n        bytes32 id;\r\n        address commenterAddress;\r\n        string commenterName; // Name of the commenter\r\n        string content;\r\n        uint256 upvote;\r\n        uint256 downvote;\r\n        uint256 timestamp;\r\n    }\r\n\r\n    // Post storage\r\n    bytes32[] private allPostsIds;\r\n    mapping(address => bytes32[]) private userPosts;\r\n    mapping(bytes32 => Post) private posts;\r\n\r\n    // Comment storage\r\n    mapping(bytes32 => Comment[]) private postComments; // postId => array of comments\r\n    mapping(bytes32 => mapping(address => bool)) public hasUpVoted; // post votes for upvotes\r\n    mapping(bytes32 => mapping(address => bool)) public hasDownVoted; // post votes for downvotes\r\n    mapping(bytes32 => mapping(address => mapping(uint => bool))) private hasUpVotedComment; // comment votes for up votes\r\n    mapping(bytes32 => mapping(address => mapping(uint => bool))) private hasDownVotedComment; // comment votes for down votes\r\n\r\n    // Events\r\n    event Postcreation(bytes32 indexed postId, string title, string author, uint256 timestamp);\r\n    event PostVoted(bytes32 indexed postId, address indexed voter, bool isUpvote);\r\n    event CommentAdded(bytes32 indexed postId, bytes32 indexed commentId, address commenterAddress, string commenterName, string content, uint256 timestamp);\r\n    event CommentVoted(bytes32 indexed postId, bytes32 indexed commentId, address voter, bool isUpvote);\r\n\r\n    // Create a new post\r\n    function createPost(string memory _author, string memory _title, string memory _contentHash) public {\r\n        require(bytes(_author).length <= 32, \"Author name too long\");\r\n\r\n        bytes32 _id = keccak256(abi.encodePacked(msg.sender, block.timestamp, _title, _contentHash));\r\n        Post memory newpost = Post({\r\n            id: _id,\r\n            author: _author,\r\n            title: _title,\r\n            contentHash: _contentHash,\r\n            upvote: 0,\r\n            downvote: 0,\r\n            timestamp: block.timestamp\r\n        });\r\n\r\n        allPostsIds.push(_id);\r\n        userPosts[msg.sender].push(_id);\r\n        posts[_id] = newpost;\r\n\r\n        emit Postcreation(_id, _title, _author, block.timestamp);\r\n    }\r\n\r\n    // Upvote/Downvote post\r\n    function upvotePost(bytes32 _postId) public {\r\n        require(posts[_postId].id != bytes32(0), \"Post does not exist.\");\r\n        require(!hasUpVoted[_postId][msg.sender], \"Already up voted on this post.\");\r\n        posts[_postId].upvote++;\r\n        hasUpVoted[_postId][msg.sender] = true;\r\n        emit PostVoted(_postId, msg.sender, true);\r\n    }\r\n\r\n    function downvotePost(bytes32 _postId) public {\r\n        require(posts[_postId].id != bytes32(0), \"Post does not exist.\");\r\n        require(!hasDownVoted[_postId][msg.sender], \"Already down voted on this post.\");\r\n        posts[_postId].downvote++;\r\n        hasDownVoted[_postId][msg.sender] = true;\r\n        emit PostVoted(_postId, msg.sender, false);\r\n    }\r\n\r\n    // Add comment to post\r\n    function addComment(bytes32 _postId, string memory _commenterName, string memory _content) public {\r\n        require(posts[_postId].id != bytes32(0), \"Post does not exist.\");\r\n        require(bytes(_commenterName).length <= 32, \"Commenter name too long\");\r\n\r\n        bytes32 commentId = keccak256(abi.encodePacked(msg.sender, block.timestamp, _content));\r\n        Comment memory newComment = Comment({\r\n            id: commentId,\r\n            commenterAddress: msg.sender,\r\n            commenterName: _commenterName,\r\n            content: _content,\r\n            upvote: 0,\r\n            downvote: 0,\r\n            timestamp: block.timestamp\r\n        });\r\n\r\n        postComments[_postId].push(newComment);\r\n\r\n        emit CommentAdded(_postId, commentId, msg.sender, _commenterName, _content, block.timestamp);\r\n    }\r\n\r\n    // Upvote/Downvote comment\r\n    function upvoteComment(bytes32 _postId, uint _commentIndex) public {\r\n        require(_commentIndex < postComments[_postId].length, \"Comment does not exist\");\r\n        require(!hasUpVotedComment[_postId][msg.sender][_commentIndex], \"Already voted on this comment\");\r\n\r\n        postComments[_postId][_commentIndex].upvote++;\r\n        hasUpVotedComment[_postId][msg.sender][_commentIndex] = true;\r\n\r\n        emit CommentVoted(_postId, postComments[_postId][_commentIndex].id, msg.sender, true);\r\n    }\r\n\r\n    function downvoteComment(bytes32 _postId, uint _commentIndex) public {\r\n        require(_commentIndex < postComments[_postId].length, \"Comment does not exist\");\r\n        require(!hasDownVotedComment[_postId][msg.sender][_commentIndex], \"Already voted on this comment\");\r\n\r\n        postComments[_postId][_commentIndex].downvote++;\r\n        hasDownVotedComment[_postId][msg.sender][_commentIndex] = true;\r\n\r\n        emit CommentVoted(_postId, postComments[_postId][_commentIndex].id, msg.sender, false);\r\n    }\r\n\r\n    // Fetch posts\r\n    function getAllPosts() public view returns(Post[] memory) {\r\n        Post[] memory allPosts = new Post[](allPostsIds.length);\r\n        for(uint i = 0; i < allPostsIds.length; i++) {\r\n            allPosts[i] = posts[allPostsIds[i]];\r\n        }\r\n        return allPosts;\r\n    }\r\n\r\n    function getAllPostsOfUser(address _user) public view returns(Post[] memory) {\r\n        bytes32[] memory userPostIds = userPosts[_user];\r\n        Post[] memory allPosts = new Post[](userPostIds.length);\r\n        for (uint i = 0; i < userPostIds.length; i++) {\r\n            allPosts[i] = posts[userPostIds[i]];\r\n        }\r\n        return allPosts;\r\n    }\r\n\r\n    // NEW: Fetch a single post by ID\r\n    function getPostById(bytes32 _postId) public view returns (\r\n        bytes32 id,\r\n        string memory author,\r\n        string memory title,\r\n        string memory contentHash,\r\n        uint256 upvote,\r\n        uint256 downvote,\r\n        uint256 timestamp\r\n    ) {\r\n        require(posts[_postId].id != bytes32(0), \"Post does not exist.\");\r\n        Post memory p = posts[_postId];\r\n        return (p.id, p.author, p.title, p.contentHash, p.upvote, p.downvote, p.timestamp);\r\n    }\r\n\r\n    // Fetch comments of a post\r\n    function getComments(bytes32 _postId) public view returns(Comment[] memory) {\r\n        return postComments[_postId];\r\n    }\r\n}",
  "sourcePath": "C:\\Users\\hp\\OneDrive\\Desktop\\Projects\\D_BloggingApp\\blockchain\\contracts\\MyblogApp.sol",
  "compiler": {
    "name": "solc",
    "version": "0.8.30+commit.73712a01.Emscripten.clang"
  },
  "schemaVersion": "3.4.16",
  "updatedAt": "2025-12-05T07:29:36.037Z",
  "networkType": "ethereum",
  "devdoc": {
    "kind": "dev",
    "methods": {},
    "version": 1
  },
  "userdoc": {
    "kind": "user",
    "methods": {},
    "version": 1
  }
}