{
  "contractName": "MyblogApp",
  "abi": [
    {
      "anonymous": false,
      "inputs": [
        {
          "indexed": true,
          "internalType": "bytes32",
          "name": "postId",
          "type": "bytes32"
        },
        {
          "indexed": true,
          "internalType": "bytes32",
          "name": "commentId",
          "type": "bytes32"
        },
        {
          "indexed": false,
          "internalType": "address",
          "name": "commenterAddress",
          "type": "address"
        },
        {
          "indexed": false,
          "internalType": "string",
          "name": "commenterName",
          "type": "string"
        },
        {
          "indexed": false,
          "internalType": "string",
          "name": "content",
          "type": "string"
        },
        {
          "indexed": false,
          "internalType": "uint256",
          "name": "timestamp",
          "type": "uint256"
        }
      ],
      "name": "CommentAdded",
      "type": "event"
    },
    {
      "anonymous": false,
      "inputs": [
        {
          "indexed": true,
          "internalType": "bytes32",
          "name": "postId",
          "type": "bytes32"
        },
        {
          "indexed": true,
          "internalType": "bytes32",
          "name": "commentId",
          "type": "bytes32"
        },
        {
          "indexed": false,
          "internalType": "address",
          "name": "voter",
          "type": "address"
        },
        {
          "indexed": false,
          "internalType": "bool",
          "name": "isUpvote",
          "type": "bool"
        }
      ],
      "name": "CommentVoted",
      "type": "event"
    },
    {
      "anonymous": false,
      "inputs": [
        {
          "indexed": true,
          "internalType": "bytes32",
          "name": "postId",
          "type": "bytes32"
        },
        {
          "indexed": true,
          "internalType": "address",
          "name": "voter",
          "type": "address"
        },
        {
          "indexed": false,
          "internalType": "bool",
          "name": "isUpvote",
          "type": "bool"
        }
      ],
      "name": "PostVoted",
      "type": "event"
    },
    {
      "anonymous": false,
      "inputs": [
        {
          "indexed": true,
          "internalType": "bytes32",
          "name": "postId",
          "type": "bytes32"
        },
        {
          "indexed": false,
          "internalType": "string",
          "name": "title",
          "type": "string"
        },
        {
          "indexed": false,
          "internalType": "string",
          "name": "author",
          "type": "string"
        },
        {
          "indexed": false,
          "internalType": "uint256",
          "name": "timestamp",
          "type": "uint256"
        }
      ],
      "name": "Postcreation",
      "type": "event"
    },
    {
      "inputs": [
        {
          "internalType": "bytes32",
          "name": "",
          "type": "bytes32"
        },
        {
          "internalType": "address",
          "name": "",
          "type": "address"
        }
      ],
      "name": "hasDownVoted",
      "outputs": [
        {
          "internalType": "bool",
          "name": "",
          "type": "bool"
        }
      ],
      "stateMutability": "view",
      "type": "function",
      "constant": true
    },
    {
      "inputs": [
        {
          "internalType": "bytes32",
          "name": "",
          "type": "bytes32"
        },
        {
          "internalType": "address",
          "name": "",
          "type": "address"
        }
      ],
      "name": "hasUpVoted",
      "outputs": [
        {
          "internalType": "bool",
          "name": "",
          "type": "bool"
        }
      ],
      "stateMutability": "view",
      "type": "function",
      "constant": true
    },
    {
      "inputs": [
        {
          "internalType": "string",
          "name": "_author",
          "type": "string"
        },
        {
          "internalType": "string",
          "name": "_title",
          "type": "string"
        },
        {
          "internalType": "string",
          "name": "_contentHash",
          "type": "string"
        }
      ],
      "name": "createPost",
      "outputs": [],
      "stateMutability": "nonpayable",
      "type": "function"
    },
    {
      "inputs": [
        {
          "internalType": "bytes32",
          "name": "_postId",
          "type": "bytes32"
        }
      ],
      "name": "upvotePost",
      "outputs": [],
      "stateMutability": "nonpayable",
      "type": "function"
    },
    {
      "inputs": [
        {
          "internalType": "bytes32",
          "name": "_postId",
          "type": "bytes32"
        }
      ],
      "name": "downvotePost",
      "outputs": [],
      "stateMutability": "nonpayable",
      "type": "function"
    },
    {
      "inputs": [
        {
          "internalType": "bytes32",
          "name": "_postId",
          "type": "bytes32"
        },
        {
          "internalType": "string",
          "name": "_commenterName",
          "type": "string"
        },
        {
          "internalType": "string",
          "name": "_content",
          "type": "string"
        }
      ],
      "name": "addComment",
      "outputs": [],
      "stateMutability": "nonpayable",
      "type": "function"
    },
    {
      "inputs": [
        {
          "internalType": "bytes32",
          "name": "_postId",
          "type": "bytes32"
        },
        {
          "internalType": "bytes32",
          "name": "_commentId",
          "type": "bytes32"
        }
      ],
      "name": "upvoteComment",
      "outputs": [],
      "stateMutability": "nonpayable",
      "type": "function"
    },
    {
      "inputs": [
        {
          "internalType": "bytes32",
          "name": "_postId",
          "type": "bytes32"
        },
        {
          "internalType": "bytes32",
          "name": "_commentId",
          "type": "bytes32"
        }
      ],
      "name": "downvoteComment",
      "outputs": [],
      "stateMutability": "nonpayable",
      "type": "function"
    },
    {
      "inputs": [],
      "name": "getAllPosts",
      "outputs": [
        {
          "components": [
            {
              "internalType": "bytes32",
              "name": "id",
              "type": "bytes32"
            },
            {
              "internalType": "string",
              "name": "author",
              "type": "string"
            },
            {
              "internalType": "string",
              "name": "title",
              "type": "string"
            },
            {
              "internalType": "string",
              "name": "contentHash",
              "type": "string"
            },
            {
              "internalType": "uint256",
              "name": "upvote",
              "type": "uint256"
            },
            {
              "internalType": "uint256",
              "name": "downvote",
              "type": "uint256"
            },
            {
              "internalType": "uint256",
              "name": "timestamp",
              "type": "uint256"
            }
          ],
          "internalType": "struct MyblogApp.Post[]",
          "name": "",
          "type": "tuple[]"
        }
      ],
      "stateMutability": "view",
      "type": "function",
      "constant": true
    },
    {
      "inputs": [
        {
          "internalType": "address",
          "name": "_user",
          "type": "address"
        }
      ],
      "name": "getAllPostsOfUser",
      "outputs": [
        {
          "components": [
            {
              "internalType": "bytes32",
              "name": "id",
              "type": "bytes32"
            },
            {
              "internalType": "string",
              "name": "author",
              "type": "string"
            },
            {
              "internalType": "string",
              "name": "title",
              "type": "string"
            },
            {
              "internalType": "string",
              "name": "contentHash",
              "type": "string"
            },
            {
              "internalType": "uint256",
              "name": "upvote",
              "type": "uint256"
            },
            {
              "internalType": "uint256",
              "name": "downvote",
              "type": "uint256"
            },
            {
              "internalType": "uint256",
              "name": "timestamp",
              "type": "uint256"
            }
          ],
          "internalType": "struct MyblogApp.Post[]",
          "name": "",
          "type": "tuple[]"
        }
      ],
      "stateMutability": "view",
      "type": "function",
      "constant": true
    },
    {
      "inputs": [
        {
          "internalType": "bytes32",
          "name": "_postId",
          "type": "bytes32"
        }
      ],
      "name": "getPostById",
      "outputs": [
        {
          "internalType": "bytes32",
          "name": "id",
          "type": "bytes32"
        },
        {
          "internalType": "string",
          "name": "author",
          "type": "string"
        },
        {
          "internalType": "string",
          "name": "title",
          "type": "string"
        },
        {
          "internalType": "string",
          "name": "contentHash",
          "type": "string"
        },
        {
          "internalType": "uint256",
          "name": "upvote",
          "type": "uint256"
        },
        {
          "internalType": "uint256",
          "name": "downvote",
          "type": "uint256"
        },
        {
          "internalType": "uint256",
          "name": "timestamp",
          "type": "uint256"
        }
      ],
      "stateMutability": "view",
      "type": "function",
      "constant": true
    },
    {
      "inputs": [
        {
          "internalType": "bytes32",
          "name": "_postId",
          "type": "bytes32"
        }
      ],
      "name": "getComments",
      "outputs": [
        {
          "components": [
            {
              "internalType": "bytes32",
              "name": "id",
              "type": "bytes32"
            },
            {
              "internalType": "address",
              "name": "commenterAddress",
              "type": "address"
            },
            {
              "internalType": "string",
              "name": "commenterName",
              "type": "string"
            },
            {
              "internalType": "string",
              "name": "content",
              "type": "string"
            },
            {
              "internalType": "uint256",
              "name": "upvote",
              "type": "uint256"
            },
            {
              "internalType": "uint256",
              "name": "downvote",
              "type": "uint256"
            },
            {
              "internalType": "uint256",
              "name": "timestamp",
              "type": "uint256"
            }
          ],
          "internalType": "struct MyblogApp.Comment[]",
          "name": "",
          "type": "tuple[]"
        }
      ],
      "stateMutability": "view",
      "type": "function",
      "constant": true
    },
    {
      "inputs": [
        {
          "internalType": "address",
          "name": "_user",
          "type": "address"
        }
      ],
      "name": "getCommentsByUser",
      "outputs": [
        {
          "components": [
            {
              "internalType": "bytes32",
              "name": "id",
              "type": "bytes32"
            },
            {
              "internalType": "address",
              "name": "commenterAddress",
              "type": "address"
            },
            {
              "internalType": "string",
              "name": "commenterName",
              "type": "string"
            },
            {
              "internalType": "string",
              "name": "content",
              "type": "string"
            },
            {
              "internalType": "uint256",
              "name": "upvote",
              "type": "uint256"
            },
            {
              "internalType": "uint256",
              "name": "downvote",
              "type": "uint256"
            },
            {
              "internalType": "uint256",
              "name": "timestamp",
              "type": "uint256"
            }
          ],
          "internalType": "struct MyblogApp.Comment[]",
          "name": "",
          "type": "tuple[]"
        }
      ],
      "stateMutability": "view",
      "type": "function",
      "constant": true
    }
  ],
  "bytecode": "0x6080604052348015600f57600080fd5b5061315d8061001f6000396000f3fe608060405234801561001057600080fd5b50600436106100cf5760003560e01c8063a7503db21161008c578063e2fc269111610066578063e2fc26911461023c578063e8a4a1eb14610258578063eee3209514610274578063f7ba787d14610290576100cf565b8063a7503db2146101ba578063ae362ff9146101d6578063b28ad6131461020c576100cf565b806320e46ea5146100d45780632cfdcc6b14610104578063305611001461013457806346305364146101525780639e78b8a61461016e578063a54ff9ac1461019e575b600080fd5b6100ee60048036038101906100e99190612010565b6102c0565b6040516100fb919061206b565b60405180910390f35b61011e60048036038101906101199190612086565b6102ef565b60405161012b91906122d7565b60405180910390f35b61013c610634565b60405161014991906122d7565b60405180910390f35b61016c600480360381019061016791906122f9565b6108ee565b005b61018860048036038101906101839190612086565b610b5b565b60405161019591906124ad565b60405180910390f35b6101b860048036038101906101b391906124cf565b610e64565b005b6101d460048036038101906101cf9190612631565b611045565b005b6101f060048036038101906101eb91906124cf565b61139b565b6040516102039796959493929190612724565b60405180910390f35b61022660048036038101906102219190612010565b61163f565b604051610233919061206b565b60405180910390f35b610256600480360381019061025191906124cf565b61166e565b005b610272600480360381019061026d91906127a8565b61184f565b005b61028e600480360381019061028991906122f9565b611a51565b005b6102aa60048036038101906102a591906124cf565b611cbe565b6040516102b791906124ad565b60405180910390f35b60056020528160005260406000206020528060005260406000206000915091509054906101000a900460ff1681565b60606000600160008473ffffffffffffffffffffffffffffffffffffffff1673ffffffffffffffffffffffffffffffffffffffff16815260200190815260200160002080548060200260200160405190810160405280929190818152602001828054801561037c57602002820191906000526020600020905b815481526020019060010190808311610368575b505050505090506000815167ffffffffffffffff8111156103a05761039f612506565b5b6040519080825280602002602001820160405280156103d957816020015b6103c6611ed2565b8152602001906001900390816103be5790505b50905060005b825181101561062957600260008483815181106103ff576103fe61284f565b5b602002602001015181526020019081526020016000206040518060e00160405290816000820154815260200160018201805461043a906128ad565b80601f0160208091040260200160405190810160405280929190818152602001828054610466906128ad565b80156104b35780601f10610488576101008083540402835291602001916104b3565b820191906000526020600020905b81548152906001019060200180831161049657829003601f168201915b505050505081526020016002820180546104cc906128ad565b80601f01602080910402602001604051908101604052809291908181526020018280546104f8906128ad565b80156105455780601f1061051a57610100808354040283529160200191610545565b820191906000526020600020905b81548152906001019060200180831161052857829003601f168201915b5050505050815260200160038201805461055e906128ad565b80601f016020809104026020016040519081016040528092919081815260200182805461058a906128ad565b80156105d75780601f106105ac576101008083540402835291602001916105d7565b820191906000526020600020905b8154815290600101906020018083116105ba57829003601f168201915b5050505050815260200160048201548152602001600582015481526020016006820154815250508282815181106106115761061061284f565b5b602002602001018190525080806001019150506103df565b508092505050919050565b60606000808054905067ffffffffffffffff81111561065657610655612506565b5b60405190808252806020026020018201604052801561068f57816020015b61067c611ed2565b8152602001906001900390816106745790505b50905060005b6000805490508110156108e657600260008083815481106106b9576106b861284f565b5b906000526020600020015481526020019081526020016000206040518060e0016040529081600082015481526020016001820180546106f7906128ad565b80601f0160208091040260200160405190810160405280929190818152602001828054610723906128ad565b80156107705780601f1061074557610100808354040283529160200191610770565b820191906000526020600020905b81548152906001019060200180831161075357829003601f168201915b50505050508152602001600282018054610789906128ad565b80601f01602080910402602001604051908101604052809291908181526020018280546107b5906128ad565b80156108025780601f106107d757610100808354040283529160200191610802565b820191906000526020600020905b8154815290600101906020018083116107e557829003601f168201915b5050505050815260200160038201805461081b906128ad565b80601f0160208091040260200160405190810160405280929190818152602001828054610847906128ad565b80156108945780601f1061086957610100808354040283529160200191610894565b820191906000526020600020905b81548152906001019060200180831161087757829003601f168201915b5050505050815260200160048201548152602001600582015481526020016006820154815250508282815181106108ce576108cd61284f565b5b60200260200101819052508080600101915050610695565b508091505090565b6000801b600860008381526020019081526020016000206000015403610949576040517f08c379a00000000000000000000000000000000000000000000000000000000081526004016109409061292a565b60405180910390fd5b6006600082815260200190815260200160002060003373ffffffffffffffffffffffffffffffffffffffff1673ffffffffffffffffffffffffffffffffffffffff16815260200190815260200160002060009054906101000a900460ff16156109e7576040517f08c379a00000000000000000000000000000000000000000000000000000000081526004016109de90612996565b60405180910390fd5b60016006600083815260200190815260200160002060003373ffffffffffffffffffffffffffffffffffffffff1673ffffffffffffffffffffffffffffffffffffffff16815260200190815260200160002060006101000a81548160ff021916908315150217905550600860008281526020019081526020016000206004016000815480929190610a77906129e5565b9190505550600060036000848152602001908152602001600020905060005b8180549050811015610b195782828281548110610ab657610ab561284f565b5b90600052602060002090600702016000015403610b0c57818181548110610ae057610adf61284f565b5b90600052602060002090600702016004016000815480929190610b02906129e5565b9190505550610b19565b8080600101915050610a96565b5081837fa718b91703005c7ff3c85ef47cb2b96b8bf518a0934598a085e074a84ad79ba1336001604051610b4e929190612a3c565b60405180910390a3505050565b60606000600960008473ffffffffffffffffffffffffffffffffffffffff1673ffffffffffffffffffffffffffffffffffffffff168152602001908152602001600020805480602002602001604051908101604052809291908181526020018280548015610be857602002820191906000526020600020905b815481526020019060010190808311610bd4575b505050505090506000815167ffffffffffffffff811115610c0c57610c0b612506565b5b604051908082528060200260200182016040528015610c4557816020015b610c32611f12565b815260200190600190039081610c2a5790505b50905060005b8251811015610e595760086000848381518110610c6b57610c6a61284f565b5b602002602001015181526020019081526020016000206040518060e0016040529081600082015481526020016001820160009054906101000a900473ffffffffffffffffffffffffffffffffffffffff1673ffffffffffffffffffffffffffffffffffffffff1673ffffffffffffffffffffffffffffffffffffffff168152602001600282018054610cfc906128ad565b80601f0160208091040260200160405190810160405280929190818152602001828054610d28906128ad565b8015610d755780601f10610d4a57610100808354040283529160200191610d75565b820191906000526020600020905b815481529060010190602001808311610d5857829003601f168201915b50505050508152602001600382018054610d8e906128ad565b80601f0160208091040260200160405190810160405280929190818152602001828054610dba906128ad565b8015610e075780601f10610ddc57610100808354040283529160200191610e07565b820191906000526020600020905b815481529060010190602001808311610dea57829003601f168201915b505050505081526020016004820154815260200160058201548152602001600682015481525050828281518110610e4157610e4061284f565b5b60200260200101819052508080600101915050610c4b565b508092505050919050565b6000801b600260008381526020019081526020016000206000015403610ebf576040517f08c379a0000000000000000000000000000000000000000000000000000000008152600401610eb690612ab1565b60405180910390fd5b6005600082815260200190815260200160002060003373ffffffffffffffffffffffffffffffffffffffff1673ffffffffffffffffffffffffffffffffffffffff16815260200190815260200160002060009054906101000a900460ff1615610f5d576040517f08c379a0000000000000000000000000000000000000000000000000000000008152600401610f5490612b1d565b60405180910390fd5b600260008281526020019081526020016000206005016000815480929190610f84906129e5565b919050555060016005600083815260200190815260200160002060003373ffffffffffffffffffffffffffffffffffffffff1673ffffffffffffffffffffffffffffffffffffffff16815260200190815260200160002060006101000a81548160ff0219169083151502179055503373ffffffffffffffffffffffffffffffffffffffff16817fa7e4c5082f867ea22a45a95c2043209b9ce83d70ca31ccb947e67592ea14c4b1600060405161103a919061206b565b60405180910390a350565b6000801b6002600085815260200190815260200160002060000154036110a0576040517f08c379a000000000000000000000000000000000000000000000000000000000815260040161109790612ab1565b60405180910390fd5b6020825111156110e5576040517f08c379a00000000000000000000000000000000000000000000000000000000081526004016110dc90612b89565b60405180910390fd5b60003342836040516020016110fc93929190612c4e565b60405160208183030381529060405280519060200120905060006040518060e001604052808381526020013373ffffffffffffffffffffffffffffffffffffffff1681526020018581526020018481526020016000815260200160008152602001428152509050600360008681526020019081526020016000208190806001815401808255809150506001900390600052602060002090600702016000909190919091506000820151816000015560208201518160010160006101000a81548173ffffffffffffffffffffffffffffffffffffffff021916908373ffffffffffffffffffffffffffffffffffffffff16021790555060408201518160020190816112069190612e33565b50606082015181600301908161121c9190612e33565b506080820151816004015560a0820151816005015560c08201518160060155505080600860008481526020019081526020016000206000820151816000015560208201518160010160006101000a81548173ffffffffffffffffffffffffffffffffffffffff021916908373ffffffffffffffffffffffffffffffffffffffff16021790555060408201518160020190816112b79190612e33565b5060608201518160030190816112cd9190612e33565b506080820151816004015560a0820151816005015560c08201518160060155905050600960003373ffffffffffffffffffffffffffffffffffffffff1673ffffffffffffffffffffffffffffffffffffffff16815260200190815260200160002082908060018154018082558091505060019003906000526020600020016000909190919091505581857f121f72518586f939bfb34c62bbf7d31b0a8ae8ecbcac0869550705ee4cff80f53387874260405161138c9493929190612f05565b60405180910390a35050505050565b6000606080606060008060008060001b600260008a81526020019081526020016000206000015403611402576040517f08c379a00000000000000000000000000000000000000000000000000000000081526004016113f990612ab1565b60405180910390fd5b6000600260008a81526020019081526020016000206040518060e00160405290816000820154815260200160018201805461143c906128ad565b80601f0160208091040260200160405190810160405280929190818152602001828054611468906128ad565b80156114b55780601f1061148a576101008083540402835291602001916114b5565b820191906000526020600020905b81548152906001019060200180831161149857829003601f168201915b505050505081526020016002820180546114ce906128ad565b80601f01602080910402602001604051908101604052809291908181526020018280546114fa906128ad565b80156115475780601f1061151c57610100808354040283529160200191611547565b820191906000526020600020905b81548152906001019060200180831161152a57829003601f168201915b50505050508152602001600382018054611560906128ad565b80601f016020809104026020016040519081016040528092919081815260200182805461158c906128ad565b80156115d95780601f106115ae576101008083540402835291602001916115d9565b820191906000526020600020905b8154815290600101906020018083116115bc57829003601f168201915b5050505050815260200160048201548152602001600582015481526020016006820154815250509050806000015181602001518260400151836060015184608001518560a001518660c00151975097509750975097509750975050919395979092949650565b60046020528160005260406000206020528060005260406000206000915091509054906101000a900460ff1681565b6000801b6002600083815260200190815260200160002060000154036116c9576040517f08c379a00000000000000000000000000000000000000000000000000000000081526004016116c090612ab1565b60405180910390fd5b6004600082815260200190815260200160002060003373ffffffffffffffffffffffffffffffffffffffff1673ffffffffffffffffffffffffffffffffffffffff16815260200190815260200160002060009054906101000a900460ff1615611767576040517f08c379a000000000000000000000000000000000000000000000000000000000815260040161175e90612fa4565b60405180910390fd5b60026000828152602001908152602001600020600401600081548092919061178e906129e5565b919050555060016004600083815260200190815260200160002060003373ffffffffffffffffffffffffffffffffffffffff1673ffffffffffffffffffffffffffffffffffffffff16815260200190815260200160002060006101000a81548160ff0219169083151502179055503373ffffffffffffffffffffffffffffffffffffffff16817fa7e4c5082f867ea22a45a95c2043209b9ce83d70ca31ccb947e67592ea14c4b16001604051611844919061206b565b60405180910390a350565b602083511115611894576040517f08c379a000000000000000000000000000000000000000000000000000000000815260040161188b90613010565b60405180910390fd5b6000334284846040516020016118ad9493929190613030565b60405160208183030381529060405280519060200120905060006040518060e0016040528083815260200186815260200185815260200184815260200160008152602001600081526020014281525090506000829080600181540180825580915050600190039060005260206000200160009091909190915055600160003373ffffffffffffffffffffffffffffffffffffffff1673ffffffffffffffffffffffffffffffffffffffff16815260200190815260200160002082908060018154018082558091505060019003906000526020600020016000909190919091505580600260008481526020019081526020016000206000820151816000015560208201518160010190816119c09190612e33565b5060408201518160020190816119d69190612e33565b5060608201518160030190816119ec9190612e33565b506080820151816004015560a0820151816005015560c08201518160060155905050817f17f34748f078a06d3c7c034ef1cdf60a8b2baf4592df676d3a2ae61596619f98858742604051611a4293929190613076565b60405180910390a25050505050565b6000801b600860008381526020019081526020016000206000015403611aac576040517f08c379a0000000000000000000000000000000000000000000000000000000008152600401611aa39061292a565b60405180910390fd5b6007600082815260200190815260200160002060003373ffffffffffffffffffffffffffffffffffffffff1673ffffffffffffffffffffffffffffffffffffffff16815260200190815260200160002060009054906101000a900460ff1615611b4a576040517f08c379a0000000000000000000000000000000000000000000000000000000008152600401611b4190613107565b60405180910390fd5b60016007600083815260200190815260200160002060003373ffffffffffffffffffffffffffffffffffffffff1673ffffffffffffffffffffffffffffffffffffffff16815260200190815260200160002060006101000a81548160ff021916908315150217905550600860008281526020019081526020016000206005016000815480929190611bda906129e5565b9190505550600060036000848152602001908152602001600020905060005b8180549050811015611c7c5782828281548110611c1957611c1861284f565b5b90600052602060002090600702016000015403611c6f57818181548110611c4357611c4261284f565b5b90600052602060002090600702016005016000815480929190611c65906129e5565b9190505550611c7c565b8080600101915050611bf9565b5081837fa718b91703005c7ff3c85ef47cb2b96b8bf518a0934598a085e074a84ad79ba1336000604051611cb1929190612a3c565b60405180910390a3505050565b606060036000838152602001908152602001600020805480602002602001604051908101604052809291908181526020016000905b82821015611ec757838290600052602060002090600702016040518060e0016040529081600082015481526020016001820160009054906101000a900473ffffffffffffffffffffffffffffffffffffffff1673ffffffffffffffffffffffffffffffffffffffff1673ffffffffffffffffffffffffffffffffffffffff168152602001600282018054611d86906128ad565b80601f0160208091040260200160405190810160405280929190818152602001828054611db2906128ad565b8015611dff5780601f10611dd457610100808354040283529160200191611dff565b820191906000526020600020905b815481529060010190602001808311611de257829003601f168201915b50505050508152602001600382018054611e18906128ad565b80601f0160208091040260200160405190810160405280929190818152602001828054611e44906128ad565b8015611e915780601f10611e6657610100808354040283529160200191611e91565b820191906000526020600020905b815481529060010190602001808311611e7457829003601f168201915b50505050508152602001600482015481526020016005820154815260200160068201548152505081526020019060010190611cf3565b505050509050919050565b6040518060e00160405280600080191681526020016060815260200160608152602001606081526020016000815260200160008152602001600081525090565b6040518060e0016040528060008019168152602001600073ffffffffffffffffffffffffffffffffffffffff16815260200160608152602001606081526020016000815260200160008152602001600081525090565b6000604051905090565b600080fd5b600080fd5b6000819050919050565b611f8f81611f7c565b8114611f9a57600080fd5b50565b600081359050611fac81611f86565b92915050565b600073ffffffffffffffffffffffffffffffffffffffff82169050919050565b6000611fdd82611fb2565b9050919050565b611fed81611fd2565b8114611ff857600080fd5b50565b60008135905061200a81611fe4565b92915050565b6000806040838503121561202757612026611f72565b5b600061203585828601611f9d565b925050602061204685828601611ffb565b9150509250929050565b60008115159050919050565b61206581612050565b82525050565b6000602082019050612080600083018461205c565b92915050565b60006020828403121561209c5761209b611f72565b5b60006120aa84828501611ffb565b91505092915050565b600081519050919050565b600082825260208201905092915050565b6000819050602082019050919050565b6120e881611f7c565b82525050565b600081519050919050565b600082825260208201905092915050565b60005b8381101561212857808201518184015260208101905061210d565b60008484015250505050565b6000601f19601f8301169050919050565b6000612150826120ee565b61215a81856120f9565b935061216a81856020860161210a565b61217381612134565b840191505092915050565b6000819050919050565b6121918161217e565b82525050565b600060e0830160008301516121af60008601826120df565b50602083015184820360208601526121c78282612145565b915050604083015184820360408601526121e18282612145565b915050606083015184820360608601526121fb8282612145565b91505060808301516122106080860182612188565b5060a083015161222360a0860182612188565b5060c083015161223660c0860182612188565b508091505092915050565b600061224d8383612197565b905092915050565b6000602082019050919050565b600061226d826120b3565b61227781856120be565b935083602082028501612289856120cf565b8060005b858110156122c557848403895281516122a68582612241565b94506122b183612255565b925060208a0199505060018101905061228d565b50829750879550505050505092915050565b600060208201905081810360008301526122f18184612262565b905092915050565b600080604083850312156123105761230f611f72565b5b600061231e85828601611f9d565b925050602061232f85828601611f9d565b9150509250929050565b600081519050919050565b600082825260208201905092915050565b6000819050602082019050919050565b61236e81611fd2565b82525050565b600060e08301600083015161238c60008601826120df565b50602083015161239f6020860182612365565b50604083015184820360408601526123b78282612145565b915050606083015184820360608601526123d18282612145565b91505060808301516123e66080860182612188565b5060a08301516123f960a0860182612188565b5060c083015161240c60c0860182612188565b508091505092915050565b60006124238383612374565b905092915050565b6000602082019050919050565b600061244382612339565b61244d8185612344565b93508360208202850161245f85612355565b8060005b8581101561249b578484038952815161247c8582612417565b94506124878361242b565b925060208a01995050600181019050612463565b50829750879550505050505092915050565b600060208201905081810360008301526124c78184612438565b905092915050565b6000602082840312156124e5576124e4611f72565b5b60006124f384828501611f9d565b91505092915050565b600080fd5b600080fd5b7f4e487b7100000000000000000000000000000000000000000000000000000000600052604160045260246000fd5b61253e82612134565b810181811067ffffffffffffffff8211171561255d5761255c612506565b5b80604052505050565b6000612570611f68565b905061257c8282612535565b919050565b600067ffffffffffffffff82111561259c5761259b612506565b5b6125a582612134565b9050602081019050919050565b82818337600083830152505050565b60006125d46125cf84612581565b612566565b9050828152602081018484840111156125f0576125ef612501565b5b6125fb8482856125b2565b509392505050565b600082601f830112612618576126176124fc565b5b81356126288482602086016125c1565b91505092915050565b60008060006060848603121561264a57612649611f72565b5b600061265886828701611f9d565b935050602084013567ffffffffffffffff81111561267957612678611f77565b5b61268586828701612603565b925050604084013567ffffffffffffffff8111156126a6576126a5611f77565b5b6126b286828701612603565b9150509250925092565b6126c581611f7c565b82525050565b600082825260208201905092915050565b60006126e7826120ee565b6126f181856126cb565b935061270181856020860161210a565b61270a81612134565b840191505092915050565b61271e8161217e565b82525050565b600060e082019050612739600083018a6126bc565b818103602083015261274b81896126dc565b9050818103604083015261275f81886126dc565b9050818103606083015261277381876126dc565b90506127826080830186612715565b61278f60a0830185612715565b61279c60c0830184612715565b98975050505050505050565b6000806000606084860312156127c1576127c0611f72565b5b600084013567ffffffffffffffff8111156127df576127de611f77565b5b6127eb86828701612603565b935050602084013567ffffffffffffffff81111561280c5761280b611f77565b5b61281886828701612603565b925050604084013567ffffffffffffffff81111561283957612838611f77565b5b61284586828701612603565b9150509250925092565b7f4e487b7100000000000000000000000000000000000000000000000000000000600052603260045260246000fd5b7f4e487b7100000000000000000000000000000000000000000000000000000000600052602260045260246000fd5b600060028204905060018216806128c557607f821691505b6020821081036128d8576128d761287e565b5b50919050565b7f436f6d6d656e7420646f6573206e6f7420657869737400000000000000000000600082015250565b60006129146016836126cb565b915061291f826128de565b602082019050919050565b6000602082019050818103600083015261294381612907565b9050919050565b7f416c7265616479207570766f746564207468697320636f6d6d656e7400000000600082015250565b6000612980601c836126cb565b915061298b8261294a565b602082019050919050565b600060208201905081810360008301526129af81612973565b9050919050565b7f4e487b7100000000000000000000000000000000000000000000000000000000600052601160045260246000fd5b60006129f08261217e565b91507fffffffffffffffffffffffffffffffffffffffffffffffffffffffffffffffff8203612a2257612a216129b6565b5b600182019050919050565b612a3681611fd2565b82525050565b6000604082019050612a516000830185612a2d565b612a5e602083018461205c565b9392505050565b7f506f737420646f6573206e6f742065786973742e000000000000000000000000600082015250565b6000612a9b6014836126cb565b9150612aa682612a65565b602082019050919050565b60006020820190508181036000830152612aca81612a8e565b9050919050565b7f416c726561647920646f776e766f7465642e0000000000000000000000000000600082015250565b6000612b076012836126cb565b9150612b1282612ad1565b602082019050919050565b60006020820190508181036000830152612b3681612afa565b9050919050565b7f436f6d6d656e746572206e616d6520746f6f206c6f6e67000000000000000000600082015250565b6000612b736017836126cb565b9150612b7e82612b3d565b602082019050919050565b60006020820190508181036000830152612ba281612b66565b9050919050565b60008160601b9050919050565b6000612bc182612ba9565b9050919050565b6000612bd382612bb6565b9050919050565b612beb612be682611fd2565b612bc8565b82525050565b6000819050919050565b612c0c612c078261217e565b612bf1565b82525050565b600081905092915050565b6000612c28826120ee565b612c328185612c12565b9350612c4281856020860161210a565b80840191505092915050565b6000612c5a8286612bda565b601482019150612c6a8285612bfb565b602082019150612c7a8284612c1d565b9150819050949350505050565b60008190508160005260206000209050919050565b60006020601f8301049050919050565b600082821b905092915050565b600060088302612ce97fffffffffffffffffffffffffffffffffffffffffffffffffffffffffffffffff82612cac565b612cf38683612cac565b95508019841693508086168417925050509392505050565b6000819050919050565b6000612d30612d2b612d268461217e565b612d0b565b61217e565b9050919050565b6000819050919050565b612d4a83612d15565b612d5e612d5682612d37565b848454612cb9565b825550505050565b600090565b612d73612d66565b612d7e818484612d41565b505050565b5b81811015612da257612d97600082612d6b565b600181019050612d84565b5050565b601f821115612de757612db881612c87565b612dc184612c9c565b81016020851015612dd0578190505b612de4612ddc85612c9c565b830182612d83565b50505b505050565b600082821c905092915050565b6000612e0a60001984600802612dec565b1980831691505092915050565b6000612e238383612df9565b9150826002028217905092915050565b612e3c826120ee565b67ffffffffffffffff811115612e5557612e54612506565b5b612e5f82546128ad565b612e6a828285612da6565b600060209050601f831160018114612e9d5760008415612e8b578287015190505b612e958582612e17565b865550612efd565b601f198416612eab86612c87565b60005b82811015612ed357848901518255600182019150602085019450602081019050612eae565b86831015612ef05784890151612eec601f891682612df9565b8355505b6001600288020188555050505b505050505050565b6000608082019050612f1a6000830187612a2d565b8181036020830152612f2c81866126dc565b90508181036040830152612f4081856126dc565b9050612f4f6060830184612715565b95945050505050565b7f416c7265616479207570766f7465642e00000000000000000000000000000000600082015250565b6000612f8e6010836126cb565b9150612f9982612f58565b602082019050919050565b60006020820190508181036000830152612fbd81612f81565b9050919050565b7f417574686f72206e616d6520746f6f206c6f6e67000000000000000000000000600082015250565b6000612ffa6014836126cb565b915061300582612fc4565b602082019050919050565b6000602082019050818103600083015261302981612fed565b9050919050565b600061303c8287612bda565b60148201915061304c8286612bfb565b60208201915061305c8285612c1d565b91506130688284612c1d565b915081905095945050505050565b6000606082019050818103600083015261309081866126dc565b905081810360208301526130a481856126dc565b90506130b36040830184612715565b949350505050565b7f416c726561647920646f776e766f746564207468697320636f6d6d656e740000600082015250565b60006130f1601e836126cb565b91506130fc826130bb565b602082019050919050565b60006020820190508181036000830152613120816130e4565b905091905056fea264697066735822122029c7aa36c02ae5f6293a90f54d3bb93e8b0a1f63e6fc2571a0b9a732a722859f64736f6c634300081e0033",
  "immutableReferences": {},
  "source": "// SPDX-License-Identifier: MIT\r\npragma solidity >=0.8.2 <0.9.0;\r\n\r\ncontract MyblogApp {\r\n    struct Post {\r\n        bytes32 id;\r\n        string author;\r\n        string title;\r\n        string contentHash;\r\n        uint256 upvote;\r\n        uint256 downvote;\r\n        uint256 timestamp;\r\n    }\r\n\r\n    struct Comment {\r\n        bytes32 id;\r\n        address commenterAddress;\r\n        string commenterName;\r\n        string content;\r\n        uint256 upvote;\r\n        uint256 downvote;\r\n        uint256 timestamp;\r\n    }\r\n\r\n    bytes32[] private allPostsIds;\r\n    mapping(address => bytes32[]) private userPosts;\r\n    mapping(bytes32 => Post) private posts;\r\n\r\n    // Comments stored per post\r\n    mapping(bytes32 => Comment[]) private postComments;\r\n\r\n    // Post votes\r\n    mapping(bytes32 => mapping(address => bool)) public hasUpVoted;\r\n    mapping(bytes32 => mapping(address => bool)) public hasDownVoted;\r\n\r\n    // Comment votes \r\n    mapping(bytes32 => mapping(address => bool)) private hasUpVotedComment;\r\n    mapping(bytes32 => mapping(address => bool)) private hasDownVotedComment;\r\n\r\n    // Global comment lookup + user  comment list\r\n    mapping(bytes32 => Comment) private commentById;\r\n    mapping(address => bytes32[]) private userCommentIds;\r\n\r\n    // Events\r\n\r\n    event Postcreation(bytes32 indexed postId, string title, string author, uint256 timestamp);\r\n    event PostVoted(bytes32 indexed postId, address indexed voter, bool isUpvote);\r\n    event CommentAdded(\r\n        bytes32 indexed postId,\r\n        bytes32 indexed commentId,\r\n        address commenterAddress,\r\n        string commenterName,\r\n        string content,\r\n        uint256 timestamp\r\n    );\r\n    event CommentVoted(\r\n        bytes32 indexed postId,\r\n        bytes32 indexed commentId,\r\n        address voter,\r\n        bool isUpvote\r\n    );\r\n\r\n    // Create Post\r\n\r\n    function createPost(string memory _author, string memory _title, string memory _contentHash) public {\r\n        require(bytes(_author).length <= 32, \"Author name too long\");\r\n\r\n        bytes32 _id = keccak256(abi.encodePacked(msg.sender, block.timestamp, _title, _contentHash));\r\n\r\n        Post memory newpost = Post({\r\n            id: _id,\r\n            author: _author,\r\n            title: _title,\r\n            contentHash: _contentHash,\r\n            upvote: 0,\r\n            downvote: 0,\r\n            timestamp: block.timestamp\r\n        });\r\n\r\n        allPostsIds.push(_id);\r\n        userPosts[msg.sender].push(_id);\r\n        posts[_id] = newpost;\r\n\r\n        emit Postcreation(_id, _title, _author, block.timestamp);\r\n    }\r\n\r\n    // Vote on Post\r\n\r\n    function upvotePost(bytes32 _postId) public {\r\n        require(posts[_postId].id != bytes32(0), \"Post does not exist.\");\r\n        require(!hasUpVoted[_postId][msg.sender], \"Already upvoted.\");\r\n\r\n        posts[_postId].upvote++;\r\n        hasUpVoted[_postId][msg.sender] = true;\r\n\r\n        emit PostVoted(_postId, msg.sender, true);\r\n    }\r\n\r\n    function downvotePost(bytes32 _postId) public {\r\n        require(posts[_postId].id != bytes32(0), \"Post does not exist.\");\r\n        require(!hasDownVoted[_postId][msg.sender], \"Already downvoted.\");\r\n\r\n        posts[_postId].downvote++;\r\n        hasDownVoted[_postId][msg.sender] = true;\r\n\r\n        emit PostVoted(_postId, msg.sender, false);\r\n    }\r\n\r\n    // Add Comment\r\n\r\n    function addComment(bytes32 _postId, string memory _commenterName, string memory _content) public {\r\n        require(posts[_postId].id != bytes32(0), \"Post does not exist.\");\r\n        require(bytes(_commenterName).length <= 32, \"Commenter name too long\");\r\n\r\n        bytes32 commentId = keccak256(abi.encodePacked(msg.sender, block.timestamp, _content));\r\n\r\n        Comment memory newComment = Comment({\r\n            id: commentId,\r\n            commenterAddress: msg.sender,\r\n            commenterName: _commenterName,\r\n            content: _content,\r\n            upvote: 0,\r\n            downvote: 0,\r\n            timestamp: block.timestamp\r\n        });\r\n\r\n        postComments[_postId].push(newComment);\r\n\r\n        // global lookup\r\n        commentById[commentId] = newComment;\r\n\r\n        // store comment under user index\r\n        userCommentIds[msg.sender].push(commentId);\r\n\r\n        emit CommentAdded(_postId, commentId, msg.sender, _commenterName, _content, block.timestamp);\r\n    }\r\n\r\n    // Vote on Comment \r\n\r\n    function upvoteComment(bytes32 _postId, bytes32 _commentId) public {\r\n        require(commentById[_commentId].id != bytes32(0), \"Comment does not exist\");\r\n        require(!hasUpVotedComment[_commentId][msg.sender], \"Already upvoted this comment\");\r\n\r\n        // Update both storage locations\r\n        hasUpVotedComment[_commentId][msg.sender] = true;\r\n        commentById[_commentId].upvote++;\r\n\r\n        // Sync inside postComments array\r\n        Comment[] storage arr = postComments[_postId];\r\n        for (uint i = 0; i < arr.length; i++) {\r\n            if (arr[i].id == _commentId) {\r\n                arr[i].upvote++;\r\n                break;\r\n            }\r\n        }\r\n\r\n        emit CommentVoted(_postId, _commentId, msg.sender, true);\r\n    }\r\n\r\n    function downvoteComment(bytes32 _postId, bytes32 _commentId) public {\r\n        require(commentById[_commentId].id != bytes32(0), \"Comment does not exist\");\r\n        require(!hasDownVotedComment[_commentId][msg.sender], \"Already downvoted this comment\");\r\n\r\n        hasDownVotedComment[_commentId][msg.sender] = true;\r\n        commentById[_commentId].downvote++;\r\n\r\n        Comment[] storage arr = postComments[_postId];\r\n        for (uint i = 0; i < arr.length; i++) {\r\n            if (arr[i].id == _commentId) {\r\n                arr[i].downvote++;\r\n                break;\r\n            }\r\n        }\r\n\r\n        emit CommentVoted(_postId, _commentId, msg.sender, false);\r\n    }\r\n\r\n    // Fetch Functions\r\n\r\n    function getAllPosts() public view returns(Post[] memory) {\r\n        Post[] memory allPosts = new Post[](allPostsIds.length);\r\n        for(uint i = 0; i < allPostsIds.length; i++) {\r\n            allPosts[i] = posts[allPostsIds[i]];\r\n        }\r\n        return allPosts;\r\n    }\r\n\r\n    function getAllPostsOfUser(address _user) public view returns(Post[] memory) {\r\n        bytes32[] memory userPostIds = userPosts[_user];\r\n        Post[] memory allPosts = new Post[](userPostIds.length);\r\n\r\n        for (uint i = 0; i < userPostIds.length; i++) {\r\n            allPosts[i] = posts[userPostIds[i]];\r\n        }\r\n\r\n        return allPosts;\r\n    }\r\n\r\n    function getPostById(bytes32 _postId) public view returns (\r\n        bytes32 id,\r\n        string memory author,\r\n        string memory title,\r\n        string memory contentHash,\r\n        uint256 upvote,\r\n        uint256 downvote,\r\n        uint256 timestamp\r\n    ) {\r\n        require(posts[_postId].id != bytes32(0), \"Post does not exist.\");\r\n        Post memory p = posts[_postId];\r\n        return (p.id, p.author, p.title, p.contentHash, p.upvote, p.downvote, p.timestamp);\r\n    }\r\n\r\n    function getComments(bytes32 _postId) public view returns(Comment[] memory) {\r\n        return postComments[_postId];\r\n    }\r\n\r\n    // NEW: Fetch all comments by a user\r\n\r\n    function getCommentsByUser(address _user) public view returns (Comment[] memory) {\r\n        bytes32[] memory ids = userCommentIds[_user];\r\n        Comment[] memory result = new Comment[](ids.length);\r\n\r\n        for (uint256 i = 0; i < ids.length; i++) {\r\n            result[i] = commentById[ids[i]];\r\n        }\r\n\r\n        return result;\r\n    }\r\n}\r\n",
  "sourcePath": "C:\\Users\\hp\\OneDrive\\Desktop\\Projects\\D_BloggingApp\\blockchain\\contracts\\MyblogApp.sol",
  "compiler": {
    "name": "solc",
    "version": "0.8.30+commit.73712a01.Emscripten.clang"
  },
  "schemaVersion": "3.4.16",
  "updatedAt": "2025-12-05T18:06:22.862Z",
  "networkType": "ethereum",
  "devdoc": {
    "kind": "dev",
    "methods": {},
    "version": 1
  },
  "userdoc": {
    "kind": "user",
    "methods": {},
    "version": 1
  }
}