{
  "contractName": "MyblogApp",
  "abi": [
    {
      "anonymous": false,
      "inputs": [
        {
          "indexed": true,
          "internalType": "bytes32",
          "name": "postId",
          "type": "bytes32"
        },
        {
          "indexed": true,
          "internalType": "bytes32",
          "name": "commentId",
          "type": "bytes32"
        },
        {
          "indexed": false,
          "internalType": "address",
          "name": "commenterAddress",
          "type": "address"
        },
        {
          "indexed": false,
          "internalType": "string",
          "name": "commenterName",
          "type": "string"
        },
        {
          "indexed": false,
          "internalType": "string",
          "name": "content",
          "type": "string"
        },
        {
          "indexed": false,
          "internalType": "uint256",
          "name": "timestamp",
          "type": "uint256"
        }
      ],
      "name": "CommentAdded",
      "type": "event"
    },
    {
      "anonymous": false,
      "inputs": [
        {
          "indexed": true,
          "internalType": "bytes32",
          "name": "postId",
          "type": "bytes32"
        },
        {
          "indexed": true,
          "internalType": "bytes32",
          "name": "commentId",
          "type": "bytes32"
        },
        {
          "indexed": false,
          "internalType": "address",
          "name": "voter",
          "type": "address"
        },
        {
          "indexed": false,
          "internalType": "bool",
          "name": "isUpvote",
          "type": "bool"
        }
      ],
      "name": "CommentVoted",
      "type": "event"
    },
    {
      "anonymous": false,
      "inputs": [
        {
          "indexed": true,
          "internalType": "bytes32",
          "name": "postId",
          "type": "bytes32"
        },
        {
          "indexed": true,
          "internalType": "address",
          "name": "voter",
          "type": "address"
        },
        {
          "indexed": false,
          "internalType": "bool",
          "name": "isUpvote",
          "type": "bool"
        }
      ],
      "name": "PostVoted",
      "type": "event"
    },
    {
      "anonymous": false,
      "inputs": [
        {
          "indexed": true,
          "internalType": "bytes32",
          "name": "postId",
          "type": "bytes32"
        },
        {
          "indexed": false,
          "internalType": "string",
          "name": "title",
          "type": "string"
        },
        {
          "indexed": false,
          "internalType": "string",
          "name": "author",
          "type": "string"
        },
        {
          "indexed": false,
          "internalType": "uint256",
          "name": "timestamp",
          "type": "uint256"
        }
      ],
      "name": "Postcreation",
      "type": "event"
    },
    {
      "inputs": [
        {
          "internalType": "bytes32",
          "name": "",
          "type": "bytes32"
        },
        {
          "internalType": "address",
          "name": "",
          "type": "address"
        }
      ],
      "name": "hasDownVoted",
      "outputs": [
        {
          "internalType": "bool",
          "name": "",
          "type": "bool"
        }
      ],
      "stateMutability": "view",
      "type": "function",
      "constant": true
    },
    {
      "inputs": [
        {
          "internalType": "bytes32",
          "name": "",
          "type": "bytes32"
        },
        {
          "internalType": "address",
          "name": "",
          "type": "address"
        }
      ],
      "name": "hasDownVotedComment",
      "outputs": [
        {
          "internalType": "bool",
          "name": "",
          "type": "bool"
        }
      ],
      "stateMutability": "view",
      "type": "function",
      "constant": true
    },
    {
      "inputs": [
        {
          "internalType": "bytes32",
          "name": "",
          "type": "bytes32"
        },
        {
          "internalType": "address",
          "name": "",
          "type": "address"
        }
      ],
      "name": "hasUpVoted",
      "outputs": [
        {
          "internalType": "bool",
          "name": "",
          "type": "bool"
        }
      ],
      "stateMutability": "view",
      "type": "function",
      "constant": true
    },
    {
      "inputs": [
        {
          "internalType": "bytes32",
          "name": "",
          "type": "bytes32"
        },
        {
          "internalType": "address",
          "name": "",
          "type": "address"
        }
      ],
      "name": "hasUpVotedComment",
      "outputs": [
        {
          "internalType": "bool",
          "name": "",
          "type": "bool"
        }
      ],
      "stateMutability": "view",
      "type": "function",
      "constant": true
    },
    {
      "inputs": [
        {
          "internalType": "string",
          "name": "_author",
          "type": "string"
        },
        {
          "internalType": "string",
          "name": "_title",
          "type": "string"
        },
        {
          "internalType": "string",
          "name": "_contentHash",
          "type": "string"
        }
      ],
      "name": "createPost",
      "outputs": [],
      "stateMutability": "nonpayable",
      "type": "function"
    },
    {
      "inputs": [
        {
          "internalType": "bytes32",
          "name": "_postId",
          "type": "bytes32"
        }
      ],
      "name": "upvotePost",
      "outputs": [],
      "stateMutability": "nonpayable",
      "type": "function"
    },
    {
      "inputs": [
        {
          "internalType": "bytes32",
          "name": "_postId",
          "type": "bytes32"
        }
      ],
      "name": "downvotePost",
      "outputs": [],
      "stateMutability": "nonpayable",
      "type": "function"
    },
    {
      "inputs": [
        {
          "internalType": "bytes32",
          "name": "_postId",
          "type": "bytes32"
        },
        {
          "internalType": "string",
          "name": "_commenterName",
          "type": "string"
        },
        {
          "internalType": "string",
          "name": "_content",
          "type": "string"
        }
      ],
      "name": "addComment",
      "outputs": [],
      "stateMutability": "nonpayable",
      "type": "function"
    },
    {
      "inputs": [
        {
          "internalType": "bytes32",
          "name": "_postId",
          "type": "bytes32"
        },
        {
          "internalType": "bytes32",
          "name": "_commentId",
          "type": "bytes32"
        }
      ],
      "name": "upvoteComment",
      "outputs": [],
      "stateMutability": "nonpayable",
      "type": "function"
    },
    {
      "inputs": [
        {
          "internalType": "bytes32",
          "name": "_postId",
          "type": "bytes32"
        },
        {
          "internalType": "bytes32",
          "name": "_commentId",
          "type": "bytes32"
        }
      ],
      "name": "downvoteComment",
      "outputs": [],
      "stateMutability": "nonpayable",
      "type": "function"
    },
    {
      "inputs": [],
      "name": "getAllPosts",
      "outputs": [
        {
          "components": [
            {
              "internalType": "bytes32",
              "name": "id",
              "type": "bytes32"
            },
            {
              "internalType": "string",
              "name": "author",
              "type": "string"
            },
            {
              "internalType": "string",
              "name": "title",
              "type": "string"
            },
            {
              "internalType": "string",
              "name": "contentHash",
              "type": "string"
            },
            {
              "internalType": "uint256",
              "name": "upvote",
              "type": "uint256"
            },
            {
              "internalType": "uint256",
              "name": "downvote",
              "type": "uint256"
            },
            {
              "internalType": "uint256",
              "name": "timestamp",
              "type": "uint256"
            }
          ],
          "internalType": "struct MyblogApp.Post[]",
          "name": "",
          "type": "tuple[]"
        }
      ],
      "stateMutability": "view",
      "type": "function",
      "constant": true
    },
    {
      "inputs": [
        {
          "internalType": "address",
          "name": "_user",
          "type": "address"
        }
      ],
      "name": "getAllPostsOfUser",
      "outputs": [
        {
          "components": [
            {
              "internalType": "bytes32",
              "name": "id",
              "type": "bytes32"
            },
            {
              "internalType": "string",
              "name": "author",
              "type": "string"
            },
            {
              "internalType": "string",
              "name": "title",
              "type": "string"
            },
            {
              "internalType": "string",
              "name": "contentHash",
              "type": "string"
            },
            {
              "internalType": "uint256",
              "name": "upvote",
              "type": "uint256"
            },
            {
              "internalType": "uint256",
              "name": "downvote",
              "type": "uint256"
            },
            {
              "internalType": "uint256",
              "name": "timestamp",
              "type": "uint256"
            }
          ],
          "internalType": "struct MyblogApp.Post[]",
          "name": "",
          "type": "tuple[]"
        }
      ],
      "stateMutability": "view",
      "type": "function",
      "constant": true
    },
    {
      "inputs": [
        {
          "internalType": "bytes32",
          "name": "_postId",
          "type": "bytes32"
        }
      ],
      "name": "getPostById",
      "outputs": [
        {
          "internalType": "bytes32",
          "name": "id",
          "type": "bytes32"
        },
        {
          "internalType": "string",
          "name": "author",
          "type": "string"
        },
        {
          "internalType": "string",
          "name": "title",
          "type": "string"
        },
        {
          "internalType": "string",
          "name": "contentHash",
          "type": "string"
        },
        {
          "internalType": "uint256",
          "name": "upvote",
          "type": "uint256"
        },
        {
          "internalType": "uint256",
          "name": "downvote",
          "type": "uint256"
        },
        {
          "internalType": "uint256",
          "name": "timestamp",
          "type": "uint256"
        }
      ],
      "stateMutability": "view",
      "type": "function",
      "constant": true
    },
    {
      "inputs": [
        {
          "internalType": "bytes32",
          "name": "_postId",
          "type": "bytes32"
        }
      ],
      "name": "getComments",
      "outputs": [
        {
          "components": [
            {
              "internalType": "bytes32",
              "name": "id",
              "type": "bytes32"
            },
            {
              "internalType": "address",
              "name": "commenterAddress",
              "type": "address"
            },
            {
              "internalType": "string",
              "name": "commenterName",
              "type": "string"
            },
            {
              "internalType": "string",
              "name": "content",
              "type": "string"
            },
            {
              "internalType": "uint256",
              "name": "upvote",
              "type": "uint256"
            },
            {
              "internalType": "uint256",
              "name": "downvote",
              "type": "uint256"
            },
            {
              "internalType": "uint256",
              "name": "timestamp",
              "type": "uint256"
            }
          ],
          "internalType": "struct MyblogApp.Comment[]",
          "name": "",
          "type": "tuple[]"
        }
      ],
      "stateMutability": "view",
      "type": "function",
      "constant": true
    },
    {
      "inputs": [
        {
          "internalType": "address",
          "name": "_user",
          "type": "address"
        }
      ],
      "name": "getCommentsByUser",
      "outputs": [
        {
          "components": [
            {
              "internalType": "bytes32",
              "name": "id",
              "type": "bytes32"
            },
            {
              "internalType": "address",
              "name": "commenterAddress",
              "type": "address"
            },
            {
              "internalType": "string",
              "name": "commenterName",
              "type": "string"
            },
            {
              "internalType": "string",
              "name": "content",
              "type": "string"
            },
            {
              "internalType": "uint256",
              "name": "upvote",
              "type": "uint256"
            },
            {
              "internalType": "uint256",
              "name": "downvote",
              "type": "uint256"
            },
            {
              "internalType": "uint256",
              "name": "timestamp",
              "type": "uint256"
            }
          ],
          "internalType": "struct MyblogApp.Comment[]",
          "name": "",
          "type": "tuple[]"
        }
      ],
      "stateMutability": "view",
      "type": "function",
      "constant": true
    },
    {
      "inputs": [
        {
          "internalType": "bytes32",
          "name": "_commentId",
          "type": "bytes32"
        }
      ],
      "name": "getPostIdfromComment",
      "outputs": [
        {
          "internalType": "bytes32",
          "name": "",
          "type": "bytes32"
        }
      ],
      "stateMutability": "view",
      "type": "function",
      "constant": true
    }
  ],
  "bytecode": "0x6080604052348015600f57600080fd5b506133278061001f6000396000f3fe608060405234801561001057600080fd5b50600436106101005760003560e01c8063a54ff9ac11610097578063e2fc269111610066578063e2fc2691146102fd578063e8a4a1eb14610319578063eee3209514610335578063f7ba787d1461035157610100565b8063a54ff9ac1461025f578063a7503db21461027b578063ae362ff914610297578063b28ad613146102cd57610100565b80635ad39fc9116100d35780635ad39fc91461019f5780636b2377ab146101cf5780636c00f807146101ff5780639e78b8a61461022f57610100565b806320e46ea5146101055780632cfdcc6b1461013557806330561100146101655780634630536414610183575b600080fd5b61011f600480360381019061011a91906121bf565b610381565b60405161012c919061221a565b60405180910390f35b61014f600480360381019061014a9190612235565b6103b0565b60405161015c9190612486565b60405180910390f35b61016d6106f5565b60405161017a9190612486565b60405180910390f35b61019d600480360381019061019891906124a8565b6109af565b005b6101b960048036038101906101b491906124e8565b610c1c565b6040516101c69190612524565b60405180910390f35b6101e960048036038101906101e491906121bf565b610c94565b6040516101f6919061221a565b60405180910390f35b610219600480360381019061021491906121bf565b610cc3565b604051610226919061221a565b60405180910390f35b61024960048036038101906102449190612235565b610cf2565b60405161025691906126b3565b60405180910390f35b610279600480360381019061027491906124e8565b610ffb565b005b6102956004803603810190610290919061280a565b6111dc565b005b6102b160048036038101906102ac91906124e8565b61154a565b6040516102c497969594939291906128ee565b60405180910390f35b6102e760048036038101906102e291906121bf565b6117ee565b6040516102f4919061221a565b60405180910390f35b610317600480360381019061031291906124e8565b61181d565b005b610333600480360381019061032e9190612972565b6119fe565b005b61034f600480360381019061034a91906124a8565b611c00565b005b61036b600480360381019061036691906124e8565b611e6d565b60405161037891906126b3565b60405180910390f35b60056020528160005260406000206020528060005260406000206000915091509054906101000a900460ff1681565b60606000600160008473ffffffffffffffffffffffffffffffffffffffff1673ffffffffffffffffffffffffffffffffffffffff16815260200190815260200160002080548060200260200160405190810160405280929190818152602001828054801561043d57602002820191906000526020600020905b815481526020019060010190808311610429575b505050505090506000815167ffffffffffffffff811115610461576104606126df565b5b60405190808252806020026020018201604052801561049a57816020015b610487612081565b81526020019060019003908161047f5790505b50905060005b82518110156106ea57600260008483815181106104c0576104bf612a19565b5b602002602001015181526020019081526020016000206040518060e0016040529081600082015481526020016001820180546104fb90612a77565b80601f016020809104026020016040519081016040528092919081815260200182805461052790612a77565b80156105745780601f1061054957610100808354040283529160200191610574565b820191906000526020600020905b81548152906001019060200180831161055757829003601f168201915b5050505050815260200160028201805461058d90612a77565b80601f01602080910402602001604051908101604052809291908181526020018280546105b990612a77565b80156106065780601f106105db57610100808354040283529160200191610606565b820191906000526020600020905b8154815290600101906020018083116105e957829003601f168201915b5050505050815260200160038201805461061f90612a77565b80601f016020809104026020016040519081016040528092919081815260200182805461064b90612a77565b80156106985780601f1061066d57610100808354040283529160200191610698565b820191906000526020600020905b81548152906001019060200180831161067b57829003601f168201915b5050505050815260200160048201548152602001600582015481526020016006820154815250508282815181106106d2576106d1612a19565b5b602002602001018190525080806001019150506104a0565b508092505050919050565b60606000808054905067ffffffffffffffff811115610717576107166126df565b5b60405190808252806020026020018201604052801561075057816020015b61073d612081565b8152602001906001900390816107355790505b50905060005b6000805490508110156109a7576002600080838154811061077a57610779612a19565b5b906000526020600020015481526020019081526020016000206040518060e0016040529081600082015481526020016001820180546107b890612a77565b80601f01602080910402602001604051908101604052809291908181526020018280546107e490612a77565b80156108315780601f1061080657610100808354040283529160200191610831565b820191906000526020600020905b81548152906001019060200180831161081457829003601f168201915b5050505050815260200160028201805461084a90612a77565b80601f016020809104026020016040519081016040528092919081815260200182805461087690612a77565b80156108c35780601f10610898576101008083540402835291602001916108c3565b820191906000526020600020905b8154815290600101906020018083116108a657829003601f168201915b505050505081526020016003820180546108dc90612a77565b80601f016020809104026020016040519081016040528092919081815260200182805461090890612a77565b80156109555780601f1061092a57610100808354040283529160200191610955565b820191906000526020600020905b81548152906001019060200180831161093857829003601f168201915b50505050508152602001600482015481526020016005820154815260200160068201548152505082828151811061098f5761098e612a19565b5b60200260200101819052508080600101915050610756565b508091505090565b6000801b600860008381526020019081526020016000206000015403610a0a576040517f08c379a0000000000000000000000000000000000000000000000000000000008152600401610a0190612af4565b60405180910390fd5b6006600082815260200190815260200160002060003373ffffffffffffffffffffffffffffffffffffffff1673ffffffffffffffffffffffffffffffffffffffff16815260200190815260200160002060009054906101000a900460ff1615610aa8576040517f08c379a0000000000000000000000000000000000000000000000000000000008152600401610a9f90612b60565b60405180910390fd5b60016006600083815260200190815260200160002060003373ffffffffffffffffffffffffffffffffffffffff1673ffffffffffffffffffffffffffffffffffffffff16815260200190815260200160002060006101000a81548160ff021916908315150217905550600860008281526020019081526020016000206004016000815480929190610b3890612baf565b9190505550600060036000848152602001908152602001600020905060005b8180549050811015610bda5782828281548110610b7757610b76612a19565b5b90600052602060002090600702016000015403610bcd57818181548110610ba157610ba0612a19565b5b90600052602060002090600702016004016000815480929190610bc390612baf565b9190505550610bda565b8080600101915050610b57565b5081837fa718b91703005c7ff3c85ef47cb2b96b8bf518a0934598a085e074a84ad79ba1336001604051610c0f929190612c06565b60405180910390a3505050565b60008060001b600860008481526020019081526020016000206000015403610c79576040517f08c379a0000000000000000000000000000000000000000000000000000000008152600401610c7090612af4565b60405180910390fd5b600a6000838152602001908152602001600020549050919050565b60076020528160005260406000206020528060005260406000206000915091509054906101000a900460ff1681565b60066020528160005260406000206020528060005260406000206000915091509054906101000a900460ff1681565b60606000600960008473ffffffffffffffffffffffffffffffffffffffff1673ffffffffffffffffffffffffffffffffffffffff168152602001908152602001600020805480602002602001604051908101604052809291908181526020018280548015610d7f57602002820191906000526020600020905b815481526020019060010190808311610d6b575b505050505090506000815167ffffffffffffffff811115610da357610da26126df565b5b604051908082528060200260200182016040528015610ddc57816020015b610dc96120c1565b815260200190600190039081610dc15790505b50905060005b8251811015610ff05760086000848381518110610e0257610e01612a19565b5b602002602001015181526020019081526020016000206040518060e0016040529081600082015481526020016001820160009054906101000a900473ffffffffffffffffffffffffffffffffffffffff1673ffffffffffffffffffffffffffffffffffffffff1673ffffffffffffffffffffffffffffffffffffffff168152602001600282018054610e9390612a77565b80601f0160208091040260200160405190810160405280929190818152602001828054610ebf90612a77565b8015610f0c5780601f10610ee157610100808354040283529160200191610f0c565b820191906000526020600020905b815481529060010190602001808311610eef57829003601f168201915b50505050508152602001600382018054610f2590612a77565b80601f0160208091040260200160405190810160405280929190818152602001828054610f5190612a77565b8015610f9e5780601f10610f7357610100808354040283529160200191610f9e565b820191906000526020600020905b815481529060010190602001808311610f8157829003601f168201915b505050505081526020016004820154815260200160058201548152602001600682015481525050828281518110610fd857610fd7612a19565b5b60200260200101819052508080600101915050610de2565b508092505050919050565b6000801b600260008381526020019081526020016000206000015403611056576040517f08c379a000000000000000000000000000000000000000000000000000000000815260040161104d90612c7b565b60405180910390fd5b6005600082815260200190815260200160002060003373ffffffffffffffffffffffffffffffffffffffff1673ffffffffffffffffffffffffffffffffffffffff16815260200190815260200160002060009054906101000a900460ff16156110f4576040517f08c379a00000000000000000000000000000000000000000000000000000000081526004016110eb90612ce7565b60405180910390fd5b60026000828152602001908152602001600020600501600081548092919061111b90612baf565b919050555060016005600083815260200190815260200160002060003373ffffffffffffffffffffffffffffffffffffffff1673ffffffffffffffffffffffffffffffffffffffff16815260200190815260200160002060006101000a81548160ff0219169083151502179055503373ffffffffffffffffffffffffffffffffffffffff16817fa7e4c5082f867ea22a45a95c2043209b9ce83d70ca31ccb947e67592ea14c4b160006040516111d1919061221a565b60405180910390a350565b6000801b600260008581526020019081526020016000206000015403611237576040517f08c379a000000000000000000000000000000000000000000000000000000000815260040161122e90612c7b565b60405180910390fd5b60208251111561127c576040517f08c379a000000000000000000000000000000000000000000000000000000000815260040161127390612d53565b60405180910390fd5b600033428360405160200161129393929190612e18565b60405160208183030381529060405280519060200120905060006040518060e001604052808381526020013373ffffffffffffffffffffffffffffffffffffffff1681526020018581526020018481526020016000815260200160008152602001428152509050600360008681526020019081526020016000208190806001815401808255809150506001900390600052602060002090600702016000909190919091506000820151816000015560208201518160010160006101000a81548173ffffffffffffffffffffffffffffffffffffffff021916908373ffffffffffffffffffffffffffffffffffffffff160217905550604082015181600201908161139d9190612ffd565b5060608201518160030190816113b39190612ffd565b506080820151816004015560a0820151816005015560c08201518160060155505080600860008481526020019081526020016000206000820151816000015560208201518160010160006101000a81548173ffffffffffffffffffffffffffffffffffffffff021916908373ffffffffffffffffffffffffffffffffffffffff160217905550604082015181600201908161144e9190612ffd565b5060608201518160030190816114649190612ffd565b506080820151816004015560a0820151816005015560c08201518160060155905050600960003373ffffffffffffffffffffffffffffffffffffffff1673ffffffffffffffffffffffffffffffffffffffff16815260200190815260200160002082908060018154018082558091505060019003906000526020600020016000909190919091505584600a60008481526020019081526020016000208190555081857f121f72518586f939bfb34c62bbf7d31b0a8ae8ecbcac0869550705ee4cff80f53387874260405161153b94939291906130cf565b60405180910390a35050505050565b6000606080606060008060008060001b600260008a815260200190815260200160002060000154036115b1576040517f08c379a00000000000000000000000000000000000000000000000000000000081526004016115a890612c7b565b60405180910390fd5b6000600260008a81526020019081526020016000206040518060e0016040529081600082015481526020016001820180546115eb90612a77565b80601f016020809104026020016040519081016040528092919081815260200182805461161790612a77565b80156116645780601f1061163957610100808354040283529160200191611664565b820191906000526020600020905b81548152906001019060200180831161164757829003601f168201915b5050505050815260200160028201805461167d90612a77565b80601f01602080910402602001604051908101604052809291908181526020018280546116a990612a77565b80156116f65780601f106116cb576101008083540402835291602001916116f6565b820191906000526020600020905b8154815290600101906020018083116116d957829003601f168201915b5050505050815260200160038201805461170f90612a77565b80601f016020809104026020016040519081016040528092919081815260200182805461173b90612a77565b80156117885780601f1061175d57610100808354040283529160200191611788565b820191906000526020600020905b81548152906001019060200180831161176b57829003601f168201915b5050505050815260200160048201548152602001600582015481526020016006820154815250509050806000015181602001518260400151836060015184608001518560a001518660c00151975097509750975097509750975050919395979092949650565b60046020528160005260406000206020528060005260406000206000915091509054906101000a900460ff1681565b6000801b600260008381526020019081526020016000206000015403611878576040517f08c379a000000000000000000000000000000000000000000000000000000000815260040161186f90612c7b565b60405180910390fd5b6004600082815260200190815260200160002060003373ffffffffffffffffffffffffffffffffffffffff1673ffffffffffffffffffffffffffffffffffffffff16815260200190815260200160002060009054906101000a900460ff1615611916576040517f08c379a000000000000000000000000000000000000000000000000000000000815260040161190d9061316e565b60405180910390fd5b60026000828152602001908152602001600020600401600081548092919061193d90612baf565b919050555060016004600083815260200190815260200160002060003373ffffffffffffffffffffffffffffffffffffffff1673ffffffffffffffffffffffffffffffffffffffff16815260200190815260200160002060006101000a81548160ff0219169083151502179055503373ffffffffffffffffffffffffffffffffffffffff16817fa7e4c5082f867ea22a45a95c2043209b9ce83d70ca31ccb947e67592ea14c4b160016040516119f3919061221a565b60405180910390a350565b602083511115611a43576040517f08c379a0000000000000000000000000000000000000000000000000000000008152600401611a3a906131da565b60405180910390fd5b600033428484604051602001611a5c94939291906131fa565b60405160208183030381529060405280519060200120905060006040518060e0016040528083815260200186815260200185815260200184815260200160008152602001600081526020014281525090506000829080600181540180825580915050600190039060005260206000200160009091909190915055600160003373ffffffffffffffffffffffffffffffffffffffff1673ffffffffffffffffffffffffffffffffffffffff1681526020019081526020016000208290806001815401808255809150506001900390600052602060002001600090919091909150558060026000848152602001908152602001600020600082015181600001556020820151816001019081611b6f9190612ffd565b506040820151816002019081611b859190612ffd565b506060820151816003019081611b9b9190612ffd565b506080820151816004015560a0820151816005015560c08201518160060155905050817f17f34748f078a06d3c7c034ef1cdf60a8b2baf4592df676d3a2ae61596619f98858742604051611bf193929190613240565b60405180910390a25050505050565b6000801b600860008381526020019081526020016000206000015403611c5b576040517f08c379a0000000000000000000000000000000000000000000000000000000008152600401611c5290612af4565b60405180910390fd5b6007600082815260200190815260200160002060003373ffffffffffffffffffffffffffffffffffffffff1673ffffffffffffffffffffffffffffffffffffffff16815260200190815260200160002060009054906101000a900460ff1615611cf9576040517f08c379a0000000000000000000000000000000000000000000000000000000008152600401611cf0906132d1565b60405180910390fd5b60016007600083815260200190815260200160002060003373ffffffffffffffffffffffffffffffffffffffff1673ffffffffffffffffffffffffffffffffffffffff16815260200190815260200160002060006101000a81548160ff021916908315150217905550600860008281526020019081526020016000206005016000815480929190611d8990612baf565b9190505550600060036000848152602001908152602001600020905060005b8180549050811015611e2b5782828281548110611dc857611dc7612a19565b5b90600052602060002090600702016000015403611e1e57818181548110611df257611df1612a19565b5b90600052602060002090600702016005016000815480929190611e1490612baf565b9190505550611e2b565b8080600101915050611da8565b5081837fa718b91703005c7ff3c85ef47cb2b96b8bf518a0934598a085e074a84ad79ba1336000604051611e60929190612c06565b60405180910390a3505050565b606060036000838152602001908152602001600020805480602002602001604051908101604052809291908181526020016000905b8282101561207657838290600052602060002090600702016040518060e0016040529081600082015481526020016001820160009054906101000a900473ffffffffffffffffffffffffffffffffffffffff1673ffffffffffffffffffffffffffffffffffffffff1673ffffffffffffffffffffffffffffffffffffffff168152602001600282018054611f3590612a77565b80601f0160208091040260200160405190810160405280929190818152602001828054611f6190612a77565b8015611fae5780601f10611f8357610100808354040283529160200191611fae565b820191906000526020600020905b815481529060010190602001808311611f9157829003601f168201915b50505050508152602001600382018054611fc790612a77565b80601f0160208091040260200160405190810160405280929190818152602001828054611ff390612a77565b80156120405780601f1061201557610100808354040283529160200191612040565b820191906000526020600020905b81548152906001019060200180831161202357829003601f168201915b50505050508152602001600482015481526020016005820154815260200160068201548152505081526020019060010190611ea2565b505050509050919050565b6040518060e00160405280600080191681526020016060815260200160608152602001606081526020016000815260200160008152602001600081525090565b6040518060e0016040528060008019168152602001600073ffffffffffffffffffffffffffffffffffffffff16815260200160608152602001606081526020016000815260200160008152602001600081525090565b6000604051905090565b600080fd5b600080fd5b6000819050919050565b61213e8161212b565b811461214957600080fd5b50565b60008135905061215b81612135565b92915050565b600073ffffffffffffffffffffffffffffffffffffffff82169050919050565b600061218c82612161565b9050919050565b61219c81612181565b81146121a757600080fd5b50565b6000813590506121b981612193565b92915050565b600080604083850312156121d6576121d5612121565b5b60006121e48582860161214c565b92505060206121f5858286016121aa565b9150509250929050565b60008115159050919050565b612214816121ff565b82525050565b600060208201905061222f600083018461220b565b92915050565b60006020828403121561224b5761224a612121565b5b6000612259848285016121aa565b91505092915050565b600081519050919050565b600082825260208201905092915050565b6000819050602082019050919050565b6122978161212b565b82525050565b600081519050919050565b600082825260208201905092915050565b60005b838110156122d75780820151818401526020810190506122bc565b60008484015250505050565b6000601f19601f8301169050919050565b60006122ff8261229d565b61230981856122a8565b93506123198185602086016122b9565b612322816122e3565b840191505092915050565b6000819050919050565b6123408161232d565b82525050565b600060e08301600083015161235e600086018261228e565b506020830151848203602086015261237682826122f4565b9150506040830151848203604086015261239082826122f4565b915050606083015184820360608601526123aa82826122f4565b91505060808301516123bf6080860182612337565b5060a08301516123d260a0860182612337565b5060c08301516123e560c0860182612337565b508091505092915050565b60006123fc8383612346565b905092915050565b6000602082019050919050565b600061241c82612262565b612426818561226d565b9350836020820285016124388561227e565b8060005b85811015612474578484038952815161245585826123f0565b945061246083612404565b925060208a0199505060018101905061243c565b50829750879550505050505092915050565b600060208201905081810360008301526124a08184612411565b905092915050565b600080604083850312156124bf576124be612121565b5b60006124cd8582860161214c565b92505060206124de8582860161214c565b9150509250929050565b6000602082840312156124fe576124fd612121565b5b600061250c8482850161214c565b91505092915050565b61251e8161212b565b82525050565b60006020820190506125396000830184612515565b92915050565b600081519050919050565b600082825260208201905092915050565b6000819050602082019050919050565b61257481612181565b82525050565b600060e083016000830151612592600086018261228e565b5060208301516125a5602086018261256b565b50604083015184820360408601526125bd82826122f4565b915050606083015184820360608601526125d782826122f4565b91505060808301516125ec6080860182612337565b5060a08301516125ff60a0860182612337565b5060c083015161261260c0860182612337565b508091505092915050565b6000612629838361257a565b905092915050565b6000602082019050919050565b60006126498261253f565b612653818561254a565b9350836020820285016126658561255b565b8060005b858110156126a15784840389528151612682858261261d565b945061268d83612631565b925060208a01995050600181019050612669565b50829750879550505050505092915050565b600060208201905081810360008301526126cd818461263e565b905092915050565b600080fd5b600080fd5b7f4e487b7100000000000000000000000000000000000000000000000000000000600052604160045260246000fd5b612717826122e3565b810181811067ffffffffffffffff82111715612736576127356126df565b5b80604052505050565b6000612749612117565b9050612755828261270e565b919050565b600067ffffffffffffffff821115612775576127746126df565b5b61277e826122e3565b9050602081019050919050565b82818337600083830152505050565b60006127ad6127a88461275a565b61273f565b9050828152602081018484840111156127c9576127c86126da565b5b6127d484828561278b565b509392505050565b600082601f8301126127f1576127f06126d5565b5b813561280184826020860161279a565b91505092915050565b60008060006060848603121561282357612822612121565b5b60006128318682870161214c565b935050602084013567ffffffffffffffff81111561285257612851612126565b5b61285e868287016127dc565b925050604084013567ffffffffffffffff81111561287f5761287e612126565b5b61288b868287016127dc565b9150509250925092565b600082825260208201905092915050565b60006128b18261229d565b6128bb8185612895565b93506128cb8185602086016122b9565b6128d4816122e3565b840191505092915050565b6128e88161232d565b82525050565b600060e082019050612903600083018a612515565b818103602083015261291581896128a6565b9050818103604083015261292981886128a6565b9050818103606083015261293d81876128a6565b905061294c60808301866128df565b61295960a08301856128df565b61296660c08301846128df565b98975050505050505050565b60008060006060848603121561298b5761298a612121565b5b600084013567ffffffffffffffff8111156129a9576129a8612126565b5b6129b5868287016127dc565b935050602084013567ffffffffffffffff8111156129d6576129d5612126565b5b6129e2868287016127dc565b925050604084013567ffffffffffffffff811115612a0357612a02612126565b5b612a0f868287016127dc565b9150509250925092565b7f4e487b7100000000000000000000000000000000000000000000000000000000600052603260045260246000fd5b7f4e487b7100000000000000000000000000000000000000000000000000000000600052602260045260246000fd5b60006002820490506001821680612a8f57607f821691505b602082108103612aa257612aa1612a48565b5b50919050565b7f436f6d6d656e7420646f6573206e6f7420657869737400000000000000000000600082015250565b6000612ade601683612895565b9150612ae982612aa8565b602082019050919050565b60006020820190508181036000830152612b0d81612ad1565b9050919050565b7f416c7265616479207570766f746564207468697320636f6d6d656e7400000000600082015250565b6000612b4a601c83612895565b9150612b5582612b14565b602082019050919050565b60006020820190508181036000830152612b7981612b3d565b9050919050565b7f4e487b7100000000000000000000000000000000000000000000000000000000600052601160045260246000fd5b6000612bba8261232d565b91507fffffffffffffffffffffffffffffffffffffffffffffffffffffffffffffffff8203612bec57612beb612b80565b5b600182019050919050565b612c0081612181565b82525050565b6000604082019050612c1b6000830185612bf7565b612c28602083018461220b565b9392505050565b7f506f737420646f6573206e6f742065786973742e000000000000000000000000600082015250565b6000612c65601483612895565b9150612c7082612c2f565b602082019050919050565b60006020820190508181036000830152612c9481612c58565b9050919050565b7f416c726561647920646f776e766f7465642e0000000000000000000000000000600082015250565b6000612cd1601283612895565b9150612cdc82612c9b565b602082019050919050565b60006020820190508181036000830152612d0081612cc4565b9050919050565b7f436f6d6d656e746572206e616d6520746f6f206c6f6e67000000000000000000600082015250565b6000612d3d601783612895565b9150612d4882612d07565b602082019050919050565b60006020820190508181036000830152612d6c81612d30565b9050919050565b60008160601b9050919050565b6000612d8b82612d73565b9050919050565b6000612d9d82612d80565b9050919050565b612db5612db082612181565b612d92565b82525050565b6000819050919050565b612dd6612dd18261232d565b612dbb565b82525050565b600081905092915050565b6000612df28261229d565b612dfc8185612ddc565b9350612e0c8185602086016122b9565b80840191505092915050565b6000612e248286612da4565b601482019150612e348285612dc5565b602082019150612e448284612de7565b9150819050949350505050565b60008190508160005260206000209050919050565b60006020601f8301049050919050565b600082821b905092915050565b600060088302612eb37fffffffffffffffffffffffffffffffffffffffffffffffffffffffffffffffff82612e76565b612ebd8683612e76565b95508019841693508086168417925050509392505050565b6000819050919050565b6000612efa612ef5612ef08461232d565b612ed5565b61232d565b9050919050565b6000819050919050565b612f1483612edf565b612f28612f2082612f01565b848454612e83565b825550505050565b600090565b612f3d612f30565b612f48818484612f0b565b505050565b5b81811015612f6c57612f61600082612f35565b600181019050612f4e565b5050565b601f821115612fb157612f8281612e51565b612f8b84612e66565b81016020851015612f9a578190505b612fae612fa685612e66565b830182612f4d565b50505b505050565b600082821c905092915050565b6000612fd460001984600802612fb6565b1980831691505092915050565b6000612fed8383612fc3565b9150826002028217905092915050565b6130068261229d565b67ffffffffffffffff81111561301f5761301e6126df565b5b6130298254612a77565b613034828285612f70565b600060209050601f8311600181146130675760008415613055578287015190505b61305f8582612fe1565b8655506130c7565b601f19841661307586612e51565b60005b8281101561309d57848901518255600182019150602085019450602081019050613078565b868310156130ba57848901516130b6601f891682612fc3565b8355505b6001600288020188555050505b505050505050565b60006080820190506130e46000830187612bf7565b81810360208301526130f681866128a6565b9050818103604083015261310a81856128a6565b905061311960608301846128df565b95945050505050565b7f416c7265616479207570766f7465642e00000000000000000000000000000000600082015250565b6000613158601083612895565b915061316382613122565b602082019050919050565b600060208201905081810360008301526131878161314b565b9050919050565b7f417574686f72206e616d6520746f6f206c6f6e67000000000000000000000000600082015250565b60006131c4601483612895565b91506131cf8261318e565b602082019050919050565b600060208201905081810360008301526131f3816131b7565b9050919050565b60006132068287612da4565b6014820191506132168286612dc5565b6020820191506132268285612de7565b91506132328284612de7565b915081905095945050505050565b6000606082019050818103600083015261325a81866128a6565b9050818103602083015261326e81856128a6565b905061327d60408301846128df565b949350505050565b7f416c726561647920646f776e766f746564207468697320636f6d6d656e740000600082015250565b60006132bb601e83612895565b91506132c682613285565b602082019050919050565b600060208201905081810360008301526132ea816132ae565b905091905056fea2646970667358221220c9e70367bc42ec916051382e1c059b6205900578d06f1c748d7175bb5e89fae664736f6c634300081e0033",
  "immutableReferences": {},
  "source": "// SPDX-License-Identifier: MIT\r\npragma solidity >=0.8.2 <0.9.0;\r\n\r\ncontract MyblogApp {\r\n    struct Post {\r\n        bytes32 id;\r\n        string author;\r\n        string title;\r\n        string contentHash;\r\n        uint256 upvote;\r\n        uint256 downvote;\r\n        uint256 timestamp;\r\n    }\r\n\r\n    struct Comment {\r\n        bytes32 id;\r\n        address commenterAddress;\r\n        string commenterName;\r\n        string content;\r\n        uint256 upvote;\r\n        uint256 downvote;\r\n        uint256 timestamp;\r\n    }\r\n\r\n    bytes32[] private allPostsIds;\r\n    mapping(address => bytes32[]) private userPosts;\r\n    mapping(bytes32 => Post) private posts;\r\n\r\n    // Comments stored per post\r\n    mapping(bytes32 => Comment[]) private postComments;\r\n\r\n    // Post votes\r\n    mapping(bytes32 => mapping(address => bool)) public hasUpVoted;\r\n    mapping(bytes32 => mapping(address => bool)) public hasDownVoted;\r\n\r\n    // Comment votes \r\n    mapping(bytes32 => mapping(address => bool)) public  hasUpVotedComment;\r\n    mapping(bytes32 => mapping(address => bool)) public hasDownVotedComment;\r\n\r\n    // Global comment lookup + user  comment list\r\n    mapping(bytes32 => Comment) private commentById;\r\n    mapping(address => bytes32[]) private userCommentIds;\r\n\r\n    //Comment->Post Mapping\r\n    mapping(bytes32 => bytes32) private CommentToPost;\r\n\r\n    // Events\r\n\r\n    event Postcreation(bytes32 indexed postId, string title, string author, uint256 timestamp);\r\n    event PostVoted(bytes32 indexed postId, address indexed voter, bool isUpvote);\r\n    event CommentAdded(\r\n        bytes32 indexed postId,\r\n        bytes32 indexed commentId,\r\n        address commenterAddress,\r\n        string commenterName,\r\n        string content,\r\n        uint256 timestamp\r\n    );\r\n    event CommentVoted(\r\n        bytes32 indexed postId,\r\n        bytes32 indexed commentId,\r\n        address voter,\r\n        bool isUpvote\r\n    );\r\n\r\n    // Create Post\r\n\r\n    function createPost(string memory _author, string memory _title, string memory _contentHash) public {\r\n        require(bytes(_author).length <= 32, \"Author name too long\");\r\n\r\n        bytes32 _id = keccak256(abi.encodePacked(msg.sender, block.timestamp, _title, _contentHash));\r\n\r\n        Post memory newpost = Post({\r\n            id: _id,\r\n            author: _author,\r\n            title: _title,\r\n            contentHash: _contentHash,\r\n            upvote: 0,\r\n            downvote: 0,\r\n            timestamp: block.timestamp\r\n        });\r\n\r\n        allPostsIds.push(_id);\r\n        userPosts[msg.sender].push(_id);\r\n        posts[_id] = newpost;\r\n\r\n        emit Postcreation(_id, _title, _author, block.timestamp);\r\n    }\r\n\r\n    // Vote on Post\r\n\r\n    function upvotePost(bytes32 _postId) public {\r\n        require(posts[_postId].id != bytes32(0), \"Post does not exist.\");\r\n        require(!hasUpVoted[_postId][msg.sender], \"Already upvoted.\");\r\n\r\n        posts[_postId].upvote++;\r\n        hasUpVoted[_postId][msg.sender] = true;\r\n\r\n        emit PostVoted(_postId, msg.sender, true);\r\n    }\r\n\r\n    function downvotePost(bytes32 _postId) public {\r\n        require(posts[_postId].id != bytes32(0), \"Post does not exist.\");\r\n        require(!hasDownVoted[_postId][msg.sender], \"Already downvoted.\");\r\n\r\n        posts[_postId].downvote++;\r\n        hasDownVoted[_postId][msg.sender] = true;\r\n\r\n        emit PostVoted(_postId, msg.sender, false);\r\n    }\r\n\r\n    // Add Comment\r\n\r\n    function addComment(bytes32 _postId, string memory _commenterName, string memory _content) public {\r\n        require(posts[_postId].id != bytes32(0), \"Post does not exist.\");\r\n        require(bytes(_commenterName).length <= 32, \"Commenter name too long\");\r\n\r\n        bytes32 commentId = keccak256(abi.encodePacked(msg.sender, block.timestamp, _content));\r\n\r\n        Comment memory newComment = Comment({\r\n            id: commentId,\r\n            commenterAddress: msg.sender,\r\n            commenterName: _commenterName,\r\n            content: _content,\r\n            upvote: 0,\r\n            downvote: 0,\r\n            timestamp: block.timestamp\r\n        });\r\n\r\n        postComments[_postId].push(newComment);\r\n\r\n        // global lookup\r\n        commentById[commentId] = newComment;\r\n\r\n        // store comment under user index\r\n        userCommentIds[msg.sender].push(commentId);\r\n\r\n        //map comment to post\r\n        CommentToPost[commentId] = _postId;\r\n\r\n        emit CommentAdded(_postId, commentId, msg.sender, _commenterName, _content, block.timestamp);\r\n    }\r\n\r\n    // Vote on Comment \r\n\r\n    function upvoteComment(bytes32 _postId, bytes32 _commentId) public {\r\n        require(commentById[_commentId].id != bytes32(0), \"Comment does not exist\");\r\n        require(!hasUpVotedComment[_commentId][msg.sender], \"Already upvoted this comment\");\r\n\r\n        // Update both storage locations\r\n        hasUpVotedComment[_commentId][msg.sender] = true;\r\n        commentById[_commentId].upvote++;\r\n\r\n        // Sync inside postComments array\r\n        Comment[] storage arr = postComments[_postId];\r\n        for (uint i = 0; i < arr.length; i++) {\r\n            if (arr[i].id == _commentId) {\r\n                arr[i].upvote++;\r\n                break;\r\n            }\r\n        }\r\n\r\n        emit CommentVoted(_postId, _commentId, msg.sender, true);\r\n    }\r\n\r\n    function downvoteComment(bytes32 _postId, bytes32 _commentId) public {\r\n        require(commentById[_commentId].id != bytes32(0), \"Comment does not exist\");\r\n        require(!hasDownVotedComment[_commentId][msg.sender], \"Already downvoted this comment\");\r\n\r\n        hasDownVotedComment[_commentId][msg.sender] = true;\r\n        commentById[_commentId].downvote++;\r\n\r\n        Comment[] storage arr = postComments[_postId];\r\n        for (uint i = 0; i < arr.length; i++) {\r\n            if (arr[i].id == _commentId) {\r\n                arr[i].downvote++;\r\n                break;\r\n            }\r\n        }\r\n\r\n        emit CommentVoted(_postId, _commentId, msg.sender, false);\r\n    }\r\n\r\n    // Fetch Functions\r\n\r\n    function getAllPosts() public view returns(Post[] memory) {\r\n        Post[] memory allPosts = new Post[](allPostsIds.length);\r\n        for(uint i = 0; i < allPostsIds.length; i++) {\r\n            allPosts[i] = posts[allPostsIds[i]];\r\n        }\r\n        return allPosts;\r\n    }\r\n\r\n    function getAllPostsOfUser(address _user) public view returns(Post[] memory) {\r\n        bytes32[] memory userPostIds = userPosts[_user];\r\n        Post[] memory allPosts = new Post[](userPostIds.length);\r\n\r\n        for (uint i = 0; i < userPostIds.length; i++) {\r\n            allPosts[i] = posts[userPostIds[i]];\r\n        }\r\n\r\n        return allPosts;\r\n    }\r\n\r\n    function getPostById(bytes32 _postId) public view returns (\r\n        bytes32 id,\r\n        string memory author,\r\n        string memory title,\r\n        string memory contentHash,\r\n        uint256 upvote,\r\n        uint256 downvote,\r\n        uint256 timestamp\r\n    ) {\r\n        require(posts[_postId].id != bytes32(0), \"Post does not exist.\");\r\n        Post memory p = posts[_postId];\r\n        return (p.id, p.author, p.title, p.contentHash, p.upvote, p.downvote, p.timestamp);\r\n    }\r\n\r\n    function getComments(bytes32 _postId) public view returns(Comment[] memory) {\r\n        return postComments[_postId];\r\n    }\r\n\r\n    // Fetch all comments by a user\r\n\r\n    function getCommentsByUser(address _user) public view returns (Comment[] memory) {\r\n        bytes32[] memory ids = userCommentIds[_user];\r\n        Comment[] memory result = new Comment[](ids.length);\r\n\r\n        for (uint256 i = 0; i < ids.length; i++) {\r\n            result[i] = commentById[ids[i]];\r\n        }\r\n\r\n        return result;\r\n    }\r\n\r\n    //Fetch comment to PostId\r\n\r\n    function getPostIdfromComment(bytes32 _commentId) public view returns(bytes32) {\r\n        require(commentById[_commentId].id != bytes32(0), \"Comment does not exist\");\r\n        return CommentToPost[_commentId];\r\n    }\r\n}\r\n",
  "sourcePath": "C:\\Users\\hp\\OneDrive\\Desktop\\Projects\\D_BloggingApp\\blockchain\\contracts\\MyblogApp.sol",
  "compiler": {
    "name": "solc",
    "version": "0.8.30+commit.73712a01.Emscripten.clang"
  },
  "schemaVersion": "3.4.16",
  "updatedAt": "2025-12-09T15:57:08.702Z",
  "networkType": "ethereum",
  "devdoc": {
    "kind": "dev",
    "methods": {},
    "version": 1
  },
  "userdoc": {
    "kind": "user",
    "methods": {},
    "version": 1
  }
}