{
	"contracts/MyblogApp.sol": {
		"MyblogApp": {
			"abi": [
				{
					"anonymous": false,
					"inputs": [
						{
							"indexed": true,
							"internalType": "bytes32",
							"name": "postId",
							"type": "bytes32"
						},
						{
							"indexed": true,
							"internalType": "bytes32",
							"name": "commentId",
							"type": "bytes32"
						},
						{
							"indexed": false,
							"internalType": "address",
							"name": "commenterAddress",
							"type": "address"
						},
						{
							"indexed": false,
							"internalType": "string",
							"name": "commenterName",
							"type": "string"
						},
						{
							"indexed": false,
							"internalType": "string",
							"name": "content",
							"type": "string"
						},
						{
							"indexed": false,
							"internalType": "uint256",
							"name": "timestamp",
							"type": "uint256"
						}
					],
					"name": "CommentAdded",
					"type": "event"
				},
				{
					"anonymous": false,
					"inputs": [
						{
							"indexed": true,
							"internalType": "bytes32",
							"name": "postId",
							"type": "bytes32"
						},
						{
							"indexed": true,
							"internalType": "bytes32",
							"name": "commentId",
							"type": "bytes32"
						},
						{
							"indexed": false,
							"internalType": "address",
							"name": "voter",
							"type": "address"
						},
						{
							"indexed": false,
							"internalType": "bool",
							"name": "isUpvote",
							"type": "bool"
						}
					],
					"name": "CommentVoted",
					"type": "event"
				},
				{
					"anonymous": false,
					"inputs": [
						{
							"indexed": true,
							"internalType": "bytes32",
							"name": "postId",
							"type": "bytes32"
						},
						{
							"indexed": true,
							"internalType": "address",
							"name": "voter",
							"type": "address"
						},
						{
							"indexed": false,
							"internalType": "bool",
							"name": "isUpvote",
							"type": "bool"
						}
					],
					"name": "PostVoted",
					"type": "event"
				},
				{
					"anonymous": false,
					"inputs": [
						{
							"indexed": true,
							"internalType": "bytes32",
							"name": "postId",
							"type": "bytes32"
						},
						{
							"indexed": false,
							"internalType": "string",
							"name": "title",
							"type": "string"
						},
						{
							"indexed": false,
							"internalType": "string",
							"name": "author",
							"type": "string"
						},
						{
							"indexed": false,
							"internalType": "uint256",
							"name": "timestamp",
							"type": "uint256"
						}
					],
					"name": "Postcreation",
					"type": "event"
				},
				{
					"inputs": [
						{
							"internalType": "bytes32",
							"name": "_postId",
							"type": "bytes32"
						},
						{
							"internalType": "string",
							"name": "_commenterName",
							"type": "string"
						},
						{
							"internalType": "string",
							"name": "_content",
							"type": "string"
						}
					],
					"name": "addComment",
					"outputs": [],
					"stateMutability": "nonpayable",
					"type": "function"
				},
				{
					"inputs": [
						{
							"internalType": "string",
							"name": "_author",
							"type": "string"
						},
						{
							"internalType": "string",
							"name": "_title",
							"type": "string"
						},
						{
							"internalType": "string",
							"name": "_contentHash",
							"type": "string"
						}
					],
					"name": "createPost",
					"outputs": [],
					"stateMutability": "nonpayable",
					"type": "function"
				},
				{
					"inputs": [
						{
							"internalType": "bytes32",
							"name": "_postId",
							"type": "bytes32"
						},
						{
							"internalType": "bytes32",
							"name": "_commentId",
							"type": "bytes32"
						}
					],
					"name": "downvoteComment",
					"outputs": [],
					"stateMutability": "nonpayable",
					"type": "function"
				},
				{
					"inputs": [
						{
							"internalType": "bytes32",
							"name": "_postId",
							"type": "bytes32"
						}
					],
					"name": "downvotePost",
					"outputs": [],
					"stateMutability": "nonpayable",
					"type": "function"
				},
				{
					"inputs": [],
					"name": "getAllPosts",
					"outputs": [
						{
							"components": [
								{
									"internalType": "bytes32",
									"name": "id",
									"type": "bytes32"
								},
								{
									"internalType": "string",
									"name": "author",
									"type": "string"
								},
								{
									"internalType": "string",
									"name": "title",
									"type": "string"
								},
								{
									"internalType": "string",
									"name": "contentHash",
									"type": "string"
								},
								{
									"internalType": "uint256",
									"name": "upvote",
									"type": "uint256"
								},
								{
									"internalType": "uint256",
									"name": "downvote",
									"type": "uint256"
								},
								{
									"internalType": "uint256",
									"name": "timestamp",
									"type": "uint256"
								}
							],
							"internalType": "struct MyblogApp.Post[]",
							"name": "",
							"type": "tuple[]"
						}
					],
					"stateMutability": "view",
					"type": "function"
				},
				{
					"inputs": [
						{
							"internalType": "address",
							"name": "_user",
							"type": "address"
						}
					],
					"name": "getAllPostsOfUser",
					"outputs": [
						{
							"components": [
								{
									"internalType": "bytes32",
									"name": "id",
									"type": "bytes32"
								},
								{
									"internalType": "string",
									"name": "author",
									"type": "string"
								},
								{
									"internalType": "string",
									"name": "title",
									"type": "string"
								},
								{
									"internalType": "string",
									"name": "contentHash",
									"type": "string"
								},
								{
									"internalType": "uint256",
									"name": "upvote",
									"type": "uint256"
								},
								{
									"internalType": "uint256",
									"name": "downvote",
									"type": "uint256"
								},
								{
									"internalType": "uint256",
									"name": "timestamp",
									"type": "uint256"
								}
							],
							"internalType": "struct MyblogApp.Post[]",
							"name": "",
							"type": "tuple[]"
						}
					],
					"stateMutability": "view",
					"type": "function"
				},
				{
					"inputs": [
						{
							"internalType": "bytes32",
							"name": "_postId",
							"type": "bytes32"
						}
					],
					"name": "getComments",
					"outputs": [
						{
							"components": [
								{
									"internalType": "bytes32",
									"name": "id",
									"type": "bytes32"
								},
								{
									"internalType": "address",
									"name": "commenterAddress",
									"type": "address"
								},
								{
									"internalType": "string",
									"name": "commenterName",
									"type": "string"
								},
								{
									"internalType": "string",
									"name": "content",
									"type": "string"
								},
								{
									"internalType": "uint256",
									"name": "upvote",
									"type": "uint256"
								},
								{
									"internalType": "uint256",
									"name": "downvote",
									"type": "uint256"
								},
								{
									"internalType": "uint256",
									"name": "timestamp",
									"type": "uint256"
								}
							],
							"internalType": "struct MyblogApp.Comment[]",
							"name": "",
							"type": "tuple[]"
						}
					],
					"stateMutability": "view",
					"type": "function"
				},
				{
					"inputs": [
						{
							"internalType": "address",
							"name": "_user",
							"type": "address"
						}
					],
					"name": "getCommentsByUser",
					"outputs": [
						{
							"components": [
								{
									"internalType": "bytes32",
									"name": "id",
									"type": "bytes32"
								},
								{
									"internalType": "address",
									"name": "commenterAddress",
									"type": "address"
								},
								{
									"internalType": "string",
									"name": "commenterName",
									"type": "string"
								},
								{
									"internalType": "string",
									"name": "content",
									"type": "string"
								},
								{
									"internalType": "uint256",
									"name": "upvote",
									"type": "uint256"
								},
								{
									"internalType": "uint256",
									"name": "downvote",
									"type": "uint256"
								},
								{
									"internalType": "uint256",
									"name": "timestamp",
									"type": "uint256"
								}
							],
							"internalType": "struct MyblogApp.Comment[]",
							"name": "",
							"type": "tuple[]"
						}
					],
					"stateMutability": "view",
					"type": "function"
				},
				{
					"inputs": [
						{
							"internalType": "bytes32",
							"name": "_postId",
							"type": "bytes32"
						}
					],
					"name": "getPostById",
					"outputs": [
						{
							"internalType": "bytes32",
							"name": "id",
							"type": "bytes32"
						},
						{
							"internalType": "string",
							"name": "author",
							"type": "string"
						},
						{
							"internalType": "string",
							"name": "title",
							"type": "string"
						},
						{
							"internalType": "string",
							"name": "contentHash",
							"type": "string"
						},
						{
							"internalType": "uint256",
							"name": "upvote",
							"type": "uint256"
						},
						{
							"internalType": "uint256",
							"name": "downvote",
							"type": "uint256"
						},
						{
							"internalType": "uint256",
							"name": "timestamp",
							"type": "uint256"
						}
					],
					"stateMutability": "view",
					"type": "function"
				},
				{
					"inputs": [
						{
							"internalType": "bytes32",
							"name": "",
							"type": "bytes32"
						},
						{
							"internalType": "address",
							"name": "",
							"type": "address"
						}
					],
					"name": "hasDownVoted",
					"outputs": [
						{
							"internalType": "bool",
							"name": "",
							"type": "bool"
						}
					],
					"stateMutability": "view",
					"type": "function"
				},
				{
					"inputs": [
						{
							"internalType": "bytes32",
							"name": "",
							"type": "bytes32"
						},
						{
							"internalType": "address",
							"name": "",
							"type": "address"
						}
					],
					"name": "hasDownVotedComment",
					"outputs": [
						{
							"internalType": "bool",
							"name": "",
							"type": "bool"
						}
					],
					"stateMutability": "view",
					"type": "function"
				},
				{
					"inputs": [
						{
							"internalType": "bytes32",
							"name": "",
							"type": "bytes32"
						},
						{
							"internalType": "address",
							"name": "",
							"type": "address"
						}
					],
					"name": "hasUpVoted",
					"outputs": [
						{
							"internalType": "bool",
							"name": "",
							"type": "bool"
						}
					],
					"stateMutability": "view",
					"type": "function"
				},
				{
					"inputs": [
						{
							"internalType": "bytes32",
							"name": "",
							"type": "bytes32"
						},
						{
							"internalType": "address",
							"name": "",
							"type": "address"
						}
					],
					"name": "hasUpVotedComment",
					"outputs": [
						{
							"internalType": "bool",
							"name": "",
							"type": "bool"
						}
					],
					"stateMutability": "view",
					"type": "function"
				},
				{
					"inputs": [
						{
							"internalType": "bytes32",
							"name": "_postId",
							"type": "bytes32"
						},
						{
							"internalType": "bytes32",
							"name": "_commentId",
							"type": "bytes32"
						}
					],
					"name": "upvoteComment",
					"outputs": [],
					"stateMutability": "nonpayable",
					"type": "function"
				},
				{
					"inputs": [
						{
							"internalType": "bytes32",
							"name": "_postId",
							"type": "bytes32"
						}
					],
					"name": "upvotePost",
					"outputs": [],
					"stateMutability": "nonpayable",
					"type": "function"
				}
			],
			"devdoc": {
				"kind": "dev",
				"methods": {},
				"version": 1
			},
			"evm": {
				"assembly": "    /* \"contracts/MyblogApp.sol\":68:7473  contract MyblogApp {... */\n  mstore(0x40, 0x80)\n  callvalue\n  dup1\n  iszero\n  tag_1\n  jumpi\n  revert(0x00, 0x00)\ntag_1:\n  pop\n  dataSize(sub_0)\n  dup1\n  dataOffset(sub_0)\n  0x00\n  codecopy\n  0x00\n  return\nstop\n\nsub_0: assembly {\n        /* \"contracts/MyblogApp.sol\":68:7473  contract MyblogApp {... */\n      mstore(0x40, 0x80)\n      callvalue\n      dup1\n      iszero\n      tag_1\n      jumpi\n      revert(0x00, 0x00)\n    tag_1:\n      pop\n      jumpi(tag_2, lt(calldatasize, 0x04))\n      shr(0xe0, calldataload(0x00))\n      dup1\n      0xa54ff9ac\n      gt\n      tag_18\n      jumpi\n      dup1\n      0xe2fc2691\n      gt\n      tag_19\n      jumpi\n      dup1\n      0xe2fc2691\n      eq\n      tag_14\n      jumpi\n      dup1\n      0xe8a4a1eb\n      eq\n      tag_15\n      jumpi\n      dup1\n      0xeee32095\n      eq\n      tag_16\n      jumpi\n      dup1\n      0xf7ba787d\n      eq\n      tag_17\n      jumpi\n      jump(tag_2)\n    tag_19:\n      dup1\n      0xa54ff9ac\n      eq\n      tag_10\n      jumpi\n      dup1\n      0xa7503db2\n      eq\n      tag_11\n      jumpi\n      dup1\n      0xae362ff9\n      eq\n      tag_12\n      jumpi\n      dup1\n      0xb28ad613\n      eq\n      tag_13\n      jumpi\n      jump(tag_2)\n    tag_18:\n      dup1\n      0x46305364\n      gt\n      tag_20\n      jumpi\n      dup1\n      0x46305364\n      eq\n      tag_6\n      jumpi\n      dup1\n      0x6b2377ab\n      eq\n      tag_7\n      jumpi\n      dup1\n      0x6c00f807\n      eq\n      tag_8\n      jumpi\n      dup1\n      0x9e78b8a6\n      eq\n      tag_9\n      jumpi\n      jump(tag_2)\n    tag_20:\n      dup1\n      0x20e46ea5\n      eq\n      tag_3\n      jumpi\n      dup1\n      0x2cfdcc6b\n      eq\n      tag_4\n      jumpi\n      dup1\n      0x30561100\n      eq\n      tag_5\n      jumpi\n    tag_2:\n      revert(0x00, 0x00)\n        /* \"contracts/MyblogApp.sol\":839:903  mapping(bytes32 => mapping(address => bool)) public hasDownVoted */\n    tag_3:\n      tag_21\n      0x04\n      dup1\n      calldatasize\n      sub\n      dup2\n      add\n      swap1\n      tag_22\n      swap2\n      swap1\n      tag_23\n      jump\t// in\n    tag_22:\n      tag_24\n      jump\t// in\n    tag_21:\n      mload(0x40)\n      tag_25\n      swap2\n      swap1\n      tag_26\n      jump\t// in\n    tag_25:\n      mload(0x40)\n      dup1\n      swap2\n      sub\n      swap1\n      return\n        /* \"contracts/MyblogApp.sol\":6103:6460  function getAllPostsOfUser(address _user) public view returns(Post[] memory) {... */\n    tag_4:\n      tag_27\n      0x04\n      dup1\n      calldatasize\n      sub\n      dup2\n      add\n      swap1\n      tag_28\n      swap2\n      swap1\n      tag_29\n      jump\t// in\n    tag_28:\n      tag_30\n      jump\t// in\n    tag_27:\n      mload(0x40)\n      tag_31\n      swap2\n      swap1\n      tag_32\n      jump\t// in\n    tag_31:\n      mload(0x40)\n      dup1\n      swap2\n      sub\n      swap1\n      return\n        /* \"contracts/MyblogApp.sol\":5820:6095  function getAllPosts() public view returns(Post[] memory) {... */\n    tag_5:\n      tag_33\n      tag_34\n      jump\t// in\n    tag_33:\n      mload(0x40)\n      tag_35\n      swap2\n      swap1\n      tag_32\n      jump\t// in\n    tag_35:\n      mload(0x40)\n      dup1\n      swap2\n      sub\n      swap1\n      return\n        /* \"contracts/MyblogApp.sol\":4354:5102  function upvoteComment(bytes32 _postId, bytes32 _commentId) public {... */\n    tag_6:\n      tag_36\n      0x04\n      dup1\n      calldatasize\n      sub\n      dup2\n      add\n      swap1\n      tag_37\n      swap2\n      swap1\n      tag_38\n      jump\t// in\n    tag_37:\n      tag_39\n      jump\t// in\n    tag_36:\n      stop\n        /* \"contracts/MyblogApp.sol\":1012:1083  mapping(bytes32 => mapping(address => bool)) public hasDownVotedComment */\n    tag_7:\n      tag_40\n      0x04\n      dup1\n      calldatasize\n      sub\n      dup2\n      add\n      swap1\n      tag_41\n      swap2\n      swap1\n      tag_23\n      jump\t// in\n    tag_41:\n      tag_42\n      jump\t// in\n    tag_40:\n      mload(0x40)\n      tag_43\n      swap2\n      swap1\n      tag_26\n      jump\t// in\n    tag_43:\n      mload(0x40)\n      dup1\n      swap2\n      sub\n      swap1\n      return\n        /* \"contracts/MyblogApp.sol\":935:1005  mapping(bytes32 => mapping(address => bool)) public  hasUpVotedComment */\n    tag_8:\n      tag_44\n      0x04\n      dup1\n      calldatasize\n      sub\n      dup2\n      add\n      swap1\n      tag_45\n      swap2\n      swap1\n      tag_23\n      jump\t// in\n    tag_45:\n      tag_46\n      jump\t// in\n    tag_44:\n      mload(0x40)\n      tag_47\n      swap2\n      swap1\n      tag_26\n      jump\t// in\n    tag_47:\n      mload(0x40)\n      dup1\n      swap2\n      sub\n      swap1\n      return\n        /* \"contracts/MyblogApp.sol\":7127:7470  function getCommentsByUser(address _user) public view returns (Comment[] memory) {... */\n    tag_9:\n      tag_48\n      0x04\n      dup1\n      calldatasize\n      sub\n      dup2\n      add\n      swap1\n      tag_49\n      swap2\n      swap1\n      tag_29\n      jump\t// in\n    tag_49:\n      tag_50\n      jump\t// in\n    tag_48:\n      mload(0x40)\n      tag_51\n      swap2\n      swap1\n      tag_52\n      jump\t// in\n    tag_51:\n      mload(0x40)\n      dup1\n      swap2\n      sub\n      swap1\n      return\n        /* \"contracts/MyblogApp.sol\":2952:3301  function downvotePost(bytes32 _postId) public {... */\n    tag_10:\n      tag_53\n      0x04\n      dup1\n      calldatasize\n      sub\n      dup2\n      add\n      swap1\n      tag_54\n      swap2\n      swap1\n      tag_55\n      jump\t// in\n    tag_54:\n      tag_56\n      jump\t// in\n    tag_53:\n      stop\n        /* \"contracts/MyblogApp.sol\":3331:4319  function addComment(bytes32 _postId, string memory _commenterName, string memory _content) public {... */\n    tag_11:\n      tag_57\n      0x04\n      dup1\n      calldatasize\n      sub\n      dup2\n      add\n      swap1\n      tag_58\n      swap2\n      swap1\n      tag_59\n      jump\t// in\n    tag_58:\n      tag_60\n      jump\t// in\n    tag_57:\n      stop\n        /* \"contracts/MyblogApp.sol\":6468:6949  function getPostById(bytes32 _postId) public view returns (... */\n    tag_12:\n      tag_61\n      0x04\n      dup1\n      calldatasize\n      sub\n      dup2\n      add\n      swap1\n      tag_62\n      swap2\n      swap1\n      tag_55\n      jump\t// in\n    tag_62:\n      tag_63\n      jump\t// in\n    tag_61:\n      mload(0x40)\n      tag_64\n      swap8\n      swap7\n      swap6\n      swap5\n      swap4\n      swap3\n      swap2\n      swap1\n      tag_65\n      jump\t// in\n    tag_64:\n      mload(0x40)\n      dup1\n      swap2\n      sub\n      swap1\n      return\n        /* \"contracts/MyblogApp.sol\":770:832  mapping(bytes32 => mapping(address => bool)) public hasUpVoted */\n    tag_13:\n      tag_66\n      0x04\n      dup1\n      calldatasize\n      sub\n      dup2\n      add\n      swap1\n      tag_67\n      swap2\n      swap1\n      tag_23\n      jump\t// in\n    tag_67:\n      tag_68\n      jump\t// in\n    tag_66:\n      mload(0x40)\n      tag_69\n      swap2\n      swap1\n      tag_26\n      jump\t// in\n    tag_69:\n      mload(0x40)\n      dup1\n      swap2\n      sub\n      swap1\n      return\n        /* \"contracts/MyblogApp.sol\":2606:2944  function upvotePost(bytes32 _postId) public {... */\n    tag_14:\n      tag_70\n      0x04\n      dup1\n      calldatasize\n      sub\n      dup2\n      add\n      swap1\n      tag_71\n      swap2\n      swap1\n      tag_55\n      jump\t// in\n    tag_71:\n      tag_72\n      jump\t// in\n    tag_70:\n      stop\n        /* \"contracts/MyblogApp.sol\":1852:2575  function createPost(string memory _author, string memory _title, string memory _contentHash) public {... */\n    tag_15:\n      tag_73\n      0x04\n      dup1\n      calldatasize\n      sub\n      dup2\n      add\n      swap1\n      tag_74\n      swap2\n      swap1\n      tag_75\n      jump\t// in\n    tag_74:\n      tag_76\n      jump\t// in\n    tag_73:\n      stop\n        /* \"contracts/MyblogApp.sol\":5110:5786  function downvoteComment(bytes32 _postId, bytes32 _commentId) public {... */\n    tag_16:\n      tag_77\n      0x04\n      dup1\n      calldatasize\n      sub\n      dup2\n      add\n      swap1\n      tag_78\n      swap2\n      swap1\n      tag_38\n      jump\t// in\n    tag_78:\n      tag_79\n      jump\t// in\n    tag_77:\n      stop\n        /* \"contracts/MyblogApp.sol\":6957:7080  function getComments(bytes32 _postId) public view returns(Comment[] memory) {... */\n    tag_17:\n      tag_80\n      0x04\n      dup1\n      calldatasize\n      sub\n      dup2\n      add\n      swap1\n      tag_81\n      swap2\n      swap1\n      tag_55\n      jump\t// in\n    tag_81:\n      tag_82\n      jump\t// in\n    tag_80:\n      mload(0x40)\n      tag_83\n      swap2\n      swap1\n      tag_52\n      jump\t// in\n    tag_83:\n      mload(0x40)\n      dup1\n      swap2\n      sub\n      swap1\n      return\n        /* \"contracts/MyblogApp.sol\":839:903  mapping(bytes32 => mapping(address => bool)) public hasDownVoted */\n    tag_24:\n      mstore(0x20, 0x05)\n      dup2\n      0x00\n      mstore\n      mstore(0x20, keccak256(0x00, 0x40))\n      dup1\n      0x00\n      mstore\n      keccak256(0x00, 0x40)\n      0x00\n      swap2\n      pop\n      swap2\n      pop\n      swap1\n      sload\n      swap1\n      0x0100\n      exp\n      swap1\n      div\n      0xff\n      and\n      dup2\n      jump\t// out\n        /* \"contracts/MyblogApp.sol\":6103:6460  function getAllPostsOfUser(address _user) public view returns(Post[] memory) {... */\n    tag_30:\n        /* \"contracts/MyblogApp.sol\":6165:6178  Post[] memory */\n      0x60\n        /* \"contracts/MyblogApp.sol\":6191:6219  bytes32[] memory userPostIds */\n      0x00\n        /* \"contracts/MyblogApp.sol\":6222:6231  userPosts */\n      0x01\n        /* \"contracts/MyblogApp.sol\":6222:6238  userPosts[_user] */\n      0x00\n        /* \"contracts/MyblogApp.sol\":6232:6237  _user */\n      dup5\n        /* \"contracts/MyblogApp.sol\":6222:6238  userPosts[_user] */\n      0xffffffffffffffffffffffffffffffffffffffff\n      and\n      0xffffffffffffffffffffffffffffffffffffffff\n      and\n      dup2\n      mstore\n      0x20\n      add\n      swap1\n      dup2\n      mstore\n      0x20\n      add\n      0x00\n      keccak256\n        /* \"contracts/MyblogApp.sol\":6191:6238  bytes32[] memory userPostIds = userPosts[_user] */\n      dup1\n      sload\n      dup1\n      0x20\n      mul\n      0x20\n      add\n      mload(0x40)\n      swap1\n      dup2\n      add\n      0x40\n      mstore\n      dup1\n      swap3\n      swap2\n      swap1\n      dup2\n      dup2\n      mstore\n      0x20\n      add\n      dup3\n      dup1\n      sload\n      dup1\n      iszero\n      tag_85\n      jumpi\n      0x20\n      mul\n      dup3\n      add\n      swap2\n      swap1\n      0x00\n      mstore\n      keccak256(0x00, 0x20)\n      swap1\n    tag_86:\n      dup2\n      sload\n      dup2\n      mstore\n      0x20\n      add\n      swap1\n      0x01\n      add\n      swap1\n      dup1\n      dup4\n      gt\n      tag_86\n      jumpi\n    tag_85:\n      pop\n      pop\n      pop\n      pop\n      pop\n      swap1\n      pop\n        /* \"contracts/MyblogApp.sol\":6249:6271  Post[] memory allPosts */\n      0x00\n        /* \"contracts/MyblogApp.sol\":6285:6296  userPostIds */\n      dup2\n        /* \"contracts/MyblogApp.sol\":6285:6303  userPostIds.length */\n      mload\n        /* \"contracts/MyblogApp.sol\":6274:6304  new Post[](userPostIds.length) */\n      0xffffffffffffffff\n      dup2\n      gt\n      iszero\n      tag_87\n      jumpi\n      tag_88\n      tag_89\n      jump\t// in\n    tag_88:\n    tag_87:\n      mload(0x40)\n      swap1\n      dup1\n      dup3\n      mstore\n      dup1\n      0x20\n      mul\n      0x20\n      add\n      dup3\n      add\n      0x40\n      mstore\n      dup1\n      iszero\n      tag_90\n      jumpi\n      dup2\n      0x20\n      add\n    tag_91:\n      tag_92\n      tag_93\n      jump\t// in\n    tag_92:\n      dup2\n      mstore\n      0x20\n      add\n      swap1\n      0x01\n      swap1\n      sub\n      swap1\n      dup2\n      tag_91\n      jumpi\n      swap1\n      pop\n    tag_90:\n      pop\n        /* \"contracts/MyblogApp.sol\":6249:6304  Post[] memory allPosts = new Post[](userPostIds.length) */\n      swap1\n      pop\n        /* \"contracts/MyblogApp.sol\":6322:6328  uint i */\n      0x00\n        /* \"contracts/MyblogApp.sol\":6331:6332  0 */\n      0x00\n        /* \"contracts/MyblogApp.sol\":6322:6332  uint i = 0 */\n      swap1\n      pop\n        /* \"contracts/MyblogApp.sol\":6317:6425  for (uint i = 0; i < userPostIds.length; i++) {... */\n    tag_94:\n        /* \"contracts/MyblogApp.sol\":6338:6349  userPostIds */\n      dup3\n        /* \"contracts/MyblogApp.sol\":6338:6356  userPostIds.length */\n      mload\n        /* \"contracts/MyblogApp.sol\":6334:6335  i */\n      dup2\n        /* \"contracts/MyblogApp.sol\":6334:6356  i < userPostIds.length */\n      lt\n        /* \"contracts/MyblogApp.sol\":6317:6425  for (uint i = 0; i < userPostIds.length; i++) {... */\n      iszero\n      tag_95\n      jumpi\n        /* \"contracts/MyblogApp.sol\":6392:6397  posts */\n      0x02\n        /* \"contracts/MyblogApp.sol\":6392:6413  posts[userPostIds[i]] */\n      0x00\n        /* \"contracts/MyblogApp.sol\":6398:6409  userPostIds */\n      dup5\n        /* \"contracts/MyblogApp.sol\":6410:6411  i */\n      dup4\n        /* \"contracts/MyblogApp.sol\":6398:6412  userPostIds[i] */\n      dup2\n      mload\n      dup2\n      lt\n      tag_97\n      jumpi\n      tag_98\n      tag_99\n      jump\t// in\n    tag_98:\n    tag_97:\n      0x20\n      mul\n      0x20\n      add\n      add\n      mload\n        /* \"contracts/MyblogApp.sol\":6392:6413  posts[userPostIds[i]] */\n      dup2\n      mstore\n      0x20\n      add\n      swap1\n      dup2\n      mstore\n      0x20\n      add\n      0x00\n      keccak256\n        /* \"contracts/MyblogApp.sol\":6378:6413  allPosts[i] = posts[userPostIds[i]] */\n      mload(0x40)\n      dup1\n      0xe0\n      add\n      0x40\n      mstore\n      swap1\n      dup2\n      0x00\n      dup3\n      add\n      sload\n      dup2\n      mstore\n      0x20\n      add\n      0x01\n      dup3\n      add\n      dup1\n      sload\n      tag_100\n      swap1\n      tag_101\n      jump\t// in\n    tag_100:\n      dup1\n      0x1f\n      add\n      0x20\n      dup1\n      swap2\n      div\n      mul\n      0x20\n      add\n      mload(0x40)\n      swap1\n      dup2\n      add\n      0x40\n      mstore\n      dup1\n      swap3\n      swap2\n      swap1\n      dup2\n      dup2\n      mstore\n      0x20\n      add\n      dup3\n      dup1\n      sload\n      tag_102\n      swap1\n      tag_101\n      jump\t// in\n    tag_102:\n      dup1\n      iszero\n      tag_103\n      jumpi\n      dup1\n      0x1f\n      lt\n      tag_104\n      jumpi\n      0x0100\n      dup1\n      dup4\n      sload\n      div\n      mul\n      dup4\n      mstore\n      swap2\n      0x20\n      add\n      swap2\n      jump(tag_103)\n    tag_104:\n      dup3\n      add\n      swap2\n      swap1\n      0x00\n      mstore\n      keccak256(0x00, 0x20)\n      swap1\n    tag_105:\n      dup2\n      sload\n      dup2\n      mstore\n      swap1\n      0x01\n      add\n      swap1\n      0x20\n      add\n      dup1\n      dup4\n      gt\n      tag_105\n      jumpi\n      dup3\n      swap1\n      sub\n      0x1f\n      and\n      dup3\n      add\n      swap2\n    tag_103:\n      pop\n      pop\n      pop\n      pop\n      pop\n      dup2\n      mstore\n      0x20\n      add\n      0x02\n      dup3\n      add\n      dup1\n      sload\n      tag_106\n      swap1\n      tag_101\n      jump\t// in\n    tag_106:\n      dup1\n      0x1f\n      add\n      0x20\n      dup1\n      swap2\n      div\n      mul\n      0x20\n      add\n      mload(0x40)\n      swap1\n      dup2\n      add\n      0x40\n      mstore\n      dup1\n      swap3\n      swap2\n      swap1\n      dup2\n      dup2\n      mstore\n      0x20\n      add\n      dup3\n      dup1\n      sload\n      tag_107\n      swap1\n      tag_101\n      jump\t// in\n    tag_107:\n      dup1\n      iszero\n      tag_108\n      jumpi\n      dup1\n      0x1f\n      lt\n      tag_109\n      jumpi\n      0x0100\n      dup1\n      dup4\n      sload\n      div\n      mul\n      dup4\n      mstore\n      swap2\n      0x20\n      add\n      swap2\n      jump(tag_108)\n    tag_109:\n      dup3\n      add\n      swap2\n      swap1\n      0x00\n      mstore\n      keccak256(0x00, 0x20)\n      swap1\n    tag_110:\n      dup2\n      sload\n      dup2\n      mstore\n      swap1\n      0x01\n      add\n      swap1\n      0x20\n      add\n      dup1\n      dup4\n      gt\n      tag_110\n      jumpi\n      dup3\n      swap1\n      sub\n      0x1f\n      and\n      dup3\n      add\n      swap2\n    tag_108:\n      pop\n      pop\n      pop\n      pop\n      pop\n      dup2\n      mstore\n      0x20\n      add\n      0x03\n      dup3\n      add\n      dup1\n      sload\n      tag_111\n      swap1\n      tag_101\n      jump\t// in\n    tag_111:\n      dup1\n      0x1f\n      add\n      0x20\n      dup1\n      swap2\n      div\n      mul\n      0x20\n      add\n      mload(0x40)\n      swap1\n      dup2\n      add\n      0x40\n      mstore\n      dup1\n      swap3\n      swap2\n      swap1\n      dup2\n      dup2\n      mstore\n      0x20\n      add\n      dup3\n      dup1\n      sload\n      tag_112\n      swap1\n      tag_101\n      jump\t// in\n    tag_112:\n      dup1\n      iszero\n      tag_113\n      jumpi\n      dup1\n      0x1f\n      lt\n      tag_114\n      jumpi\n      0x0100\n      dup1\n      dup4\n      sload\n      div\n      mul\n      dup4\n      mstore\n      swap2\n      0x20\n      add\n      swap2\n      jump(tag_113)\n    tag_114:\n      dup3\n      add\n      swap2\n      swap1\n      0x00\n      mstore\n      keccak256(0x00, 0x20)\n      swap1\n    tag_115:\n      dup2\n      sload\n      dup2\n      mstore\n      swap1\n      0x01\n      add\n      swap1\n      0x20\n      add\n      dup1\n      dup4\n      gt\n      tag_115\n      jumpi\n      dup3\n      swap1\n      sub\n      0x1f\n      and\n      dup3\n      add\n      swap2\n    tag_113:\n      pop\n      pop\n      pop\n      pop\n      pop\n      dup2\n      mstore\n      0x20\n      add\n      0x04\n      dup3\n      add\n      sload\n      dup2\n      mstore\n      0x20\n      add\n      0x05\n      dup3\n      add\n      sload\n      dup2\n      mstore\n      0x20\n      add\n      0x06\n      dup3\n      add\n      sload\n      dup2\n      mstore\n      pop\n      pop\n        /* \"contracts/MyblogApp.sol\":6378:6386  allPosts */\n      dup3\n        /* \"contracts/MyblogApp.sol\":6387:6388  i */\n      dup3\n        /* \"contracts/MyblogApp.sol\":6378:6389  allPosts[i] */\n      dup2\n      mload\n      dup2\n      lt\n      tag_116\n      jumpi\n      tag_117\n      tag_99\n      jump\t// in\n    tag_117:\n    tag_116:\n      0x20\n      mul\n      0x20\n      add\n      add\n        /* \"contracts/MyblogApp.sol\":6378:6413  allPosts[i] = posts[userPostIds[i]] */\n      dup2\n      swap1\n      mstore\n      pop\n        /* \"contracts/MyblogApp.sol\":6358:6361  i++ */\n      dup1\n      dup1\n      0x01\n      add\n      swap2\n      pop\n      pop\n        /* \"contracts/MyblogApp.sol\":6317:6425  for (uint i = 0; i < userPostIds.length; i++) {... */\n      jump(tag_94)\n    tag_95:\n      pop\n        /* \"contracts/MyblogApp.sol\":6444:6452  allPosts */\n      dup1\n        /* \"contracts/MyblogApp.sol\":6437:6452  return allPosts */\n      swap3\n      pop\n      pop\n      pop\n        /* \"contracts/MyblogApp.sol\":6103:6460  function getAllPostsOfUser(address _user) public view returns(Post[] memory) {... */\n      swap2\n      swap1\n      pop\n      jump\t// out\n        /* \"contracts/MyblogApp.sol\":5820:6095  function getAllPosts() public view returns(Post[] memory) {... */\n    tag_34:\n        /* \"contracts/MyblogApp.sol\":5863:5876  Post[] memory */\n      0x60\n        /* \"contracts/MyblogApp.sol\":5889:5911  Post[] memory allPosts */\n      0x00\n        /* \"contracts/MyblogApp.sol\":5925:5936  allPostsIds */\n      0x00\n        /* \"contracts/MyblogApp.sol\":5925:5943  allPostsIds.length */\n      dup1\n      sload\n      swap1\n      pop\n        /* \"contracts/MyblogApp.sol\":5914:5944  new Post[](allPostsIds.length) */\n      0xffffffffffffffff\n      dup2\n      gt\n      iszero\n      tag_119\n      jumpi\n      tag_120\n      tag_89\n      jump\t// in\n    tag_120:\n    tag_119:\n      mload(0x40)\n      swap1\n      dup1\n      dup3\n      mstore\n      dup1\n      0x20\n      mul\n      0x20\n      add\n      dup3\n      add\n      0x40\n      mstore\n      dup1\n      iszero\n      tag_121\n      jumpi\n      dup2\n      0x20\n      add\n    tag_122:\n      tag_123\n      tag_93\n      jump\t// in\n    tag_123:\n      dup2\n      mstore\n      0x20\n      add\n      swap1\n      0x01\n      swap1\n      sub\n      swap1\n      dup2\n      tag_122\n      jumpi\n      swap1\n      pop\n    tag_121:\n      pop\n        /* \"contracts/MyblogApp.sol\":5889:5944  Post[] memory allPosts = new Post[](allPostsIds.length) */\n      swap1\n      pop\n        /* \"contracts/MyblogApp.sol\":5959:5965  uint i */\n      0x00\n        /* \"contracts/MyblogApp.sol\":5968:5969  0 */\n      0x00\n        /* \"contracts/MyblogApp.sol\":5959:5969  uint i = 0 */\n      swap1\n      pop\n        /* \"contracts/MyblogApp.sol\":5955:6062  for(uint i = 0; i < allPostsIds.length; i++) {... */\n    tag_124:\n        /* \"contracts/MyblogApp.sol\":5975:5986  allPostsIds */\n      0x00\n        /* \"contracts/MyblogApp.sol\":5975:5993  allPostsIds.length */\n      dup1\n      sload\n      swap1\n      pop\n        /* \"contracts/MyblogApp.sol\":5971:5972  i */\n      dup2\n        /* \"contracts/MyblogApp.sol\":5971:5993  i < allPostsIds.length */\n      lt\n        /* \"contracts/MyblogApp.sol\":5955:6062  for(uint i = 0; i < allPostsIds.length; i++) {... */\n      iszero\n      tag_125\n      jumpi\n        /* \"contracts/MyblogApp.sol\":6029:6034  posts */\n      0x02\n        /* \"contracts/MyblogApp.sol\":6029:6050  posts[allPostsIds[i]] */\n      0x00\n        /* \"contracts/MyblogApp.sol\":6035:6046  allPostsIds */\n      0x00\n        /* \"contracts/MyblogApp.sol\":6047:6048  i */\n      dup4\n        /* \"contracts/MyblogApp.sol\":6035:6049  allPostsIds[i] */\n      dup2\n      sload\n      dup2\n      lt\n      tag_127\n      jumpi\n      tag_128\n      tag_99\n      jump\t// in\n    tag_128:\n    tag_127:\n      swap1\n      0x00\n      mstore\n      keccak256(0x00, 0x20)\n      add\n      sload\n        /* \"contracts/MyblogApp.sol\":6029:6050  posts[allPostsIds[i]] */\n      dup2\n      mstore\n      0x20\n      add\n      swap1\n      dup2\n      mstore\n      0x20\n      add\n      0x00\n      keccak256\n        /* \"contracts/MyblogApp.sol\":6015:6050  allPosts[i] = posts[allPostsIds[i]] */\n      mload(0x40)\n      dup1\n      0xe0\n      add\n      0x40\n      mstore\n      swap1\n      dup2\n      0x00\n      dup3\n      add\n      sload\n      dup2\n      mstore\n      0x20\n      add\n      0x01\n      dup3\n      add\n      dup1\n      sload\n      tag_130\n      swap1\n      tag_101\n      jump\t// in\n    tag_130:\n      dup1\n      0x1f\n      add\n      0x20\n      dup1\n      swap2\n      div\n      mul\n      0x20\n      add\n      mload(0x40)\n      swap1\n      dup2\n      add\n      0x40\n      mstore\n      dup1\n      swap3\n      swap2\n      swap1\n      dup2\n      dup2\n      mstore\n      0x20\n      add\n      dup3\n      dup1\n      sload\n      tag_131\n      swap1\n      tag_101\n      jump\t// in\n    tag_131:\n      dup1\n      iszero\n      tag_132\n      jumpi\n      dup1\n      0x1f\n      lt\n      tag_133\n      jumpi\n      0x0100\n      dup1\n      dup4\n      sload\n      div\n      mul\n      dup4\n      mstore\n      swap2\n      0x20\n      add\n      swap2\n      jump(tag_132)\n    tag_133:\n      dup3\n      add\n      swap2\n      swap1\n      0x00\n      mstore\n      keccak256(0x00, 0x20)\n      swap1\n    tag_134:\n      dup2\n      sload\n      dup2\n      mstore\n      swap1\n      0x01\n      add\n      swap1\n      0x20\n      add\n      dup1\n      dup4\n      gt\n      tag_134\n      jumpi\n      dup3\n      swap1\n      sub\n      0x1f\n      and\n      dup3\n      add\n      swap2\n    tag_132:\n      pop\n      pop\n      pop\n      pop\n      pop\n      dup2\n      mstore\n      0x20\n      add\n      0x02\n      dup3\n      add\n      dup1\n      sload\n      tag_135\n      swap1\n      tag_101\n      jump\t// in\n    tag_135:\n      dup1\n      0x1f\n      add\n      0x20\n      dup1\n      swap2\n      div\n      mul\n      0x20\n      add\n      mload(0x40)\n      swap1\n      dup2\n      add\n      0x40\n      mstore\n      dup1\n      swap3\n      swap2\n      swap1\n      dup2\n      dup2\n      mstore\n      0x20\n      add\n      dup3\n      dup1\n      sload\n      tag_136\n      swap1\n      tag_101\n      jump\t// in\n    tag_136:\n      dup1\n      iszero\n      tag_137\n      jumpi\n      dup1\n      0x1f\n      lt\n      tag_138\n      jumpi\n      0x0100\n      dup1\n      dup4\n      sload\n      div\n      mul\n      dup4\n      mstore\n      swap2\n      0x20\n      add\n      swap2\n      jump(tag_137)\n    tag_138:\n      dup3\n      add\n      swap2\n      swap1\n      0x00\n      mstore\n      keccak256(0x00, 0x20)\n      swap1\n    tag_139:\n      dup2\n      sload\n      dup2\n      mstore\n      swap1\n      0x01\n      add\n      swap1\n      0x20\n      add\n      dup1\n      dup4\n      gt\n      tag_139\n      jumpi\n      dup3\n      swap1\n      sub\n      0x1f\n      and\n      dup3\n      add\n      swap2\n    tag_137:\n      pop\n      pop\n      pop\n      pop\n      pop\n      dup2\n      mstore\n      0x20\n      add\n      0x03\n      dup3\n      add\n      dup1\n      sload\n      tag_140\n      swap1\n      tag_101\n      jump\t// in\n    tag_140:\n      dup1\n      0x1f\n      add\n      0x20\n      dup1\n      swap2\n      div\n      mul\n      0x20\n      add\n      mload(0x40)\n      swap1\n      dup2\n      add\n      0x40\n      mstore\n      dup1\n      swap3\n      swap2\n      swap1\n      dup2\n      dup2\n      mstore\n      0x20\n      add\n      dup3\n      dup1\n      sload\n      tag_141\n      swap1\n      tag_101\n      jump\t// in\n    tag_141:\n      dup1\n      iszero\n      tag_142\n      jumpi\n      dup1\n      0x1f\n      lt\n      tag_143\n      jumpi\n      0x0100\n      dup1\n      dup4\n      sload\n      div\n      mul\n      dup4\n      mstore\n      swap2\n      0x20\n      add\n      swap2\n      jump(tag_142)\n    tag_143:\n      dup3\n      add\n      swap2\n      swap1\n      0x00\n      mstore\n      keccak256(0x00, 0x20)\n      swap1\n    tag_144:\n      dup2\n      sload\n      dup2\n      mstore\n      swap1\n      0x01\n      add\n      swap1\n      0x20\n      add\n      dup1\n      dup4\n      gt\n      tag_144\n      jumpi\n      dup3\n      swap1\n      sub\n      0x1f\n      and\n      dup3\n      add\n      swap2\n    tag_142:\n      pop\n      pop\n      pop\n      pop\n      pop\n      dup2\n      mstore\n      0x20\n      add\n      0x04\n      dup3\n      add\n      sload\n      dup2\n      mstore\n      0x20\n      add\n      0x05\n      dup3\n      add\n      sload\n      dup2\n      mstore\n      0x20\n      add\n      0x06\n      dup3\n      add\n      sload\n      dup2\n      mstore\n      pop\n      pop\n        /* \"contracts/MyblogApp.sol\":6015:6023  allPosts */\n      dup3\n        /* \"contracts/MyblogApp.sol\":6024:6025  i */\n      dup3\n        /* \"contracts/MyblogApp.sol\":6015:6026  allPosts[i] */\n      dup2\n      mload\n      dup2\n      lt\n      tag_145\n      jumpi\n      tag_146\n      tag_99\n      jump\t// in\n    tag_146:\n    tag_145:\n      0x20\n      mul\n      0x20\n      add\n      add\n        /* \"contracts/MyblogApp.sol\":6015:6050  allPosts[i] = posts[allPostsIds[i]] */\n      dup2\n      swap1\n      mstore\n      pop\n        /* \"contracts/MyblogApp.sol\":5995:5998  i++ */\n      dup1\n      dup1\n      0x01\n      add\n      swap2\n      pop\n      pop\n        /* \"contracts/MyblogApp.sol\":5955:6062  for(uint i = 0; i < allPostsIds.length; i++) {... */\n      jump(tag_124)\n    tag_125:\n      pop\n        /* \"contracts/MyblogApp.sol\":6079:6087  allPosts */\n      dup1\n        /* \"contracts/MyblogApp.sol\":6072:6087  return allPosts */\n      swap2\n      pop\n      pop\n        /* \"contracts/MyblogApp.sol\":5820:6095  function getAllPosts() public view returns(Post[] memory) {... */\n      swap1\n      jump\t// out\n        /* \"contracts/MyblogApp.sol\":4354:5102  function upvoteComment(bytes32 _postId, bytes32 _commentId) public {... */\n    tag_39:\n        /* \"contracts/MyblogApp.sol\":4478:4479  0 */\n      0x00\n        /* \"contracts/MyblogApp.sol\":4470:4480  bytes32(0) */\n      0x00\n      shl\n        /* \"contracts/MyblogApp.sol\":4440:4451  commentById */\n      0x08\n        /* \"contracts/MyblogApp.sol\":4440:4463  commentById[_commentId] */\n      0x00\n        /* \"contracts/MyblogApp.sol\":4452:4462  _commentId */\n      dup4\n        /* \"contracts/MyblogApp.sol\":4440:4463  commentById[_commentId] */\n      dup2\n      mstore\n      0x20\n      add\n      swap1\n      dup2\n      mstore\n      0x20\n      add\n      0x00\n      keccak256\n        /* \"contracts/MyblogApp.sol\":4440:4466  commentById[_commentId].id */\n      0x00\n      add\n      sload\n        /* \"contracts/MyblogApp.sol\":4440:4480  commentById[_commentId].id != bytes32(0) */\n      sub\n        /* \"contracts/MyblogApp.sol\":4432:4507  require(commentById[_commentId].id != bytes32(0), \"Comment does not exist\") */\n      tag_148\n      jumpi\n      mload(0x40)\n      0x08c379a000000000000000000000000000000000000000000000000000000000\n      dup2\n      mstore\n      0x04\n      add\n      tag_149\n      swap1\n      tag_150\n      jump\t// in\n    tag_149:\n      mload(0x40)\n      dup1\n      swap2\n      sub\n      swap1\n      revert\n    tag_148:\n        /* \"contracts/MyblogApp.sol\":4527:4544  hasUpVotedComment */\n      0x06\n        /* \"contracts/MyblogApp.sol\":4527:4556  hasUpVotedComment[_commentId] */\n      0x00\n        /* \"contracts/MyblogApp.sol\":4545:4555  _commentId */\n      dup3\n        /* \"contracts/MyblogApp.sol\":4527:4556  hasUpVotedComment[_commentId] */\n      dup2\n      mstore\n      0x20\n      add\n      swap1\n      dup2\n      mstore\n      0x20\n      add\n      0x00\n      keccak256\n        /* \"contracts/MyblogApp.sol\":4527:4568  hasUpVotedComment[_commentId][msg.sender] */\n      0x00\n        /* \"contracts/MyblogApp.sol\":4557:4567  msg.sender */\n      caller\n        /* \"contracts/MyblogApp.sol\":4527:4568  hasUpVotedComment[_commentId][msg.sender] */\n      0xffffffffffffffffffffffffffffffffffffffff\n      and\n      0xffffffffffffffffffffffffffffffffffffffff\n      and\n      dup2\n      mstore\n      0x20\n      add\n      swap1\n      dup2\n      mstore\n      0x20\n      add\n      0x00\n      keccak256\n      0x00\n      swap1\n      sload\n      swap1\n      0x0100\n      exp\n      swap1\n      div\n      0xff\n      and\n        /* \"contracts/MyblogApp.sol\":4526:4568  !hasUpVotedComment[_commentId][msg.sender] */\n      iszero\n        /* \"contracts/MyblogApp.sol\":4518:4601  require(!hasUpVotedComment[_commentId][msg.sender], \"Already upvoted this comment\") */\n      tag_151\n      jumpi\n      mload(0x40)\n      0x08c379a000000000000000000000000000000000000000000000000000000000\n      dup2\n      mstore\n      0x04\n      add\n      tag_152\n      swap1\n      tag_153\n      jump\t// in\n    tag_152:\n      mload(0x40)\n      dup1\n      swap2\n      sub\n      swap1\n      revert\n    tag_151:\n        /* \"contracts/MyblogApp.sol\":4700:4704  true */\n      0x01\n        /* \"contracts/MyblogApp.sol\":4656:4673  hasUpVotedComment */\n      0x06\n        /* \"contracts/MyblogApp.sol\":4656:4685  hasUpVotedComment[_commentId] */\n      0x00\n        /* \"contracts/MyblogApp.sol\":4674:4684  _commentId */\n      dup4\n        /* \"contracts/MyblogApp.sol\":4656:4685  hasUpVotedComment[_commentId] */\n      dup2\n      mstore\n      0x20\n      add\n      swap1\n      dup2\n      mstore\n      0x20\n      add\n      0x00\n      keccak256\n        /* \"contracts/MyblogApp.sol\":4656:4697  hasUpVotedComment[_commentId][msg.sender] */\n      0x00\n        /* \"contracts/MyblogApp.sol\":4686:4696  msg.sender */\n      caller\n        /* \"contracts/MyblogApp.sol\":4656:4697  hasUpVotedComment[_commentId][msg.sender] */\n      0xffffffffffffffffffffffffffffffffffffffff\n      and\n      0xffffffffffffffffffffffffffffffffffffffff\n      and\n      dup2\n      mstore\n      0x20\n      add\n      swap1\n      dup2\n      mstore\n      0x20\n      add\n      0x00\n      keccak256\n      0x00\n        /* \"contracts/MyblogApp.sol\":4656:4704  hasUpVotedComment[_commentId][msg.sender] = true */\n      0x0100\n      exp\n      dup2\n      sload\n      dup2\n      0xff\n      mul\n      not\n      and\n      swap1\n      dup4\n      iszero\n      iszero\n      mul\n      or\n      swap1\n      sstore\n      pop\n        /* \"contracts/MyblogApp.sol\":4715:4726  commentById */\n      0x08\n        /* \"contracts/MyblogApp.sol\":4715:4738  commentById[_commentId] */\n      0x00\n        /* \"contracts/MyblogApp.sol\":4727:4737  _commentId */\n      dup3\n        /* \"contracts/MyblogApp.sol\":4715:4738  commentById[_commentId] */\n      dup2\n      mstore\n      0x20\n      add\n      swap1\n      dup2\n      mstore\n      0x20\n      add\n      0x00\n      keccak256\n        /* \"contracts/MyblogApp.sol\":4715:4745  commentById[_commentId].upvote */\n      0x04\n      add\n      0x00\n        /* \"contracts/MyblogApp.sol\":4715:4747  commentById[_commentId].upvote++ */\n      dup2\n      sload\n      dup1\n      swap3\n      swap2\n      swap1\n      tag_154\n      swap1\n      tag_155\n      jump\t// in\n    tag_154:\n      swap2\n      swap1\n      pop\n      sstore\n      pop\n        /* \"contracts/MyblogApp.sol\":4803:4824  Comment[] storage arr */\n      0x00\n        /* \"contracts/MyblogApp.sol\":4827:4839  postComments */\n      0x03\n        /* \"contracts/MyblogApp.sol\":4827:4848  postComments[_postId] */\n      0x00\n        /* \"contracts/MyblogApp.sol\":4840:4847  _postId */\n      dup5\n        /* \"contracts/MyblogApp.sol\":4827:4848  postComments[_postId] */\n      dup2\n      mstore\n      0x20\n      add\n      swap1\n      dup2\n      mstore\n      0x20\n      add\n      0x00\n      keccak256\n        /* \"contracts/MyblogApp.sol\":4803:4848  Comment[] storage arr = postComments[_postId] */\n      swap1\n      pop\n        /* \"contracts/MyblogApp.sol\":4864:4870  uint i */\n      0x00\n        /* \"contracts/MyblogApp.sol\":4873:4874  0 */\n      0x00\n        /* \"contracts/MyblogApp.sol\":4864:4874  uint i = 0 */\n      swap1\n      pop\n        /* \"contracts/MyblogApp.sol\":4859:5026  for (uint i = 0; i < arr.length; i++) {... */\n    tag_156:\n        /* \"contracts/MyblogApp.sol\":4880:4883  arr */\n      dup2\n        /* \"contracts/MyblogApp.sol\":4880:4890  arr.length */\n      dup1\n      sload\n      swap1\n      pop\n        /* \"contracts/MyblogApp.sol\":4876:4877  i */\n      dup2\n        /* \"contracts/MyblogApp.sol\":4876:4890  i < arr.length */\n      lt\n        /* \"contracts/MyblogApp.sol\":4859:5026  for (uint i = 0; i < arr.length; i++) {... */\n      iszero\n      tag_157\n      jumpi\n        /* \"contracts/MyblogApp.sol\":4929:4939  _commentId */\n      dup3\n        /* \"contracts/MyblogApp.sol\":4916:4919  arr */\n      dup3\n        /* \"contracts/MyblogApp.sol\":4920:4921  i */\n      dup3\n        /* \"contracts/MyblogApp.sol\":4916:4922  arr[i] */\n      dup2\n      sload\n      dup2\n      lt\n      tag_159\n      jumpi\n      tag_160\n      tag_99\n      jump\t// in\n    tag_160:\n    tag_159:\n      swap1\n      0x00\n      mstore\n      keccak256(0x00, 0x20)\n      swap1\n      0x07\n      mul\n      add\n        /* \"contracts/MyblogApp.sol\":4916:4925  arr[i].id */\n      0x00\n      add\n      sload\n        /* \"contracts/MyblogApp.sol\":4916:4939  arr[i].id == _commentId */\n      sub\n        /* \"contracts/MyblogApp.sol\":4912:5015  if (arr[i].id == _commentId) {... */\n      tag_162\n      jumpi\n        /* \"contracts/MyblogApp.sol\":4960:4963  arr */\n      dup2\n        /* \"contracts/MyblogApp.sol\":4964:4965  i */\n      dup2\n        /* \"contracts/MyblogApp.sol\":4960:4966  arr[i] */\n      dup2\n      sload\n      dup2\n      lt\n      tag_163\n      jumpi\n      tag_164\n      tag_99\n      jump\t// in\n    tag_164:\n    tag_163:\n      swap1\n      0x00\n      mstore\n      keccak256(0x00, 0x20)\n      swap1\n      0x07\n      mul\n      add\n        /* \"contracts/MyblogApp.sol\":4960:4973  arr[i].upvote */\n      0x04\n      add\n      0x00\n        /* \"contracts/MyblogApp.sol\":4960:4975  arr[i].upvote++ */\n      dup2\n      sload\n      dup1\n      swap3\n      swap2\n      swap1\n      tag_166\n      swap1\n      tag_155\n      jump\t// in\n    tag_166:\n      swap2\n      swap1\n      pop\n      sstore\n      pop\n        /* \"contracts/MyblogApp.sol\":4994:4999  break */\n      jump(tag_157)\n        /* \"contracts/MyblogApp.sol\":4912:5015  if (arr[i].id == _commentId) {... */\n    tag_162:\n        /* \"contracts/MyblogApp.sol\":4892:4895  i++ */\n      dup1\n      dup1\n      0x01\n      add\n      swap2\n      pop\n      pop\n        /* \"contracts/MyblogApp.sol\":4859:5026  for (uint i = 0; i < arr.length; i++) {... */\n      jump(tag_156)\n    tag_157:\n      pop\n        /* \"contracts/MyblogApp.sol\":5065:5075  _commentId */\n      dup2\n        /* \"contracts/MyblogApp.sol\":5056:5063  _postId */\n      dup4\n        /* \"contracts/MyblogApp.sol\":5043:5094  CommentVoted(_postId, _commentId, msg.sender, true) */\n      0xa718b91703005c7ff3c85ef47cb2b96b8bf518a0934598a085e074a84ad79ba1\n        /* \"contracts/MyblogApp.sol\":5077:5087  msg.sender */\n      caller\n        /* \"contracts/MyblogApp.sol\":5089:5093  true */\n      0x01\n        /* \"contracts/MyblogApp.sol\":5043:5094  CommentVoted(_postId, _commentId, msg.sender, true) */\n      mload(0x40)\n      tag_167\n      swap3\n      swap2\n      swap1\n      tag_168\n      jump\t// in\n    tag_167:\n      mload(0x40)\n      dup1\n      swap2\n      sub\n      swap1\n      log3\n        /* \"contracts/MyblogApp.sol\":4421:5102  {... */\n      pop\n        /* \"contracts/MyblogApp.sol\":4354:5102  function upvoteComment(bytes32 _postId, bytes32 _commentId) public {... */\n      pop\n      pop\n      jump\t// out\n        /* \"contracts/MyblogApp.sol\":1012:1083  mapping(bytes32 => mapping(address => bool)) public hasDownVotedComment */\n    tag_42:\n      mstore(0x20, 0x07)\n      dup2\n      0x00\n      mstore\n      mstore(0x20, keccak256(0x00, 0x40))\n      dup1\n      0x00\n      mstore\n      keccak256(0x00, 0x40)\n      0x00\n      swap2\n      pop\n      swap2\n      pop\n      swap1\n      sload\n      swap1\n      0x0100\n      exp\n      swap1\n      div\n      0xff\n      and\n      dup2\n      jump\t// out\n        /* \"contracts/MyblogApp.sol\":935:1005  mapping(bytes32 => mapping(address => bool)) public  hasUpVotedComment */\n    tag_46:\n      mstore(0x20, 0x06)\n      dup2\n      0x00\n      mstore\n      mstore(0x20, keccak256(0x00, 0x40))\n      dup1\n      0x00\n      mstore\n      keccak256(0x00, 0x40)\n      0x00\n      swap2\n      pop\n      swap2\n      pop\n      swap1\n      sload\n      swap1\n      0x0100\n      exp\n      swap1\n      div\n      0xff\n      and\n      dup2\n      jump\t// out\n        /* \"contracts/MyblogApp.sol\":7127:7470  function getCommentsByUser(address _user) public view returns (Comment[] memory) {... */\n    tag_50:\n        /* \"contracts/MyblogApp.sol\":7190:7206  Comment[] memory */\n      0x60\n        /* \"contracts/MyblogApp.sol\":7219:7239  bytes32[] memory ids */\n      0x00\n        /* \"contracts/MyblogApp.sol\":7242:7256  userCommentIds */\n      0x09\n        /* \"contracts/MyblogApp.sol\":7242:7263  userCommentIds[_user] */\n      0x00\n        /* \"contracts/MyblogApp.sol\":7257:7262  _user */\n      dup5\n        /* \"contracts/MyblogApp.sol\":7242:7263  userCommentIds[_user] */\n      0xffffffffffffffffffffffffffffffffffffffff\n      and\n      0xffffffffffffffffffffffffffffffffffffffff\n      and\n      dup2\n      mstore\n      0x20\n      add\n      swap1\n      dup2\n      mstore\n      0x20\n      add\n      0x00\n      keccak256\n        /* \"contracts/MyblogApp.sol\":7219:7263  bytes32[] memory ids = userCommentIds[_user] */\n      dup1\n      sload\n      dup1\n      0x20\n      mul\n      0x20\n      add\n      mload(0x40)\n      swap1\n      dup2\n      add\n      0x40\n      mstore\n      dup1\n      swap3\n      swap2\n      swap1\n      dup2\n      dup2\n      mstore\n      0x20\n      add\n      dup3\n      dup1\n      sload\n      dup1\n      iszero\n      tag_170\n      jumpi\n      0x20\n      mul\n      dup3\n      add\n      swap2\n      swap1\n      0x00\n      mstore\n      keccak256(0x00, 0x20)\n      swap1\n    tag_171:\n      dup2\n      sload\n      dup2\n      mstore\n      0x20\n      add\n      swap1\n      0x01\n      add\n      swap1\n      dup1\n      dup4\n      gt\n      tag_171\n      jumpi\n    tag_170:\n      pop\n      pop\n      pop\n      pop\n      pop\n      swap1\n      pop\n        /* \"contracts/MyblogApp.sol\":7274:7297  Comment[] memory result */\n      0x00\n        /* \"contracts/MyblogApp.sol\":7314:7317  ids */\n      dup2\n        /* \"contracts/MyblogApp.sol\":7314:7324  ids.length */\n      mload\n        /* \"contracts/MyblogApp.sol\":7300:7325  new Comment[](ids.length) */\n      0xffffffffffffffff\n      dup2\n      gt\n      iszero\n      tag_172\n      jumpi\n      tag_173\n      tag_89\n      jump\t// in\n    tag_173:\n    tag_172:\n      mload(0x40)\n      swap1\n      dup1\n      dup3\n      mstore\n      dup1\n      0x20\n      mul\n      0x20\n      add\n      dup3\n      add\n      0x40\n      mstore\n      dup1\n      iszero\n      tag_174\n      jumpi\n      dup2\n      0x20\n      add\n    tag_175:\n      tag_176\n      tag_177\n      jump\t// in\n    tag_176:\n      dup2\n      mstore\n      0x20\n      add\n      swap1\n      0x01\n      swap1\n      sub\n      swap1\n      dup2\n      tag_175\n      jumpi\n      swap1\n      pop\n    tag_174:\n      pop\n        /* \"contracts/MyblogApp.sol\":7274:7325  Comment[] memory result = new Comment[](ids.length) */\n      swap1\n      pop\n        /* \"contracts/MyblogApp.sol\":7343:7352  uint256 i */\n      0x00\n        /* \"contracts/MyblogApp.sol\":7355:7356  0 */\n      0x00\n        /* \"contracts/MyblogApp.sol\":7343:7356  uint256 i = 0 */\n      swap1\n      pop\n        /* \"contracts/MyblogApp.sol\":7338:7437  for (uint256 i = 0; i < ids.length; i++) {... */\n    tag_178:\n        /* \"contracts/MyblogApp.sol\":7362:7365  ids */\n      dup3\n        /* \"contracts/MyblogApp.sol\":7362:7372  ids.length */\n      mload\n        /* \"contracts/MyblogApp.sol\":7358:7359  i */\n      dup2\n        /* \"contracts/MyblogApp.sol\":7358:7372  i < ids.length */\n      lt\n        /* \"contracts/MyblogApp.sol\":7338:7437  for (uint256 i = 0; i < ids.length; i++) {... */\n      iszero\n      tag_179\n      jumpi\n        /* \"contracts/MyblogApp.sol\":7406:7417  commentById */\n      0x08\n        /* \"contracts/MyblogApp.sol\":7406:7425  commentById[ids[i]] */\n      0x00\n        /* \"contracts/MyblogApp.sol\":7418:7421  ids */\n      dup5\n        /* \"contracts/MyblogApp.sol\":7422:7423  i */\n      dup4\n        /* \"contracts/MyblogApp.sol\":7418:7424  ids[i] */\n      dup2\n      mload\n      dup2\n      lt\n      tag_181\n      jumpi\n      tag_182\n      tag_99\n      jump\t// in\n    tag_182:\n    tag_181:\n      0x20\n      mul\n      0x20\n      add\n      add\n      mload\n        /* \"contracts/MyblogApp.sol\":7406:7425  commentById[ids[i]] */\n      dup2\n      mstore\n      0x20\n      add\n      swap1\n      dup2\n      mstore\n      0x20\n      add\n      0x00\n      keccak256\n        /* \"contracts/MyblogApp.sol\":7394:7425  result[i] = commentById[ids[i]] */\n      mload(0x40)\n      dup1\n      0xe0\n      add\n      0x40\n      mstore\n      swap1\n      dup2\n      0x00\n      dup3\n      add\n      sload\n      dup2\n      mstore\n      0x20\n      add\n      0x01\n      dup3\n      add\n      0x00\n      swap1\n      sload\n      swap1\n      0x0100\n      exp\n      swap1\n      div\n      0xffffffffffffffffffffffffffffffffffffffff\n      and\n      0xffffffffffffffffffffffffffffffffffffffff\n      and\n      0xffffffffffffffffffffffffffffffffffffffff\n      and\n      dup2\n      mstore\n      0x20\n      add\n      0x02\n      dup3\n      add\n      dup1\n      sload\n      tag_183\n      swap1\n      tag_101\n      jump\t// in\n    tag_183:\n      dup1\n      0x1f\n      add\n      0x20\n      dup1\n      swap2\n      div\n      mul\n      0x20\n      add\n      mload(0x40)\n      swap1\n      dup2\n      add\n      0x40\n      mstore\n      dup1\n      swap3\n      swap2\n      swap1\n      dup2\n      dup2\n      mstore\n      0x20\n      add\n      dup3\n      dup1\n      sload\n      tag_184\n      swap1\n      tag_101\n      jump\t// in\n    tag_184:\n      dup1\n      iszero\n      tag_185\n      jumpi\n      dup1\n      0x1f\n      lt\n      tag_186\n      jumpi\n      0x0100\n      dup1\n      dup4\n      sload\n      div\n      mul\n      dup4\n      mstore\n      swap2\n      0x20\n      add\n      swap2\n      jump(tag_185)\n    tag_186:\n      dup3\n      add\n      swap2\n      swap1\n      0x00\n      mstore\n      keccak256(0x00, 0x20)\n      swap1\n    tag_187:\n      dup2\n      sload\n      dup2\n      mstore\n      swap1\n      0x01\n      add\n      swap1\n      0x20\n      add\n      dup1\n      dup4\n      gt\n      tag_187\n      jumpi\n      dup3\n      swap1\n      sub\n      0x1f\n      and\n      dup3\n      add\n      swap2\n    tag_185:\n      pop\n      pop\n      pop\n      pop\n      pop\n      dup2\n      mstore\n      0x20\n      add\n      0x03\n      dup3\n      add\n      dup1\n      sload\n      tag_188\n      swap1\n      tag_101\n      jump\t// in\n    tag_188:\n      dup1\n      0x1f\n      add\n      0x20\n      dup1\n      swap2\n      div\n      mul\n      0x20\n      add\n      mload(0x40)\n      swap1\n      dup2\n      add\n      0x40\n      mstore\n      dup1\n      swap3\n      swap2\n      swap1\n      dup2\n      dup2\n      mstore\n      0x20\n      add\n      dup3\n      dup1\n      sload\n      tag_189\n      swap1\n      tag_101\n      jump\t// in\n    tag_189:\n      dup1\n      iszero\n      tag_190\n      jumpi\n      dup1\n      0x1f\n      lt\n      tag_191\n      jumpi\n      0x0100\n      dup1\n      dup4\n      sload\n      div\n      mul\n      dup4\n      mstore\n      swap2\n      0x20\n      add\n      swap2\n      jump(tag_190)\n    tag_191:\n      dup3\n      add\n      swap2\n      swap1\n      0x00\n      mstore\n      keccak256(0x00, 0x20)\n      swap1\n    tag_192:\n      dup2\n      sload\n      dup2\n      mstore\n      swap1\n      0x01\n      add\n      swap1\n      0x20\n      add\n      dup1\n      dup4\n      gt\n      tag_192\n      jumpi\n      dup3\n      swap1\n      sub\n      0x1f\n      and\n      dup3\n      add\n      swap2\n    tag_190:\n      pop\n      pop\n      pop\n      pop\n      pop\n      dup2\n      mstore\n      0x20\n      add\n      0x04\n      dup3\n      add\n      sload\n      dup2\n      mstore\n      0x20\n      add\n      0x05\n      dup3\n      add\n      sload\n      dup2\n      mstore\n      0x20\n      add\n      0x06\n      dup3\n      add\n      sload\n      dup2\n      mstore\n      pop\n      pop\n        /* \"contracts/MyblogApp.sol\":7394:7400  result */\n      dup3\n        /* \"contracts/MyblogApp.sol\":7401:7402  i */\n      dup3\n        /* \"contracts/MyblogApp.sol\":7394:7403  result[i] */\n      dup2\n      mload\n      dup2\n      lt\n      tag_193\n      jumpi\n      tag_194\n      tag_99\n      jump\t// in\n    tag_194:\n    tag_193:\n      0x20\n      mul\n      0x20\n      add\n      add\n        /* \"contracts/MyblogApp.sol\":7394:7425  result[i] = commentById[ids[i]] */\n      dup2\n      swap1\n      mstore\n      pop\n        /* \"contracts/MyblogApp.sol\":7374:7377  i++ */\n      dup1\n      dup1\n      0x01\n      add\n      swap2\n      pop\n      pop\n        /* \"contracts/MyblogApp.sol\":7338:7437  for (uint256 i = 0; i < ids.length; i++) {... */\n      jump(tag_178)\n    tag_179:\n      pop\n        /* \"contracts/MyblogApp.sol\":7456:7462  result */\n      dup1\n        /* \"contracts/MyblogApp.sol\":7449:7462  return result */\n      swap3\n      pop\n      pop\n      pop\n        /* \"contracts/MyblogApp.sol\":7127:7470  function getCommentsByUser(address _user) public view returns (Comment[] memory) {... */\n      swap2\n      swap1\n      pop\n      jump\t// out\n        /* \"contracts/MyblogApp.sol\":2952:3301  function downvotePost(bytes32 _postId) public {... */\n    tag_56:\n        /* \"contracts/MyblogApp.sol\":3046:3047  0 */\n      0x00\n        /* \"contracts/MyblogApp.sol\":3038:3048  bytes32(0) */\n      0x00\n      shl\n        /* \"contracts/MyblogApp.sol\":3017:3022  posts */\n      0x02\n        /* \"contracts/MyblogApp.sol\":3017:3031  posts[_postId] */\n      0x00\n        /* \"contracts/MyblogApp.sol\":3023:3030  _postId */\n      dup4\n        /* \"contracts/MyblogApp.sol\":3017:3031  posts[_postId] */\n      dup2\n      mstore\n      0x20\n      add\n      swap1\n      dup2\n      mstore\n      0x20\n      add\n      0x00\n      keccak256\n        /* \"contracts/MyblogApp.sol\":3017:3034  posts[_postId].id */\n      0x00\n      add\n      sload\n        /* \"contracts/MyblogApp.sol\":3017:3048  posts[_postId].id != bytes32(0) */\n      sub\n        /* \"contracts/MyblogApp.sol\":3009:3073  require(posts[_postId].id != bytes32(0), \"Post does not exist.\") */\n      tag_196\n      jumpi\n      mload(0x40)\n      0x08c379a000000000000000000000000000000000000000000000000000000000\n      dup2\n      mstore\n      0x04\n      add\n      tag_197\n      swap1\n      tag_198\n      jump\t// in\n    tag_197:\n      mload(0x40)\n      dup1\n      swap2\n      sub\n      swap1\n      revert\n    tag_196:\n        /* \"contracts/MyblogApp.sol\":3093:3105  hasDownVoted */\n      0x05\n        /* \"contracts/MyblogApp.sol\":3093:3114  hasDownVoted[_postId] */\n      0x00\n        /* \"contracts/MyblogApp.sol\":3106:3113  _postId */\n      dup3\n        /* \"contracts/MyblogApp.sol\":3093:3114  hasDownVoted[_postId] */\n      dup2\n      mstore\n      0x20\n      add\n      swap1\n      dup2\n      mstore\n      0x20\n      add\n      0x00\n      keccak256\n        /* \"contracts/MyblogApp.sol\":3093:3126  hasDownVoted[_postId][msg.sender] */\n      0x00\n        /* \"contracts/MyblogApp.sol\":3115:3125  msg.sender */\n      caller\n        /* \"contracts/MyblogApp.sol\":3093:3126  hasDownVoted[_postId][msg.sender] */\n      0xffffffffffffffffffffffffffffffffffffffff\n      and\n      0xffffffffffffffffffffffffffffffffffffffff\n      and\n      dup2\n      mstore\n      0x20\n      add\n      swap1\n      dup2\n      mstore\n      0x20\n      add\n      0x00\n      keccak256\n      0x00\n      swap1\n      sload\n      swap1\n      0x0100\n      exp\n      swap1\n      div\n      0xff\n      and\n        /* \"contracts/MyblogApp.sol\":3092:3126  !hasDownVoted[_postId][msg.sender] */\n      iszero\n        /* \"contracts/MyblogApp.sol\":3084:3149  require(!hasDownVoted[_postId][msg.sender], \"Already downvoted.\") */\n      tag_199\n      jumpi\n      mload(0x40)\n      0x08c379a000000000000000000000000000000000000000000000000000000000\n      dup2\n      mstore\n      0x04\n      add\n      tag_200\n      swap1\n      tag_201\n      jump\t// in\n    tag_200:\n      mload(0x40)\n      dup1\n      swap2\n      sub\n      swap1\n      revert\n    tag_199:\n        /* \"contracts/MyblogApp.sol\":3162:3167  posts */\n      0x02\n        /* \"contracts/MyblogApp.sol\":3162:3176  posts[_postId] */\n      0x00\n        /* \"contracts/MyblogApp.sol\":3168:3175  _postId */\n      dup3\n        /* \"contracts/MyblogApp.sol\":3162:3176  posts[_postId] */\n      dup2\n      mstore\n      0x20\n      add\n      swap1\n      dup2\n      mstore\n      0x20\n      add\n      0x00\n      keccak256\n        /* \"contracts/MyblogApp.sol\":3162:3185  posts[_postId].downvote */\n      0x05\n      add\n      0x00\n        /* \"contracts/MyblogApp.sol\":3162:3187  posts[_postId].downvote++ */\n      dup2\n      sload\n      dup1\n      swap3\n      swap2\n      swap1\n      tag_202\n      swap1\n      tag_155\n      jump\t// in\n    tag_202:\n      swap2\n      swap1\n      pop\n      sstore\n      pop\n        /* \"contracts/MyblogApp.sol\":3234:3238  true */\n      0x01\n        /* \"contracts/MyblogApp.sol\":3198:3210  hasDownVoted */\n      0x05\n        /* \"contracts/MyblogApp.sol\":3198:3219  hasDownVoted[_postId] */\n      0x00\n        /* \"contracts/MyblogApp.sol\":3211:3218  _postId */\n      dup4\n        /* \"contracts/MyblogApp.sol\":3198:3219  hasDownVoted[_postId] */\n      dup2\n      mstore\n      0x20\n      add\n      swap1\n      dup2\n      mstore\n      0x20\n      add\n      0x00\n      keccak256\n        /* \"contracts/MyblogApp.sol\":3198:3231  hasDownVoted[_postId][msg.sender] */\n      0x00\n        /* \"contracts/MyblogApp.sol\":3220:3230  msg.sender */\n      caller\n        /* \"contracts/MyblogApp.sol\":3198:3231  hasDownVoted[_postId][msg.sender] */\n      0xffffffffffffffffffffffffffffffffffffffff\n      and\n      0xffffffffffffffffffffffffffffffffffffffff\n      and\n      dup2\n      mstore\n      0x20\n      add\n      swap1\n      dup2\n      mstore\n      0x20\n      add\n      0x00\n      keccak256\n      0x00\n        /* \"contracts/MyblogApp.sol\":3198:3238  hasDownVoted[_postId][msg.sender] = true */\n      0x0100\n      exp\n      dup2\n      sload\n      dup2\n      0xff\n      mul\n      not\n      and\n      swap1\n      dup4\n      iszero\n      iszero\n      mul\n      or\n      swap1\n      sstore\n      pop\n        /* \"contracts/MyblogApp.sol\":3275:3285  msg.sender */\n      caller\n        /* \"contracts/MyblogApp.sol\":3256:3293  PostVoted(_postId, msg.sender, false) */\n      0xffffffffffffffffffffffffffffffffffffffff\n      and\n        /* \"contracts/MyblogApp.sol\":3266:3273  _postId */\n      dup2\n        /* \"contracts/MyblogApp.sol\":3256:3293  PostVoted(_postId, msg.sender, false) */\n      0xa7e4c5082f867ea22a45a95c2043209b9ce83d70ca31ccb947e67592ea14c4b1\n        /* \"contracts/MyblogApp.sol\":3287:3292  false */\n      0x00\n        /* \"contracts/MyblogApp.sol\":3256:3293  PostVoted(_postId, msg.sender, false) */\n      mload(0x40)\n      tag_203\n      swap2\n      swap1\n      tag_26\n      jump\t// in\n    tag_203:\n      mload(0x40)\n      dup1\n      swap2\n      sub\n      swap1\n      log3\n        /* \"contracts/MyblogApp.sol\":2952:3301  function downvotePost(bytes32 _postId) public {... */\n      pop\n      jump\t// out\n        /* \"contracts/MyblogApp.sol\":3331:4319  function addComment(bytes32 _postId, string memory _commenterName, string memory _content) public {... */\n    tag_60:\n        /* \"contracts/MyblogApp.sol\":3477:3478  0 */\n      0x00\n        /* \"contracts/MyblogApp.sol\":3469:3479  bytes32(0) */\n      0x00\n      shl\n        /* \"contracts/MyblogApp.sol\":3448:3453  posts */\n      0x02\n        /* \"contracts/MyblogApp.sol\":3448:3462  posts[_postId] */\n      0x00\n        /* \"contracts/MyblogApp.sol\":3454:3461  _postId */\n      dup6\n        /* \"contracts/MyblogApp.sol\":3448:3462  posts[_postId] */\n      dup2\n      mstore\n      0x20\n      add\n      swap1\n      dup2\n      mstore\n      0x20\n      add\n      0x00\n      keccak256\n        /* \"contracts/MyblogApp.sol\":3448:3465  posts[_postId].id */\n      0x00\n      add\n      sload\n        /* \"contracts/MyblogApp.sol\":3448:3479  posts[_postId].id != bytes32(0) */\n      sub\n        /* \"contracts/MyblogApp.sol\":3440:3504  require(posts[_postId].id != bytes32(0), \"Post does not exist.\") */\n      tag_205\n      jumpi\n      mload(0x40)\n      0x08c379a000000000000000000000000000000000000000000000000000000000\n      dup2\n      mstore\n      0x04\n      add\n      tag_206\n      swap1\n      tag_198\n      jump\t// in\n    tag_206:\n      mload(0x40)\n      dup1\n      swap2\n      sub\n      swap1\n      revert\n    tag_205:\n        /* \"contracts/MyblogApp.sol\":3555:3557  32 */\n      0x20\n        /* \"contracts/MyblogApp.sol\":3529:3543  _commenterName */\n      dup3\n        /* \"contracts/MyblogApp.sol\":3523:3551  bytes(_commenterName).length */\n      mload\n        /* \"contracts/MyblogApp.sol\":3523:3557  bytes(_commenterName).length <= 32 */\n      gt\n      iszero\n        /* \"contracts/MyblogApp.sol\":3515:3585  require(bytes(_commenterName).length <= 32, \"Commenter name too long\") */\n      tag_207\n      jumpi\n      mload(0x40)\n      0x08c379a000000000000000000000000000000000000000000000000000000000\n      dup2\n      mstore\n      0x04\n      add\n      tag_208\n      swap1\n      tag_209\n      jump\t// in\n    tag_208:\n      mload(0x40)\n      dup1\n      swap2\n      sub\n      swap1\n      revert\n    tag_207:\n        /* \"contracts/MyblogApp.sol\":3598:3615  bytes32 commentId */\n      0x00\n        /* \"contracts/MyblogApp.sol\":3645:3655  msg.sender */\n      caller\n        /* \"contracts/MyblogApp.sol\":3657:3672  block.timestamp */\n      timestamp\n        /* \"contracts/MyblogApp.sol\":3674:3682  _content */\n      dup4\n        /* \"contracts/MyblogApp.sol\":3628:3683  abi.encodePacked(msg.sender, block.timestamp, _content) */\n      add(0x20, mload(0x40))\n      tag_210\n      swap4\n      swap3\n      swap2\n      swap1\n      tag_211\n      jump\t// in\n    tag_210:\n      mload(0x40)\n      0x20\n      dup2\n      dup4\n      sub\n      sub\n      dup2\n      mstore\n      swap1\n      0x40\n      mstore\n        /* \"contracts/MyblogApp.sol\":3618:3684  keccak256(abi.encodePacked(msg.sender, block.timestamp, _content)) */\n      dup1\n      mload\n      swap1\n      0x20\n      add\n      keccak256\n        /* \"contracts/MyblogApp.sol\":3598:3684  bytes32 commentId = keccak256(abi.encodePacked(msg.sender, block.timestamp, _content)) */\n      swap1\n      pop\n        /* \"contracts/MyblogApp.sol\":3697:3722  Comment memory newComment */\n      0x00\n        /* \"contracts/MyblogApp.sol\":3725:3983  Comment({... */\n      mload(0x40)\n      dup1\n      0xe0\n      add\n      0x40\n      mstore\n      dup1\n        /* \"contracts/MyblogApp.sol\":3752:3761  commentId */\n      dup4\n        /* \"contracts/MyblogApp.sol\":3725:3983  Comment({... */\n      dup2\n      mstore\n      0x20\n      add\n        /* \"contracts/MyblogApp.sol\":3794:3804  msg.sender */\n      caller\n        /* \"contracts/MyblogApp.sol\":3725:3983  Comment({... */\n      0xffffffffffffffffffffffffffffffffffffffff\n      and\n      dup2\n      mstore\n      0x20\n      add\n        /* \"contracts/MyblogApp.sol\":3834:3848  _commenterName */\n      dup6\n        /* \"contracts/MyblogApp.sol\":3725:3983  Comment({... */\n      dup2\n      mstore\n      0x20\n      add\n        /* \"contracts/MyblogApp.sol\":3872:3880  _content */\n      dup5\n        /* \"contracts/MyblogApp.sol\":3725:3983  Comment({... */\n      dup2\n      mstore\n      0x20\n      add\n        /* \"contracts/MyblogApp.sol\":3903:3904  0 */\n      0x00\n        /* \"contracts/MyblogApp.sol\":3725:3983  Comment({... */\n      dup2\n      mstore\n      0x20\n      add\n        /* \"contracts/MyblogApp.sol\":3929:3930  0 */\n      0x00\n        /* \"contracts/MyblogApp.sol\":3725:3983  Comment({... */\n      dup2\n      mstore\n      0x20\n      add\n        /* \"contracts/MyblogApp.sol\":3956:3971  block.timestamp */\n      timestamp\n        /* \"contracts/MyblogApp.sol\":3725:3983  Comment({... */\n      dup2\n      mstore\n      pop\n        /* \"contracts/MyblogApp.sol\":3697:3983  Comment memory newComment = Comment({... */\n      swap1\n      pop\n        /* \"contracts/MyblogApp.sol\":3996:4008  postComments */\n      0x03\n        /* \"contracts/MyblogApp.sol\":3996:4017  postComments[_postId] */\n      0x00\n        /* \"contracts/MyblogApp.sol\":4009:4016  _postId */\n      dup7\n        /* \"contracts/MyblogApp.sol\":3996:4017  postComments[_postId] */\n      dup2\n      mstore\n      0x20\n      add\n      swap1\n      dup2\n      mstore\n      0x20\n      add\n      0x00\n      keccak256\n        /* \"contracts/MyblogApp.sol\":4023:4033  newComment */\n      dup2\n        /* \"contracts/MyblogApp.sol\":3996:4034  postComments[_postId].push(newComment) */\n      swap1\n      dup1\n      0x01\n      dup2\n      sload\n      add\n      dup1\n      dup3\n      sstore\n      dup1\n      swap2\n      pop\n      pop\n      0x01\n      swap1\n      sub\n      swap1\n      0x00\n      mstore\n      keccak256(0x00, 0x20)\n      swap1\n      0x07\n      mul\n      add\n      0x00\n      swap1\n      swap2\n      swap1\n      swap2\n      swap1\n      swap2\n      pop\n      0x00\n      dup3\n      add\n      mload\n      dup2\n      0x00\n      add\n      sstore\n      0x20\n      dup3\n      add\n      mload\n      dup2\n      0x01\n      add\n      exp(0x0100, 0x00)\n      dup2\n      sload\n      dup2\n      0xffffffffffffffffffffffffffffffffffffffff\n      mul\n      not\n      and\n      swap1\n      dup4\n      0xffffffffffffffffffffffffffffffffffffffff\n      and\n      mul\n      or\n      swap1\n      sstore\n      pop\n      0x40\n      dup3\n      add\n      mload\n      dup2\n      0x02\n      add\n      swap1\n      dup2\n      tag_213\n      swap2\n      swap1\n      tag_214\n      jump\t// in\n    tag_213:\n      pop\n      0x60\n      dup3\n      add\n      mload\n      dup2\n      0x03\n      add\n      swap1\n      dup2\n      tag_215\n      swap2\n      swap1\n      tag_214\n      jump\t// in\n    tag_215:\n      pop\n      0x80\n      dup3\n      add\n      mload\n      dup2\n      0x04\n      add\n      sstore\n      0xa0\n      dup3\n      add\n      mload\n      dup2\n      0x05\n      add\n      sstore\n      0xc0\n      dup3\n      add\n      mload\n      dup2\n      0x06\n      add\n      sstore\n      pop\n      pop\n        /* \"contracts/MyblogApp.sol\":4098:4108  newComment */\n      dup1\n        /* \"contracts/MyblogApp.sol\":4073:4084  commentById */\n      0x08\n        /* \"contracts/MyblogApp.sol\":4073:4095  commentById[commentId] */\n      0x00\n        /* \"contracts/MyblogApp.sol\":4085:4094  commentId */\n      dup5\n        /* \"contracts/MyblogApp.sol\":4073:4095  commentById[commentId] */\n      dup2\n      mstore\n      0x20\n      add\n      swap1\n      dup2\n      mstore\n      0x20\n      add\n      0x00\n      keccak256\n        /* \"contracts/MyblogApp.sol\":4073:4108  commentById[commentId] = newComment */\n      0x00\n      dup3\n      add\n      mload\n      dup2\n      0x00\n      add\n      sstore\n      0x20\n      dup3\n      add\n      mload\n      dup2\n      0x01\n      add\n      exp(0x0100, 0x00)\n      dup2\n      sload\n      dup2\n      0xffffffffffffffffffffffffffffffffffffffff\n      mul\n      not\n      and\n      swap1\n      dup4\n      0xffffffffffffffffffffffffffffffffffffffff\n      and\n      mul\n      or\n      swap1\n      sstore\n      pop\n      0x40\n      dup3\n      add\n      mload\n      dup2\n      0x02\n      add\n      swap1\n      dup2\n      tag_216\n      swap2\n      swap1\n      tag_214\n      jump\t// in\n    tag_216:\n      pop\n      0x60\n      dup3\n      add\n      mload\n      dup2\n      0x03\n      add\n      swap1\n      dup2\n      tag_217\n      swap2\n      swap1\n      tag_214\n      jump\t// in\n    tag_217:\n      pop\n      0x80\n      dup3\n      add\n      mload\n      dup2\n      0x04\n      add\n      sstore\n      0xa0\n      dup3\n      add\n      mload\n      dup2\n      0x05\n      add\n      sstore\n      0xc0\n      dup3\n      add\n      mload\n      dup2\n      0x06\n      add\n      sstore\n      swap1\n      pop\n      pop\n        /* \"contracts/MyblogApp.sol\":4164:4178  userCommentIds */\n      0x09\n        /* \"contracts/MyblogApp.sol\":4164:4190  userCommentIds[msg.sender] */\n      0x00\n        /* \"contracts/MyblogApp.sol\":4179:4189  msg.sender */\n      caller\n        /* \"contracts/MyblogApp.sol\":4164:4190  userCommentIds[msg.sender] */\n      0xffffffffffffffffffffffffffffffffffffffff\n      and\n      0xffffffffffffffffffffffffffffffffffffffff\n      and\n      dup2\n      mstore\n      0x20\n      add\n      swap1\n      dup2\n      mstore\n      0x20\n      add\n      0x00\n      keccak256\n        /* \"contracts/MyblogApp.sol\":4196:4205  commentId */\n      dup3\n        /* \"contracts/MyblogApp.sol\":4164:4206  userCommentIds[msg.sender].push(commentId) */\n      swap1\n      dup1\n      0x01\n      dup2\n      sload\n      add\n      dup1\n      dup3\n      sstore\n      dup1\n      swap2\n      pop\n      pop\n      0x01\n      swap1\n      sub\n      swap1\n      0x00\n      mstore\n      keccak256(0x00, 0x20)\n      add\n      0x00\n      swap1\n      swap2\n      swap1\n      swap2\n      swap1\n      swap2\n      pop\n      sstore\n        /* \"contracts/MyblogApp.sol\":4246:4255  commentId */\n      dup2\n        /* \"contracts/MyblogApp.sol\":4237:4244  _postId */\n      dup6\n        /* \"contracts/MyblogApp.sol\":4224:4311  CommentAdded(_postId, commentId, msg.sender, _commenterName, _content, block.timestamp) */\n      0x121f72518586f939bfb34c62bbf7d31b0a8ae8ecbcac0869550705ee4cff80f5\n        /* \"contracts/MyblogApp.sol\":4257:4267  msg.sender */\n      caller\n        /* \"contracts/MyblogApp.sol\":4269:4283  _commenterName */\n      dup8\n        /* \"contracts/MyblogApp.sol\":4285:4293  _content */\n      dup8\n        /* \"contracts/MyblogApp.sol\":4295:4310  block.timestamp */\n      timestamp\n        /* \"contracts/MyblogApp.sol\":4224:4311  CommentAdded(_postId, commentId, msg.sender, _commenterName, _content, block.timestamp) */\n      mload(0x40)\n      tag_219\n      swap5\n      swap4\n      swap3\n      swap2\n      swap1\n      tag_220\n      jump\t// in\n    tag_219:\n      mload(0x40)\n      dup1\n      swap2\n      sub\n      swap1\n      log3\n        /* \"contracts/MyblogApp.sol\":3429:4319  {... */\n      pop\n      pop\n        /* \"contracts/MyblogApp.sol\":3331:4319  function addComment(bytes32 _postId, string memory _commenterName, string memory _content) public {... */\n      pop\n      pop\n      pop\n      jump\t// out\n        /* \"contracts/MyblogApp.sol\":6468:6949  function getPostById(bytes32 _postId) public view returns (... */\n    tag_63:\n        /* \"contracts/MyblogApp.sol\":6537:6547  bytes32 id */\n      0x00\n        /* \"contracts/MyblogApp.sol\":6558:6578  string memory author */\n      0x60\n        /* \"contracts/MyblogApp.sol\":6589:6608  string memory title */\n      dup1\n        /* \"contracts/MyblogApp.sol\":6619:6644  string memory contentHash */\n      0x60\n        /* \"contracts/MyblogApp.sol\":6655:6669  uint256 upvote */\n      0x00\n        /* \"contracts/MyblogApp.sol\":6680:6696  uint256 downvote */\n      0x00\n        /* \"contracts/MyblogApp.sol\":6707:6724  uint256 timestamp */\n      0x00\n        /* \"contracts/MyblogApp.sol\":6780:6781  0 */\n      0x00\n        /* \"contracts/MyblogApp.sol\":6772:6782  bytes32(0) */\n      0x00\n      shl\n        /* \"contracts/MyblogApp.sol\":6751:6756  posts */\n      0x02\n        /* \"contracts/MyblogApp.sol\":6751:6765  posts[_postId] */\n      0x00\n        /* \"contracts/MyblogApp.sol\":6757:6764  _postId */\n      dup11\n        /* \"contracts/MyblogApp.sol\":6751:6765  posts[_postId] */\n      dup2\n      mstore\n      0x20\n      add\n      swap1\n      dup2\n      mstore\n      0x20\n      add\n      0x00\n      keccak256\n        /* \"contracts/MyblogApp.sol\":6751:6768  posts[_postId].id */\n      0x00\n      add\n      sload\n        /* \"contracts/MyblogApp.sol\":6751:6782  posts[_postId].id != bytes32(0) */\n      sub\n        /* \"contracts/MyblogApp.sol\":6743:6807  require(posts[_postId].id != bytes32(0), \"Post does not exist.\") */\n      tag_222\n      jumpi\n      mload(0x40)\n      0x08c379a000000000000000000000000000000000000000000000000000000000\n      dup2\n      mstore\n      0x04\n      add\n      tag_223\n      swap1\n      tag_198\n      jump\t// in\n    tag_223:\n      mload(0x40)\n      dup1\n      swap2\n      sub\n      swap1\n      revert\n    tag_222:\n        /* \"contracts/MyblogApp.sol\":6818:6831  Post memory p */\n      0x00\n        /* \"contracts/MyblogApp.sol\":6834:6839  posts */\n      0x02\n        /* \"contracts/MyblogApp.sol\":6834:6848  posts[_postId] */\n      0x00\n        /* \"contracts/MyblogApp.sol\":6840:6847  _postId */\n      dup11\n        /* \"contracts/MyblogApp.sol\":6834:6848  posts[_postId] */\n      dup2\n      mstore\n      0x20\n      add\n      swap1\n      dup2\n      mstore\n      0x20\n      add\n      0x00\n      keccak256\n        /* \"contracts/MyblogApp.sol\":6818:6848  Post memory p = posts[_postId] */\n      mload(0x40)\n      dup1\n      0xe0\n      add\n      0x40\n      mstore\n      swap1\n      dup2\n      0x00\n      dup3\n      add\n      sload\n      dup2\n      mstore\n      0x20\n      add\n      0x01\n      dup3\n      add\n      dup1\n      sload\n      tag_224\n      swap1\n      tag_101\n      jump\t// in\n    tag_224:\n      dup1\n      0x1f\n      add\n      0x20\n      dup1\n      swap2\n      div\n      mul\n      0x20\n      add\n      mload(0x40)\n      swap1\n      dup2\n      add\n      0x40\n      mstore\n      dup1\n      swap3\n      swap2\n      swap1\n      dup2\n      dup2\n      mstore\n      0x20\n      add\n      dup3\n      dup1\n      sload\n      tag_225\n      swap1\n      tag_101\n      jump\t// in\n    tag_225:\n      dup1\n      iszero\n      tag_226\n      jumpi\n      dup1\n      0x1f\n      lt\n      tag_227\n      jumpi\n      0x0100\n      dup1\n      dup4\n      sload\n      div\n      mul\n      dup4\n      mstore\n      swap2\n      0x20\n      add\n      swap2\n      jump(tag_226)\n    tag_227:\n      dup3\n      add\n      swap2\n      swap1\n      0x00\n      mstore\n      keccak256(0x00, 0x20)\n      swap1\n    tag_228:\n      dup2\n      sload\n      dup2\n      mstore\n      swap1\n      0x01\n      add\n      swap1\n      0x20\n      add\n      dup1\n      dup4\n      gt\n      tag_228\n      jumpi\n      dup3\n      swap1\n      sub\n      0x1f\n      and\n      dup3\n      add\n      swap2\n    tag_226:\n      pop\n      pop\n      pop\n      pop\n      pop\n      dup2\n      mstore\n      0x20\n      add\n      0x02\n      dup3\n      add\n      dup1\n      sload\n      tag_229\n      swap1\n      tag_101\n      jump\t// in\n    tag_229:\n      dup1\n      0x1f\n      add\n      0x20\n      dup1\n      swap2\n      div\n      mul\n      0x20\n      add\n      mload(0x40)\n      swap1\n      dup2\n      add\n      0x40\n      mstore\n      dup1\n      swap3\n      swap2\n      swap1\n      dup2\n      dup2\n      mstore\n      0x20\n      add\n      dup3\n      dup1\n      sload\n      tag_230\n      swap1\n      tag_101\n      jump\t// in\n    tag_230:\n      dup1\n      iszero\n      tag_231\n      jumpi\n      dup1\n      0x1f\n      lt\n      tag_232\n      jumpi\n      0x0100\n      dup1\n      dup4\n      sload\n      div\n      mul\n      dup4\n      mstore\n      swap2\n      0x20\n      add\n      swap2\n      jump(tag_231)\n    tag_232:\n      dup3\n      add\n      swap2\n      swap1\n      0x00\n      mstore\n      keccak256(0x00, 0x20)\n      swap1\n    tag_233:\n      dup2\n      sload\n      dup2\n      mstore\n      swap1\n      0x01\n      add\n      swap1\n      0x20\n      add\n      dup1\n      dup4\n      gt\n      tag_233\n      jumpi\n      dup3\n      swap1\n      sub\n      0x1f\n      and\n      dup3\n      add\n      swap2\n    tag_231:\n      pop\n      pop\n      pop\n      pop\n      pop\n      dup2\n      mstore\n      0x20\n      add\n      0x03\n      dup3\n      add\n      dup1\n      sload\n      tag_234\n      swap1\n      tag_101\n      jump\t// in\n    tag_234:\n      dup1\n      0x1f\n      add\n      0x20\n      dup1\n      swap2\n      div\n      mul\n      0x20\n      add\n      mload(0x40)\n      swap1\n      dup2\n      add\n      0x40\n      mstore\n      dup1\n      swap3\n      swap2\n      swap1\n      dup2\n      dup2\n      mstore\n      0x20\n      add\n      dup3\n      dup1\n      sload\n      tag_235\n      swap1\n      tag_101\n      jump\t// in\n    tag_235:\n      dup1\n      iszero\n      tag_236\n      jumpi\n      dup1\n      0x1f\n      lt\n      tag_237\n      jumpi\n      0x0100\n      dup1\n      dup4\n      sload\n      div\n      mul\n      dup4\n      mstore\n      swap2\n      0x20\n      add\n      swap2\n      jump(tag_236)\n    tag_237:\n      dup3\n      add\n      swap2\n      swap1\n      0x00\n      mstore\n      keccak256(0x00, 0x20)\n      swap1\n    tag_238:\n      dup2\n      sload\n      dup2\n      mstore\n      swap1\n      0x01\n      add\n      swap1\n      0x20\n      add\n      dup1\n      dup4\n      gt\n      tag_238\n      jumpi\n      dup3\n      swap1\n      sub\n      0x1f\n      and\n      dup3\n      add\n      swap2\n    tag_236:\n      pop\n      pop\n      pop\n      pop\n      pop\n      dup2\n      mstore\n      0x20\n      add\n      0x04\n      dup3\n      add\n      sload\n      dup2\n      mstore\n      0x20\n      add\n      0x05\n      dup3\n      add\n      sload\n      dup2\n      mstore\n      0x20\n      add\n      0x06\n      dup3\n      add\n      sload\n      dup2\n      mstore\n      pop\n      pop\n      swap1\n      pop\n        /* \"contracts/MyblogApp.sol\":6867:6868  p */\n      dup1\n        /* \"contracts/MyblogApp.sol\":6867:6871  p.id */\n      0x00\n      add\n      mload\n        /* \"contracts/MyblogApp.sol\":6873:6874  p */\n      dup2\n        /* \"contracts/MyblogApp.sol\":6873:6881  p.author */\n      0x20\n      add\n      mload\n        /* \"contracts/MyblogApp.sol\":6883:6884  p */\n      dup3\n        /* \"contracts/MyblogApp.sol\":6883:6890  p.title */\n      0x40\n      add\n      mload\n        /* \"contracts/MyblogApp.sol\":6892:6893  p */\n      dup4\n        /* \"contracts/MyblogApp.sol\":6892:6905  p.contentHash */\n      0x60\n      add\n      mload\n        /* \"contracts/MyblogApp.sol\":6907:6908  p */\n      dup5\n        /* \"contracts/MyblogApp.sol\":6907:6915  p.upvote */\n      0x80\n      add\n      mload\n        /* \"contracts/MyblogApp.sol\":6917:6918  p */\n      dup6\n        /* \"contracts/MyblogApp.sol\":6917:6927  p.downvote */\n      0xa0\n      add\n      mload\n        /* \"contracts/MyblogApp.sol\":6929:6930  p */\n      dup7\n        /* \"contracts/MyblogApp.sol\":6929:6940  p.timestamp */\n      0xc0\n      add\n      mload\n        /* \"contracts/MyblogApp.sol\":6859:6941  return (p.id, p.author, p.title, p.contentHash, p.upvote, p.downvote, p.timestamp) */\n      swap8\n      pop\n      swap8\n      pop\n      swap8\n      pop\n      swap8\n      pop\n      swap8\n      pop\n      swap8\n      pop\n      swap8\n      pop\n      pop\n        /* \"contracts/MyblogApp.sol\":6468:6949  function getPostById(bytes32 _postId) public view returns (... */\n      swap2\n      swap4\n      swap6\n      swap8\n      swap1\n      swap3\n      swap5\n      swap7\n      pop\n      jump\t// out\n        /* \"contracts/MyblogApp.sol\":770:832  mapping(bytes32 => mapping(address => bool)) public hasUpVoted */\n    tag_68:\n      mstore(0x20, 0x04)\n      dup2\n      0x00\n      mstore\n      mstore(0x20, keccak256(0x00, 0x40))\n      dup1\n      0x00\n      mstore\n      keccak256(0x00, 0x40)\n      0x00\n      swap2\n      pop\n      swap2\n      pop\n      swap1\n      sload\n      swap1\n      0x0100\n      exp\n      swap1\n      div\n      0xff\n      and\n      dup2\n      jump\t// out\n        /* \"contracts/MyblogApp.sol\":2606:2944  function upvotePost(bytes32 _postId) public {... */\n    tag_72:\n        /* \"contracts/MyblogApp.sol\":2698:2699  0 */\n      0x00\n        /* \"contracts/MyblogApp.sol\":2690:2700  bytes32(0) */\n      0x00\n      shl\n        /* \"contracts/MyblogApp.sol\":2669:2674  posts */\n      0x02\n        /* \"contracts/MyblogApp.sol\":2669:2683  posts[_postId] */\n      0x00\n        /* \"contracts/MyblogApp.sol\":2675:2682  _postId */\n      dup4\n        /* \"contracts/MyblogApp.sol\":2669:2683  posts[_postId] */\n      dup2\n      mstore\n      0x20\n      add\n      swap1\n      dup2\n      mstore\n      0x20\n      add\n      0x00\n      keccak256\n        /* \"contracts/MyblogApp.sol\":2669:2686  posts[_postId].id */\n      0x00\n      add\n      sload\n        /* \"contracts/MyblogApp.sol\":2669:2700  posts[_postId].id != bytes32(0) */\n      sub\n        /* \"contracts/MyblogApp.sol\":2661:2725  require(posts[_postId].id != bytes32(0), \"Post does not exist.\") */\n      tag_240\n      jumpi\n      mload(0x40)\n      0x08c379a000000000000000000000000000000000000000000000000000000000\n      dup2\n      mstore\n      0x04\n      add\n      tag_241\n      swap1\n      tag_198\n      jump\t// in\n    tag_241:\n      mload(0x40)\n      dup1\n      swap2\n      sub\n      swap1\n      revert\n    tag_240:\n        /* \"contracts/MyblogApp.sol\":2745:2755  hasUpVoted */\n      0x04\n        /* \"contracts/MyblogApp.sol\":2745:2764  hasUpVoted[_postId] */\n      0x00\n        /* \"contracts/MyblogApp.sol\":2756:2763  _postId */\n      dup3\n        /* \"contracts/MyblogApp.sol\":2745:2764  hasUpVoted[_postId] */\n      dup2\n      mstore\n      0x20\n      add\n      swap1\n      dup2\n      mstore\n      0x20\n      add\n      0x00\n      keccak256\n        /* \"contracts/MyblogApp.sol\":2745:2776  hasUpVoted[_postId][msg.sender] */\n      0x00\n        /* \"contracts/MyblogApp.sol\":2765:2775  msg.sender */\n      caller\n        /* \"contracts/MyblogApp.sol\":2745:2776  hasUpVoted[_postId][msg.sender] */\n      0xffffffffffffffffffffffffffffffffffffffff\n      and\n      0xffffffffffffffffffffffffffffffffffffffff\n      and\n      dup2\n      mstore\n      0x20\n      add\n      swap1\n      dup2\n      mstore\n      0x20\n      add\n      0x00\n      keccak256\n      0x00\n      swap1\n      sload\n      swap1\n      0x0100\n      exp\n      swap1\n      div\n      0xff\n      and\n        /* \"contracts/MyblogApp.sol\":2744:2776  !hasUpVoted[_postId][msg.sender] */\n      iszero\n        /* \"contracts/MyblogApp.sol\":2736:2797  require(!hasUpVoted[_postId][msg.sender], \"Already upvoted.\") */\n      tag_242\n      jumpi\n      mload(0x40)\n      0x08c379a000000000000000000000000000000000000000000000000000000000\n      dup2\n      mstore\n      0x04\n      add\n      tag_243\n      swap1\n      tag_244\n      jump\t// in\n    tag_243:\n      mload(0x40)\n      dup1\n      swap2\n      sub\n      swap1\n      revert\n    tag_242:\n        /* \"contracts/MyblogApp.sol\":2810:2815  posts */\n      0x02\n        /* \"contracts/MyblogApp.sol\":2810:2824  posts[_postId] */\n      0x00\n        /* \"contracts/MyblogApp.sol\":2816:2823  _postId */\n      dup3\n        /* \"contracts/MyblogApp.sol\":2810:2824  posts[_postId] */\n      dup2\n      mstore\n      0x20\n      add\n      swap1\n      dup2\n      mstore\n      0x20\n      add\n      0x00\n      keccak256\n        /* \"contracts/MyblogApp.sol\":2810:2831  posts[_postId].upvote */\n      0x04\n      add\n      0x00\n        /* \"contracts/MyblogApp.sol\":2810:2833  posts[_postId].upvote++ */\n      dup2\n      sload\n      dup1\n      swap3\n      swap2\n      swap1\n      tag_245\n      swap1\n      tag_155\n      jump\t// in\n    tag_245:\n      swap2\n      swap1\n      pop\n      sstore\n      pop\n        /* \"contracts/MyblogApp.sol\":2878:2882  true */\n      0x01\n        /* \"contracts/MyblogApp.sol\":2844:2854  hasUpVoted */\n      0x04\n        /* \"contracts/MyblogApp.sol\":2844:2863  hasUpVoted[_postId] */\n      0x00\n        /* \"contracts/MyblogApp.sol\":2855:2862  _postId */\n      dup4\n        /* \"contracts/MyblogApp.sol\":2844:2863  hasUpVoted[_postId] */\n      dup2\n      mstore\n      0x20\n      add\n      swap1\n      dup2\n      mstore\n      0x20\n      add\n      0x00\n      keccak256\n        /* \"contracts/MyblogApp.sol\":2844:2875  hasUpVoted[_postId][msg.sender] */\n      0x00\n        /* \"contracts/MyblogApp.sol\":2864:2874  msg.sender */\n      caller\n        /* \"contracts/MyblogApp.sol\":2844:2875  hasUpVoted[_postId][msg.sender] */\n      0xffffffffffffffffffffffffffffffffffffffff\n      and\n      0xffffffffffffffffffffffffffffffffffffffff\n      and\n      dup2\n      mstore\n      0x20\n      add\n      swap1\n      dup2\n      mstore\n      0x20\n      add\n      0x00\n      keccak256\n      0x00\n        /* \"contracts/MyblogApp.sol\":2844:2882  hasUpVoted[_postId][msg.sender] = true */\n      0x0100\n      exp\n      dup2\n      sload\n      dup2\n      0xff\n      mul\n      not\n      and\n      swap1\n      dup4\n      iszero\n      iszero\n      mul\n      or\n      swap1\n      sstore\n      pop\n        /* \"contracts/MyblogApp.sol\":2919:2929  msg.sender */\n      caller\n        /* \"contracts/MyblogApp.sol\":2900:2936  PostVoted(_postId, msg.sender, true) */\n      0xffffffffffffffffffffffffffffffffffffffff\n      and\n        /* \"contracts/MyblogApp.sol\":2910:2917  _postId */\n      dup2\n        /* \"contracts/MyblogApp.sol\":2900:2936  PostVoted(_postId, msg.sender, true) */\n      0xa7e4c5082f867ea22a45a95c2043209b9ce83d70ca31ccb947e67592ea14c4b1\n        /* \"contracts/MyblogApp.sol\":2931:2935  true */\n      0x01\n        /* \"contracts/MyblogApp.sol\":2900:2936  PostVoted(_postId, msg.sender, true) */\n      mload(0x40)\n      tag_246\n      swap2\n      swap1\n      tag_26\n      jump\t// in\n    tag_246:\n      mload(0x40)\n      dup1\n      swap2\n      sub\n      swap1\n      log3\n        /* \"contracts/MyblogApp.sol\":2606:2944  function upvotePost(bytes32 _postId) public {... */\n      pop\n      jump\t// out\n        /* \"contracts/MyblogApp.sol\":1852:2575  function createPost(string memory _author, string memory _title, string memory _contentHash) public {... */\n    tag_76:\n        /* \"contracts/MyblogApp.sol\":1996:1998  32 */\n      0x20\n        /* \"contracts/MyblogApp.sol\":1977:1984  _author */\n      dup4\n        /* \"contracts/MyblogApp.sol\":1971:1992  bytes(_author).length */\n      mload\n        /* \"contracts/MyblogApp.sol\":1971:1998  bytes(_author).length <= 32 */\n      gt\n      iszero\n        /* \"contracts/MyblogApp.sol\":1963:2023  require(bytes(_author).length <= 32, \"Author name too long\") */\n      tag_248\n      jumpi\n      mload(0x40)\n      0x08c379a000000000000000000000000000000000000000000000000000000000\n      dup2\n      mstore\n      0x04\n      add\n      tag_249\n      swap1\n      tag_250\n      jump\t// in\n    tag_249:\n      mload(0x40)\n      dup1\n      swap2\n      sub\n      swap1\n      revert\n    tag_248:\n        /* \"contracts/MyblogApp.sol\":2036:2047  bytes32 _id */\n      0x00\n        /* \"contracts/MyblogApp.sol\":2077:2087  msg.sender */\n      caller\n        /* \"contracts/MyblogApp.sol\":2089:2104  block.timestamp */\n      timestamp\n        /* \"contracts/MyblogApp.sol\":2106:2112  _title */\n      dup5\n        /* \"contracts/MyblogApp.sol\":2114:2126  _contentHash */\n      dup5\n        /* \"contracts/MyblogApp.sol\":2060:2127  abi.encodePacked(msg.sender, block.timestamp, _title, _contentHash) */\n      add(0x20, mload(0x40))\n      tag_251\n      swap5\n      swap4\n      swap3\n      swap2\n      swap1\n      tag_252\n      jump\t// in\n    tag_251:\n      mload(0x40)\n      0x20\n      dup2\n      dup4\n      sub\n      sub\n      dup2\n      mstore\n      swap1\n      0x40\n      mstore\n        /* \"contracts/MyblogApp.sol\":2050:2128  keccak256(abi.encodePacked(msg.sender, block.timestamp, _title, _contentHash)) */\n      dup1\n      mload\n      swap1\n      0x20\n      add\n      keccak256\n        /* \"contracts/MyblogApp.sol\":2036:2128  bytes32 _id = keccak256(abi.encodePacked(msg.sender, block.timestamp, _title, _contentHash)) */\n      swap1\n      pop\n        /* \"contracts/MyblogApp.sol\":2141:2160  Post memory newpost */\n      0x00\n        /* \"contracts/MyblogApp.sol\":2163:2391  Post({... */\n      mload(0x40)\n      dup1\n      0xe0\n      add\n      0x40\n      mstore\n      dup1\n        /* \"contracts/MyblogApp.sol\":2187:2190  _id */\n      dup4\n        /* \"contracts/MyblogApp.sol\":2163:2391  Post({... */\n      dup2\n      mstore\n      0x20\n      add\n        /* \"contracts/MyblogApp.sol\":2213:2220  _author */\n      dup7\n        /* \"contracts/MyblogApp.sol\":2163:2391  Post({... */\n      dup2\n      mstore\n      0x20\n      add\n        /* \"contracts/MyblogApp.sol\":2242:2248  _title */\n      dup6\n        /* \"contracts/MyblogApp.sol\":2163:2391  Post({... */\n      dup2\n      mstore\n      0x20\n      add\n        /* \"contracts/MyblogApp.sol\":2276:2288  _contentHash */\n      dup5\n        /* \"contracts/MyblogApp.sol\":2163:2391  Post({... */\n      dup2\n      mstore\n      0x20\n      add\n        /* \"contracts/MyblogApp.sol\":2311:2312  0 */\n      0x00\n        /* \"contracts/MyblogApp.sol\":2163:2391  Post({... */\n      dup2\n      mstore\n      0x20\n      add\n        /* \"contracts/MyblogApp.sol\":2337:2338  0 */\n      0x00\n        /* \"contracts/MyblogApp.sol\":2163:2391  Post({... */\n      dup2\n      mstore\n      0x20\n      add\n        /* \"contracts/MyblogApp.sol\":2364:2379  block.timestamp */\n      timestamp\n        /* \"contracts/MyblogApp.sol\":2163:2391  Post({... */\n      dup2\n      mstore\n      pop\n        /* \"contracts/MyblogApp.sol\":2141:2391  Post memory newpost = Post({... */\n      swap1\n      pop\n        /* \"contracts/MyblogApp.sol\":2404:2415  allPostsIds */\n      0x00\n        /* \"contracts/MyblogApp.sol\":2421:2424  _id */\n      dup3\n        /* \"contracts/MyblogApp.sol\":2404:2425  allPostsIds.push(_id) */\n      swap1\n      dup1\n      0x01\n      dup2\n      sload\n      add\n      dup1\n      dup3\n      sstore\n      dup1\n      swap2\n      pop\n      pop\n      0x01\n      swap1\n      sub\n      swap1\n      0x00\n      mstore\n      keccak256(0x00, 0x20)\n      add\n      0x00\n      swap1\n      swap2\n      swap1\n      swap2\n      swap1\n      swap2\n      pop\n      sstore\n        /* \"contracts/MyblogApp.sol\":2436:2445  userPosts */\n      0x01\n        /* \"contracts/MyblogApp.sol\":2436:2457  userPosts[msg.sender] */\n      0x00\n        /* \"contracts/MyblogApp.sol\":2446:2456  msg.sender */\n      caller\n        /* \"contracts/MyblogApp.sol\":2436:2457  userPosts[msg.sender] */\n      0xffffffffffffffffffffffffffffffffffffffff\n      and\n      0xffffffffffffffffffffffffffffffffffffffff\n      and\n      dup2\n      mstore\n      0x20\n      add\n      swap1\n      dup2\n      mstore\n      0x20\n      add\n      0x00\n      keccak256\n        /* \"contracts/MyblogApp.sol\":2463:2466  _id */\n      dup3\n        /* \"contracts/MyblogApp.sol\":2436:2467  userPosts[msg.sender].push(_id) */\n      swap1\n      dup1\n      0x01\n      dup2\n      sload\n      add\n      dup1\n      dup3\n      sstore\n      dup1\n      swap2\n      pop\n      pop\n      0x01\n      swap1\n      sub\n      swap1\n      0x00\n      mstore\n      keccak256(0x00, 0x20)\n      add\n      0x00\n      swap1\n      swap2\n      swap1\n      swap2\n      swap1\n      swap2\n      pop\n      sstore\n        /* \"contracts/MyblogApp.sol\":2491:2498  newpost */\n      dup1\n        /* \"contracts/MyblogApp.sol\":2478:2483  posts */\n      0x02\n        /* \"contracts/MyblogApp.sol\":2478:2488  posts[_id] */\n      0x00\n        /* \"contracts/MyblogApp.sol\":2484:2487  _id */\n      dup5\n        /* \"contracts/MyblogApp.sol\":2478:2488  posts[_id] */\n      dup2\n      mstore\n      0x20\n      add\n      swap1\n      dup2\n      mstore\n      0x20\n      add\n      0x00\n      keccak256\n        /* \"contracts/MyblogApp.sol\":2478:2498  posts[_id] = newpost */\n      0x00\n      dup3\n      add\n      mload\n      dup2\n      0x00\n      add\n      sstore\n      0x20\n      dup3\n      add\n      mload\n      dup2\n      0x01\n      add\n      swap1\n      dup2\n      tag_255\n      swap2\n      swap1\n      tag_214\n      jump\t// in\n    tag_255:\n      pop\n      0x40\n      dup3\n      add\n      mload\n      dup2\n      0x02\n      add\n      swap1\n      dup2\n      tag_256\n      swap2\n      swap1\n      tag_214\n      jump\t// in\n    tag_256:\n      pop\n      0x60\n      dup3\n      add\n      mload\n      dup2\n      0x03\n      add\n      swap1\n      dup2\n      tag_257\n      swap2\n      swap1\n      tag_214\n      jump\t// in\n    tag_257:\n      pop\n      0x80\n      dup3\n      add\n      mload\n      dup2\n      0x04\n      add\n      sstore\n      0xa0\n      dup3\n      add\n      mload\n      dup2\n      0x05\n      add\n      sstore\n      0xc0\n      dup3\n      add\n      mload\n      dup2\n      0x06\n      add\n      sstore\n      swap1\n      pop\n      pop\n        /* \"contracts/MyblogApp.sol\":2529:2532  _id */\n      dup2\n        /* \"contracts/MyblogApp.sol\":2516:2567  Postcreation(_id, _title, _author, block.timestamp) */\n      0x17f34748f078a06d3c7c034ef1cdf60a8b2baf4592df676d3a2ae61596619f98\n        /* \"contracts/MyblogApp.sol\":2534:2540  _title */\n      dup6\n        /* \"contracts/MyblogApp.sol\":2542:2549  _author */\n      dup8\n        /* \"contracts/MyblogApp.sol\":2551:2566  block.timestamp */\n      timestamp\n        /* \"contracts/MyblogApp.sol\":2516:2567  Postcreation(_id, _title, _author, block.timestamp) */\n      mload(0x40)\n      tag_258\n      swap4\n      swap3\n      swap2\n      swap1\n      tag_259\n      jump\t// in\n    tag_258:\n      mload(0x40)\n      dup1\n      swap2\n      sub\n      swap1\n      log2\n        /* \"contracts/MyblogApp.sol\":1952:2575  {... */\n      pop\n      pop\n        /* \"contracts/MyblogApp.sol\":1852:2575  function createPost(string memory _author, string memory _title, string memory _contentHash) public {... */\n      pop\n      pop\n      pop\n      jump\t// out\n        /* \"contracts/MyblogApp.sol\":5110:5786  function downvoteComment(bytes32 _postId, bytes32 _commentId) public {... */\n    tag_79:\n        /* \"contracts/MyblogApp.sol\":5236:5237  0 */\n      0x00\n        /* \"contracts/MyblogApp.sol\":5228:5238  bytes32(0) */\n      0x00\n      shl\n        /* \"contracts/MyblogApp.sol\":5198:5209  commentById */\n      0x08\n        /* \"contracts/MyblogApp.sol\":5198:5221  commentById[_commentId] */\n      0x00\n        /* \"contracts/MyblogApp.sol\":5210:5220  _commentId */\n      dup4\n        /* \"contracts/MyblogApp.sol\":5198:5221  commentById[_commentId] */\n      dup2\n      mstore\n      0x20\n      add\n      swap1\n      dup2\n      mstore\n      0x20\n      add\n      0x00\n      keccak256\n        /* \"contracts/MyblogApp.sol\":5198:5224  commentById[_commentId].id */\n      0x00\n      add\n      sload\n        /* \"contracts/MyblogApp.sol\":5198:5238  commentById[_commentId].id != bytes32(0) */\n      sub\n        /* \"contracts/MyblogApp.sol\":5190:5265  require(commentById[_commentId].id != bytes32(0), \"Comment does not exist\") */\n      tag_261\n      jumpi\n      mload(0x40)\n      0x08c379a000000000000000000000000000000000000000000000000000000000\n      dup2\n      mstore\n      0x04\n      add\n      tag_262\n      swap1\n      tag_150\n      jump\t// in\n    tag_262:\n      mload(0x40)\n      dup1\n      swap2\n      sub\n      swap1\n      revert\n    tag_261:\n        /* \"contracts/MyblogApp.sol\":5285:5304  hasDownVotedComment */\n      0x07\n        /* \"contracts/MyblogApp.sol\":5285:5316  hasDownVotedComment[_commentId] */\n      0x00\n        /* \"contracts/MyblogApp.sol\":5305:5315  _commentId */\n      dup3\n        /* \"contracts/MyblogApp.sol\":5285:5316  hasDownVotedComment[_commentId] */\n      dup2\n      mstore\n      0x20\n      add\n      swap1\n      dup2\n      mstore\n      0x20\n      add\n      0x00\n      keccak256\n        /* \"contracts/MyblogApp.sol\":5285:5328  hasDownVotedComment[_commentId][msg.sender] */\n      0x00\n        /* \"contracts/MyblogApp.sol\":5317:5327  msg.sender */\n      caller\n        /* \"contracts/MyblogApp.sol\":5285:5328  hasDownVotedComment[_commentId][msg.sender] */\n      0xffffffffffffffffffffffffffffffffffffffff\n      and\n      0xffffffffffffffffffffffffffffffffffffffff\n      and\n      dup2\n      mstore\n      0x20\n      add\n      swap1\n      dup2\n      mstore\n      0x20\n      add\n      0x00\n      keccak256\n      0x00\n      swap1\n      sload\n      swap1\n      0x0100\n      exp\n      swap1\n      div\n      0xff\n      and\n        /* \"contracts/MyblogApp.sol\":5284:5328  !hasDownVotedComment[_commentId][msg.sender] */\n      iszero\n        /* \"contracts/MyblogApp.sol\":5276:5363  require(!hasDownVotedComment[_commentId][msg.sender], \"Already downvoted this comment\") */\n      tag_263\n      jumpi\n      mload(0x40)\n      0x08c379a000000000000000000000000000000000000000000000000000000000\n      dup2\n      mstore\n      0x04\n      add\n      tag_264\n      swap1\n      tag_265\n      jump\t// in\n    tag_264:\n      mload(0x40)\n      dup1\n      swap2\n      sub\n      swap1\n      revert\n    tag_263:\n        /* \"contracts/MyblogApp.sol\":5422:5426  true */\n      0x01\n        /* \"contracts/MyblogApp.sol\":5376:5395  hasDownVotedComment */\n      0x07\n        /* \"contracts/MyblogApp.sol\":5376:5407  hasDownVotedComment[_commentId] */\n      0x00\n        /* \"contracts/MyblogApp.sol\":5396:5406  _commentId */\n      dup4\n        /* \"contracts/MyblogApp.sol\":5376:5407  hasDownVotedComment[_commentId] */\n      dup2\n      mstore\n      0x20\n      add\n      swap1\n      dup2\n      mstore\n      0x20\n      add\n      0x00\n      keccak256\n        /* \"contracts/MyblogApp.sol\":5376:5419  hasDownVotedComment[_commentId][msg.sender] */\n      0x00\n        /* \"contracts/MyblogApp.sol\":5408:5418  msg.sender */\n      caller\n        /* \"contracts/MyblogApp.sol\":5376:5419  hasDownVotedComment[_commentId][msg.sender] */\n      0xffffffffffffffffffffffffffffffffffffffff\n      and\n      0xffffffffffffffffffffffffffffffffffffffff\n      and\n      dup2\n      mstore\n      0x20\n      add\n      swap1\n      dup2\n      mstore\n      0x20\n      add\n      0x00\n      keccak256\n      0x00\n        /* \"contracts/MyblogApp.sol\":5376:5426  hasDownVotedComment[_commentId][msg.sender] = true */\n      0x0100\n      exp\n      dup2\n      sload\n      dup2\n      0xff\n      mul\n      not\n      and\n      swap1\n      dup4\n      iszero\n      iszero\n      mul\n      or\n      swap1\n      sstore\n      pop\n        /* \"contracts/MyblogApp.sol\":5437:5448  commentById */\n      0x08\n        /* \"contracts/MyblogApp.sol\":5437:5460  commentById[_commentId] */\n      0x00\n        /* \"contracts/MyblogApp.sol\":5449:5459  _commentId */\n      dup3\n        /* \"contracts/MyblogApp.sol\":5437:5460  commentById[_commentId] */\n      dup2\n      mstore\n      0x20\n      add\n      swap1\n      dup2\n      mstore\n      0x20\n      add\n      0x00\n      keccak256\n        /* \"contracts/MyblogApp.sol\":5437:5469  commentById[_commentId].downvote */\n      0x05\n      add\n      0x00\n        /* \"contracts/MyblogApp.sol\":5437:5471  commentById[_commentId].downvote++ */\n      dup2\n      sload\n      dup1\n      swap3\n      swap2\n      swap1\n      tag_266\n      swap1\n      tag_155\n      jump\t// in\n    tag_266:\n      swap2\n      swap1\n      pop\n      sstore\n      pop\n        /* \"contracts/MyblogApp.sol\":5484:5505  Comment[] storage arr */\n      0x00\n        /* \"contracts/MyblogApp.sol\":5508:5520  postComments */\n      0x03\n        /* \"contracts/MyblogApp.sol\":5508:5529  postComments[_postId] */\n      0x00\n        /* \"contracts/MyblogApp.sol\":5521:5528  _postId */\n      dup5\n        /* \"contracts/MyblogApp.sol\":5508:5529  postComments[_postId] */\n      dup2\n      mstore\n      0x20\n      add\n      swap1\n      dup2\n      mstore\n      0x20\n      add\n      0x00\n      keccak256\n        /* \"contracts/MyblogApp.sol\":5484:5529  Comment[] storage arr = postComments[_postId] */\n      swap1\n      pop\n        /* \"contracts/MyblogApp.sol\":5545:5551  uint i */\n      0x00\n        /* \"contracts/MyblogApp.sol\":5554:5555  0 */\n      0x00\n        /* \"contracts/MyblogApp.sol\":5545:5555  uint i = 0 */\n      swap1\n      pop\n        /* \"contracts/MyblogApp.sol\":5540:5709  for (uint i = 0; i < arr.length; i++) {... */\n    tag_267:\n        /* \"contracts/MyblogApp.sol\":5561:5564  arr */\n      dup2\n        /* \"contracts/MyblogApp.sol\":5561:5571  arr.length */\n      dup1\n      sload\n      swap1\n      pop\n        /* \"contracts/MyblogApp.sol\":5557:5558  i */\n      dup2\n        /* \"contracts/MyblogApp.sol\":5557:5571  i < arr.length */\n      lt\n        /* \"contracts/MyblogApp.sol\":5540:5709  for (uint i = 0; i < arr.length; i++) {... */\n      iszero\n      tag_268\n      jumpi\n        /* \"contracts/MyblogApp.sol\":5610:5620  _commentId */\n      dup3\n        /* \"contracts/MyblogApp.sol\":5597:5600  arr */\n      dup3\n        /* \"contracts/MyblogApp.sol\":5601:5602  i */\n      dup3\n        /* \"contracts/MyblogApp.sol\":5597:5603  arr[i] */\n      dup2\n      sload\n      dup2\n      lt\n      tag_270\n      jumpi\n      tag_271\n      tag_99\n      jump\t// in\n    tag_271:\n    tag_270:\n      swap1\n      0x00\n      mstore\n      keccak256(0x00, 0x20)\n      swap1\n      0x07\n      mul\n      add\n        /* \"contracts/MyblogApp.sol\":5597:5606  arr[i].id */\n      0x00\n      add\n      sload\n        /* \"contracts/MyblogApp.sol\":5597:5620  arr[i].id == _commentId */\n      sub\n        /* \"contracts/MyblogApp.sol\":5593:5698  if (arr[i].id == _commentId) {... */\n      tag_273\n      jumpi\n        /* \"contracts/MyblogApp.sol\":5641:5644  arr */\n      dup2\n        /* \"contracts/MyblogApp.sol\":5645:5646  i */\n      dup2\n        /* \"contracts/MyblogApp.sol\":5641:5647  arr[i] */\n      dup2\n      sload\n      dup2\n      lt\n      tag_274\n      jumpi\n      tag_275\n      tag_99\n      jump\t// in\n    tag_275:\n    tag_274:\n      swap1\n      0x00\n      mstore\n      keccak256(0x00, 0x20)\n      swap1\n      0x07\n      mul\n      add\n        /* \"contracts/MyblogApp.sol\":5641:5656  arr[i].downvote */\n      0x05\n      add\n      0x00\n        /* \"contracts/MyblogApp.sol\":5641:5658  arr[i].downvote++ */\n      dup2\n      sload\n      dup1\n      swap3\n      swap2\n      swap1\n      tag_277\n      swap1\n      tag_155\n      jump\t// in\n    tag_277:\n      swap2\n      swap1\n      pop\n      sstore\n      pop\n        /* \"contracts/MyblogApp.sol\":5677:5682  break */\n      jump(tag_268)\n        /* \"contracts/MyblogApp.sol\":5593:5698  if (arr[i].id == _commentId) {... */\n    tag_273:\n        /* \"contracts/MyblogApp.sol\":5573:5576  i++ */\n      dup1\n      dup1\n      0x01\n      add\n      swap2\n      pop\n      pop\n        /* \"contracts/MyblogApp.sol\":5540:5709  for (uint i = 0; i < arr.length; i++) {... */\n      jump(tag_267)\n    tag_268:\n      pop\n        /* \"contracts/MyblogApp.sol\":5748:5758  _commentId */\n      dup2\n        /* \"contracts/MyblogApp.sol\":5739:5746  _postId */\n      dup4\n        /* \"contracts/MyblogApp.sol\":5726:5778  CommentVoted(_postId, _commentId, msg.sender, false) */\n      0xa718b91703005c7ff3c85ef47cb2b96b8bf518a0934598a085e074a84ad79ba1\n        /* \"contracts/MyblogApp.sol\":5760:5770  msg.sender */\n      caller\n        /* \"contracts/MyblogApp.sol\":5772:5777  false */\n      0x00\n        /* \"contracts/MyblogApp.sol\":5726:5778  CommentVoted(_postId, _commentId, msg.sender, false) */\n      mload(0x40)\n      tag_278\n      swap3\n      swap2\n      swap1\n      tag_168\n      jump\t// in\n    tag_278:\n      mload(0x40)\n      dup1\n      swap2\n      sub\n      swap1\n      log3\n        /* \"contracts/MyblogApp.sol\":5179:5786  {... */\n      pop\n        /* \"contracts/MyblogApp.sol\":5110:5786  function downvoteComment(bytes32 _postId, bytes32 _commentId) public {... */\n      pop\n      pop\n      jump\t// out\n        /* \"contracts/MyblogApp.sol\":6957:7080  function getComments(bytes32 _postId) public view returns(Comment[] memory) {... */\n    tag_82:\n        /* \"contracts/MyblogApp.sol\":7015:7031  Comment[] memory */\n      0x60\n        /* \"contracts/MyblogApp.sol\":7051:7063  postComments */\n      0x03\n        /* \"contracts/MyblogApp.sol\":7051:7072  postComments[_postId] */\n      0x00\n        /* \"contracts/MyblogApp.sol\":7064:7071  _postId */\n      dup4\n        /* \"contracts/MyblogApp.sol\":7051:7072  postComments[_postId] */\n      dup2\n      mstore\n      0x20\n      add\n      swap1\n      dup2\n      mstore\n      0x20\n      add\n      0x00\n      keccak256\n        /* \"contracts/MyblogApp.sol\":7044:7072  return postComments[_postId] */\n      dup1\n      sload\n      dup1\n      0x20\n      mul\n      0x20\n      add\n      mload(0x40)\n      swap1\n      dup2\n      add\n      0x40\n      mstore\n      dup1\n      swap3\n      swap2\n      swap1\n      dup2\n      dup2\n      mstore\n      0x20\n      add\n      0x00\n      swap1\n    tag_280:\n      dup3\n      dup3\n      lt\n      iszero\n      tag_281\n      jumpi\n      dup4\n      dup3\n      swap1\n      0x00\n      mstore\n      keccak256(0x00, 0x20)\n      swap1\n      0x07\n      mul\n      add\n      mload(0x40)\n      dup1\n      0xe0\n      add\n      0x40\n      mstore\n      swap1\n      dup2\n      0x00\n      dup3\n      add\n      sload\n      dup2\n      mstore\n      0x20\n      add\n      0x01\n      dup3\n      add\n      0x00\n      swap1\n      sload\n      swap1\n      0x0100\n      exp\n      swap1\n      div\n      0xffffffffffffffffffffffffffffffffffffffff\n      and\n      0xffffffffffffffffffffffffffffffffffffffff\n      and\n      0xffffffffffffffffffffffffffffffffffffffff\n      and\n      dup2\n      mstore\n      0x20\n      add\n      0x02\n      dup3\n      add\n      dup1\n      sload\n      tag_283\n      swap1\n      tag_101\n      jump\t// in\n    tag_283:\n      dup1\n      0x1f\n      add\n      0x20\n      dup1\n      swap2\n      div\n      mul\n      0x20\n      add\n      mload(0x40)\n      swap1\n      dup2\n      add\n      0x40\n      mstore\n      dup1\n      swap3\n      swap2\n      swap1\n      dup2\n      dup2\n      mstore\n      0x20\n      add\n      dup3\n      dup1\n      sload\n      tag_284\n      swap1\n      tag_101\n      jump\t// in\n    tag_284:\n      dup1\n      iszero\n      tag_285\n      jumpi\n      dup1\n      0x1f\n      lt\n      tag_286\n      jumpi\n      0x0100\n      dup1\n      dup4\n      sload\n      div\n      mul\n      dup4\n      mstore\n      swap2\n      0x20\n      add\n      swap2\n      jump(tag_285)\n    tag_286:\n      dup3\n      add\n      swap2\n      swap1\n      0x00\n      mstore\n      keccak256(0x00, 0x20)\n      swap1\n    tag_287:\n      dup2\n      sload\n      dup2\n      mstore\n      swap1\n      0x01\n      add\n      swap1\n      0x20\n      add\n      dup1\n      dup4\n      gt\n      tag_287\n      jumpi\n      dup3\n      swap1\n      sub\n      0x1f\n      and\n      dup3\n      add\n      swap2\n    tag_285:\n      pop\n      pop\n      pop\n      pop\n      pop\n      dup2\n      mstore\n      0x20\n      add\n      0x03\n      dup3\n      add\n      dup1\n      sload\n      tag_288\n      swap1\n      tag_101\n      jump\t// in\n    tag_288:\n      dup1\n      0x1f\n      add\n      0x20\n      dup1\n      swap2\n      div\n      mul\n      0x20\n      add\n      mload(0x40)\n      swap1\n      dup2\n      add\n      0x40\n      mstore\n      dup1\n      swap3\n      swap2\n      swap1\n      dup2\n      dup2\n      mstore\n      0x20\n      add\n      dup3\n      dup1\n      sload\n      tag_289\n      swap1\n      tag_101\n      jump\t// in\n    tag_289:\n      dup1\n      iszero\n      tag_290\n      jumpi\n      dup1\n      0x1f\n      lt\n      tag_291\n      jumpi\n      0x0100\n      dup1\n      dup4\n      sload\n      div\n      mul\n      dup4\n      mstore\n      swap2\n      0x20\n      add\n      swap2\n      jump(tag_290)\n    tag_291:\n      dup3\n      add\n      swap2\n      swap1\n      0x00\n      mstore\n      keccak256(0x00, 0x20)\n      swap1\n    tag_292:\n      dup2\n      sload\n      dup2\n      mstore\n      swap1\n      0x01\n      add\n      swap1\n      0x20\n      add\n      dup1\n      dup4\n      gt\n      tag_292\n      jumpi\n      dup3\n      swap1\n      sub\n      0x1f\n      and\n      dup3\n      add\n      swap2\n    tag_290:\n      pop\n      pop\n      pop\n      pop\n      pop\n      dup2\n      mstore\n      0x20\n      add\n      0x04\n      dup3\n      add\n      sload\n      dup2\n      mstore\n      0x20\n      add\n      0x05\n      dup3\n      add\n      sload\n      dup2\n      mstore\n      0x20\n      add\n      0x06\n      dup3\n      add\n      sload\n      dup2\n      mstore\n      pop\n      pop\n      dup2\n      mstore\n      0x20\n      add\n      swap1\n      0x01\n      add\n      swap1\n      jump(tag_280)\n    tag_281:\n      pop\n      pop\n      pop\n      pop\n      swap1\n      pop\n        /* \"contracts/MyblogApp.sol\":6957:7080  function getComments(bytes32 _postId) public view returns(Comment[] memory) {... */\n      swap2\n      swap1\n      pop\n      jump\t// out\n    tag_93:\n      mload(0x40)\n      dup1\n      0xe0\n      add\n      0x40\n      mstore\n      dup1\n      0x00\n      dup2\n      mstore\n      0x20\n      add\n      0x60\n      dup2\n      mstore\n      0x20\n      add\n      0x60\n      dup2\n      mstore\n      0x20\n      add\n      0x60\n      dup2\n      mstore\n      0x20\n      add\n      0x00\n      dup2\n      mstore\n      0x20\n      add\n      0x00\n      dup2\n      mstore\n      0x20\n      add\n      0x00\n      dup2\n      mstore\n      pop\n      swap1\n      jump\t// out\n    tag_177:\n      mload(0x40)\n      dup1\n      0xe0\n      add\n      0x40\n      mstore\n      dup1\n      0x00\n      dup2\n      mstore\n      0x20\n      add\n      and(0xffffffffffffffffffffffffffffffffffffffff, 0x00)\n      dup2\n      mstore\n      0x20\n      add\n      0x60\n      dup2\n      mstore\n      0x20\n      add\n      0x60\n      dup2\n      mstore\n      0x20\n      add\n      0x00\n      dup2\n      mstore\n      0x20\n      add\n      0x00\n      dup2\n      mstore\n      0x20\n      add\n      0x00\n      dup2\n      mstore\n      pop\n      swap1\n      jump\t// out\n        /* \"#utility.yul\":7:82   */\n    tag_293:\n        /* \"#utility.yul\":40:46   */\n      0x00\n        /* \"#utility.yul\":73:75   */\n      0x40\n        /* \"#utility.yul\":67:76   */\n      mload\n        /* \"#utility.yul\":57:76   */\n      swap1\n      pop\n        /* \"#utility.yul\":7:82   */\n      swap1\n      jump\t// out\n        /* \"#utility.yul\":88:205   */\n    tag_294:\n        /* \"#utility.yul\":197:198   */\n      0x00\n        /* \"#utility.yul\":194:195   */\n      0x00\n        /* \"#utility.yul\":187:199   */\n      revert\n        /* \"#utility.yul\":211:328   */\n    tag_295:\n        /* \"#utility.yul\":320:321   */\n      0x00\n        /* \"#utility.yul\":317:318   */\n      0x00\n        /* \"#utility.yul\":310:322   */\n      revert\n        /* \"#utility.yul\":334:411   */\n    tag_296:\n        /* \"#utility.yul\":371:378   */\n      0x00\n        /* \"#utility.yul\":400:405   */\n      dup2\n        /* \"#utility.yul\":389:405   */\n      swap1\n      pop\n        /* \"#utility.yul\":334:411   */\n      swap2\n      swap1\n      pop\n      jump\t// out\n        /* \"#utility.yul\":417:539   */\n    tag_297:\n        /* \"#utility.yul\":490:514   */\n      tag_388\n        /* \"#utility.yul\":508:513   */\n      dup2\n        /* \"#utility.yul\":490:514   */\n      tag_296\n      jump\t// in\n    tag_388:\n        /* \"#utility.yul\":483:488   */\n      dup2\n        /* \"#utility.yul\":480:515   */\n      eq\n        /* \"#utility.yul\":470:533   */\n      tag_389\n      jumpi\n        /* \"#utility.yul\":529:530   */\n      0x00\n        /* \"#utility.yul\":526:527   */\n      0x00\n        /* \"#utility.yul\":519:531   */\n      revert\n        /* \"#utility.yul\":470:533   */\n    tag_389:\n        /* \"#utility.yul\":417:539   */\n      pop\n      jump\t// out\n        /* \"#utility.yul\":545:684   */\n    tag_298:\n        /* \"#utility.yul\":591:596   */\n      0x00\n        /* \"#utility.yul\":629:635   */\n      dup2\n        /* \"#utility.yul\":616:636   */\n      calldataload\n        /* \"#utility.yul\":607:636   */\n      swap1\n      pop\n        /* \"#utility.yul\":645:678   */\n      tag_391\n        /* \"#utility.yul\":672:677   */\n      dup2\n        /* \"#utility.yul\":645:678   */\n      tag_297\n      jump\t// in\n    tag_391:\n        /* \"#utility.yul\":545:684   */\n      swap3\n      swap2\n      pop\n      pop\n      jump\t// out\n        /* \"#utility.yul\":690:816   */\n    tag_299:\n        /* \"#utility.yul\":727:734   */\n      0x00\n        /* \"#utility.yul\":767:809   */\n      0xffffffffffffffffffffffffffffffffffffffff\n        /* \"#utility.yul\":760:765   */\n      dup3\n        /* \"#utility.yul\":756:810   */\n      and\n        /* \"#utility.yul\":745:810   */\n      swap1\n      pop\n        /* \"#utility.yul\":690:816   */\n      swap2\n      swap1\n      pop\n      jump\t// out\n        /* \"#utility.yul\":822:918   */\n    tag_300:\n        /* \"#utility.yul\":859:866   */\n      0x00\n        /* \"#utility.yul\":888:912   */\n      tag_394\n        /* \"#utility.yul\":906:911   */\n      dup3\n        /* \"#utility.yul\":888:912   */\n      tag_299\n      jump\t// in\n    tag_394:\n        /* \"#utility.yul\":877:912   */\n      swap1\n      pop\n        /* \"#utility.yul\":822:918   */\n      swap2\n      swap1\n      pop\n      jump\t// out\n        /* \"#utility.yul\":924:1046   */\n    tag_301:\n        /* \"#utility.yul\":997:1021   */\n      tag_396\n        /* \"#utility.yul\":1015:1020   */\n      dup2\n        /* \"#utility.yul\":997:1021   */\n      tag_300\n      jump\t// in\n    tag_396:\n        /* \"#utility.yul\":990:995   */\n      dup2\n        /* \"#utility.yul\":987:1022   */\n      eq\n        /* \"#utility.yul\":977:1040   */\n      tag_397\n      jumpi\n        /* \"#utility.yul\":1036:1037   */\n      0x00\n        /* \"#utility.yul\":1033:1034   */\n      0x00\n        /* \"#utility.yul\":1026:1038   */\n      revert\n        /* \"#utility.yul\":977:1040   */\n    tag_397:\n        /* \"#utility.yul\":924:1046   */\n      pop\n      jump\t// out\n        /* \"#utility.yul\":1052:1191   */\n    tag_302:\n        /* \"#utility.yul\":1098:1103   */\n      0x00\n        /* \"#utility.yul\":1136:1142   */\n      dup2\n        /* \"#utility.yul\":1123:1143   */\n      calldataload\n        /* \"#utility.yul\":1114:1143   */\n      swap1\n      pop\n        /* \"#utility.yul\":1152:1185   */\n      tag_399\n        /* \"#utility.yul\":1179:1184   */\n      dup2\n        /* \"#utility.yul\":1152:1185   */\n      tag_301\n      jump\t// in\n    tag_399:\n        /* \"#utility.yul\":1052:1191   */\n      swap3\n      swap2\n      pop\n      pop\n      jump\t// out\n        /* \"#utility.yul\":1197:1671   */\n    tag_23:\n        /* \"#utility.yul\":1265:1271   */\n      0x00\n        /* \"#utility.yul\":1273:1279   */\n      0x00\n        /* \"#utility.yul\":1322:1324   */\n      0x40\n        /* \"#utility.yul\":1310:1319   */\n      dup4\n        /* \"#utility.yul\":1301:1308   */\n      dup6\n        /* \"#utility.yul\":1297:1320   */\n      sub\n        /* \"#utility.yul\":1293:1325   */\n      slt\n        /* \"#utility.yul\":1290:1409   */\n      iszero\n      tag_401\n      jumpi\n        /* \"#utility.yul\":1328:1407   */\n      tag_402\n      tag_294\n      jump\t// in\n    tag_402:\n        /* \"#utility.yul\":1290:1409   */\n    tag_401:\n        /* \"#utility.yul\":1448:1449   */\n      0x00\n        /* \"#utility.yul\":1473:1526   */\n      tag_403\n        /* \"#utility.yul\":1518:1525   */\n      dup6\n        /* \"#utility.yul\":1509:1515   */\n      dup3\n        /* \"#utility.yul\":1498:1507   */\n      dup7\n        /* \"#utility.yul\":1494:1516   */\n      add\n        /* \"#utility.yul\":1473:1526   */\n      tag_298\n      jump\t// in\n    tag_403:\n        /* \"#utility.yul\":1463:1526   */\n      swap3\n      pop\n        /* \"#utility.yul\":1419:1536   */\n      pop\n        /* \"#utility.yul\":1575:1577   */\n      0x20\n        /* \"#utility.yul\":1601:1654   */\n      tag_404\n        /* \"#utility.yul\":1646:1653   */\n      dup6\n        /* \"#utility.yul\":1637:1643   */\n      dup3\n        /* \"#utility.yul\":1626:1635   */\n      dup7\n        /* \"#utility.yul\":1622:1644   */\n      add\n        /* \"#utility.yul\":1601:1654   */\n      tag_302\n      jump\t// in\n    tag_404:\n        /* \"#utility.yul\":1591:1654   */\n      swap2\n      pop\n        /* \"#utility.yul\":1546:1664   */\n      pop\n        /* \"#utility.yul\":1197:1671   */\n      swap3\n      pop\n      swap3\n      swap1\n      pop\n      jump\t// out\n        /* \"#utility.yul\":1677:1767   */\n    tag_303:\n        /* \"#utility.yul\":1711:1718   */\n      0x00\n        /* \"#utility.yul\":1754:1759   */\n      dup2\n        /* \"#utility.yul\":1747:1760   */\n      iszero\n        /* \"#utility.yul\":1740:1761   */\n      iszero\n        /* \"#utility.yul\":1729:1761   */\n      swap1\n      pop\n        /* \"#utility.yul\":1677:1767   */\n      swap2\n      swap1\n      pop\n      jump\t// out\n        /* \"#utility.yul\":1773:1882   */\n    tag_304:\n        /* \"#utility.yul\":1854:1875   */\n      tag_407\n        /* \"#utility.yul\":1869:1874   */\n      dup2\n        /* \"#utility.yul\":1854:1875   */\n      tag_303\n      jump\t// in\n    tag_407:\n        /* \"#utility.yul\":1849:1852   */\n      dup3\n        /* \"#utility.yul\":1842:1876   */\n      mstore\n        /* \"#utility.yul\":1773:1882   */\n      pop\n      pop\n      jump\t// out\n        /* \"#utility.yul\":1888:2098   */\n    tag_26:\n        /* \"#utility.yul\":1975:1979   */\n      0x00\n        /* \"#utility.yul\":2013:2015   */\n      0x20\n        /* \"#utility.yul\":2002:2011   */\n      dup3\n        /* \"#utility.yul\":1998:2016   */\n      add\n        /* \"#utility.yul\":1990:2016   */\n      swap1\n      pop\n        /* \"#utility.yul\":2026:2091   */\n      tag_409\n        /* \"#utility.yul\":2088:2089   */\n      0x00\n        /* \"#utility.yul\":2077:2086   */\n      dup4\n        /* \"#utility.yul\":2073:2090   */\n      add\n        /* \"#utility.yul\":2064:2070   */\n      dup5\n        /* \"#utility.yul\":2026:2091   */\n      tag_304\n      jump\t// in\n    tag_409:\n        /* \"#utility.yul\":1888:2098   */\n      swap3\n      swap2\n      pop\n      pop\n      jump\t// out\n        /* \"#utility.yul\":2104:2433   */\n    tag_29:\n        /* \"#utility.yul\":2163:2169   */\n      0x00\n        /* \"#utility.yul\":2212:2214   */\n      0x20\n        /* \"#utility.yul\":2200:2209   */\n      dup3\n        /* \"#utility.yul\":2191:2198   */\n      dup5\n        /* \"#utility.yul\":2187:2210   */\n      sub\n        /* \"#utility.yul\":2183:2215   */\n      slt\n        /* \"#utility.yul\":2180:2299   */\n      iszero\n      tag_411\n      jumpi\n        /* \"#utility.yul\":2218:2297   */\n      tag_412\n      tag_294\n      jump\t// in\n    tag_412:\n        /* \"#utility.yul\":2180:2299   */\n    tag_411:\n        /* \"#utility.yul\":2338:2339   */\n      0x00\n        /* \"#utility.yul\":2363:2416   */\n      tag_413\n        /* \"#utility.yul\":2408:2415   */\n      dup5\n        /* \"#utility.yul\":2399:2405   */\n      dup3\n        /* \"#utility.yul\":2388:2397   */\n      dup6\n        /* \"#utility.yul\":2384:2406   */\n      add\n        /* \"#utility.yul\":2363:2416   */\n      tag_302\n      jump\t// in\n    tag_413:\n        /* \"#utility.yul\":2353:2416   */\n      swap2\n      pop\n        /* \"#utility.yul\":2309:2426   */\n      pop\n        /* \"#utility.yul\":2104:2433   */\n      swap3\n      swap2\n      pop\n      pop\n      jump\t// out\n        /* \"#utility.yul\":2439:2573   */\n    tag_305:\n        /* \"#utility.yul\":2526:2532   */\n      0x00\n        /* \"#utility.yul\":2560:2565   */\n      dup2\n        /* \"#utility.yul\":2554:2566   */\n      mload\n        /* \"#utility.yul\":2544:2566   */\n      swap1\n      pop\n        /* \"#utility.yul\":2439:2573   */\n      swap2\n      swap1\n      pop\n      jump\t// out\n        /* \"#utility.yul\":2579:2783   */\n    tag_306:\n        /* \"#utility.yul\":2698:2709   */\n      0x00\n        /* \"#utility.yul\":2732:2738   */\n      dup3\n        /* \"#utility.yul\":2727:2730   */\n      dup3\n        /* \"#utility.yul\":2720:2739   */\n      mstore\n        /* \"#utility.yul\":2772:2776   */\n      0x20\n        /* \"#utility.yul\":2767:2770   */\n      dup3\n        /* \"#utility.yul\":2763:2777   */\n      add\n        /* \"#utility.yul\":2748:2777   */\n      swap1\n      pop\n        /* \"#utility.yul\":2579:2783   */\n      swap3\n      swap2\n      pop\n      pop\n      jump\t// out\n        /* \"#utility.yul\":2789:2941   */\n    tag_307:\n        /* \"#utility.yul\":2876:2880   */\n      0x00\n        /* \"#utility.yul\":2899:2902   */\n      dup2\n        /* \"#utility.yul\":2891:2902   */\n      swap1\n      pop\n        /* \"#utility.yul\":2929:2933   */\n      0x20\n        /* \"#utility.yul\":2924:2927   */\n      dup3\n        /* \"#utility.yul\":2920:2934   */\n      add\n        /* \"#utility.yul\":2912:2934   */\n      swap1\n      pop\n        /* \"#utility.yul\":2789:2941   */\n      swap2\n      swap1\n      pop\n      jump\t// out\n        /* \"#utility.yul\":2947:3055   */\n    tag_308:\n        /* \"#utility.yul\":3024:3048   */\n      tag_418\n        /* \"#utility.yul\":3042:3047   */\n      dup2\n        /* \"#utility.yul\":3024:3048   */\n      tag_296\n      jump\t// in\n    tag_418:\n        /* \"#utility.yul\":3019:3022   */\n      dup3\n        /* \"#utility.yul\":3012:3049   */\n      mstore\n        /* \"#utility.yul\":2947:3055   */\n      pop\n      pop\n      jump\t// out\n        /* \"#utility.yul\":3061:3160   */\n    tag_309:\n        /* \"#utility.yul\":3113:3119   */\n      0x00\n        /* \"#utility.yul\":3147:3152   */\n      dup2\n        /* \"#utility.yul\":3141:3153   */\n      mload\n        /* \"#utility.yul\":3131:3153   */\n      swap1\n      pop\n        /* \"#utility.yul\":3061:3160   */\n      swap2\n      swap1\n      pop\n      jump\t// out\n        /* \"#utility.yul\":3166:3325   */\n    tag_310:\n        /* \"#utility.yul\":3240:3251   */\n      0x00\n        /* \"#utility.yul\":3274:3280   */\n      dup3\n        /* \"#utility.yul\":3269:3272   */\n      dup3\n        /* \"#utility.yul\":3262:3281   */\n      mstore\n        /* \"#utility.yul\":3314:3318   */\n      0x20\n        /* \"#utility.yul\":3309:3312   */\n      dup3\n        /* \"#utility.yul\":3305:3319   */\n      add\n        /* \"#utility.yul\":3290:3319   */\n      swap1\n      pop\n        /* \"#utility.yul\":3166:3325   */\n      swap3\n      swap2\n      pop\n      pop\n      jump\t// out\n        /* \"#utility.yul\":3331:3470   */\n    tag_311:\n        /* \"#utility.yul\":3420:3426   */\n      dup3\n        /* \"#utility.yul\":3415:3418   */\n      dup2\n        /* \"#utility.yul\":3410:3413   */\n      dup4\n        /* \"#utility.yul\":3404:3427   */\n      mcopy\n        /* \"#utility.yul\":3461:3462   */\n      0x00\n        /* \"#utility.yul\":3452:3458   */\n      dup4\n        /* \"#utility.yul\":3447:3450   */\n      dup4\n        /* \"#utility.yul\":3443:3459   */\n      add\n        /* \"#utility.yul\":3436:3463   */\n      mstore\n        /* \"#utility.yul\":3331:3470   */\n      pop\n      pop\n      pop\n      jump\t// out\n        /* \"#utility.yul\":3476:3578   */\n    tag_312:\n        /* \"#utility.yul\":3517:3523   */\n      0x00\n        /* \"#utility.yul\":3568:3570   */\n      0x1f\n        /* \"#utility.yul\":3564:3571   */\n      not\n        /* \"#utility.yul\":3559:3561   */\n      0x1f\n        /* \"#utility.yul\":3552:3557   */\n      dup4\n        /* \"#utility.yul\":3548:3562   */\n      add\n        /* \"#utility.yul\":3544:3572   */\n      and\n        /* \"#utility.yul\":3534:3572   */\n      swap1\n      pop\n        /* \"#utility.yul\":3476:3578   */\n      swap2\n      swap1\n      pop\n      jump\t// out\n        /* \"#utility.yul\":3584:3941   */\n    tag_313:\n        /* \"#utility.yul\":3662:3665   */\n      0x00\n        /* \"#utility.yul\":3690:3729   */\n      tag_424\n        /* \"#utility.yul\":3723:3728   */\n      dup3\n        /* \"#utility.yul\":3690:3729   */\n      tag_309\n      jump\t// in\n    tag_424:\n        /* \"#utility.yul\":3745:3806   */\n      tag_425\n        /* \"#utility.yul\":3799:3805   */\n      dup2\n        /* \"#utility.yul\":3794:3797   */\n      dup6\n        /* \"#utility.yul\":3745:3806   */\n      tag_310\n      jump\t// in\n    tag_425:\n        /* \"#utility.yul\":3738:3806   */\n      swap4\n      pop\n        /* \"#utility.yul\":3815:3880   */\n      tag_426\n        /* \"#utility.yul\":3873:3879   */\n      dup2\n        /* \"#utility.yul\":3868:3871   */\n      dup6\n        /* \"#utility.yul\":3861:3865   */\n      0x20\n        /* \"#utility.yul\":3854:3859   */\n      dup7\n        /* \"#utility.yul\":3850:3866   */\n      add\n        /* \"#utility.yul\":3815:3880   */\n      tag_311\n      jump\t// in\n    tag_426:\n        /* \"#utility.yul\":3905:3934   */\n      tag_427\n        /* \"#utility.yul\":3927:3933   */\n      dup2\n        /* \"#utility.yul\":3905:3934   */\n      tag_312\n      jump\t// in\n    tag_427:\n        /* \"#utility.yul\":3900:3903   */\n      dup5\n        /* \"#utility.yul\":3896:3935   */\n      add\n        /* \"#utility.yul\":3889:3935   */\n      swap2\n      pop\n        /* \"#utility.yul\":3666:3941   */\n      pop\n        /* \"#utility.yul\":3584:3941   */\n      swap3\n      swap2\n      pop\n      pop\n      jump\t// out\n        /* \"#utility.yul\":3947:4024   */\n    tag_314:\n        /* \"#utility.yul\":3984:3991   */\n      0x00\n        /* \"#utility.yul\":4013:4018   */\n      dup2\n        /* \"#utility.yul\":4002:4018   */\n      swap1\n      pop\n        /* \"#utility.yul\":3947:4024   */\n      swap2\n      swap1\n      pop\n      jump\t// out\n        /* \"#utility.yul\":4030:4138   */\n    tag_315:\n        /* \"#utility.yul\":4107:4131   */\n      tag_430\n        /* \"#utility.yul\":4125:4130   */\n      dup2\n        /* \"#utility.yul\":4107:4131   */\n      tag_314\n      jump\t// in\n    tag_430:\n        /* \"#utility.yul\":4102:4105   */\n      dup3\n        /* \"#utility.yul\":4095:4132   */\n      mstore\n        /* \"#utility.yul\":4030:4138   */\n      pop\n      pop\n      jump\t// out\n        /* \"#utility.yul\":4198:5815   */\n    tag_316:\n        /* \"#utility.yul\":4297:4300   */\n      0x00\n        /* \"#utility.yul\":4333:4337   */\n      0xe0\n        /* \"#utility.yul\":4328:4331   */\n      dup4\n        /* \"#utility.yul\":4324:4338   */\n      add\n        /* \"#utility.yul\":4418:4422   */\n      0x00\n        /* \"#utility.yul\":4411:4416   */\n      dup4\n        /* \"#utility.yul\":4407:4423   */\n      add\n        /* \"#utility.yul\":4401:4424   */\n      mload\n        /* \"#utility.yul\":4437:4500   */\n      tag_432\n        /* \"#utility.yul\":4494:4498   */\n      0x00\n        /* \"#utility.yul\":4489:4492   */\n      dup7\n        /* \"#utility.yul\":4485:4499   */\n      add\n        /* \"#utility.yul\":4471:4483   */\n      dup3\n        /* \"#utility.yul\":4437:4500   */\n      tag_308\n      jump\t// in\n    tag_432:\n        /* \"#utility.yul\":4348:4510   */\n      pop\n        /* \"#utility.yul\":4594:4598   */\n      0x20\n        /* \"#utility.yul\":4587:4592   */\n      dup4\n        /* \"#utility.yul\":4583:4599   */\n      add\n        /* \"#utility.yul\":4577:4600   */\n      mload\n        /* \"#utility.yul\":4647:4650   */\n      dup5\n        /* \"#utility.yul\":4641:4645   */\n      dup3\n        /* \"#utility.yul\":4637:4651   */\n      sub\n        /* \"#utility.yul\":4630:4634   */\n      0x20\n        /* \"#utility.yul\":4625:4628   */\n      dup7\n        /* \"#utility.yul\":4621:4635   */\n      add\n        /* \"#utility.yul\":4614:4652   */\n      mstore\n        /* \"#utility.yul\":4673:4746   */\n      tag_433\n        /* \"#utility.yul\":4741:4745   */\n      dup3\n        /* \"#utility.yul\":4727:4739   */\n      dup3\n        /* \"#utility.yul\":4673:4746   */\n      tag_313\n      jump\t// in\n    tag_433:\n        /* \"#utility.yul\":4665:4746   */\n      swap2\n      pop\n        /* \"#utility.yul\":4520:4757   */\n      pop\n        /* \"#utility.yul\":4840:4844   */\n      0x40\n        /* \"#utility.yul\":4833:4838   */\n      dup4\n        /* \"#utility.yul\":4829:4845   */\n      add\n        /* \"#utility.yul\":4823:4846   */\n      mload\n        /* \"#utility.yul\":4893:4896   */\n      dup5\n        /* \"#utility.yul\":4887:4891   */\n      dup3\n        /* \"#utility.yul\":4883:4897   */\n      sub\n        /* \"#utility.yul\":4876:4880   */\n      0x40\n        /* \"#utility.yul\":4871:4874   */\n      dup7\n        /* \"#utility.yul\":4867:4881   */\n      add\n        /* \"#utility.yul\":4860:4898   */\n      mstore\n        /* \"#utility.yul\":4919:4992   */\n      tag_434\n        /* \"#utility.yul\":4987:4991   */\n      dup3\n        /* \"#utility.yul\":4973:4985   */\n      dup3\n        /* \"#utility.yul\":4919:4992   */\n      tag_313\n      jump\t// in\n    tag_434:\n        /* \"#utility.yul\":4911:4992   */\n      swap2\n      pop\n        /* \"#utility.yul\":4767:5003   */\n      pop\n        /* \"#utility.yul\":5092:5096   */\n      0x60\n        /* \"#utility.yul\":5085:5090   */\n      dup4\n        /* \"#utility.yul\":5081:5097   */\n      add\n        /* \"#utility.yul\":5075:5098   */\n      mload\n        /* \"#utility.yul\":5145:5148   */\n      dup5\n        /* \"#utility.yul\":5139:5143   */\n      dup3\n        /* \"#utility.yul\":5135:5149   */\n      sub\n        /* \"#utility.yul\":5128:5132   */\n      0x60\n        /* \"#utility.yul\":5123:5126   */\n      dup7\n        /* \"#utility.yul\":5119:5133   */\n      add\n        /* \"#utility.yul\":5112:5150   */\n      mstore\n        /* \"#utility.yul\":5171:5244   */\n      tag_435\n        /* \"#utility.yul\":5239:5243   */\n      dup3\n        /* \"#utility.yul\":5225:5237   */\n      dup3\n        /* \"#utility.yul\":5171:5244   */\n      tag_313\n      jump\t// in\n    tag_435:\n        /* \"#utility.yul\":5163:5244   */\n      swap2\n      pop\n        /* \"#utility.yul\":5013:5255   */\n      pop\n        /* \"#utility.yul\":5339:5343   */\n      0x80\n        /* \"#utility.yul\":5332:5337   */\n      dup4\n        /* \"#utility.yul\":5328:5344   */\n      add\n        /* \"#utility.yul\":5322:5345   */\n      mload\n        /* \"#utility.yul\":5358:5421   */\n      tag_436\n        /* \"#utility.yul\":5415:5419   */\n      0x80\n        /* \"#utility.yul\":5410:5413   */\n      dup7\n        /* \"#utility.yul\":5406:5420   */\n      add\n        /* \"#utility.yul\":5392:5404   */\n      dup3\n        /* \"#utility.yul\":5358:5421   */\n      tag_315\n      jump\t// in\n    tag_436:\n        /* \"#utility.yul\":5265:5431   */\n      pop\n        /* \"#utility.yul\":5517:5521   */\n      0xa0\n        /* \"#utility.yul\":5510:5515   */\n      dup4\n        /* \"#utility.yul\":5506:5522   */\n      add\n        /* \"#utility.yul\":5500:5523   */\n      mload\n        /* \"#utility.yul\":5536:5599   */\n      tag_437\n        /* \"#utility.yul\":5593:5597   */\n      0xa0\n        /* \"#utility.yul\":5588:5591   */\n      dup7\n        /* \"#utility.yul\":5584:5598   */\n      add\n        /* \"#utility.yul\":5570:5582   */\n      dup3\n        /* \"#utility.yul\":5536:5599   */\n      tag_315\n      jump\t// in\n    tag_437:\n        /* \"#utility.yul\":5441:5609   */\n      pop\n        /* \"#utility.yul\":5696:5700   */\n      0xc0\n        /* \"#utility.yul\":5689:5694   */\n      dup4\n        /* \"#utility.yul\":5685:5701   */\n      add\n        /* \"#utility.yul\":5679:5702   */\n      mload\n        /* \"#utility.yul\":5715:5778   */\n      tag_438\n        /* \"#utility.yul\":5772:5776   */\n      0xc0\n        /* \"#utility.yul\":5767:5770   */\n      dup7\n        /* \"#utility.yul\":5763:5777   */\n      add\n        /* \"#utility.yul\":5749:5761   */\n      dup3\n        /* \"#utility.yul\":5715:5778   */\n      tag_315\n      jump\t// in\n    tag_438:\n        /* \"#utility.yul\":5619:5788   */\n      pop\n        /* \"#utility.yul\":5805:5809   */\n      dup1\n        /* \"#utility.yul\":5798:5809   */\n      swap2\n      pop\n        /* \"#utility.yul\":4302:5815   */\n      pop\n        /* \"#utility.yul\":4198:5815   */\n      swap3\n      swap2\n      pop\n      pop\n      jump\t// out\n        /* \"#utility.yul\":5821:6057   */\n    tag_317:\n        /* \"#utility.yul\":5930:5940   */\n      0x00\n        /* \"#utility.yul\":5965:6051   */\n      tag_440\n        /* \"#utility.yul\":6047:6050   */\n      dup4\n        /* \"#utility.yul\":6039:6045   */\n      dup4\n        /* \"#utility.yul\":5965:6051   */\n      tag_316\n      jump\t// in\n    tag_440:\n        /* \"#utility.yul\":5951:6051   */\n      swap1\n      pop\n        /* \"#utility.yul\":5821:6057   */\n      swap3\n      swap2\n      pop\n      pop\n      jump\t// out\n        /* \"#utility.yul\":6063:6196   */\n    tag_318:\n        /* \"#utility.yul\":6153:6157   */\n      0x00\n        /* \"#utility.yul\":6185:6189   */\n      0x20\n        /* \"#utility.yul\":6180:6183   */\n      dup3\n        /* \"#utility.yul\":6176:6190   */\n      add\n        /* \"#utility.yul\":6168:6190   */\n      swap1\n      pop\n        /* \"#utility.yul\":6063:6196   */\n      swap2\n      swap1\n      pop\n      jump\t// out\n        /* \"#utility.yul\":6260:7331   */\n    tag_319:\n        /* \"#utility.yul\":6419:6422   */\n      0x00\n        /* \"#utility.yul\":6448:6522   */\n      tag_443\n        /* \"#utility.yul\":6516:6521   */\n      dup3\n        /* \"#utility.yul\":6448:6522   */\n      tag_305\n      jump\t// in\n    tag_443:\n        /* \"#utility.yul\":6538:6644   */\n      tag_444\n        /* \"#utility.yul\":6637:6643   */\n      dup2\n        /* \"#utility.yul\":6632:6635   */\n      dup6\n        /* \"#utility.yul\":6538:6644   */\n      tag_306\n      jump\t// in\n    tag_444:\n        /* \"#utility.yul\":6531:6644   */\n      swap4\n      pop\n        /* \"#utility.yul\":6670:6673   */\n      dup4\n        /* \"#utility.yul\":6715:6719   */\n      0x20\n        /* \"#utility.yul\":6707:6713   */\n      dup3\n        /* \"#utility.yul\":6703:6720   */\n      mul\n        /* \"#utility.yul\":6698:6701   */\n      dup6\n        /* \"#utility.yul\":6694:6721   */\n      add\n        /* \"#utility.yul\":6745:6821   */\n      tag_445\n        /* \"#utility.yul\":6815:6820   */\n      dup6\n        /* \"#utility.yul\":6745:6821   */\n      tag_307\n      jump\t// in\n    tag_445:\n        /* \"#utility.yul\":6844:6851   */\n      dup1\n        /* \"#utility.yul\":6875:6876   */\n      0x00\n        /* \"#utility.yul\":6860:7286   */\n    tag_446:\n        /* \"#utility.yul\":6885:6891   */\n      dup6\n        /* \"#utility.yul\":6882:6883   */\n      dup2\n        /* \"#utility.yul\":6879:6892   */\n      lt\n        /* \"#utility.yul\":6860:7286   */\n      iszero\n      tag_448\n      jumpi\n        /* \"#utility.yul\":6956:6965   */\n      dup5\n        /* \"#utility.yul\":6950:6954   */\n      dup5\n        /* \"#utility.yul\":6946:6966   */\n      sub\n        /* \"#utility.yul\":6941:6944   */\n      dup10\n        /* \"#utility.yul\":6934:6967   */\n      mstore\n        /* \"#utility.yul\":7007:7013   */\n      dup2\n        /* \"#utility.yul\":7001:7014   */\n      mload\n        /* \"#utility.yul\":7035:7139   */\n      tag_449\n        /* \"#utility.yul\":7134:7138   */\n      dup6\n        /* \"#utility.yul\":7119:7132   */\n      dup3\n        /* \"#utility.yul\":7035:7139   */\n      tag_317\n      jump\t// in\n    tag_449:\n        /* \"#utility.yul\":7027:7139   */\n      swap5\n      pop\n        /* \"#utility.yul\":7162:7242   */\n      tag_450\n        /* \"#utility.yul\":7235:7241   */\n      dup4\n        /* \"#utility.yul\":7162:7242   */\n      tag_318\n      jump\t// in\n    tag_450:\n        /* \"#utility.yul\":7152:7242   */\n      swap3\n      pop\n        /* \"#utility.yul\":7271:7275   */\n      0x20\n        /* \"#utility.yul\":7266:7269   */\n      dup11\n        /* \"#utility.yul\":7262:7276   */\n      add\n        /* \"#utility.yul\":7255:7276   */\n      swap10\n      pop\n        /* \"#utility.yul\":6920:7286   */\n      pop\n        /* \"#utility.yul\":6907:6908   */\n      0x01\n        /* \"#utility.yul\":6904:6905   */\n      dup2\n        /* \"#utility.yul\":6900:6909   */\n      add\n        /* \"#utility.yul\":6895:6909   */\n      swap1\n      pop\n        /* \"#utility.yul\":6860:7286   */\n      jump(tag_446)\n    tag_448:\n        /* \"#utility.yul\":6864:6878   */\n      pop\n        /* \"#utility.yul\":7302:7306   */\n      dup3\n        /* \"#utility.yul\":7295:7306   */\n      swap8\n      pop\n        /* \"#utility.yul\":7322:7325   */\n      dup8\n        /* \"#utility.yul\":7315:7325   */\n      swap6\n      pop\n        /* \"#utility.yul\":6424:7331   */\n      pop\n      pop\n      pop\n      pop\n      pop\n        /* \"#utility.yul\":6260:7331   */\n      swap3\n      swap2\n      pop\n      pop\n      jump\t// out\n        /* \"#utility.yul\":7337:7790   */\n    tag_32:\n        /* \"#utility.yul\":7520:7524   */\n      0x00\n        /* \"#utility.yul\":7558:7560   */\n      0x20\n        /* \"#utility.yul\":7547:7556   */\n      dup3\n        /* \"#utility.yul\":7543:7561   */\n      add\n        /* \"#utility.yul\":7535:7561   */\n      swap1\n      pop\n        /* \"#utility.yul\":7607:7616   */\n      dup2\n        /* \"#utility.yul\":7601:7605   */\n      dup2\n        /* \"#utility.yul\":7597:7617   */\n      sub\n        /* \"#utility.yul\":7593:7594   */\n      0x00\n        /* \"#utility.yul\":7582:7591   */\n      dup4\n        /* \"#utility.yul\":7578:7595   */\n      add\n        /* \"#utility.yul\":7571:7618   */\n      mstore\n        /* \"#utility.yul\":7635:7783   */\n      tag_452\n        /* \"#utility.yul\":7778:7782   */\n      dup2\n        /* \"#utility.yul\":7769:7775   */\n      dup5\n        /* \"#utility.yul\":7635:7783   */\n      tag_319\n      jump\t// in\n    tag_452:\n        /* \"#utility.yul\":7627:7783   */\n      swap1\n      pop\n        /* \"#utility.yul\":7337:7790   */\n      swap3\n      swap2\n      pop\n      pop\n      jump\t// out\n        /* \"#utility.yul\":7796:8270   */\n    tag_38:\n        /* \"#utility.yul\":7864:7870   */\n      0x00\n        /* \"#utility.yul\":7872:7878   */\n      0x00\n        /* \"#utility.yul\":7921:7923   */\n      0x40\n        /* \"#utility.yul\":7909:7918   */\n      dup4\n        /* \"#utility.yul\":7900:7907   */\n      dup6\n        /* \"#utility.yul\":7896:7919   */\n      sub\n        /* \"#utility.yul\":7892:7924   */\n      slt\n        /* \"#utility.yul\":7889:8008   */\n      iszero\n      tag_454\n      jumpi\n        /* \"#utility.yul\":7927:8006   */\n      tag_455\n      tag_294\n      jump\t// in\n    tag_455:\n        /* \"#utility.yul\":7889:8008   */\n    tag_454:\n        /* \"#utility.yul\":8047:8048   */\n      0x00\n        /* \"#utility.yul\":8072:8125   */\n      tag_456\n        /* \"#utility.yul\":8117:8124   */\n      dup6\n        /* \"#utility.yul\":8108:8114   */\n      dup3\n        /* \"#utility.yul\":8097:8106   */\n      dup7\n        /* \"#utility.yul\":8093:8115   */\n      add\n        /* \"#utility.yul\":8072:8125   */\n      tag_298\n      jump\t// in\n    tag_456:\n        /* \"#utility.yul\":8062:8125   */\n      swap3\n      pop\n        /* \"#utility.yul\":8018:8135   */\n      pop\n        /* \"#utility.yul\":8174:8176   */\n      0x20\n        /* \"#utility.yul\":8200:8253   */\n      tag_457\n        /* \"#utility.yul\":8245:8252   */\n      dup6\n        /* \"#utility.yul\":8236:8242   */\n      dup3\n        /* \"#utility.yul\":8225:8234   */\n      dup7\n        /* \"#utility.yul\":8221:8243   */\n      add\n        /* \"#utility.yul\":8200:8253   */\n      tag_298\n      jump\t// in\n    tag_457:\n        /* \"#utility.yul\":8190:8253   */\n      swap2\n      pop\n        /* \"#utility.yul\":8145:8263   */\n      pop\n        /* \"#utility.yul\":7796:8270   */\n      swap3\n      pop\n      swap3\n      swap1\n      pop\n      jump\t// out\n        /* \"#utility.yul\":8276:8413   */\n    tag_320:\n        /* \"#utility.yul\":8366:8372   */\n      0x00\n        /* \"#utility.yul\":8400:8405   */\n      dup2\n        /* \"#utility.yul\":8394:8406   */\n      mload\n        /* \"#utility.yul\":8384:8406   */\n      swap1\n      pop\n        /* \"#utility.yul\":8276:8413   */\n      swap2\n      swap1\n      pop\n      jump\t// out\n        /* \"#utility.yul\":8419:8626   */\n    tag_321:\n        /* \"#utility.yul\":8541:8552   */\n      0x00\n        /* \"#utility.yul\":8575:8581   */\n      dup3\n        /* \"#utility.yul\":8570:8573   */\n      dup3\n        /* \"#utility.yul\":8563:8582   */\n      mstore\n        /* \"#utility.yul\":8615:8619   */\n      0x20\n        /* \"#utility.yul\":8610:8613   */\n      dup3\n        /* \"#utility.yul\":8606:8620   */\n      add\n        /* \"#utility.yul\":8591:8620   */\n      swap1\n      pop\n        /* \"#utility.yul\":8419:8626   */\n      swap3\n      swap2\n      pop\n      pop\n      jump\t// out\n        /* \"#utility.yul\":8632:8787   */\n    tag_322:\n        /* \"#utility.yul\":8722:8726   */\n      0x00\n        /* \"#utility.yul\":8745:8748   */\n      dup2\n        /* \"#utility.yul\":8737:8748   */\n      swap1\n      pop\n        /* \"#utility.yul\":8775:8779   */\n      0x20\n        /* \"#utility.yul\":8770:8773   */\n      dup3\n        /* \"#utility.yul\":8766:8780   */\n      add\n        /* \"#utility.yul\":8758:8780   */\n      swap1\n      pop\n        /* \"#utility.yul\":8632:8787   */\n      swap2\n      swap1\n      pop\n      jump\t// out\n        /* \"#utility.yul\":8793:8901   */\n    tag_323:\n        /* \"#utility.yul\":8870:8894   */\n      tag_462\n        /* \"#utility.yul\":8888:8893   */\n      dup2\n        /* \"#utility.yul\":8870:8894   */\n      tag_300\n      jump\t// in\n    tag_462:\n        /* \"#utility.yul\":8865:8868   */\n      dup3\n        /* \"#utility.yul\":8858:8895   */\n      mstore\n        /* \"#utility.yul\":8793:8901   */\n      pop\n      pop\n      jump\t// out\n        /* \"#utility.yul\":8967:10533   */\n    tag_324:\n        /* \"#utility.yul\":9072:9075   */\n      0x00\n        /* \"#utility.yul\":9108:9112   */\n      0xe0\n        /* \"#utility.yul\":9103:9106   */\n      dup4\n        /* \"#utility.yul\":9099:9113   */\n      add\n        /* \"#utility.yul\":9193:9197   */\n      0x00\n        /* \"#utility.yul\":9186:9191   */\n      dup4\n        /* \"#utility.yul\":9182:9198   */\n      add\n        /* \"#utility.yul\":9176:9199   */\n      mload\n        /* \"#utility.yul\":9212:9275   */\n      tag_464\n        /* \"#utility.yul\":9269:9273   */\n      0x00\n        /* \"#utility.yul\":9264:9267   */\n      dup7\n        /* \"#utility.yul\":9260:9274   */\n      add\n        /* \"#utility.yul\":9246:9258   */\n      dup3\n        /* \"#utility.yul\":9212:9275   */\n      tag_308\n      jump\t// in\n    tag_464:\n        /* \"#utility.yul\":9123:9285   */\n      pop\n        /* \"#utility.yul\":9379:9383   */\n      0x20\n        /* \"#utility.yul\":9372:9377   */\n      dup4\n        /* \"#utility.yul\":9368:9384   */\n      add\n        /* \"#utility.yul\":9362:9385   */\n      mload\n        /* \"#utility.yul\":9398:9461   */\n      tag_465\n        /* \"#utility.yul\":9455:9459   */\n      0x20\n        /* \"#utility.yul\":9450:9453   */\n      dup7\n        /* \"#utility.yul\":9446:9460   */\n      add\n        /* \"#utility.yul\":9432:9444   */\n      dup3\n        /* \"#utility.yul\":9398:9461   */\n      tag_323\n      jump\t// in\n    tag_465:\n        /* \"#utility.yul\":9295:9471   */\n      pop\n        /* \"#utility.yul\":9562:9566   */\n      0x40\n        /* \"#utility.yul\":9555:9560   */\n      dup4\n        /* \"#utility.yul\":9551:9567   */\n      add\n        /* \"#utility.yul\":9545:9568   */\n      mload\n        /* \"#utility.yul\":9615:9618   */\n      dup5\n        /* \"#utility.yul\":9609:9613   */\n      dup3\n        /* \"#utility.yul\":9605:9619   */\n      sub\n        /* \"#utility.yul\":9598:9602   */\n      0x40\n        /* \"#utility.yul\":9593:9596   */\n      dup7\n        /* \"#utility.yul\":9589:9603   */\n      add\n        /* \"#utility.yul\":9582:9620   */\n      mstore\n        /* \"#utility.yul\":9641:9714   */\n      tag_466\n        /* \"#utility.yul\":9709:9713   */\n      dup3\n        /* \"#utility.yul\":9695:9707   */\n      dup3\n        /* \"#utility.yul\":9641:9714   */\n      tag_313\n      jump\t// in\n    tag_466:\n        /* \"#utility.yul\":9633:9714   */\n      swap2\n      pop\n        /* \"#utility.yul\":9481:9725   */\n      pop\n        /* \"#utility.yul\":9810:9814   */\n      0x60\n        /* \"#utility.yul\":9803:9808   */\n      dup4\n        /* \"#utility.yul\":9799:9815   */\n      add\n        /* \"#utility.yul\":9793:9816   */\n      mload\n        /* \"#utility.yul\":9863:9866   */\n      dup5\n        /* \"#utility.yul\":9857:9861   */\n      dup3\n        /* \"#utility.yul\":9853:9867   */\n      sub\n        /* \"#utility.yul\":9846:9850   */\n      0x60\n        /* \"#utility.yul\":9841:9844   */\n      dup7\n        /* \"#utility.yul\":9837:9851   */\n      add\n        /* \"#utility.yul\":9830:9868   */\n      mstore\n        /* \"#utility.yul\":9889:9962   */\n      tag_467\n        /* \"#utility.yul\":9957:9961   */\n      dup3\n        /* \"#utility.yul\":9943:9955   */\n      dup3\n        /* \"#utility.yul\":9889:9962   */\n      tag_313\n      jump\t// in\n    tag_467:\n        /* \"#utility.yul\":9881:9962   */\n      swap2\n      pop\n        /* \"#utility.yul\":9735:9973   */\n      pop\n        /* \"#utility.yul\":10057:10061   */\n      0x80\n        /* \"#utility.yul\":10050:10055   */\n      dup4\n        /* \"#utility.yul\":10046:10062   */\n      add\n        /* \"#utility.yul\":10040:10063   */\n      mload\n        /* \"#utility.yul\":10076:10139   */\n      tag_468\n        /* \"#utility.yul\":10133:10137   */\n      0x80\n        /* \"#utility.yul\":10128:10131   */\n      dup7\n        /* \"#utility.yul\":10124:10138   */\n      add\n        /* \"#utility.yul\":10110:10122   */\n      dup3\n        /* \"#utility.yul\":10076:10139   */\n      tag_315\n      jump\t// in\n    tag_468:\n        /* \"#utility.yul\":9983:10149   */\n      pop\n        /* \"#utility.yul\":10235:10239   */\n      0xa0\n        /* \"#utility.yul\":10228:10233   */\n      dup4\n        /* \"#utility.yul\":10224:10240   */\n      add\n        /* \"#utility.yul\":10218:10241   */\n      mload\n        /* \"#utility.yul\":10254:10317   */\n      tag_469\n        /* \"#utility.yul\":10311:10315   */\n      0xa0\n        /* \"#utility.yul\":10306:10309   */\n      dup7\n        /* \"#utility.yul\":10302:10316   */\n      add\n        /* \"#utility.yul\":10288:10300   */\n      dup3\n        /* \"#utility.yul\":10254:10317   */\n      tag_315\n      jump\t// in\n    tag_469:\n        /* \"#utility.yul\":10159:10327   */\n      pop\n        /* \"#utility.yul\":10414:10418   */\n      0xc0\n        /* \"#utility.yul\":10407:10412   */\n      dup4\n        /* \"#utility.yul\":10403:10419   */\n      add\n        /* \"#utility.yul\":10397:10420   */\n      mload\n        /* \"#utility.yul\":10433:10496   */\n      tag_470\n        /* \"#utility.yul\":10490:10494   */\n      0xc0\n        /* \"#utility.yul\":10485:10488   */\n      dup7\n        /* \"#utility.yul\":10481:10495   */\n      add\n        /* \"#utility.yul\":10467:10479   */\n      dup3\n        /* \"#utility.yul\":10433:10496   */\n      tag_315\n      jump\t// in\n    tag_470:\n        /* \"#utility.yul\":10337:10506   */\n      pop\n        /* \"#utility.yul\":10523:10527   */\n      dup1\n        /* \"#utility.yul\":10516:10527   */\n      swap2\n      pop\n        /* \"#utility.yul\":9077:10533   */\n      pop\n        /* \"#utility.yul\":8967:10533   */\n      swap3\n      swap2\n      pop\n      pop\n      jump\t// out\n        /* \"#utility.yul\":10539:10787   */\n    tag_325:\n        /* \"#utility.yul\":10654:10664   */\n      0x00\n        /* \"#utility.yul\":10689:10781   */\n      tag_472\n        /* \"#utility.yul\":10777:10780   */\n      dup4\n        /* \"#utility.yul\":10769:10775   */\n      dup4\n        /* \"#utility.yul\":10689:10781   */\n      tag_324\n      jump\t// in\n    tag_472:\n        /* \"#utility.yul\":10675:10781   */\n      swap1\n      pop\n        /* \"#utility.yul\":10539:10787   */\n      swap3\n      swap2\n      pop\n      pop\n      jump\t// out\n        /* \"#utility.yul\":10793:10929   */\n    tag_326:\n        /* \"#utility.yul\":10886:10890   */\n      0x00\n        /* \"#utility.yul\":10918:10922   */\n      0x20\n        /* \"#utility.yul\":10913:10916   */\n      dup3\n        /* \"#utility.yul\":10909:10923   */\n      add\n        /* \"#utility.yul\":10901:10923   */\n      swap1\n      pop\n        /* \"#utility.yul\":10793:10929   */\n      swap2\n      swap1\n      pop\n      jump\t// out\n        /* \"#utility.yul\":10999:12094   */\n    tag_327:\n        /* \"#utility.yul\":11164:11167   */\n      0x00\n        /* \"#utility.yul\":11193:11270   */\n      tag_475\n        /* \"#utility.yul\":11264:11269   */\n      dup3\n        /* \"#utility.yul\":11193:11270   */\n      tag_320\n      jump\t// in\n    tag_475:\n        /* \"#utility.yul\":11286:11395   */\n      tag_476\n        /* \"#utility.yul\":11388:11394   */\n      dup2\n        /* \"#utility.yul\":11383:11386   */\n      dup6\n        /* \"#utility.yul\":11286:11395   */\n      tag_321\n      jump\t// in\n    tag_476:\n        /* \"#utility.yul\":11279:11395   */\n      swap4\n      pop\n        /* \"#utility.yul\":11421:11424   */\n      dup4\n        /* \"#utility.yul\":11466:11470   */\n      0x20\n        /* \"#utility.yul\":11458:11464   */\n      dup3\n        /* \"#utility.yul\":11454:11471   */\n      mul\n        /* \"#utility.yul\":11449:11452   */\n      dup6\n        /* \"#utility.yul\":11445:11472   */\n      add\n        /* \"#utility.yul\":11496:11575   */\n      tag_477\n        /* \"#utility.yul\":11569:11574   */\n      dup6\n        /* \"#utility.yul\":11496:11575   */\n      tag_322\n      jump\t// in\n    tag_477:\n        /* \"#utility.yul\":11598:11605   */\n      dup1\n        /* \"#utility.yul\":11629:11630   */\n      0x00\n        /* \"#utility.yul\":11614:12049   */\n    tag_478:\n        /* \"#utility.yul\":11639:11645   */\n      dup6\n        /* \"#utility.yul\":11636:11637   */\n      dup2\n        /* \"#utility.yul\":11633:11646   */\n      lt\n        /* \"#utility.yul\":11614:12049   */\n      iszero\n      tag_480\n      jumpi\n        /* \"#utility.yul\":11710:11719   */\n      dup5\n        /* \"#utility.yul\":11704:11708   */\n      dup5\n        /* \"#utility.yul\":11700:11720   */\n      sub\n        /* \"#utility.yul\":11695:11698   */\n      dup10\n        /* \"#utility.yul\":11688:11721   */\n      mstore\n        /* \"#utility.yul\":11761:11767   */\n      dup2\n        /* \"#utility.yul\":11755:11768   */\n      mload\n        /* \"#utility.yul\":11789:11899   */\n      tag_481\n        /* \"#utility.yul\":11894:11898   */\n      dup6\n        /* \"#utility.yul\":11879:11892   */\n      dup3\n        /* \"#utility.yul\":11789:11899   */\n      tag_325\n      jump\t// in\n    tag_481:\n        /* \"#utility.yul\":11781:11899   */\n      swap5\n      pop\n        /* \"#utility.yul\":11922:12005   */\n      tag_482\n        /* \"#utility.yul\":11998:12004   */\n      dup4\n        /* \"#utility.yul\":11922:12005   */\n      tag_326\n      jump\t// in\n    tag_482:\n        /* \"#utility.yul\":11912:12005   */\n      swap3\n      pop\n        /* \"#utility.yul\":12034:12038   */\n      0x20\n        /* \"#utility.yul\":12029:12032   */\n      dup11\n        /* \"#utility.yul\":12025:12039   */\n      add\n        /* \"#utility.yul\":12018:12039   */\n      swap10\n      pop\n        /* \"#utility.yul\":11674:12049   */\n      pop\n        /* \"#utility.yul\":11661:11662   */\n      0x01\n        /* \"#utility.yul\":11658:11659   */\n      dup2\n        /* \"#utility.yul\":11654:11663   */\n      add\n        /* \"#utility.yul\":11649:11663   */\n      swap1\n      pop\n        /* \"#utility.yul\":11614:12049   */\n      jump(tag_478)\n    tag_480:\n        /* \"#utility.yul\":11618:11632   */\n      pop\n        /* \"#utility.yul\":12065:12069   */\n      dup3\n        /* \"#utility.yul\":12058:12069   */\n      swap8\n      pop\n        /* \"#utility.yul\":12085:12088   */\n      dup8\n        /* \"#utility.yul\":12078:12088   */\n      swap6\n      pop\n        /* \"#utility.yul\":11169:12094   */\n      pop\n      pop\n      pop\n      pop\n      pop\n        /* \"#utility.yul\":10999:12094   */\n      swap3\n      swap2\n      pop\n      pop\n      jump\t// out\n        /* \"#utility.yul\":12100:12565   */\n    tag_52:\n        /* \"#utility.yul\":12289:12293   */\n      0x00\n        /* \"#utility.yul\":12327:12329   */\n      0x20\n        /* \"#utility.yul\":12316:12325   */\n      dup3\n        /* \"#utility.yul\":12312:12330   */\n      add\n        /* \"#utility.yul\":12304:12330   */\n      swap1\n      pop\n        /* \"#utility.yul\":12376:12385   */\n      dup2\n        /* \"#utility.yul\":12370:12374   */\n      dup2\n        /* \"#utility.yul\":12366:12386   */\n      sub\n        /* \"#utility.yul\":12362:12363   */\n      0x00\n        /* \"#utility.yul\":12351:12360   */\n      dup4\n        /* \"#utility.yul\":12347:12364   */\n      add\n        /* \"#utility.yul\":12340:12387   */\n      mstore\n        /* \"#utility.yul\":12404:12558   */\n      tag_484\n        /* \"#utility.yul\":12553:12557   */\n      dup2\n        /* \"#utility.yul\":12544:12550   */\n      dup5\n        /* \"#utility.yul\":12404:12558   */\n      tag_327\n      jump\t// in\n    tag_484:\n        /* \"#utility.yul\":12396:12558   */\n      swap1\n      pop\n        /* \"#utility.yul\":12100:12565   */\n      swap3\n      swap2\n      pop\n      pop\n      jump\t// out\n        /* \"#utility.yul\":12571:12900   */\n    tag_55:\n        /* \"#utility.yul\":12630:12636   */\n      0x00\n        /* \"#utility.yul\":12679:12681   */\n      0x20\n        /* \"#utility.yul\":12667:12676   */\n      dup3\n        /* \"#utility.yul\":12658:12665   */\n      dup5\n        /* \"#utility.yul\":12654:12677   */\n      sub\n        /* \"#utility.yul\":12650:12682   */\n      slt\n        /* \"#utility.yul\":12647:12766   */\n      iszero\n      tag_486\n      jumpi\n        /* \"#utility.yul\":12685:12764   */\n      tag_487\n      tag_294\n      jump\t// in\n    tag_487:\n        /* \"#utility.yul\":12647:12766   */\n    tag_486:\n        /* \"#utility.yul\":12805:12806   */\n      0x00\n        /* \"#utility.yul\":12830:12883   */\n      tag_488\n        /* \"#utility.yul\":12875:12882   */\n      dup5\n        /* \"#utility.yul\":12866:12872   */\n      dup3\n        /* \"#utility.yul\":12855:12864   */\n      dup6\n        /* \"#utility.yul\":12851:12873   */\n      add\n        /* \"#utility.yul\":12830:12883   */\n      tag_298\n      jump\t// in\n    tag_488:\n        /* \"#utility.yul\":12820:12883   */\n      swap2\n      pop\n        /* \"#utility.yul\":12776:12893   */\n      pop\n        /* \"#utility.yul\":12571:12900   */\n      swap3\n      swap2\n      pop\n      pop\n      jump\t// out\n        /* \"#utility.yul\":12906:13023   */\n    tag_328:\n        /* \"#utility.yul\":13015:13016   */\n      0x00\n        /* \"#utility.yul\":13012:13013   */\n      0x00\n        /* \"#utility.yul\":13005:13017   */\n      revert\n        /* \"#utility.yul\":13029:13146   */\n    tag_329:\n        /* \"#utility.yul\":13138:13139   */\n      0x00\n        /* \"#utility.yul\":13135:13136   */\n      0x00\n        /* \"#utility.yul\":13128:13140   */\n      revert\n        /* \"#utility.yul\":13152:13332   */\n    tag_89:\n        /* \"#utility.yul\":13200:13277   */\n      0x4e487b7100000000000000000000000000000000000000000000000000000000\n        /* \"#utility.yul\":13197:13198   */\n      0x00\n        /* \"#utility.yul\":13190:13278   */\n      mstore\n        /* \"#utility.yul\":13297:13301   */\n      0x41\n        /* \"#utility.yul\":13294:13295   */\n      0x04\n        /* \"#utility.yul\":13287:13302   */\n      mstore\n        /* \"#utility.yul\":13321:13325   */\n      0x24\n        /* \"#utility.yul\":13318:13319   */\n      0x00\n        /* \"#utility.yul\":13311:13326   */\n      revert\n        /* \"#utility.yul\":13338:13619   */\n    tag_330:\n        /* \"#utility.yul\":13421:13448   */\n      tag_493\n        /* \"#utility.yul\":13443:13447   */\n      dup3\n        /* \"#utility.yul\":13421:13448   */\n      tag_312\n      jump\t// in\n    tag_493:\n        /* \"#utility.yul\":13413:13419   */\n      dup2\n        /* \"#utility.yul\":13409:13449   */\n      add\n        /* \"#utility.yul\":13551:13557   */\n      dup2\n        /* \"#utility.yul\":13539:13549   */\n      dup2\n        /* \"#utility.yul\":13536:13558   */\n      lt\n        /* \"#utility.yul\":13515:13533   */\n      0xffffffffffffffff\n        /* \"#utility.yul\":13503:13513   */\n      dup3\n        /* \"#utility.yul\":13500:13534   */\n      gt\n        /* \"#utility.yul\":13497:13559   */\n      or\n        /* \"#utility.yul\":13494:13582   */\n      iszero\n      tag_494\n      jumpi\n        /* \"#utility.yul\":13562:13580   */\n      tag_495\n      tag_89\n      jump\t// in\n    tag_495:\n        /* \"#utility.yul\":13494:13582   */\n    tag_494:\n        /* \"#utility.yul\":13602:13612   */\n      dup1\n        /* \"#utility.yul\":13598:13600   */\n      0x40\n        /* \"#utility.yul\":13591:13613   */\n      mstore\n        /* \"#utility.yul\":13381:13619   */\n      pop\n        /* \"#utility.yul\":13338:13619   */\n      pop\n      pop\n      jump\t// out\n        /* \"#utility.yul\":13625:13754   */\n    tag_331:\n        /* \"#utility.yul\":13659:13665   */\n      0x00\n        /* \"#utility.yul\":13686:13706   */\n      tag_497\n      tag_293\n      jump\t// in\n    tag_497:\n        /* \"#utility.yul\":13676:13706   */\n      swap1\n      pop\n        /* \"#utility.yul\":13715:13748   */\n      tag_498\n        /* \"#utility.yul\":13743:13747   */\n      dup3\n        /* \"#utility.yul\":13735:13741   */\n      dup3\n        /* \"#utility.yul\":13715:13748   */\n      tag_330\n      jump\t// in\n    tag_498:\n        /* \"#utility.yul\":13625:13754   */\n      swap2\n      swap1\n      pop\n      jump\t// out\n        /* \"#utility.yul\":13760:14068   */\n    tag_332:\n        /* \"#utility.yul\":13822:13826   */\n      0x00\n        /* \"#utility.yul\":13912:13930   */\n      0xffffffffffffffff\n        /* \"#utility.yul\":13904:13910   */\n      dup3\n        /* \"#utility.yul\":13901:13931   */\n      gt\n        /* \"#utility.yul\":13898:13954   */\n      iszero\n      tag_500\n      jumpi\n        /* \"#utility.yul\":13934:13952   */\n      tag_501\n      tag_89\n      jump\t// in\n    tag_501:\n        /* \"#utility.yul\":13898:13954   */\n    tag_500:\n        /* \"#utility.yul\":13972:14001   */\n      tag_502\n        /* \"#utility.yul\":13994:14000   */\n      dup3\n        /* \"#utility.yul\":13972:14001   */\n      tag_312\n      jump\t// in\n    tag_502:\n        /* \"#utility.yul\":13964:14001   */\n      swap1\n      pop\n        /* \"#utility.yul\":14056:14060   */\n      0x20\n        /* \"#utility.yul\":14050:14054   */\n      dup2\n        /* \"#utility.yul\":14046:14061   */\n      add\n        /* \"#utility.yul\":14038:14061   */\n      swap1\n      pop\n        /* \"#utility.yul\":13760:14068   */\n      swap2\n      swap1\n      pop\n      jump\t// out\n        /* \"#utility.yul\":14074:14222   */\n    tag_333:\n        /* \"#utility.yul\":14172:14178   */\n      dup3\n        /* \"#utility.yul\":14167:14170   */\n      dup2\n        /* \"#utility.yul\":14162:14165   */\n      dup4\n        /* \"#utility.yul\":14149:14179   */\n      calldatacopy\n        /* \"#utility.yul\":14213:14214   */\n      0x00\n        /* \"#utility.yul\":14204:14210   */\n      dup4\n        /* \"#utility.yul\":14199:14202   */\n      dup4\n        /* \"#utility.yul\":14195:14211   */\n      add\n        /* \"#utility.yul\":14188:14215   */\n      mstore\n        /* \"#utility.yul\":14074:14222   */\n      pop\n      pop\n      pop\n      jump\t// out\n        /* \"#utility.yul\":14228:14653   */\n    tag_334:\n        /* \"#utility.yul\":14306:14311   */\n      0x00\n        /* \"#utility.yul\":14331:14397   */\n      tag_505\n        /* \"#utility.yul\":14347:14396   */\n      tag_506\n        /* \"#utility.yul\":14389:14395   */\n      dup5\n        /* \"#utility.yul\":14347:14396   */\n      tag_332\n      jump\t// in\n    tag_506:\n        /* \"#utility.yul\":14331:14397   */\n      tag_331\n      jump\t// in\n    tag_505:\n        /* \"#utility.yul\":14322:14397   */\n      swap1\n      pop\n        /* \"#utility.yul\":14420:14426   */\n      dup3\n        /* \"#utility.yul\":14413:14418   */\n      dup2\n        /* \"#utility.yul\":14406:14427   */\n      mstore\n        /* \"#utility.yul\":14458:14462   */\n      0x20\n        /* \"#utility.yul\":14451:14456   */\n      dup2\n        /* \"#utility.yul\":14447:14463   */\n      add\n        /* \"#utility.yul\":14496:14499   */\n      dup5\n        /* \"#utility.yul\":14487:14493   */\n      dup5\n        /* \"#utility.yul\":14482:14485   */\n      dup5\n        /* \"#utility.yul\":14478:14494   */\n      add\n        /* \"#utility.yul\":14475:14500   */\n      gt\n        /* \"#utility.yul\":14472:14584   */\n      iszero\n      tag_507\n      jumpi\n        /* \"#utility.yul\":14503:14582   */\n      tag_508\n      tag_329\n      jump\t// in\n    tag_508:\n        /* \"#utility.yul\":14472:14584   */\n    tag_507:\n        /* \"#utility.yul\":14593:14647   */\n      tag_509\n        /* \"#utility.yul\":14640:14646   */\n      dup5\n        /* \"#utility.yul\":14635:14638   */\n      dup3\n        /* \"#utility.yul\":14630:14633   */\n      dup6\n        /* \"#utility.yul\":14593:14647   */\n      tag_333\n      jump\t// in\n    tag_509:\n        /* \"#utility.yul\":14312:14653   */\n      pop\n        /* \"#utility.yul\":14228:14653   */\n      swap4\n      swap3\n      pop\n      pop\n      pop\n      jump\t// out\n        /* \"#utility.yul\":14673:15013   */\n    tag_335:\n        /* \"#utility.yul\":14729:14734   */\n      0x00\n        /* \"#utility.yul\":14778:14781   */\n      dup3\n        /* \"#utility.yul\":14771:14775   */\n      0x1f\n        /* \"#utility.yul\":14763:14769   */\n      dup4\n        /* \"#utility.yul\":14759:14776   */\n      add\n        /* \"#utility.yul\":14755:14782   */\n      slt\n        /* \"#utility.yul\":14745:14867   */\n      tag_511\n      jumpi\n        /* \"#utility.yul\":14786:14865   */\n      tag_512\n      tag_328\n      jump\t// in\n    tag_512:\n        /* \"#utility.yul\":14745:14867   */\n    tag_511:\n        /* \"#utility.yul\":14903:14909   */\n      dup2\n        /* \"#utility.yul\":14890:14910   */\n      calldataload\n        /* \"#utility.yul\":14928:15007   */\n      tag_513\n        /* \"#utility.yul\":15003:15006   */\n      dup5\n        /* \"#utility.yul\":14995:15001   */\n      dup3\n        /* \"#utility.yul\":14988:14992   */\n      0x20\n        /* \"#utility.yul\":14980:14986   */\n      dup7\n        /* \"#utility.yul\":14976:14993   */\n      add\n        /* \"#utility.yul\":14928:15007   */\n      tag_334\n      jump\t// in\n    tag_513:\n        /* \"#utility.yul\":14919:15007   */\n      swap2\n      pop\n        /* \"#utility.yul\":14735:15013   */\n      pop\n        /* \"#utility.yul\":14673:15013   */\n      swap3\n      swap2\n      pop\n      pop\n      jump\t// out\n        /* \"#utility.yul\":15019:15998   */\n    tag_59:\n        /* \"#utility.yul\":15116:15122   */\n      0x00\n        /* \"#utility.yul\":15124:15130   */\n      0x00\n        /* \"#utility.yul\":15132:15138   */\n      0x00\n        /* \"#utility.yul\":15181:15183   */\n      0x60\n        /* \"#utility.yul\":15169:15178   */\n      dup5\n        /* \"#utility.yul\":15160:15167   */\n      dup7\n        /* \"#utility.yul\":15156:15179   */\n      sub\n        /* \"#utility.yul\":15152:15184   */\n      slt\n        /* \"#utility.yul\":15149:15268   */\n      iszero\n      tag_515\n      jumpi\n        /* \"#utility.yul\":15187:15266   */\n      tag_516\n      tag_294\n      jump\t// in\n    tag_516:\n        /* \"#utility.yul\":15149:15268   */\n    tag_515:\n        /* \"#utility.yul\":15307:15308   */\n      0x00\n        /* \"#utility.yul\":15332:15385   */\n      tag_517\n        /* \"#utility.yul\":15377:15384   */\n      dup7\n        /* \"#utility.yul\":15368:15374   */\n      dup3\n        /* \"#utility.yul\":15357:15366   */\n      dup8\n        /* \"#utility.yul\":15353:15375   */\n      add\n        /* \"#utility.yul\":15332:15385   */\n      tag_298\n      jump\t// in\n    tag_517:\n        /* \"#utility.yul\":15322:15385   */\n      swap4\n      pop\n        /* \"#utility.yul\":15278:15395   */\n      pop\n        /* \"#utility.yul\":15462:15464   */\n      0x20\n        /* \"#utility.yul\":15451:15460   */\n      dup5\n        /* \"#utility.yul\":15447:15465   */\n      add\n        /* \"#utility.yul\":15434:15466   */\n      calldataload\n        /* \"#utility.yul\":15493:15511   */\n      0xffffffffffffffff\n        /* \"#utility.yul\":15485:15491   */\n      dup2\n        /* \"#utility.yul\":15482:15512   */\n      gt\n        /* \"#utility.yul\":15479:15596   */\n      iszero\n      tag_518\n      jumpi\n        /* \"#utility.yul\":15515:15594   */\n      tag_519\n      tag_295\n      jump\t// in\n    tag_519:\n        /* \"#utility.yul\":15479:15596   */\n    tag_518:\n        /* \"#utility.yul\":15620:15683   */\n      tag_520\n        /* \"#utility.yul\":15675:15682   */\n      dup7\n        /* \"#utility.yul\":15666:15672   */\n      dup3\n        /* \"#utility.yul\":15655:15664   */\n      dup8\n        /* \"#utility.yul\":15651:15673   */\n      add\n        /* \"#utility.yul\":15620:15683   */\n      tag_335\n      jump\t// in\n    tag_520:\n        /* \"#utility.yul\":15610:15683   */\n      swap3\n      pop\n        /* \"#utility.yul\":15405:15693   */\n      pop\n        /* \"#utility.yul\":15760:15762   */\n      0x40\n        /* \"#utility.yul\":15749:15758   */\n      dup5\n        /* \"#utility.yul\":15745:15763   */\n      add\n        /* \"#utility.yul\":15732:15764   */\n      calldataload\n        /* \"#utility.yul\":15791:15809   */\n      0xffffffffffffffff\n        /* \"#utility.yul\":15783:15789   */\n      dup2\n        /* \"#utility.yul\":15780:15810   */\n      gt\n        /* \"#utility.yul\":15777:15894   */\n      iszero\n      tag_521\n      jumpi\n        /* \"#utility.yul\":15813:15892   */\n      tag_522\n      tag_295\n      jump\t// in\n    tag_522:\n        /* \"#utility.yul\":15777:15894   */\n    tag_521:\n        /* \"#utility.yul\":15918:15981   */\n      tag_523\n        /* \"#utility.yul\":15973:15980   */\n      dup7\n        /* \"#utility.yul\":15964:15970   */\n      dup3\n        /* \"#utility.yul\":15953:15962   */\n      dup8\n        /* \"#utility.yul\":15949:15971   */\n      add\n        /* \"#utility.yul\":15918:15981   */\n      tag_335\n      jump\t// in\n    tag_523:\n        /* \"#utility.yul\":15908:15981   */\n      swap2\n      pop\n        /* \"#utility.yul\":15703:15991   */\n      pop\n        /* \"#utility.yul\":15019:15998   */\n      swap3\n      pop\n      swap3\n      pop\n      swap3\n      jump\t// out\n        /* \"#utility.yul\":16004:16122   */\n    tag_336:\n        /* \"#utility.yul\":16091:16115   */\n      tag_525\n        /* \"#utility.yul\":16109:16114   */\n      dup2\n        /* \"#utility.yul\":16091:16115   */\n      tag_296\n      jump\t// in\n    tag_525:\n        /* \"#utility.yul\":16086:16089   */\n      dup3\n        /* \"#utility.yul\":16079:16116   */\n      mstore\n        /* \"#utility.yul\":16004:16122   */\n      pop\n      pop\n      jump\t// out\n        /* \"#utility.yul\":16128:16297   */\n    tag_337:\n        /* \"#utility.yul\":16212:16223   */\n      0x00\n        /* \"#utility.yul\":16246:16252   */\n      dup3\n        /* \"#utility.yul\":16241:16244   */\n      dup3\n        /* \"#utility.yul\":16234:16253   */\n      mstore\n        /* \"#utility.yul\":16286:16290   */\n      0x20\n        /* \"#utility.yul\":16281:16284   */\n      dup3\n        /* \"#utility.yul\":16277:16291   */\n      add\n        /* \"#utility.yul\":16262:16291   */\n      swap1\n      pop\n        /* \"#utility.yul\":16128:16297   */\n      swap3\n      swap2\n      pop\n      pop\n      jump\t// out\n        /* \"#utility.yul\":16303:16680   */\n    tag_338:\n        /* \"#utility.yul\":16391:16394   */\n      0x00\n        /* \"#utility.yul\":16419:16458   */\n      tag_528\n        /* \"#utility.yul\":16452:16457   */\n      dup3\n        /* \"#utility.yul\":16419:16458   */\n      tag_309\n      jump\t// in\n    tag_528:\n        /* \"#utility.yul\":16474:16545   */\n      tag_529\n        /* \"#utility.yul\":16538:16544   */\n      dup2\n        /* \"#utility.yul\":16533:16536   */\n      dup6\n        /* \"#utility.yul\":16474:16545   */\n      tag_337\n      jump\t// in\n    tag_529:\n        /* \"#utility.yul\":16467:16545   */\n      swap4\n      pop\n        /* \"#utility.yul\":16554:16619   */\n      tag_530\n        /* \"#utility.yul\":16612:16618   */\n      dup2\n        /* \"#utility.yul\":16607:16610   */\n      dup6\n        /* \"#utility.yul\":16600:16604   */\n      0x20\n        /* \"#utility.yul\":16593:16598   */\n      dup7\n        /* \"#utility.yul\":16589:16605   */\n      add\n        /* \"#utility.yul\":16554:16619   */\n      tag_311\n      jump\t// in\n    tag_530:\n        /* \"#utility.yul\":16644:16673   */\n      tag_531\n        /* \"#utility.yul\":16666:16672   */\n      dup2\n        /* \"#utility.yul\":16644:16673   */\n      tag_312\n      jump\t// in\n    tag_531:\n        /* \"#utility.yul\":16639:16642   */\n      dup5\n        /* \"#utility.yul\":16635:16674   */\n      add\n        /* \"#utility.yul\":16628:16674   */\n      swap2\n      pop\n        /* \"#utility.yul\":16395:16680   */\n      pop\n        /* \"#utility.yul\":16303:16680   */\n      swap3\n      swap2\n      pop\n      pop\n      jump\t// out\n        /* \"#utility.yul\":16686:16804   */\n    tag_339:\n        /* \"#utility.yul\":16773:16797   */\n      tag_533\n        /* \"#utility.yul\":16791:16796   */\n      dup2\n        /* \"#utility.yul\":16773:16797   */\n      tag_314\n      jump\t// in\n    tag_533:\n        /* \"#utility.yul\":16768:16771   */\n      dup3\n        /* \"#utility.yul\":16761:16798   */\n      mstore\n        /* \"#utility.yul\":16686:16804   */\n      pop\n      pop\n      jump\t// out\n        /* \"#utility.yul\":16810:17969   */\n    tag_65:\n        /* \"#utility.yul\":17131:17135   */\n      0x00\n        /* \"#utility.yul\":17169:17172   */\n      0xe0\n        /* \"#utility.yul\":17158:17167   */\n      dup3\n        /* \"#utility.yul\":17154:17173   */\n      add\n        /* \"#utility.yul\":17146:17173   */\n      swap1\n      pop\n        /* \"#utility.yul\":17183:17254   */\n      tag_535\n        /* \"#utility.yul\":17251:17252   */\n      0x00\n        /* \"#utility.yul\":17240:17249   */\n      dup4\n        /* \"#utility.yul\":17236:17253   */\n      add\n        /* \"#utility.yul\":17227:17233   */\n      dup11\n        /* \"#utility.yul\":17183:17254   */\n      tag_336\n      jump\t// in\n    tag_535:\n        /* \"#utility.yul\":17301:17310   */\n      dup2\n        /* \"#utility.yul\":17295:17299   */\n      dup2\n        /* \"#utility.yul\":17291:17311   */\n      sub\n        /* \"#utility.yul\":17286:17288   */\n      0x20\n        /* \"#utility.yul\":17275:17284   */\n      dup4\n        /* \"#utility.yul\":17271:17289   */\n      add\n        /* \"#utility.yul\":17264:17312   */\n      mstore\n        /* \"#utility.yul\":17329:17407   */\n      tag_536\n        /* \"#utility.yul\":17402:17406   */\n      dup2\n        /* \"#utility.yul\":17393:17399   */\n      dup10\n        /* \"#utility.yul\":17329:17407   */\n      tag_338\n      jump\t// in\n    tag_536:\n        /* \"#utility.yul\":17321:17407   */\n      swap1\n      pop\n        /* \"#utility.yul\":17454:17463   */\n      dup2\n        /* \"#utility.yul\":17448:17452   */\n      dup2\n        /* \"#utility.yul\":17444:17464   */\n      sub\n        /* \"#utility.yul\":17439:17441   */\n      0x40\n        /* \"#utility.yul\":17428:17437   */\n      dup4\n        /* \"#utility.yul\":17424:17442   */\n      add\n        /* \"#utility.yul\":17417:17465   */\n      mstore\n        /* \"#utility.yul\":17482:17560   */\n      tag_537\n        /* \"#utility.yul\":17555:17559   */\n      dup2\n        /* \"#utility.yul\":17546:17552   */\n      dup9\n        /* \"#utility.yul\":17482:17560   */\n      tag_338\n      jump\t// in\n    tag_537:\n        /* \"#utility.yul\":17474:17560   */\n      swap1\n      pop\n        /* \"#utility.yul\":17607:17616   */\n      dup2\n        /* \"#utility.yul\":17601:17605   */\n      dup2\n        /* \"#utility.yul\":17597:17617   */\n      sub\n        /* \"#utility.yul\":17592:17594   */\n      0x60\n        /* \"#utility.yul\":17581:17590   */\n      dup4\n        /* \"#utility.yul\":17577:17595   */\n      add\n        /* \"#utility.yul\":17570:17618   */\n      mstore\n        /* \"#utility.yul\":17635:17713   */\n      tag_538\n        /* \"#utility.yul\":17708:17712   */\n      dup2\n        /* \"#utility.yul\":17699:17705   */\n      dup8\n        /* \"#utility.yul\":17635:17713   */\n      tag_338\n      jump\t// in\n    tag_538:\n        /* \"#utility.yul\":17627:17713   */\n      swap1\n      pop\n        /* \"#utility.yul\":17723:17796   */\n      tag_539\n        /* \"#utility.yul\":17791:17794   */\n      0x80\n        /* \"#utility.yul\":17780:17789   */\n      dup4\n        /* \"#utility.yul\":17776:17795   */\n      add\n        /* \"#utility.yul\":17767:17773   */\n      dup7\n        /* \"#utility.yul\":17723:17796   */\n      tag_339\n      jump\t// in\n    tag_539:\n        /* \"#utility.yul\":17806:17879   */\n      tag_540\n        /* \"#utility.yul\":17874:17877   */\n      0xa0\n        /* \"#utility.yul\":17863:17872   */\n      dup4\n        /* \"#utility.yul\":17859:17878   */\n      add\n        /* \"#utility.yul\":17850:17856   */\n      dup6\n        /* \"#utility.yul\":17806:17879   */\n      tag_339\n      jump\t// in\n    tag_540:\n        /* \"#utility.yul\":17889:17962   */\n      tag_541\n        /* \"#utility.yul\":17957:17960   */\n      0xc0\n        /* \"#utility.yul\":17946:17955   */\n      dup4\n        /* \"#utility.yul\":17942:17961   */\n      add\n        /* \"#utility.yul\":17933:17939   */\n      dup5\n        /* \"#utility.yul\":17889:17962   */\n      tag_339\n      jump\t// in\n    tag_541:\n        /* \"#utility.yul\":16810:17969   */\n      swap9\n      swap8\n      pop\n      pop\n      pop\n      pop\n      pop\n      pop\n      pop\n      pop\n      jump\t// out\n        /* \"#utility.yul\":17975:19134   */\n    tag_75:\n        /* \"#utility.yul\":18082:18088   */\n      0x00\n        /* \"#utility.yul\":18090:18096   */\n      0x00\n        /* \"#utility.yul\":18098:18104   */\n      0x00\n        /* \"#utility.yul\":18147:18149   */\n      0x60\n        /* \"#utility.yul\":18135:18144   */\n      dup5\n        /* \"#utility.yul\":18126:18133   */\n      dup7\n        /* \"#utility.yul\":18122:18145   */\n      sub\n        /* \"#utility.yul\":18118:18150   */\n      slt\n        /* \"#utility.yul\":18115:18234   */\n      iszero\n      tag_543\n      jumpi\n        /* \"#utility.yul\":18153:18232   */\n      tag_544\n      tag_294\n      jump\t// in\n    tag_544:\n        /* \"#utility.yul\":18115:18234   */\n    tag_543:\n        /* \"#utility.yul\":18301:18302   */\n      0x00\n        /* \"#utility.yul\":18290:18299   */\n      dup5\n        /* \"#utility.yul\":18286:18303   */\n      add\n        /* \"#utility.yul\":18273:18304   */\n      calldataload\n        /* \"#utility.yul\":18331:18349   */\n      0xffffffffffffffff\n        /* \"#utility.yul\":18323:18329   */\n      dup2\n        /* \"#utility.yul\":18320:18350   */\n      gt\n        /* \"#utility.yul\":18317:18434   */\n      iszero\n      tag_545\n      jumpi\n        /* \"#utility.yul\":18353:18432   */\n      tag_546\n      tag_295\n      jump\t// in\n    tag_546:\n        /* \"#utility.yul\":18317:18434   */\n    tag_545:\n        /* \"#utility.yul\":18458:18521   */\n      tag_547\n        /* \"#utility.yul\":18513:18520   */\n      dup7\n        /* \"#utility.yul\":18504:18510   */\n      dup3\n        /* \"#utility.yul\":18493:18502   */\n      dup8\n        /* \"#utility.yul\":18489:18511   */\n      add\n        /* \"#utility.yul\":18458:18521   */\n      tag_335\n      jump\t// in\n    tag_547:\n        /* \"#utility.yul\":18448:18521   */\n      swap4\n      pop\n        /* \"#utility.yul\":18244:18531   */\n      pop\n        /* \"#utility.yul\":18598:18600   */\n      0x20\n        /* \"#utility.yul\":18587:18596   */\n      dup5\n        /* \"#utility.yul\":18583:18601   */\n      add\n        /* \"#utility.yul\":18570:18602   */\n      calldataload\n        /* \"#utility.yul\":18629:18647   */\n      0xffffffffffffffff\n        /* \"#utility.yul\":18621:18627   */\n      dup2\n        /* \"#utility.yul\":18618:18648   */\n      gt\n        /* \"#utility.yul\":18615:18732   */\n      iszero\n      tag_548\n      jumpi\n        /* \"#utility.yul\":18651:18730   */\n      tag_549\n      tag_295\n      jump\t// in\n    tag_549:\n        /* \"#utility.yul\":18615:18732   */\n    tag_548:\n        /* \"#utility.yul\":18756:18819   */\n      tag_550\n        /* \"#utility.yul\":18811:18818   */\n      dup7\n        /* \"#utility.yul\":18802:18808   */\n      dup3\n        /* \"#utility.yul\":18791:18800   */\n      dup8\n        /* \"#utility.yul\":18787:18809   */\n      add\n        /* \"#utility.yul\":18756:18819   */\n      tag_335\n      jump\t// in\n    tag_550:\n        /* \"#utility.yul\":18746:18819   */\n      swap3\n      pop\n        /* \"#utility.yul\":18541:18829   */\n      pop\n        /* \"#utility.yul\":18896:18898   */\n      0x40\n        /* \"#utility.yul\":18885:18894   */\n      dup5\n        /* \"#utility.yul\":18881:18899   */\n      add\n        /* \"#utility.yul\":18868:18900   */\n      calldataload\n        /* \"#utility.yul\":18927:18945   */\n      0xffffffffffffffff\n        /* \"#utility.yul\":18919:18925   */\n      dup2\n        /* \"#utility.yul\":18916:18946   */\n      gt\n        /* \"#utility.yul\":18913:19030   */\n      iszero\n      tag_551\n      jumpi\n        /* \"#utility.yul\":18949:19028   */\n      tag_552\n      tag_295\n      jump\t// in\n    tag_552:\n        /* \"#utility.yul\":18913:19030   */\n    tag_551:\n        /* \"#utility.yul\":19054:19117   */\n      tag_553\n        /* \"#utility.yul\":19109:19116   */\n      dup7\n        /* \"#utility.yul\":19100:19106   */\n      dup3\n        /* \"#utility.yul\":19089:19098   */\n      dup8\n        /* \"#utility.yul\":19085:19107   */\n      add\n        /* \"#utility.yul\":19054:19117   */\n      tag_335\n      jump\t// in\n    tag_553:\n        /* \"#utility.yul\":19044:19117   */\n      swap2\n      pop\n        /* \"#utility.yul\":18839:19127   */\n      pop\n        /* \"#utility.yul\":17975:19134   */\n      swap3\n      pop\n      swap3\n      pop\n      swap3\n      jump\t// out\n        /* \"#utility.yul\":19140:19320   */\n    tag_99:\n        /* \"#utility.yul\":19188:19265   */\n      0x4e487b7100000000000000000000000000000000000000000000000000000000\n        /* \"#utility.yul\":19185:19186   */\n      0x00\n        /* \"#utility.yul\":19178:19266   */\n      mstore\n        /* \"#utility.yul\":19285:19289   */\n      0x32\n        /* \"#utility.yul\":19282:19283   */\n      0x04\n        /* \"#utility.yul\":19275:19290   */\n      mstore\n        /* \"#utility.yul\":19309:19313   */\n      0x24\n        /* \"#utility.yul\":19306:19307   */\n      0x00\n        /* \"#utility.yul\":19299:19314   */\n      revert\n        /* \"#utility.yul\":19326:19506   */\n    tag_340:\n        /* \"#utility.yul\":19374:19451   */\n      0x4e487b7100000000000000000000000000000000000000000000000000000000\n        /* \"#utility.yul\":19371:19372   */\n      0x00\n        /* \"#utility.yul\":19364:19452   */\n      mstore\n        /* \"#utility.yul\":19471:19475   */\n      0x22\n        /* \"#utility.yul\":19468:19469   */\n      0x04\n        /* \"#utility.yul\":19461:19476   */\n      mstore\n        /* \"#utility.yul\":19495:19499   */\n      0x24\n        /* \"#utility.yul\":19492:19493   */\n      0x00\n        /* \"#utility.yul\":19485:19500   */\n      revert\n        /* \"#utility.yul\":19512:19832   */\n    tag_101:\n        /* \"#utility.yul\":19556:19562   */\n      0x00\n        /* \"#utility.yul\":19593:19594   */\n      0x02\n        /* \"#utility.yul\":19587:19591   */\n      dup3\n        /* \"#utility.yul\":19583:19595   */\n      div\n        /* \"#utility.yul\":19573:19595   */\n      swap1\n      pop\n        /* \"#utility.yul\":19640:19641   */\n      0x01\n        /* \"#utility.yul\":19634:19638   */\n      dup3\n        /* \"#utility.yul\":19630:19642   */\n      and\n        /* \"#utility.yul\":19661:19679   */\n      dup1\n        /* \"#utility.yul\":19651:19732   */\n      tag_557\n      jumpi\n        /* \"#utility.yul\":19717:19721   */\n      0x7f\n        /* \"#utility.yul\":19709:19715   */\n      dup3\n        /* \"#utility.yul\":19705:19722   */\n      and\n        /* \"#utility.yul\":19695:19722   */\n      swap2\n      pop\n        /* \"#utility.yul\":19651:19732   */\n    tag_557:\n        /* \"#utility.yul\":19779:19781   */\n      0x20\n        /* \"#utility.yul\":19771:19777   */\n      dup3\n        /* \"#utility.yul\":19768:19782   */\n      lt\n        /* \"#utility.yul\":19748:19766   */\n      dup2\n        /* \"#utility.yul\":19745:19783   */\n      sub\n        /* \"#utility.yul\":19742:19826   */\n      tag_558\n      jumpi\n        /* \"#utility.yul\":19798:19816   */\n      tag_559\n      tag_340\n      jump\t// in\n    tag_559:\n        /* \"#utility.yul\":19742:19826   */\n    tag_558:\n        /* \"#utility.yul\":19563:19832   */\n      pop\n        /* \"#utility.yul\":19512:19832   */\n      swap2\n      swap1\n      pop\n      jump\t// out\n        /* \"#utility.yul\":19838:20010   */\n    tag_341:\n        /* \"#utility.yul\":19978:20002   */\n      0x436f6d6d656e7420646f6573206e6f7420657869737400000000000000000000\n        /* \"#utility.yul\":19974:19975   */\n      0x00\n        /* \"#utility.yul\":19966:19972   */\n      dup3\n        /* \"#utility.yul\":19962:19976   */\n      add\n        /* \"#utility.yul\":19955:20003   */\n      mstore\n        /* \"#utility.yul\":19838:20010   */\n      pop\n      jump\t// out\n        /* \"#utility.yul\":20016:20382   */\n    tag_342:\n        /* \"#utility.yul\":20158:20161   */\n      0x00\n        /* \"#utility.yul\":20179:20246   */\n      tag_562\n        /* \"#utility.yul\":20243:20245   */\n      0x16\n        /* \"#utility.yul\":20238:20241   */\n      dup4\n        /* \"#utility.yul\":20179:20246   */\n      tag_337\n      jump\t// in\n    tag_562:\n        /* \"#utility.yul\":20172:20246   */\n      swap2\n      pop\n        /* \"#utility.yul\":20255:20348   */\n      tag_563\n        /* \"#utility.yul\":20344:20347   */\n      dup3\n        /* \"#utility.yul\":20255:20348   */\n      tag_341\n      jump\t// in\n    tag_563:\n        /* \"#utility.yul\":20373:20375   */\n      0x20\n        /* \"#utility.yul\":20368:20371   */\n      dup3\n        /* \"#utility.yul\":20364:20376   */\n      add\n        /* \"#utility.yul\":20357:20376   */\n      swap1\n      pop\n        /* \"#utility.yul\":20016:20382   */\n      swap2\n      swap1\n      pop\n      jump\t// out\n        /* \"#utility.yul\":20388:20807   */\n    tag_150:\n        /* \"#utility.yul\":20554:20558   */\n      0x00\n        /* \"#utility.yul\":20592:20594   */\n      0x20\n        /* \"#utility.yul\":20581:20590   */\n      dup3\n        /* \"#utility.yul\":20577:20595   */\n      add\n        /* \"#utility.yul\":20569:20595   */\n      swap1\n      pop\n        /* \"#utility.yul\":20641:20650   */\n      dup2\n        /* \"#utility.yul\":20635:20639   */\n      dup2\n        /* \"#utility.yul\":20631:20651   */\n      sub\n        /* \"#utility.yul\":20627:20628   */\n      0x00\n        /* \"#utility.yul\":20616:20625   */\n      dup4\n        /* \"#utility.yul\":20612:20629   */\n      add\n        /* \"#utility.yul\":20605:20652   */\n      mstore\n        /* \"#utility.yul\":20669:20800   */\n      tag_565\n        /* \"#utility.yul\":20795:20799   */\n      dup2\n        /* \"#utility.yul\":20669:20800   */\n      tag_342\n      jump\t// in\n    tag_565:\n        /* \"#utility.yul\":20661:20800   */\n      swap1\n      pop\n        /* \"#utility.yul\":20388:20807   */\n      swap2\n      swap1\n      pop\n      jump\t// out\n        /* \"#utility.yul\":20813:20991   */\n    tag_343:\n        /* \"#utility.yul\":20953:20983   */\n      0x416c7265616479207570766f746564207468697320636f6d6d656e7400000000\n        /* \"#utility.yul\":20949:20950   */\n      0x00\n        /* \"#utility.yul\":20941:20947   */\n      dup3\n        /* \"#utility.yul\":20937:20951   */\n      add\n        /* \"#utility.yul\":20930:20984   */\n      mstore\n        /* \"#utility.yul\":20813:20991   */\n      pop\n      jump\t// out\n        /* \"#utility.yul\":20997:21363   */\n    tag_344:\n        /* \"#utility.yul\":21139:21142   */\n      0x00\n        /* \"#utility.yul\":21160:21227   */\n      tag_568\n        /* \"#utility.yul\":21224:21226   */\n      0x1c\n        /* \"#utility.yul\":21219:21222   */\n      dup4\n        /* \"#utility.yul\":21160:21227   */\n      tag_337\n      jump\t// in\n    tag_568:\n        /* \"#utility.yul\":21153:21227   */\n      swap2\n      pop\n        /* \"#utility.yul\":21236:21329   */\n      tag_569\n        /* \"#utility.yul\":21325:21328   */\n      dup3\n        /* \"#utility.yul\":21236:21329   */\n      tag_343\n      jump\t// in\n    tag_569:\n        /* \"#utility.yul\":21354:21356   */\n      0x20\n        /* \"#utility.yul\":21349:21352   */\n      dup3\n        /* \"#utility.yul\":21345:21357   */\n      add\n        /* \"#utility.yul\":21338:21357   */\n      swap1\n      pop\n        /* \"#utility.yul\":20997:21363   */\n      swap2\n      swap1\n      pop\n      jump\t// out\n        /* \"#utility.yul\":21369:21788   */\n    tag_153:\n        /* \"#utility.yul\":21535:21539   */\n      0x00\n        /* \"#utility.yul\":21573:21575   */\n      0x20\n        /* \"#utility.yul\":21562:21571   */\n      dup3\n        /* \"#utility.yul\":21558:21576   */\n      add\n        /* \"#utility.yul\":21550:21576   */\n      swap1\n      pop\n        /* \"#utility.yul\":21622:21631   */\n      dup2\n        /* \"#utility.yul\":21616:21620   */\n      dup2\n        /* \"#utility.yul\":21612:21632   */\n      sub\n        /* \"#utility.yul\":21608:21609   */\n      0x00\n        /* \"#utility.yul\":21597:21606   */\n      dup4\n        /* \"#utility.yul\":21593:21610   */\n      add\n        /* \"#utility.yul\":21586:21633   */\n      mstore\n        /* \"#utility.yul\":21650:21781   */\n      tag_571\n        /* \"#utility.yul\":21776:21780   */\n      dup2\n        /* \"#utility.yul\":21650:21781   */\n      tag_344\n      jump\t// in\n    tag_571:\n        /* \"#utility.yul\":21642:21781   */\n      swap1\n      pop\n        /* \"#utility.yul\":21369:21788   */\n      swap2\n      swap1\n      pop\n      jump\t// out\n        /* \"#utility.yul\":21794:21974   */\n    tag_345:\n        /* \"#utility.yul\":21842:21919   */\n      0x4e487b7100000000000000000000000000000000000000000000000000000000\n        /* \"#utility.yul\":21839:21840   */\n      0x00\n        /* \"#utility.yul\":21832:21920   */\n      mstore\n        /* \"#utility.yul\":21939:21943   */\n      0x11\n        /* \"#utility.yul\":21936:21937   */\n      0x04\n        /* \"#utility.yul\":21929:21944   */\n      mstore\n        /* \"#utility.yul\":21963:21967   */\n      0x24\n        /* \"#utility.yul\":21960:21961   */\n      0x00\n        /* \"#utility.yul\":21953:21968   */\n      revert\n        /* \"#utility.yul\":21980:22213   */\n    tag_155:\n        /* \"#utility.yul\":22019:22022   */\n      0x00\n        /* \"#utility.yul\":22042:22066   */\n      tag_574\n        /* \"#utility.yul\":22060:22065   */\n      dup3\n        /* \"#utility.yul\":22042:22066   */\n      tag_314\n      jump\t// in\n    tag_574:\n        /* \"#utility.yul\":22033:22066   */\n      swap2\n      pop\n        /* \"#utility.yul\":22088:22154   */\n      0xffffffffffffffffffffffffffffffffffffffffffffffffffffffffffffffff\n        /* \"#utility.yul\":22081:22086   */\n      dup3\n        /* \"#utility.yul\":22078:22155   */\n      sub\n        /* \"#utility.yul\":22075:22178   */\n      tag_575\n      jumpi\n        /* \"#utility.yul\":22158:22176   */\n      tag_576\n      tag_345\n      jump\t// in\n    tag_576:\n        /* \"#utility.yul\":22075:22178   */\n    tag_575:\n        /* \"#utility.yul\":22205:22206   */\n      0x01\n        /* \"#utility.yul\":22198:22203   */\n      dup3\n        /* \"#utility.yul\":22194:22207   */\n      add\n        /* \"#utility.yul\":22187:22207   */\n      swap1\n      pop\n        /* \"#utility.yul\":21980:22213   */\n      swap2\n      swap1\n      pop\n      jump\t// out\n        /* \"#utility.yul\":22219:22337   */\n    tag_346:\n        /* \"#utility.yul\":22306:22330   */\n      tag_578\n        /* \"#utility.yul\":22324:22329   */\n      dup2\n        /* \"#utility.yul\":22306:22330   */\n      tag_300\n      jump\t// in\n    tag_578:\n        /* \"#utility.yul\":22301:22304   */\n      dup3\n        /* \"#utility.yul\":22294:22331   */\n      mstore\n        /* \"#utility.yul\":22219:22337   */\n      pop\n      pop\n      jump\t// out\n        /* \"#utility.yul\":22343:22663   */\n    tag_168:\n        /* \"#utility.yul\":22458:22462   */\n      0x00\n        /* \"#utility.yul\":22496:22498   */\n      0x40\n        /* \"#utility.yul\":22485:22494   */\n      dup3\n        /* \"#utility.yul\":22481:22499   */\n      add\n        /* \"#utility.yul\":22473:22499   */\n      swap1\n      pop\n        /* \"#utility.yul\":22509:22580   */\n      tag_580\n        /* \"#utility.yul\":22577:22578   */\n      0x00\n        /* \"#utility.yul\":22566:22575   */\n      dup4\n        /* \"#utility.yul\":22562:22579   */\n      add\n        /* \"#utility.yul\":22553:22559   */\n      dup6\n        /* \"#utility.yul\":22509:22580   */\n      tag_346\n      jump\t// in\n    tag_580:\n        /* \"#utility.yul\":22590:22656   */\n      tag_581\n        /* \"#utility.yul\":22652:22654   */\n      0x20\n        /* \"#utility.yul\":22641:22650   */\n      dup4\n        /* \"#utility.yul\":22637:22655   */\n      add\n        /* \"#utility.yul\":22628:22634   */\n      dup5\n        /* \"#utility.yul\":22590:22656   */\n      tag_304\n      jump\t// in\n    tag_581:\n        /* \"#utility.yul\":22343:22663   */\n      swap4\n      swap3\n      pop\n      pop\n      pop\n      jump\t// out\n        /* \"#utility.yul\":22669:22839   */\n    tag_347:\n        /* \"#utility.yul\":22809:22831   */\n      0x506f737420646f6573206e6f742065786973742e000000000000000000000000\n        /* \"#utility.yul\":22805:22806   */\n      0x00\n        /* \"#utility.yul\":22797:22803   */\n      dup3\n        /* \"#utility.yul\":22793:22807   */\n      add\n        /* \"#utility.yul\":22786:22832   */\n      mstore\n        /* \"#utility.yul\":22669:22839   */\n      pop\n      jump\t// out\n        /* \"#utility.yul\":22845:23211   */\n    tag_348:\n        /* \"#utility.yul\":22987:22990   */\n      0x00\n        /* \"#utility.yul\":23008:23075   */\n      tag_584\n        /* \"#utility.yul\":23072:23074   */\n      0x14\n        /* \"#utility.yul\":23067:23070   */\n      dup4\n        /* \"#utility.yul\":23008:23075   */\n      tag_337\n      jump\t// in\n    tag_584:\n        /* \"#utility.yul\":23001:23075   */\n      swap2\n      pop\n        /* \"#utility.yul\":23084:23177   */\n      tag_585\n        /* \"#utility.yul\":23173:23176   */\n      dup3\n        /* \"#utility.yul\":23084:23177   */\n      tag_347\n      jump\t// in\n    tag_585:\n        /* \"#utility.yul\":23202:23204   */\n      0x20\n        /* \"#utility.yul\":23197:23200   */\n      dup3\n        /* \"#utility.yul\":23193:23205   */\n      add\n        /* \"#utility.yul\":23186:23205   */\n      swap1\n      pop\n        /* \"#utility.yul\":22845:23211   */\n      swap2\n      swap1\n      pop\n      jump\t// out\n        /* \"#utility.yul\":23217:23636   */\n    tag_198:\n        /* \"#utility.yul\":23383:23387   */\n      0x00\n        /* \"#utility.yul\":23421:23423   */\n      0x20\n        /* \"#utility.yul\":23410:23419   */\n      dup3\n        /* \"#utility.yul\":23406:23424   */\n      add\n        /* \"#utility.yul\":23398:23424   */\n      swap1\n      pop\n        /* \"#utility.yul\":23470:23479   */\n      dup2\n        /* \"#utility.yul\":23464:23468   */\n      dup2\n        /* \"#utility.yul\":23460:23480   */\n      sub\n        /* \"#utility.yul\":23456:23457   */\n      0x00\n        /* \"#utility.yul\":23445:23454   */\n      dup4\n        /* \"#utility.yul\":23441:23458   */\n      add\n        /* \"#utility.yul\":23434:23481   */\n      mstore\n        /* \"#utility.yul\":23498:23629   */\n      tag_587\n        /* \"#utility.yul\":23624:23628   */\n      dup2\n        /* \"#utility.yul\":23498:23629   */\n      tag_348\n      jump\t// in\n    tag_587:\n        /* \"#utility.yul\":23490:23629   */\n      swap1\n      pop\n        /* \"#utility.yul\":23217:23636   */\n      swap2\n      swap1\n      pop\n      jump\t// out\n        /* \"#utility.yul\":23642:23810   */\n    tag_349:\n        /* \"#utility.yul\":23782:23802   */\n      0x416c726561647920646f776e766f7465642e0000000000000000000000000000\n        /* \"#utility.yul\":23778:23779   */\n      0x00\n        /* \"#utility.yul\":23770:23776   */\n      dup3\n        /* \"#utility.yul\":23766:23780   */\n      add\n        /* \"#utility.yul\":23759:23803   */\n      mstore\n        /* \"#utility.yul\":23642:23810   */\n      pop\n      jump\t// out\n        /* \"#utility.yul\":23816:24182   */\n    tag_350:\n        /* \"#utility.yul\":23958:23961   */\n      0x00\n        /* \"#utility.yul\":23979:24046   */\n      tag_590\n        /* \"#utility.yul\":24043:24045   */\n      0x12\n        /* \"#utility.yul\":24038:24041   */\n      dup4\n        /* \"#utility.yul\":23979:24046   */\n      tag_337\n      jump\t// in\n    tag_590:\n        /* \"#utility.yul\":23972:24046   */\n      swap2\n      pop\n        /* \"#utility.yul\":24055:24148   */\n      tag_591\n        /* \"#utility.yul\":24144:24147   */\n      dup3\n        /* \"#utility.yul\":24055:24148   */\n      tag_349\n      jump\t// in\n    tag_591:\n        /* \"#utility.yul\":24173:24175   */\n      0x20\n        /* \"#utility.yul\":24168:24171   */\n      dup3\n        /* \"#utility.yul\":24164:24176   */\n      add\n        /* \"#utility.yul\":24157:24176   */\n      swap1\n      pop\n        /* \"#utility.yul\":23816:24182   */\n      swap2\n      swap1\n      pop\n      jump\t// out\n        /* \"#utility.yul\":24188:24607   */\n    tag_201:\n        /* \"#utility.yul\":24354:24358   */\n      0x00\n        /* \"#utility.yul\":24392:24394   */\n      0x20\n        /* \"#utility.yul\":24381:24390   */\n      dup3\n        /* \"#utility.yul\":24377:24395   */\n      add\n        /* \"#utility.yul\":24369:24395   */\n      swap1\n      pop\n        /* \"#utility.yul\":24441:24450   */\n      dup2\n        /* \"#utility.yul\":24435:24439   */\n      dup2\n        /* \"#utility.yul\":24431:24451   */\n      sub\n        /* \"#utility.yul\":24427:24428   */\n      0x00\n        /* \"#utility.yul\":24416:24425   */\n      dup4\n        /* \"#utility.yul\":24412:24429   */\n      add\n        /* \"#utility.yul\":24405:24452   */\n      mstore\n        /* \"#utility.yul\":24469:24600   */\n      tag_593\n        /* \"#utility.yul\":24595:24599   */\n      dup2\n        /* \"#utility.yul\":24469:24600   */\n      tag_350\n      jump\t// in\n    tag_593:\n        /* \"#utility.yul\":24461:24600   */\n      swap1\n      pop\n        /* \"#utility.yul\":24188:24607   */\n      swap2\n      swap1\n      pop\n      jump\t// out\n        /* \"#utility.yul\":24613:24786   */\n    tag_351:\n        /* \"#utility.yul\":24753:24778   */\n      0x436f6d6d656e746572206e616d6520746f6f206c6f6e67000000000000000000\n        /* \"#utility.yul\":24749:24750   */\n      0x00\n        /* \"#utility.yul\":24741:24747   */\n      dup3\n        /* \"#utility.yul\":24737:24751   */\n      add\n        /* \"#utility.yul\":24730:24779   */\n      mstore\n        /* \"#utility.yul\":24613:24786   */\n      pop\n      jump\t// out\n        /* \"#utility.yul\":24792:25158   */\n    tag_352:\n        /* \"#utility.yul\":24934:24937   */\n      0x00\n        /* \"#utility.yul\":24955:25022   */\n      tag_596\n        /* \"#utility.yul\":25019:25021   */\n      0x17\n        /* \"#utility.yul\":25014:25017   */\n      dup4\n        /* \"#utility.yul\":24955:25022   */\n      tag_337\n      jump\t// in\n    tag_596:\n        /* \"#utility.yul\":24948:25022   */\n      swap2\n      pop\n        /* \"#utility.yul\":25031:25124   */\n      tag_597\n        /* \"#utility.yul\":25120:25123   */\n      dup3\n        /* \"#utility.yul\":25031:25124   */\n      tag_351\n      jump\t// in\n    tag_597:\n        /* \"#utility.yul\":25149:25151   */\n      0x20\n        /* \"#utility.yul\":25144:25147   */\n      dup3\n        /* \"#utility.yul\":25140:25152   */\n      add\n        /* \"#utility.yul\":25133:25152   */\n      swap1\n      pop\n        /* \"#utility.yul\":24792:25158   */\n      swap2\n      swap1\n      pop\n      jump\t// out\n        /* \"#utility.yul\":25164:25583   */\n    tag_209:\n        /* \"#utility.yul\":25330:25334   */\n      0x00\n        /* \"#utility.yul\":25368:25370   */\n      0x20\n        /* \"#utility.yul\":25357:25366   */\n      dup3\n        /* \"#utility.yul\":25353:25371   */\n      add\n        /* \"#utility.yul\":25345:25371   */\n      swap1\n      pop\n        /* \"#utility.yul\":25417:25426   */\n      dup2\n        /* \"#utility.yul\":25411:25415   */\n      dup2\n        /* \"#utility.yul\":25407:25427   */\n      sub\n        /* \"#utility.yul\":25403:25404   */\n      0x00\n        /* \"#utility.yul\":25392:25401   */\n      dup4\n        /* \"#utility.yul\":25388:25405   */\n      add\n        /* \"#utility.yul\":25381:25428   */\n      mstore\n        /* \"#utility.yul\":25445:25576   */\n      tag_599\n        /* \"#utility.yul\":25571:25575   */\n      dup2\n        /* \"#utility.yul\":25445:25576   */\n      tag_352\n      jump\t// in\n    tag_599:\n        /* \"#utility.yul\":25437:25576   */\n      swap1\n      pop\n        /* \"#utility.yul\":25164:25583   */\n      swap2\n      swap1\n      pop\n      jump\t// out\n        /* \"#utility.yul\":25589:25683   */\n    tag_353:\n        /* \"#utility.yul\":25622:25630   */\n      0x00\n        /* \"#utility.yul\":25670:25675   */\n      dup2\n        /* \"#utility.yul\":25666:25668   */\n      0x60\n        /* \"#utility.yul\":25662:25676   */\n      shl\n        /* \"#utility.yul\":25641:25676   */\n      swap1\n      pop\n        /* \"#utility.yul\":25589:25683   */\n      swap2\n      swap1\n      pop\n      jump\t// out\n        /* \"#utility.yul\":25689:25783   */\n    tag_354:\n        /* \"#utility.yul\":25728:25735   */\n      0x00\n        /* \"#utility.yul\":25757:25777   */\n      tag_602\n        /* \"#utility.yul\":25771:25776   */\n      dup3\n        /* \"#utility.yul\":25757:25777   */\n      tag_353\n      jump\t// in\n    tag_602:\n        /* \"#utility.yul\":25746:25777   */\n      swap1\n      pop\n        /* \"#utility.yul\":25689:25783   */\n      swap2\n      swap1\n      pop\n      jump\t// out\n        /* \"#utility.yul\":25789:25889   */\n    tag_355:\n        /* \"#utility.yul\":25828:25835   */\n      0x00\n        /* \"#utility.yul\":25857:25883   */\n      tag_604\n        /* \"#utility.yul\":25877:25882   */\n      dup3\n        /* \"#utility.yul\":25857:25883   */\n      tag_354\n      jump\t// in\n    tag_604:\n        /* \"#utility.yul\":25846:25883   */\n      swap1\n      pop\n        /* \"#utility.yul\":25789:25889   */\n      swap2\n      swap1\n      pop\n      jump\t// out\n        /* \"#utility.yul\":25895:26052   */\n    tag_356:\n        /* \"#utility.yul\":26000:26045   */\n      tag_606\n        /* \"#utility.yul\":26020:26044   */\n      tag_607\n        /* \"#utility.yul\":26038:26043   */\n      dup3\n        /* \"#utility.yul\":26020:26044   */\n      tag_300\n      jump\t// in\n    tag_607:\n        /* \"#utility.yul\":26000:26045   */\n      tag_355\n      jump\t// in\n    tag_606:\n        /* \"#utility.yul\":25995:25998   */\n      dup3\n        /* \"#utility.yul\":25988:26046   */\n      mstore\n        /* \"#utility.yul\":25895:26052   */\n      pop\n      pop\n      jump\t// out\n        /* \"#utility.yul\":26058:26137   */\n    tag_357:\n        /* \"#utility.yul\":26097:26104   */\n      0x00\n        /* \"#utility.yul\":26126:26131   */\n      dup2\n        /* \"#utility.yul\":26115:26131   */\n      swap1\n      pop\n        /* \"#utility.yul\":26058:26137   */\n      swap2\n      swap1\n      pop\n      jump\t// out\n        /* \"#utility.yul\":26143:26300   */\n    tag_358:\n        /* \"#utility.yul\":26248:26293   */\n      tag_610\n        /* \"#utility.yul\":26268:26292   */\n      tag_611\n        /* \"#utility.yul\":26286:26291   */\n      dup3\n        /* \"#utility.yul\":26268:26292   */\n      tag_314\n      jump\t// in\n    tag_611:\n        /* \"#utility.yul\":26248:26293   */\n      tag_357\n      jump\t// in\n    tag_610:\n        /* \"#utility.yul\":26243:26246   */\n      dup3\n        /* \"#utility.yul\":26236:26294   */\n      mstore\n        /* \"#utility.yul\":26143:26300   */\n      pop\n      pop\n      jump\t// out\n        /* \"#utility.yul\":26306:26454   */\n    tag_359:\n        /* \"#utility.yul\":26408:26419   */\n      0x00\n        /* \"#utility.yul\":26445:26448   */\n      dup2\n        /* \"#utility.yul\":26430:26448   */\n      swap1\n      pop\n        /* \"#utility.yul\":26306:26454   */\n      swap3\n      swap2\n      pop\n      pop\n      jump\t// out\n        /* \"#utility.yul\":26460:26850   */\n    tag_360:\n        /* \"#utility.yul\":26566:26569   */\n      0x00\n        /* \"#utility.yul\":26594:26633   */\n      tag_614\n        /* \"#utility.yul\":26627:26632   */\n      dup3\n        /* \"#utility.yul\":26594:26633   */\n      tag_309\n      jump\t// in\n    tag_614:\n        /* \"#utility.yul\":26649:26738   */\n      tag_615\n        /* \"#utility.yul\":26731:26737   */\n      dup2\n        /* \"#utility.yul\":26726:26729   */\n      dup6\n        /* \"#utility.yul\":26649:26738   */\n      tag_359\n      jump\t// in\n    tag_615:\n        /* \"#utility.yul\":26642:26738   */\n      swap4\n      pop\n        /* \"#utility.yul\":26747:26812   */\n      tag_616\n        /* \"#utility.yul\":26805:26811   */\n      dup2\n        /* \"#utility.yul\":26800:26803   */\n      dup6\n        /* \"#utility.yul\":26793:26797   */\n      0x20\n        /* \"#utility.yul\":26786:26791   */\n      dup7\n        /* \"#utility.yul\":26782:26798   */\n      add\n        /* \"#utility.yul\":26747:26812   */\n      tag_311\n      jump\t// in\n    tag_616:\n        /* \"#utility.yul\":26837:26843   */\n      dup1\n        /* \"#utility.yul\":26832:26835   */\n      dup5\n        /* \"#utility.yul\":26828:26844   */\n      add\n        /* \"#utility.yul\":26821:26844   */\n      swap2\n      pop\n        /* \"#utility.yul\":26570:26850   */\n      pop\n        /* \"#utility.yul\":26460:26850   */\n      swap3\n      swap2\n      pop\n      pop\n      jump\t// out\n        /* \"#utility.yul\":26856:27413   */\n    tag_211:\n        /* \"#utility.yul\":27044:27047   */\n      0x00\n        /* \"#utility.yul\":27059:27134   */\n      tag_618\n        /* \"#utility.yul\":27130:27133   */\n      dup3\n        /* \"#utility.yul\":27121:27127   */\n      dup7\n        /* \"#utility.yul\":27059:27134   */\n      tag_356\n      jump\t// in\n    tag_618:\n        /* \"#utility.yul\":27159:27161   */\n      0x14\n        /* \"#utility.yul\":27154:27157   */\n      dup3\n        /* \"#utility.yul\":27150:27162   */\n      add\n        /* \"#utility.yul\":27143:27162   */\n      swap2\n      pop\n        /* \"#utility.yul\":27172:27247   */\n      tag_619\n        /* \"#utility.yul\":27243:27246   */\n      dup3\n        /* \"#utility.yul\":27234:27240   */\n      dup6\n        /* \"#utility.yul\":27172:27247   */\n      tag_358\n      jump\t// in\n    tag_619:\n        /* \"#utility.yul\":27272:27274   */\n      0x20\n        /* \"#utility.yul\":27267:27270   */\n      dup3\n        /* \"#utility.yul\":27263:27275   */\n      add\n        /* \"#utility.yul\":27256:27275   */\n      swap2\n      pop\n        /* \"#utility.yul\":27292:27387   */\n      tag_620\n        /* \"#utility.yul\":27383:27386   */\n      dup3\n        /* \"#utility.yul\":27374:27380   */\n      dup5\n        /* \"#utility.yul\":27292:27387   */\n      tag_360\n      jump\t// in\n    tag_620:\n        /* \"#utility.yul\":27285:27387   */\n      swap2\n      pop\n        /* \"#utility.yul\":27404:27407   */\n      dup2\n        /* \"#utility.yul\":27397:27407   */\n      swap1\n      pop\n        /* \"#utility.yul\":26856:27413   */\n      swap5\n      swap4\n      pop\n      pop\n      pop\n      pop\n      jump\t// out\n        /* \"#utility.yul\":27419:27560   */\n    tag_361:\n        /* \"#utility.yul\":27468:27472   */\n      0x00\n        /* \"#utility.yul\":27491:27494   */\n      dup2\n        /* \"#utility.yul\":27483:27494   */\n      swap1\n      pop\n        /* \"#utility.yul\":27514:27517   */\n      dup2\n        /* \"#utility.yul\":27511:27512   */\n      0x00\n        /* \"#utility.yul\":27504:27518   */\n      mstore\n        /* \"#utility.yul\":27548:27552   */\n      0x20\n        /* \"#utility.yul\":27545:27546   */\n      0x00\n        /* \"#utility.yul\":27535:27553   */\n      keccak256\n        /* \"#utility.yul\":27527:27553   */\n      swap1\n      pop\n        /* \"#utility.yul\":27419:27560   */\n      swap2\n      swap1\n      pop\n      jump\t// out\n        /* \"#utility.yul\":27566:27659   */\n    tag_362:\n        /* \"#utility.yul\":27603:27609   */\n      0x00\n        /* \"#utility.yul\":27650:27652   */\n      0x20\n        /* \"#utility.yul\":27645:27647   */\n      0x1f\n        /* \"#utility.yul\":27638:27643   */\n      dup4\n        /* \"#utility.yul\":27634:27648   */\n      add\n        /* \"#utility.yul\":27630:27653   */\n      div\n        /* \"#utility.yul\":27620:27653   */\n      swap1\n      pop\n        /* \"#utility.yul\":27566:27659   */\n      swap2\n      swap1\n      pop\n      jump\t// out\n        /* \"#utility.yul\":27665:27772   */\n    tag_363:\n        /* \"#utility.yul\":27709:27717   */\n      0x00\n        /* \"#utility.yul\":27759:27764   */\n      dup3\n        /* \"#utility.yul\":27753:27757   */\n      dup3\n        /* \"#utility.yul\":27749:27765   */\n      shl\n        /* \"#utility.yul\":27728:27765   */\n      swap1\n      pop\n        /* \"#utility.yul\":27665:27772   */\n      swap3\n      swap2\n      pop\n      pop\n      jump\t// out\n        /* \"#utility.yul\":27778:28171   */\n    tag_364:\n        /* \"#utility.yul\":27847:27853   */\n      0x00\n        /* \"#utility.yul\":27897:27898   */\n      0x08\n        /* \"#utility.yul\":27885:27895   */\n      dup4\n        /* \"#utility.yul\":27881:27899   */\n      mul\n        /* \"#utility.yul\":27920:28017   */\n      tag_625\n        /* \"#utility.yul\":27950:28016   */\n      0xffffffffffffffffffffffffffffffffffffffffffffffffffffffffffffffff\n        /* \"#utility.yul\":27939:27948   */\n      dup3\n        /* \"#utility.yul\":27920:28017   */\n      tag_363\n      jump\t// in\n    tag_625:\n        /* \"#utility.yul\":28038:28077   */\n      tag_626\n        /* \"#utility.yul\":28068:28076   */\n      dup7\n        /* \"#utility.yul\":28057:28066   */\n      dup4\n        /* \"#utility.yul\":28038:28077   */\n      tag_363\n      jump\t// in\n    tag_626:\n        /* \"#utility.yul\":28026:28077   */\n      swap6\n      pop\n        /* \"#utility.yul\":28110:28114   */\n      dup1\n        /* \"#utility.yul\":28106:28115   */\n      not\n        /* \"#utility.yul\":28099:28104   */\n      dup5\n        /* \"#utility.yul\":28095:28116   */\n      and\n        /* \"#utility.yul\":28086:28116   */\n      swap4\n      pop\n        /* \"#utility.yul\":28159:28163   */\n      dup1\n        /* \"#utility.yul\":28149:28157   */\n      dup7\n        /* \"#utility.yul\":28145:28164   */\n      and\n        /* \"#utility.yul\":28138:28143   */\n      dup5\n        /* \"#utility.yul\":28135:28165   */\n      or\n        /* \"#utility.yul\":28125:28165   */\n      swap3\n      pop\n        /* \"#utility.yul\":27854:28171   */\n      pop\n      pop\n        /* \"#utility.yul\":27778:28171   */\n      swap4\n      swap3\n      pop\n      pop\n      pop\n      jump\t// out\n        /* \"#utility.yul\":28177:28237   */\n    tag_365:\n        /* \"#utility.yul\":28205:28208   */\n      0x00\n        /* \"#utility.yul\":28226:28231   */\n      dup2\n        /* \"#utility.yul\":28219:28231   */\n      swap1\n      pop\n        /* \"#utility.yul\":28177:28237   */\n      swap2\n      swap1\n      pop\n      jump\t// out\n        /* \"#utility.yul\":28243:28385   */\n    tag_366:\n        /* \"#utility.yul\":28293:28302   */\n      0x00\n        /* \"#utility.yul\":28326:28379   */\n      tag_629\n        /* \"#utility.yul\":28344:28378   */\n      tag_630\n        /* \"#utility.yul\":28353:28377   */\n      tag_631\n        /* \"#utility.yul\":28371:28376   */\n      dup5\n        /* \"#utility.yul\":28353:28377   */\n      tag_314\n      jump\t// in\n    tag_631:\n        /* \"#utility.yul\":28344:28378   */\n      tag_365\n      jump\t// in\n    tag_630:\n        /* \"#utility.yul\":28326:28379   */\n      tag_314\n      jump\t// in\n    tag_629:\n        /* \"#utility.yul\":28313:28379   */\n      swap1\n      pop\n        /* \"#utility.yul\":28243:28385   */\n      swap2\n      swap1\n      pop\n      jump\t// out\n        /* \"#utility.yul\":28391:28466   */\n    tag_367:\n        /* \"#utility.yul\":28434:28437   */\n      0x00\n        /* \"#utility.yul\":28455:28460   */\n      dup2\n        /* \"#utility.yul\":28448:28460   */\n      swap1\n      pop\n        /* \"#utility.yul\":28391:28466   */\n      swap2\n      swap1\n      pop\n      jump\t// out\n        /* \"#utility.yul\":28472:28741   */\n    tag_368:\n        /* \"#utility.yul\":28582:28621   */\n      tag_634\n        /* \"#utility.yul\":28613:28620   */\n      dup4\n        /* \"#utility.yul\":28582:28621   */\n      tag_366\n      jump\t// in\n    tag_634:\n        /* \"#utility.yul\":28643:28734   */\n      tag_635\n        /* \"#utility.yul\":28692:28733   */\n      tag_636\n        /* \"#utility.yul\":28716:28732   */\n      dup3\n        /* \"#utility.yul\":28692:28733   */\n      tag_367\n      jump\t// in\n    tag_636:\n        /* \"#utility.yul\":28684:28690   */\n      dup5\n        /* \"#utility.yul\":28677:28681   */\n      dup5\n        /* \"#utility.yul\":28671:28682   */\n      sload\n        /* \"#utility.yul\":28643:28734   */\n      tag_364\n      jump\t// in\n    tag_635:\n        /* \"#utility.yul\":28637:28641   */\n      dup3\n        /* \"#utility.yul\":28630:28735   */\n      sstore\n        /* \"#utility.yul\":28548:28741   */\n      pop\n        /* \"#utility.yul\":28472:28741   */\n      pop\n      pop\n      pop\n      jump\t// out\n        /* \"#utility.yul\":28747:28820   */\n    tag_369:\n        /* \"#utility.yul\":28792:28795   */\n      0x00\n        /* \"#utility.yul\":28813:28814   */\n      0x00\n        /* \"#utility.yul\":28806:28814   */\n      swap1\n      pop\n        /* \"#utility.yul\":28747:28820   */\n      swap1\n      jump\t// out\n        /* \"#utility.yul\":28826:29015   */\n    tag_370:\n        /* \"#utility.yul\":28903:28935   */\n      tag_639\n      tag_369\n      jump\t// in\n    tag_639:\n        /* \"#utility.yul\":28944:29009   */\n      tag_640\n        /* \"#utility.yul\":29002:29008   */\n      dup2\n        /* \"#utility.yul\":28994:29000   */\n      dup5\n        /* \"#utility.yul\":28988:28992   */\n      dup5\n        /* \"#utility.yul\":28944:29009   */\n      tag_368\n      jump\t// in\n    tag_640:\n        /* \"#utility.yul\":28879:29015   */\n      pop\n        /* \"#utility.yul\":28826:29015   */\n      pop\n      pop\n      jump\t// out\n        /* \"#utility.yul\":29021:29207   */\n    tag_371:\n        /* \"#utility.yul\":29081:29201   */\n    tag_642:\n        /* \"#utility.yul\":29098:29101   */\n      dup2\n        /* \"#utility.yul\":29091:29096   */\n      dup2\n        /* \"#utility.yul\":29088:29102   */\n      lt\n        /* \"#utility.yul\":29081:29201   */\n      iszero\n      tag_644\n      jumpi\n        /* \"#utility.yul\":29152:29191   */\n      tag_645\n        /* \"#utility.yul\":29189:29190   */\n      0x00\n        /* \"#utility.yul\":29182:29187   */\n      dup3\n        /* \"#utility.yul\":29152:29191   */\n      tag_370\n      jump\t// in\n    tag_645:\n        /* \"#utility.yul\":29125:29126   */\n      0x01\n        /* \"#utility.yul\":29118:29123   */\n      dup2\n        /* \"#utility.yul\":29114:29127   */\n      add\n        /* \"#utility.yul\":29105:29127   */\n      swap1\n      pop\n        /* \"#utility.yul\":29081:29201   */\n      jump(tag_642)\n    tag_644:\n        /* \"#utility.yul\":29021:29207   */\n      pop\n      pop\n      jump\t// out\n        /* \"#utility.yul\":29213:29756   */\n    tag_372:\n        /* \"#utility.yul\":29314:29316   */\n      0x1f\n        /* \"#utility.yul\":29309:29312   */\n      dup3\n        /* \"#utility.yul\":29306:29317   */\n      gt\n        /* \"#utility.yul\":29303:29749   */\n      iszero\n      tag_647\n      jumpi\n        /* \"#utility.yul\":29348:29386   */\n      tag_648\n        /* \"#utility.yul\":29380:29385   */\n      dup2\n        /* \"#utility.yul\":29348:29386   */\n      tag_361\n      jump\t// in\n    tag_648:\n        /* \"#utility.yul\":29432:29461   */\n      tag_649\n        /* \"#utility.yul\":29450:29460   */\n      dup5\n        /* \"#utility.yul\":29432:29461   */\n      tag_362\n      jump\t// in\n    tag_649:\n        /* \"#utility.yul\":29422:29430   */\n      dup2\n        /* \"#utility.yul\":29418:29462   */\n      add\n        /* \"#utility.yul\":29615:29617   */\n      0x20\n        /* \"#utility.yul\":29603:29613   */\n      dup6\n        /* \"#utility.yul\":29600:29618   */\n      lt\n        /* \"#utility.yul\":29597:29646   */\n      iszero\n      tag_650\n      jumpi\n        /* \"#utility.yul\":29636:29644   */\n      dup2\n        /* \"#utility.yul\":29621:29644   */\n      swap1\n      pop\n        /* \"#utility.yul\":29597:29646   */\n    tag_650:\n        /* \"#utility.yul\":29659:29739   */\n      tag_651\n        /* \"#utility.yul\":29715:29737   */\n      tag_652\n        /* \"#utility.yul\":29733:29736   */\n      dup6\n        /* \"#utility.yul\":29715:29737   */\n      tag_362\n      jump\t// in\n    tag_652:\n        /* \"#utility.yul\":29705:29713   */\n      dup4\n        /* \"#utility.yul\":29701:29738   */\n      add\n        /* \"#utility.yul\":29688:29699   */\n      dup3\n        /* \"#utility.yul\":29659:29739   */\n      tag_371\n      jump\t// in\n    tag_651:\n        /* \"#utility.yul\":29318:29749   */\n      pop\n      pop\n        /* \"#utility.yul\":29303:29749   */\n    tag_647:\n        /* \"#utility.yul\":29213:29756   */\n      pop\n      pop\n      pop\n      jump\t// out\n        /* \"#utility.yul\":29762:29879   */\n    tag_373:\n        /* \"#utility.yul\":29816:29824   */\n      0x00\n        /* \"#utility.yul\":29866:29871   */\n      dup3\n        /* \"#utility.yul\":29860:29864   */\n      dup3\n        /* \"#utility.yul\":29856:29872   */\n      shr\n        /* \"#utility.yul\":29835:29872   */\n      swap1\n      pop\n        /* \"#utility.yul\":29762:29879   */\n      swap3\n      swap2\n      pop\n      pop\n      jump\t// out\n        /* \"#utility.yul\":29885:30054   */\n    tag_374:\n        /* \"#utility.yul\":29929:29935   */\n      0x00\n        /* \"#utility.yul\":29962:30013   */\n      tag_655\n        /* \"#utility.yul\":30010:30011   */\n      0x00\n        /* \"#utility.yul\":30006:30012   */\n      not\n        /* \"#utility.yul\":29998:30003   */\n      dup5\n        /* \"#utility.yul\":29995:29996   */\n      0x08\n        /* \"#utility.yul\":29991:30004   */\n      mul\n        /* \"#utility.yul\":29962:30013   */\n      tag_373\n      jump\t// in\n    tag_655:\n        /* \"#utility.yul\":29958:30014   */\n      not\n        /* \"#utility.yul\":30043:30047   */\n      dup1\n        /* \"#utility.yul\":30037:30041   */\n      dup4\n        /* \"#utility.yul\":30033:30048   */\n      and\n        /* \"#utility.yul\":30023:30048   */\n      swap2\n      pop\n        /* \"#utility.yul\":29936:30054   */\n      pop\n        /* \"#utility.yul\":29885:30054   */\n      swap3\n      swap2\n      pop\n      pop\n      jump\t// out\n        /* \"#utility.yul\":30059:30354   */\n    tag_375:\n        /* \"#utility.yul\":30135:30139   */\n      0x00\n        /* \"#utility.yul\":30281:30310   */\n      tag_657\n        /* \"#utility.yul\":30306:30309   */\n      dup4\n        /* \"#utility.yul\":30300:30304   */\n      dup4\n        /* \"#utility.yul\":30281:30310   */\n      tag_374\n      jump\t// in\n    tag_657:\n        /* \"#utility.yul\":30273:30310   */\n      swap2\n      pop\n        /* \"#utility.yul\":30343:30346   */\n      dup3\n        /* \"#utility.yul\":30340:30341   */\n      0x02\n        /* \"#utility.yul\":30336:30347   */\n      mul\n        /* \"#utility.yul\":30330:30334   */\n      dup3\n        /* \"#utility.yul\":30327:30348   */\n      or\n        /* \"#utility.yul\":30319:30348   */\n      swap1\n      pop\n        /* \"#utility.yul\":30059:30354   */\n      swap3\n      swap2\n      pop\n      pop\n      jump\t// out\n        /* \"#utility.yul\":30359:31754   */\n    tag_214:\n        /* \"#utility.yul\":30476:30513   */\n      tag_659\n        /* \"#utility.yul\":30509:30512   */\n      dup3\n        /* \"#utility.yul\":30476:30513   */\n      tag_309\n      jump\t// in\n    tag_659:\n        /* \"#utility.yul\":30578:30596   */\n      0xffffffffffffffff\n        /* \"#utility.yul\":30570:30576   */\n      dup2\n        /* \"#utility.yul\":30567:30597   */\n      gt\n        /* \"#utility.yul\":30564:30620   */\n      iszero\n      tag_660\n      jumpi\n        /* \"#utility.yul\":30600:30618   */\n      tag_661\n      tag_89\n      jump\t// in\n    tag_661:\n        /* \"#utility.yul\":30564:30620   */\n    tag_660:\n        /* \"#utility.yul\":30644:30682   */\n      tag_662\n        /* \"#utility.yul\":30676:30680   */\n      dup3\n        /* \"#utility.yul\":30670:30681   */\n      sload\n        /* \"#utility.yul\":30644:30682   */\n      tag_101\n      jump\t// in\n    tag_662:\n        /* \"#utility.yul\":30729:30796   */\n      tag_663\n        /* \"#utility.yul\":30789:30795   */\n      dup3\n        /* \"#utility.yul\":30781:30787   */\n      dup3\n        /* \"#utility.yul\":30775:30779   */\n      dup6\n        /* \"#utility.yul\":30729:30796   */\n      tag_372\n      jump\t// in\n    tag_663:\n        /* \"#utility.yul\":30823:30824   */\n      0x00\n        /* \"#utility.yul\":30847:30851   */\n      0x20\n        /* \"#utility.yul\":30834:30851   */\n      swap1\n      pop\n        /* \"#utility.yul\":30879:30881   */\n      0x1f\n        /* \"#utility.yul\":30871:30877   */\n      dup4\n        /* \"#utility.yul\":30868:30882   */\n      gt\n        /* \"#utility.yul\":30896:30897   */\n      0x01\n        /* \"#utility.yul\":30891:31509   */\n      dup2\n      eq\n      tag_665\n      jumpi\n        /* \"#utility.yul\":31553:31554   */\n      0x00\n        /* \"#utility.yul\":31570:31576   */\n      dup5\n        /* \"#utility.yul\":31567:31644   */\n      iszero\n      tag_666\n      jumpi\n        /* \"#utility.yul\":31619:31628   */\n      dup3\n        /* \"#utility.yul\":31614:31617   */\n      dup8\n        /* \"#utility.yul\":31610:31629   */\n      add\n        /* \"#utility.yul\":31604:31630   */\n      mload\n        /* \"#utility.yul\":31595:31630   */\n      swap1\n      pop\n        /* \"#utility.yul\":31567:31644   */\n    tag_666:\n        /* \"#utility.yul\":31670:31737   */\n      tag_667\n        /* \"#utility.yul\":31730:31736   */\n      dup6\n        /* \"#utility.yul\":31723:31728   */\n      dup3\n        /* \"#utility.yul\":31670:31737   */\n      tag_375\n      jump\t// in\n    tag_667:\n        /* \"#utility.yul\":31664:31668   */\n      dup7\n        /* \"#utility.yul\":31657:31738   */\n      sstore\n        /* \"#utility.yul\":31526:31748   */\n      pop\n        /* \"#utility.yul\":30861:31748   */\n      jump(tag_664)\n        /* \"#utility.yul\":30891:31509   */\n    tag_665:\n        /* \"#utility.yul\":30943:30947   */\n      0x1f\n        /* \"#utility.yul\":30939:30948   */\n      not\n        /* \"#utility.yul\":30931:30937   */\n      dup5\n        /* \"#utility.yul\":30927:30949   */\n      and\n        /* \"#utility.yul\":30977:31014   */\n      tag_668\n        /* \"#utility.yul\":31009:31013   */\n      dup7\n        /* \"#utility.yul\":30977:31014   */\n      tag_361\n      jump\t// in\n    tag_668:\n        /* \"#utility.yul\":31036:31037   */\n      0x00\n        /* \"#utility.yul\":31050:31258   */\n    tag_669:\n        /* \"#utility.yul\":31064:31071   */\n      dup3\n        /* \"#utility.yul\":31061:31062   */\n      dup2\n        /* \"#utility.yul\":31058:31072   */\n      lt\n        /* \"#utility.yul\":31050:31258   */\n      iszero\n      tag_671\n      jumpi\n        /* \"#utility.yul\":31143:31152   */\n      dup5\n        /* \"#utility.yul\":31138:31141   */\n      dup10\n        /* \"#utility.yul\":31134:31153   */\n      add\n        /* \"#utility.yul\":31128:31154   */\n      mload\n        /* \"#utility.yul\":31120:31126   */\n      dup3\n        /* \"#utility.yul\":31113:31155   */\n      sstore\n        /* \"#utility.yul\":31194:31195   */\n      0x01\n        /* \"#utility.yul\":31186:31192   */\n      dup3\n        /* \"#utility.yul\":31182:31196   */\n      add\n        /* \"#utility.yul\":31172:31196   */\n      swap2\n      pop\n        /* \"#utility.yul\":31241:31243   */\n      0x20\n        /* \"#utility.yul\":31230:31239   */\n      dup6\n        /* \"#utility.yul\":31226:31244   */\n      add\n        /* \"#utility.yul\":31213:31244   */\n      swap5\n      pop\n        /* \"#utility.yul\":31087:31091   */\n      0x20\n        /* \"#utility.yul\":31084:31085   */\n      dup2\n        /* \"#utility.yul\":31080:31092   */\n      add\n        /* \"#utility.yul\":31075:31092   */\n      swap1\n      pop\n        /* \"#utility.yul\":31050:31258   */\n      jump(tag_669)\n    tag_671:\n        /* \"#utility.yul\":31286:31292   */\n      dup7\n        /* \"#utility.yul\":31277:31284   */\n      dup4\n        /* \"#utility.yul\":31274:31293   */\n      lt\n        /* \"#utility.yul\":31271:31450   */\n      iszero\n      tag_672\n      jumpi\n        /* \"#utility.yul\":31344:31353   */\n      dup5\n        /* \"#utility.yul\":31339:31342   */\n      dup10\n        /* \"#utility.yul\":31335:31354   */\n      add\n        /* \"#utility.yul\":31329:31355   */\n      mload\n        /* \"#utility.yul\":31387:31435   */\n      tag_673\n        /* \"#utility.yul\":31429:31433   */\n      0x1f\n        /* \"#utility.yul\":31421:31427   */\n      dup10\n        /* \"#utility.yul\":31417:31434   */\n      and\n        /* \"#utility.yul\":31406:31415   */\n      dup3\n        /* \"#utility.yul\":31387:31435   */\n      tag_374\n      jump\t// in\n    tag_673:\n        /* \"#utility.yul\":31379:31385   */\n      dup4\n        /* \"#utility.yul\":31372:31436   */\n      sstore\n        /* \"#utility.yul\":31294:31450   */\n      pop\n        /* \"#utility.yul\":31271:31450   */\n    tag_672:\n        /* \"#utility.yul\":31496:31497   */\n      0x01\n        /* \"#utility.yul\":31492:31493   */\n      0x02\n        /* \"#utility.yul\":31484:31490   */\n      dup9\n        /* \"#utility.yul\":31480:31494   */\n      mul\n        /* \"#utility.yul\":31476:31498   */\n      add\n        /* \"#utility.yul\":31470:31474   */\n      dup9\n        /* \"#utility.yul\":31463:31499   */\n      sstore\n        /* \"#utility.yul\":30898:31509   */\n      pop\n      pop\n      pop\n        /* \"#utility.yul\":30861:31748   */\n    tag_664:\n      pop\n        /* \"#utility.yul\":30451:31754   */\n      pop\n      pop\n      pop\n        /* \"#utility.yul\":30359:31754   */\n      pop\n      pop\n      jump\t// out\n        /* \"#utility.yul\":31760:32495   */\n    tag_220:\n        /* \"#utility.yul\":31977:31981   */\n      0x00\n        /* \"#utility.yul\":32015:32018   */\n      0x80\n        /* \"#utility.yul\":32004:32013   */\n      dup3\n        /* \"#utility.yul\":32000:32019   */\n      add\n        /* \"#utility.yul\":31992:32019   */\n      swap1\n      pop\n        /* \"#utility.yul\":32029:32100   */\n      tag_675\n        /* \"#utility.yul\":32097:32098   */\n      0x00\n        /* \"#utility.yul\":32086:32095   */\n      dup4\n        /* \"#utility.yul\":32082:32099   */\n      add\n        /* \"#utility.yul\":32073:32079   */\n      dup8\n        /* \"#utility.yul\":32029:32100   */\n      tag_346\n      jump\t// in\n    tag_675:\n        /* \"#utility.yul\":32147:32156   */\n      dup2\n        /* \"#utility.yul\":32141:32145   */\n      dup2\n        /* \"#utility.yul\":32137:32157   */\n      sub\n        /* \"#utility.yul\":32132:32134   */\n      0x20\n        /* \"#utility.yul\":32121:32130   */\n      dup4\n        /* \"#utility.yul\":32117:32135   */\n      add\n        /* \"#utility.yul\":32110:32158   */\n      mstore\n        /* \"#utility.yul\":32175:32253   */\n      tag_676\n        /* \"#utility.yul\":32248:32252   */\n      dup2\n        /* \"#utility.yul\":32239:32245   */\n      dup7\n        /* \"#utility.yul\":32175:32253   */\n      tag_338\n      jump\t// in\n    tag_676:\n        /* \"#utility.yul\":32167:32253   */\n      swap1\n      pop\n        /* \"#utility.yul\":32300:32309   */\n      dup2\n        /* \"#utility.yul\":32294:32298   */\n      dup2\n        /* \"#utility.yul\":32290:32310   */\n      sub\n        /* \"#utility.yul\":32285:32287   */\n      0x40\n        /* \"#utility.yul\":32274:32283   */\n      dup4\n        /* \"#utility.yul\":32270:32288   */\n      add\n        /* \"#utility.yul\":32263:32311   */\n      mstore\n        /* \"#utility.yul\":32328:32406   */\n      tag_677\n        /* \"#utility.yul\":32401:32405   */\n      dup2\n        /* \"#utility.yul\":32392:32398   */\n      dup6\n        /* \"#utility.yul\":32328:32406   */\n      tag_338\n      jump\t// in\n    tag_677:\n        /* \"#utility.yul\":32320:32406   */\n      swap1\n      pop\n        /* \"#utility.yul\":32416:32488   */\n      tag_678\n        /* \"#utility.yul\":32484:32486   */\n      0x60\n        /* \"#utility.yul\":32473:32482   */\n      dup4\n        /* \"#utility.yul\":32469:32487   */\n      add\n        /* \"#utility.yul\":32460:32466   */\n      dup5\n        /* \"#utility.yul\":32416:32488   */\n      tag_339\n      jump\t// in\n    tag_678:\n        /* \"#utility.yul\":31760:32495   */\n      swap6\n      swap5\n      pop\n      pop\n      pop\n      pop\n      pop\n      jump\t// out\n        /* \"#utility.yul\":32501:32667   */\n    tag_376:\n        /* \"#utility.yul\":32641:32659   */\n      0x416c7265616479207570766f7465642e00000000000000000000000000000000\n        /* \"#utility.yul\":32637:32638   */\n      0x00\n        /* \"#utility.yul\":32629:32635   */\n      dup3\n        /* \"#utility.yul\":32625:32639   */\n      add\n        /* \"#utility.yul\":32618:32660   */\n      mstore\n        /* \"#utility.yul\":32501:32667   */\n      pop\n      jump\t// out\n        /* \"#utility.yul\":32673:33039   */\n    tag_377:\n        /* \"#utility.yul\":32815:32818   */\n      0x00\n        /* \"#utility.yul\":32836:32903   */\n      tag_681\n        /* \"#utility.yul\":32900:32902   */\n      0x10\n        /* \"#utility.yul\":32895:32898   */\n      dup4\n        /* \"#utility.yul\":32836:32903   */\n      tag_337\n      jump\t// in\n    tag_681:\n        /* \"#utility.yul\":32829:32903   */\n      swap2\n      pop\n        /* \"#utility.yul\":32912:33005   */\n      tag_682\n        /* \"#utility.yul\":33001:33004   */\n      dup3\n        /* \"#utility.yul\":32912:33005   */\n      tag_376\n      jump\t// in\n    tag_682:\n        /* \"#utility.yul\":33030:33032   */\n      0x20\n        /* \"#utility.yul\":33025:33028   */\n      dup3\n        /* \"#utility.yul\":33021:33033   */\n      add\n        /* \"#utility.yul\":33014:33033   */\n      swap1\n      pop\n        /* \"#utility.yul\":32673:33039   */\n      swap2\n      swap1\n      pop\n      jump\t// out\n        /* \"#utility.yul\":33045:33464   */\n    tag_244:\n        /* \"#utility.yul\":33211:33215   */\n      0x00\n        /* \"#utility.yul\":33249:33251   */\n      0x20\n        /* \"#utility.yul\":33238:33247   */\n      dup3\n        /* \"#utility.yul\":33234:33252   */\n      add\n        /* \"#utility.yul\":33226:33252   */\n      swap1\n      pop\n        /* \"#utility.yul\":33298:33307   */\n      dup2\n        /* \"#utility.yul\":33292:33296   */\n      dup2\n        /* \"#utility.yul\":33288:33308   */\n      sub\n        /* \"#utility.yul\":33284:33285   */\n      0x00\n        /* \"#utility.yul\":33273:33282   */\n      dup4\n        /* \"#utility.yul\":33269:33286   */\n      add\n        /* \"#utility.yul\":33262:33309   */\n      mstore\n        /* \"#utility.yul\":33326:33457   */\n      tag_684\n        /* \"#utility.yul\":33452:33456   */\n      dup2\n        /* \"#utility.yul\":33326:33457   */\n      tag_377\n      jump\t// in\n    tag_684:\n        /* \"#utility.yul\":33318:33457   */\n      swap1\n      pop\n        /* \"#utility.yul\":33045:33464   */\n      swap2\n      swap1\n      pop\n      jump\t// out\n        /* \"#utility.yul\":33470:33640   */\n    tag_378:\n        /* \"#utility.yul\":33610:33632   */\n      0x417574686f72206e616d6520746f6f206c6f6e67000000000000000000000000\n        /* \"#utility.yul\":33606:33607   */\n      0x00\n        /* \"#utility.yul\":33598:33604   */\n      dup3\n        /* \"#utility.yul\":33594:33608   */\n      add\n        /* \"#utility.yul\":33587:33633   */\n      mstore\n        /* \"#utility.yul\":33470:33640   */\n      pop\n      jump\t// out\n        /* \"#utility.yul\":33646:34012   */\n    tag_379:\n        /* \"#utility.yul\":33788:33791   */\n      0x00\n        /* \"#utility.yul\":33809:33876   */\n      tag_687\n        /* \"#utility.yul\":33873:33875   */\n      0x14\n        /* \"#utility.yul\":33868:33871   */\n      dup4\n        /* \"#utility.yul\":33809:33876   */\n      tag_337\n      jump\t// in\n    tag_687:\n        /* \"#utility.yul\":33802:33876   */\n      swap2\n      pop\n        /* \"#utility.yul\":33885:33978   */\n      tag_688\n        /* \"#utility.yul\":33974:33977   */\n      dup3\n        /* \"#utility.yul\":33885:33978   */\n      tag_378\n      jump\t// in\n    tag_688:\n        /* \"#utility.yul\":34003:34005   */\n      0x20\n        /* \"#utility.yul\":33998:34001   */\n      dup3\n        /* \"#utility.yul\":33994:34006   */\n      add\n        /* \"#utility.yul\":33987:34006   */\n      swap1\n      pop\n        /* \"#utility.yul\":33646:34012   */\n      swap2\n      swap1\n      pop\n      jump\t// out\n        /* \"#utility.yul\":34018:34437   */\n    tag_250:\n        /* \"#utility.yul\":34184:34188   */\n      0x00\n        /* \"#utility.yul\":34222:34224   */\n      0x20\n        /* \"#utility.yul\":34211:34220   */\n      dup3\n        /* \"#utility.yul\":34207:34225   */\n      add\n        /* \"#utility.yul\":34199:34225   */\n      swap1\n      pop\n        /* \"#utility.yul\":34271:34280   */\n      dup2\n        /* \"#utility.yul\":34265:34269   */\n      dup2\n        /* \"#utility.yul\":34261:34281   */\n      sub\n        /* \"#utility.yul\":34257:34258   */\n      0x00\n        /* \"#utility.yul\":34246:34255   */\n      dup4\n        /* \"#utility.yul\":34242:34259   */\n      add\n        /* \"#utility.yul\":34235:34282   */\n      mstore\n        /* \"#utility.yul\":34299:34430   */\n      tag_690\n        /* \"#utility.yul\":34425:34429   */\n      dup2\n        /* \"#utility.yul\":34299:34430   */\n      tag_379\n      jump\t// in\n    tag_690:\n        /* \"#utility.yul\":34291:34430   */\n      swap1\n      pop\n        /* \"#utility.yul\":34018:34437   */\n      swap2\n      swap1\n      pop\n      jump\t// out\n        /* \"#utility.yul\":34443:35160   */\n    tag_252:\n        /* \"#utility.yul\":34679:34682   */\n      0x00\n        /* \"#utility.yul\":34694:34769   */\n      tag_692\n        /* \"#utility.yul\":34765:34768   */\n      dup3\n        /* \"#utility.yul\":34756:34762   */\n      dup8\n        /* \"#utility.yul\":34694:34769   */\n      tag_356\n      jump\t// in\n    tag_692:\n        /* \"#utility.yul\":34794:34796   */\n      0x14\n        /* \"#utility.yul\":34789:34792   */\n      dup3\n        /* \"#utility.yul\":34785:34797   */\n      add\n        /* \"#utility.yul\":34778:34797   */\n      swap2\n      pop\n        /* \"#utility.yul\":34807:34882   */\n      tag_693\n        /* \"#utility.yul\":34878:34881   */\n      dup3\n        /* \"#utility.yul\":34869:34875   */\n      dup7\n        /* \"#utility.yul\":34807:34882   */\n      tag_358\n      jump\t// in\n    tag_693:\n        /* \"#utility.yul\":34907:34909   */\n      0x20\n        /* \"#utility.yul\":34902:34905   */\n      dup3\n        /* \"#utility.yul\":34898:34910   */\n      add\n        /* \"#utility.yul\":34891:34910   */\n      swap2\n      pop\n        /* \"#utility.yul\":34927:35022   */\n      tag_694\n        /* \"#utility.yul\":35018:35021   */\n      dup3\n        /* \"#utility.yul\":35009:35015   */\n      dup6\n        /* \"#utility.yul\":34927:35022   */\n      tag_360\n      jump\t// in\n    tag_694:\n        /* \"#utility.yul\":34920:35022   */\n      swap2\n      pop\n        /* \"#utility.yul\":35039:35134   */\n      tag_695\n        /* \"#utility.yul\":35130:35133   */\n      dup3\n        /* \"#utility.yul\":35121:35127   */\n      dup5\n        /* \"#utility.yul\":35039:35134   */\n      tag_360\n      jump\t// in\n    tag_695:\n        /* \"#utility.yul\":35032:35134   */\n      swap2\n      pop\n        /* \"#utility.yul\":35151:35154   */\n      dup2\n        /* \"#utility.yul\":35144:35154   */\n      swap1\n      pop\n        /* \"#utility.yul\":34443:35160   */\n      swap6\n      swap5\n      pop\n      pop\n      pop\n      pop\n      pop\n      jump\t// out\n        /* \"#utility.yul\":35166:35790   */\n    tag_259:\n        /* \"#utility.yul\":35355:35359   */\n      0x00\n        /* \"#utility.yul\":35393:35395   */\n      0x60\n        /* \"#utility.yul\":35382:35391   */\n      dup3\n        /* \"#utility.yul\":35378:35396   */\n      add\n        /* \"#utility.yul\":35370:35396   */\n      swap1\n      pop\n        /* \"#utility.yul\":35442:35451   */\n      dup2\n        /* \"#utility.yul\":35436:35440   */\n      dup2\n        /* \"#utility.yul\":35432:35452   */\n      sub\n        /* \"#utility.yul\":35428:35429   */\n      0x00\n        /* \"#utility.yul\":35417:35426   */\n      dup4\n        /* \"#utility.yul\":35413:35430   */\n      add\n        /* \"#utility.yul\":35406:35453   */\n      mstore\n        /* \"#utility.yul\":35470:35548   */\n      tag_697\n        /* \"#utility.yul\":35543:35547   */\n      dup2\n        /* \"#utility.yul\":35534:35540   */\n      dup7\n        /* \"#utility.yul\":35470:35548   */\n      tag_338\n      jump\t// in\n    tag_697:\n        /* \"#utility.yul\":35462:35548   */\n      swap1\n      pop\n        /* \"#utility.yul\":35595:35604   */\n      dup2\n        /* \"#utility.yul\":35589:35593   */\n      dup2\n        /* \"#utility.yul\":35585:35605   */\n      sub\n        /* \"#utility.yul\":35580:35582   */\n      0x20\n        /* \"#utility.yul\":35569:35578   */\n      dup4\n        /* \"#utility.yul\":35565:35583   */\n      add\n        /* \"#utility.yul\":35558:35606   */\n      mstore\n        /* \"#utility.yul\":35623:35701   */\n      tag_698\n        /* \"#utility.yul\":35696:35700   */\n      dup2\n        /* \"#utility.yul\":35687:35693   */\n      dup6\n        /* \"#utility.yul\":35623:35701   */\n      tag_338\n      jump\t// in\n    tag_698:\n        /* \"#utility.yul\":35615:35701   */\n      swap1\n      pop\n        /* \"#utility.yul\":35711:35783   */\n      tag_699\n        /* \"#utility.yul\":35779:35781   */\n      0x40\n        /* \"#utility.yul\":35768:35777   */\n      dup4\n        /* \"#utility.yul\":35764:35782   */\n      add\n        /* \"#utility.yul\":35755:35761   */\n      dup5\n        /* \"#utility.yul\":35711:35783   */\n      tag_339\n      jump\t// in\n    tag_699:\n        /* \"#utility.yul\":35166:35790   */\n      swap5\n      swap4\n      pop\n      pop\n      pop\n      pop\n      jump\t// out\n        /* \"#utility.yul\":35796:35976   */\n    tag_380:\n        /* \"#utility.yul\":35936:35968   */\n      0x416c726561647920646f776e766f746564207468697320636f6d6d656e740000\n        /* \"#utility.yul\":35932:35933   */\n      0x00\n        /* \"#utility.yul\":35924:35930   */\n      dup3\n        /* \"#utility.yul\":35920:35934   */\n      add\n        /* \"#utility.yul\":35913:35969   */\n      mstore\n        /* \"#utility.yul\":35796:35976   */\n      pop\n      jump\t// out\n        /* \"#utility.yul\":35982:36348   */\n    tag_381:\n        /* \"#utility.yul\":36124:36127   */\n      0x00\n        /* \"#utility.yul\":36145:36212   */\n      tag_702\n        /* \"#utility.yul\":36209:36211   */\n      0x1e\n        /* \"#utility.yul\":36204:36207   */\n      dup4\n        /* \"#utility.yul\":36145:36212   */\n      tag_337\n      jump\t// in\n    tag_702:\n        /* \"#utility.yul\":36138:36212   */\n      swap2\n      pop\n        /* \"#utility.yul\":36221:36314   */\n      tag_703\n        /* \"#utility.yul\":36310:36313   */\n      dup3\n        /* \"#utility.yul\":36221:36314   */\n      tag_380\n      jump\t// in\n    tag_703:\n        /* \"#utility.yul\":36339:36341   */\n      0x20\n        /* \"#utility.yul\":36334:36337   */\n      dup3\n        /* \"#utility.yul\":36330:36342   */\n      add\n        /* \"#utility.yul\":36323:36342   */\n      swap1\n      pop\n        /* \"#utility.yul\":35982:36348   */\n      swap2\n      swap1\n      pop\n      jump\t// out\n        /* \"#utility.yul\":36354:36773   */\n    tag_265:\n        /* \"#utility.yul\":36520:36524   */\n      0x00\n        /* \"#utility.yul\":36558:36560   */\n      0x20\n        /* \"#utility.yul\":36547:36556   */\n      dup3\n        /* \"#utility.yul\":36543:36561   */\n      add\n        /* \"#utility.yul\":36535:36561   */\n      swap1\n      pop\n        /* \"#utility.yul\":36607:36616   */\n      dup2\n        /* \"#utility.yul\":36601:36605   */\n      dup2\n        /* \"#utility.yul\":36597:36617   */\n      sub\n        /* \"#utility.yul\":36593:36594   */\n      0x00\n        /* \"#utility.yul\":36582:36591   */\n      dup4\n        /* \"#utility.yul\":36578:36595   */\n      add\n        /* \"#utility.yul\":36571:36618   */\n      mstore\n        /* \"#utility.yul\":36635:36766   */\n      tag_705\n        /* \"#utility.yul\":36761:36765   */\n      dup2\n        /* \"#utility.yul\":36635:36766   */\n      tag_381\n      jump\t// in\n    tag_705:\n        /* \"#utility.yul\":36627:36766   */\n      swap1\n      pop\n        /* \"#utility.yul\":36354:36773   */\n      swap2\n      swap1\n      pop\n      jump\t// out\n\n    auxdata: 0xa2646970667358221220a25265f38c09d395a4a8223a84a16e73d973ace2d22a71a84dfb871dffc8517564736f6c634300081e0033\n}\n",
				"bytecode": {
					"linkReferences": {},
					"object": "6080604052348015600e575f5ffd5b506130b58061001c5f395ff3fe608060405234801561000f575f5ffd5b50600436106100f3575f3560e01c8063a54ff9ac11610095578063e2fc269111610064578063e2fc2691146102bf578063e8a4a1eb146102db578063eee32095146102f7578063f7ba787d14610313576100f3565b8063a54ff9ac14610221578063a7503db21461023d578063ae362ff914610259578063b28ad6131461028f576100f3565b806346305364116100d157806346305364146101755780636b2377ab146101915780636c00f807146101c15780639e78b8a6146101f1576100f3565b806320e46ea5146100f75780632cfdcc6b146101275780633056110014610157575b5f5ffd5b610111600480360381019061010c9190612004565b610343565b60405161011e919061205c565b60405180910390f35b610141600480360381019061013c9190612075565b61036d565b60405161014e9190612299565b60405180910390f35b61015f6106a5565b60405161016c9190612299565b60405180910390f35b61018f600480360381019061018a91906122b9565b610954565b005b6101ab60048036038101906101a69190612004565b610ba9565b6040516101b8919061205c565b60405180910390f35b6101db60048036038101906101d69190612004565b610bd3565b6040516101e8919061205c565b60405180910390f35b61020b60048036038101906102069190612075565b610bfd565b6040516102189190612461565b60405180910390f35b61023b60048036038101906102369190612481565b610efa565b005b610257600480360381019061025291906125d8565b6110c9565b005b610273600480360381019061026e9190612481565b611405565b60405161028697969594939291906126c6565b60405180910390f35b6102a960048036038101906102a49190612004565b611697565b6040516102b6919061205c565b60405180910390f35b6102d960048036038101906102d49190612481565b6116c1565b005b6102f560048036038101906102f09190612748565b611891565b005b610311600480360381019061030c91906122b9565b611a82565b005b61032d60048036038101906103289190612481565b611cd6565b60405161033a9190612461565b60405180910390f35b6005602052815f5260405f20602052805f5260405f205f915091509054906101000a900460ff1681565b60605f60015f8473ffffffffffffffffffffffffffffffffffffffff1673ffffffffffffffffffffffffffffffffffffffff1681526020019081526020015f208054806020026020016040519081016040528092919081815260200182805480156103f557602002820191905f5260205f20905b8154815260200190600101908083116103e1575b505050505090505f815167ffffffffffffffff811115610418576104176124b4565b5b60405190808252806020026020018201604052801561045157816020015b61043e611edf565b8152602001906001900390816104365790505b5090505f5f90505b825181101561069a5760025f848381518110610478576104776127ec565b5b602002602001015181526020019081526020015f206040518060e00160405290815f82015481526020016001820180546104b190612846565b80601f01602080910402602001604051908101604052809291908181526020018280546104dd90612846565b80156105285780601f106104ff57610100808354040283529160200191610528565b820191905f5260205f20905b81548152906001019060200180831161050b57829003601f168201915b5050505050815260200160028201805461054190612846565b80601f016020809104026020016040519081016040528092919081815260200182805461056d90612846565b80156105b85780601f1061058f576101008083540402835291602001916105b8565b820191905f5260205f20905b81548152906001019060200180831161059b57829003601f168201915b505050505081526020016003820180546105d190612846565b80601f01602080910402602001604051908101604052809291908181526020018280546105fd90612846565b80156106485780601f1061061f57610100808354040283529160200191610648565b820191905f5260205f20905b81548152906001019060200180831161062b57829003601f168201915b505050505081526020016004820154815260200160058201548152602001600682015481525050828281518110610682576106816127ec565b5b60200260200101819052508080600101915050610459565b508092505050919050565b60605f5f8054905067ffffffffffffffff8111156106c6576106c56124b4565b5b6040519080825280602002602001820160405280156106ff57816020015b6106ec611edf565b8152602001906001900390816106e45790505b5090505f5f90505b5f8054905081101561094c5760025f5f8381548110610729576107286127ec565b5b905f5260205f20015481526020019081526020015f206040518060e00160405290815f820154815260200160018201805461076390612846565b80601f016020809104026020016040519081016040528092919081815260200182805461078f90612846565b80156107da5780601f106107b1576101008083540402835291602001916107da565b820191905f5260205f20905b8154815290600101906020018083116107bd57829003601f168201915b505050505081526020016002820180546107f390612846565b80601f016020809104026020016040519081016040528092919081815260200182805461081f90612846565b801561086a5780601f106108415761010080835404028352916020019161086a565b820191905f5260205f20905b81548152906001019060200180831161084d57829003601f168201915b5050505050815260200160038201805461088390612846565b80601f01602080910402602001604051908101604052809291908181526020018280546108af90612846565b80156108fa5780601f106108d1576101008083540402835291602001916108fa565b820191905f5260205f20905b8154815290600101906020018083116108dd57829003601f168201915b505050505081526020016004820154815260200160058201548152602001600682015481525050828281518110610934576109336127ec565b5b60200260200101819052508080600101915050610707565b508091505090565b5f5f1b60085f8381526020019081526020015f205f0154036109ab576040517f08c379a00000000000000000000000000000000000000000000000000000000081526004016109a2906128c0565b60405180910390fd5b60065f8281526020019081526020015f205f3373ffffffffffffffffffffffffffffffffffffffff1673ffffffffffffffffffffffffffffffffffffffff1681526020019081526020015f205f9054906101000a900460ff1615610a44576040517f08c379a0000000000000000000000000000000000000000000000000000000008152600401610a3b90612928565b60405180910390fd5b600160065f8381526020019081526020015f205f3373ffffffffffffffffffffffffffffffffffffffff1673ffffffffffffffffffffffffffffffffffffffff1681526020019081526020015f205f6101000a81548160ff02191690831515021790555060085f8281526020019081526020015f206004015f815480929190610acc90612973565b91905055505f60035f8481526020019081526020015f2090505f5f90505b8180549050811015610b675782828281548110610b0a57610b096127ec565b5b905f5260205f2090600702015f015403610b5a57818181548110610b3157610b306127ec565b5b905f5260205f2090600702016004015f815480929190610b5090612973565b9190505550610b67565b8080600101915050610aea565b5081837fa718b91703005c7ff3c85ef47cb2b96b8bf518a0934598a085e074a84ad79ba1336001604051610b9c9291906129c9565b60405180910390a3505050565b6007602052815f5260405f20602052805f5260405f205f915091509054906101000a900460ff1681565b6006602052815f5260405f20602052805f5260405f205f915091509054906101000a900460ff1681565b60605f60095f8473ffffffffffffffffffffffffffffffffffffffff1673ffffffffffffffffffffffffffffffffffffffff1681526020019081526020015f20805480602002602001604051908101604052809291908181526020018280548015610c8557602002820191905f5260205f20905b815481526020019060010190808311610c71575b505050505090505f815167ffffffffffffffff811115610ca857610ca76124b4565b5b604051908082528060200260200182016040528015610ce157816020015b610cce611f18565b815260200190600190039081610cc65790505b5090505f5f90505b8251811015610eef5760085f848381518110610d0857610d076127ec565b5b602002602001015181526020019081526020015f206040518060e00160405290815f8201548152602001600182015f9054906101000a900473ffffffffffffffffffffffffffffffffffffffff1673ffffffffffffffffffffffffffffffffffffffff1673ffffffffffffffffffffffffffffffffffffffff168152602001600282018054610d9690612846565b80601f0160208091040260200160405190810160405280929190818152602001828054610dc290612846565b8015610e0d5780601f10610de457610100808354040283529160200191610e0d565b820191905f5260205f20905b815481529060010190602001808311610df057829003601f168201915b50505050508152602001600382018054610e2690612846565b80601f0160208091040260200160405190810160405280929190818152602001828054610e5290612846565b8015610e9d5780601f10610e7457610100808354040283529160200191610e9d565b820191905f5260205f20905b815481529060010190602001808311610e8057829003601f168201915b505050505081526020016004820154815260200160058201548152602001600682015481525050828281518110610ed757610ed66127ec565b5b60200260200101819052508080600101915050610ce9565b508092505050919050565b5f5f1b60025f8381526020019081526020015f205f015403610f51576040517f08c379a0000000000000000000000000000000000000000000000000000000008152600401610f4890612a3a565b60405180910390fd5b60055f8281526020019081526020015f205f3373ffffffffffffffffffffffffffffffffffffffff1673ffffffffffffffffffffffffffffffffffffffff1681526020019081526020015f205f9054906101000a900460ff1615610fea576040517f08c379a0000000000000000000000000000000000000000000000000000000008152600401610fe190612aa2565b60405180910390fd5b60025f8281526020019081526020015f206005015f81548092919061100e90612973565b9190505550600160055f8381526020019081526020015f205f3373ffffffffffffffffffffffffffffffffffffffff1673ffffffffffffffffffffffffffffffffffffffff1681526020019081526020015f205f6101000a81548160ff0219169083151502179055503373ffffffffffffffffffffffffffffffffffffffff16817fa7e4c5082f867ea22a45a95c2043209b9ce83d70ca31ccb947e67592ea14c4b15f6040516110be919061205c565b60405180910390a350565b5f5f1b60025f8581526020019081526020015f205f015403611120576040517f08c379a000000000000000000000000000000000000000000000000000000000815260040161111790612a3a565b60405180910390fd5b602082511115611165576040517f08c379a000000000000000000000000000000000000000000000000000000000815260040161115c90612b0a565b60405180910390fd5b5f33428360405160200161117b93929190612bc7565b6040516020818303038152906040528051906020012090505f6040518060e001604052808381526020013373ffffffffffffffffffffffffffffffffffffffff1681526020018581526020018481526020015f81526020015f815260200142815250905060035f8681526020019081526020015f2081908060018154018082558091505060019003905f5260205f2090600702015f909190919091505f820151815f01556020820151816001015f6101000a81548173ffffffffffffffffffffffffffffffffffffffff021916908373ffffffffffffffffffffffffffffffffffffffff160217905550604082015181600201908161127a9190612d9f565b5060608201518160030190816112909190612d9f565b506080820151816004015560a0820151816005015560c0820151816006015550508060085f8481526020019081526020015f205f820151815f01556020820151816001015f6101000a81548173ffffffffffffffffffffffffffffffffffffffff021916908373ffffffffffffffffffffffffffffffffffffffff16021790555060408201518160020190816113269190612d9f565b50606082015181600301908161133c9190612d9f565b506080820151816004015560a0820151816005015560c0820151816006015590505060095f3373ffffffffffffffffffffffffffffffffffffffff1673ffffffffffffffffffffffffffffffffffffffff1681526020019081526020015f2082908060018154018082558091505060019003905f5260205f20015f909190919091505581857f121f72518586f939bfb34c62bbf7d31b0a8ae8ecbcac0869550705ee4cff80f5338787426040516113f69493929190612e6e565b60405180910390a35050505050565b5f60608060605f5f5f5f5f1b60025f8a81526020019081526020015f205f015403611465576040517f08c379a000000000000000000000000000000000000000000000000000000000815260040161145c90612a3a565b60405180910390fd5b5f60025f8a81526020019081526020015f206040518060e00160405290815f820154815260200160018201805461149b90612846565b80601f01602080910402602001604051908101604052809291908181526020018280546114c790612846565b80156115125780601f106114e957610100808354040283529160200191611512565b820191905f5260205f20905b8154815290600101906020018083116114f557829003601f168201915b5050505050815260200160028201805461152b90612846565b80601f016020809104026020016040519081016040528092919081815260200182805461155790612846565b80156115a25780601f10611579576101008083540402835291602001916115a2565b820191905f5260205f20905b81548152906001019060200180831161158557829003601f168201915b505050505081526020016003820180546115bb90612846565b80601f01602080910402602001604051908101604052809291908181526020018280546115e790612846565b80156116325780601f1061160957610100808354040283529160200191611632565b820191905f5260205f20905b81548152906001019060200180831161161557829003601f168201915b5050505050815260200160048201548152602001600582015481526020016006820154815250509050805f015181602001518260400151836060015184608001518560a001518660c00151975097509750975097509750975050919395979092949650565b6004602052815f5260405f20602052805f5260405f205f915091509054906101000a900460ff1681565b5f5f1b60025f8381526020019081526020015f205f015403611718576040517f08c379a000000000000000000000000000000000000000000000000000000000815260040161170f90612a3a565b60405180910390fd5b60045f8281526020019081526020015f205f3373ffffffffffffffffffffffffffffffffffffffff1673ffffffffffffffffffffffffffffffffffffffff1681526020019081526020015f205f9054906101000a900460ff16156117b1576040517f08c379a00000000000000000000000000000000000000000000000000000000081526004016117a890612f09565b60405180910390fd5b60025f8281526020019081526020015f206004015f8154809291906117d590612973565b9190505550600160045f8381526020019081526020015f205f3373ffffffffffffffffffffffffffffffffffffffff1673ffffffffffffffffffffffffffffffffffffffff1681526020019081526020015f205f6101000a81548160ff0219169083151502179055503373ffffffffffffffffffffffffffffffffffffffff16817fa7e4c5082f867ea22a45a95c2043209b9ce83d70ca31ccb947e67592ea14c4b16001604051611886919061205c565b60405180910390a350565b6020835111156118d6576040517f08c379a00000000000000000000000000000000000000000000000000000000081526004016118cd90612f71565b60405180910390fd5b5f334284846040516020016118ee9493929190612f8f565b6040516020818303038152906040528051906020012090505f6040518060e001604052808381526020018681526020018581526020018481526020015f81526020015f81526020014281525090505f82908060018154018082558091505060019003905f5260205f20015f909190919091505560015f3373ffffffffffffffffffffffffffffffffffffffff1673ffffffffffffffffffffffffffffffffffffffff1681526020019081526020015f2082908060018154018082558091505060019003905f5260205f20015f90919091909150558060025f8481526020019081526020015f205f820151815f015560208201518160010190816119f19190612d9f565b506040820151816002019081611a079190612d9f565b506060820151816003019081611a1d9190612d9f565b506080820151816004015560a0820151816005015560c08201518160060155905050817f17f34748f078a06d3c7c034ef1cdf60a8b2baf4592df676d3a2ae61596619f98858742604051611a7393929190612fd4565b60405180910390a25050505050565b5f5f1b60085f8381526020019081526020015f205f015403611ad9576040517f08c379a0000000000000000000000000000000000000000000000000000000008152600401611ad0906128c0565b60405180910390fd5b60075f8281526020019081526020015f205f3373ffffffffffffffffffffffffffffffffffffffff1673ffffffffffffffffffffffffffffffffffffffff1681526020019081526020015f205f9054906101000a900460ff1615611b72576040517f08c379a0000000000000000000000000000000000000000000000000000000008152600401611b6990613061565b60405180910390fd5b600160075f8381526020019081526020015f205f3373ffffffffffffffffffffffffffffffffffffffff1673ffffffffffffffffffffffffffffffffffffffff1681526020019081526020015f205f6101000a81548160ff02191690831515021790555060085f8281526020019081526020015f206005015f815480929190611bfa90612973565b91905055505f60035f8481526020019081526020015f2090505f5f90505b8180549050811015611c955782828281548110611c3857611c376127ec565b5b905f5260205f2090600702015f015403611c8857818181548110611c5f57611c5e6127ec565b5b905f5260205f2090600702016005015f815480929190611c7e90612973565b9190505550611c95565b8080600101915050611c18565b5081837fa718b91703005c7ff3c85ef47cb2b96b8bf518a0934598a085e074a84ad79ba1335f604051611cc99291906129c9565b60405180910390a3505050565b606060035f8381526020019081526020015f20805480602002602001604051908101604052809291908181526020015f905b82821015611ed4578382905f5260205f2090600702016040518060e00160405290815f8201548152602001600182015f9054906101000a900473ffffffffffffffffffffffffffffffffffffffff1673ffffffffffffffffffffffffffffffffffffffff1673ffffffffffffffffffffffffffffffffffffffff168152602001600282018054611d9790612846565b80601f0160208091040260200160405190810160405280929190818152602001828054611dc390612846565b8015611e0e5780601f10611de557610100808354040283529160200191611e0e565b820191905f5260205f20905b815481529060010190602001808311611df157829003601f168201915b50505050508152602001600382018054611e2790612846565b80601f0160208091040260200160405190810160405280929190818152602001828054611e5390612846565b8015611e9e5780601f10611e7557610100808354040283529160200191611e9e565b820191905f5260205f20905b815481529060010190602001808311611e8157829003601f168201915b50505050508152602001600482015481526020016005820154815260200160068201548152505081526020019060010190611d08565b505050509050919050565b6040518060e001604052805f81526020016060815260200160608152602001606081526020015f81526020015f81526020015f81525090565b6040518060e001604052805f81526020015f73ffffffffffffffffffffffffffffffffffffffff16815260200160608152602001606081526020015f81526020015f81526020015f81525090565b5f604051905090565b5f5ffd5b5f5ffd5b5f819050919050565b611f8981611f77565b8114611f93575f5ffd5b50565b5f81359050611fa481611f80565b92915050565b5f73ffffffffffffffffffffffffffffffffffffffff82169050919050565b5f611fd382611faa565b9050919050565b611fe381611fc9565b8114611fed575f5ffd5b50565b5f81359050611ffe81611fda565b92915050565b5f5f6040838503121561201a57612019611f6f565b5b5f61202785828601611f96565b925050602061203885828601611ff0565b9150509250929050565b5f8115159050919050565b61205681612042565b82525050565b5f60208201905061206f5f83018461204d565b92915050565b5f6020828403121561208a57612089611f6f565b5b5f61209784828501611ff0565b91505092915050565b5f81519050919050565b5f82825260208201905092915050565b5f819050602082019050919050565b6120d281611f77565b82525050565b5f81519050919050565b5f82825260208201905092915050565b8281835e5f83830152505050565b5f601f19601f8301169050919050565b5f61211a826120d8565b61212481856120e2565b93506121348185602086016120f2565b61213d81612100565b840191505092915050565b5f819050919050565b61215a81612148565b82525050565b5f60e083015f8301516121755f8601826120c9565b506020830151848203602086015261218d8282612110565b915050604083015184820360408601526121a78282612110565b915050606083015184820360608601526121c18282612110565b91505060808301516121d66080860182612151565b5060a08301516121e960a0860182612151565b5060c08301516121fc60c0860182612151565b508091505092915050565b5f6122128383612160565b905092915050565b5f602082019050919050565b5f612230826120a0565b61223a81856120aa565b93508360208202850161224c856120ba565b805f5b8581101561228757848403895281516122688582612207565b94506122738361221a565b925060208a0199505060018101905061224f565b50829750879550505050505092915050565b5f6020820190508181035f8301526122b18184612226565b905092915050565b5f5f604083850312156122cf576122ce611f6f565b5b5f6122dc85828601611f96565b92505060206122ed85828601611f96565b9150509250929050565b5f81519050919050565b5f82825260208201905092915050565b5f819050602082019050919050565b61232981611fc9565b82525050565b5f60e083015f8301516123445f8601826120c9565b5060208301516123576020860182612320565b506040830151848203604086015261236f8282612110565b915050606083015184820360608601526123898282612110565b915050608083015161239e6080860182612151565b5060a08301516123b160a0860182612151565b5060c08301516123c460c0860182612151565b508091505092915050565b5f6123da838361232f565b905092915050565b5f602082019050919050565b5f6123f8826122f7565b6124028185612301565b93508360208202850161241485612311565b805f5b8581101561244f578484038952815161243085826123cf565b945061243b836123e2565b925060208a01995050600181019050612417565b50829750879550505050505092915050565b5f6020820190508181035f83015261247981846123ee565b905092915050565b5f6020828403121561249657612495611f6f565b5b5f6124a384828501611f96565b91505092915050565b5f5ffd5b5f5ffd5b7f4e487b71000000000000000000000000000000000000000000000000000000005f52604160045260245ffd5b6124ea82612100565b810181811067ffffffffffffffff82111715612509576125086124b4565b5b80604052505050565b5f61251b611f66565b905061252782826124e1565b919050565b5f67ffffffffffffffff821115612546576125456124b4565b5b61254f82612100565b9050602081019050919050565b828183375f83830152505050565b5f61257c6125778461252c565b612512565b905082815260208101848484011115612598576125976124b0565b5b6125a384828561255c565b509392505050565b5f82601f8301126125bf576125be6124ac565b5b81356125cf84826020860161256a565b91505092915050565b5f5f5f606084860312156125ef576125ee611f6f565b5b5f6125fc86828701611f96565b935050602084013567ffffffffffffffff81111561261d5761261c611f73565b5b612629868287016125ab565b925050604084013567ffffffffffffffff81111561264a57612649611f73565b5b612656868287016125ab565b9150509250925092565b61266981611f77565b82525050565b5f82825260208201905092915050565b5f612689826120d8565b612693818561266f565b93506126a38185602086016120f2565b6126ac81612100565b840191505092915050565b6126c081612148565b82525050565b5f60e0820190506126d95f83018a612660565b81810360208301526126eb818961267f565b905081810360408301526126ff818861267f565b90508181036060830152612713818761267f565b905061272260808301866126b7565b61272f60a08301856126b7565b61273c60c08301846126b7565b98975050505050505050565b5f5f5f6060848603121561275f5761275e611f6f565b5b5f84013567ffffffffffffffff81111561277c5761277b611f73565b5b612788868287016125ab565b935050602084013567ffffffffffffffff8111156127a9576127a8611f73565b5b6127b5868287016125ab565b925050604084013567ffffffffffffffff8111156127d6576127d5611f73565b5b6127e2868287016125ab565b9150509250925092565b7f4e487b71000000000000000000000000000000000000000000000000000000005f52603260045260245ffd5b7f4e487b71000000000000000000000000000000000000000000000000000000005f52602260045260245ffd5b5f600282049050600182168061285d57607f821691505b6020821081036128705761286f612819565b5b50919050565b7f436f6d6d656e7420646f6573206e6f74206578697374000000000000000000005f82015250565b5f6128aa60168361266f565b91506128b582612876565b602082019050919050565b5f6020820190508181035f8301526128d78161289e565b9050919050565b7f416c7265616479207570766f746564207468697320636f6d6d656e74000000005f82015250565b5f612912601c8361266f565b915061291d826128de565b602082019050919050565b5f6020820190508181035f83015261293f81612906565b9050919050565b7f4e487b71000000000000000000000000000000000000000000000000000000005f52601160045260245ffd5b5f61297d82612148565b91507fffffffffffffffffffffffffffffffffffffffffffffffffffffffffffffffff82036129af576129ae612946565b5b600182019050919050565b6129c381611fc9565b82525050565b5f6040820190506129dc5f8301856129ba565b6129e9602083018461204d565b9392505050565b7f506f737420646f6573206e6f742065786973742e0000000000000000000000005f82015250565b5f612a2460148361266f565b9150612a2f826129f0565b602082019050919050565b5f6020820190508181035f830152612a5181612a18565b9050919050565b7f416c726561647920646f776e766f7465642e00000000000000000000000000005f82015250565b5f612a8c60128361266f565b9150612a9782612a58565b602082019050919050565b5f6020820190508181035f830152612ab981612a80565b9050919050565b7f436f6d6d656e746572206e616d6520746f6f206c6f6e670000000000000000005f82015250565b5f612af460178361266f565b9150612aff82612ac0565b602082019050919050565b5f6020820190508181035f830152612b2181612ae8565b9050919050565b5f8160601b9050919050565b5f612b3e82612b28565b9050919050565b5f612b4f82612b34565b9050919050565b612b67612b6282611fc9565b612b45565b82525050565b5f819050919050565b612b87612b8282612148565b612b6d565b82525050565b5f81905092915050565b5f612ba1826120d8565b612bab8185612b8d565b9350612bbb8185602086016120f2565b80840191505092915050565b5f612bd28286612b56565b601482019150612be28285612b76565b602082019150612bf28284612b97565b9150819050949350505050565b5f819050815f5260205f209050919050565b5f6020601f8301049050919050565b5f82821b905092915050565b5f60088302612c5b7fffffffffffffffffffffffffffffffffffffffffffffffffffffffffffffffff82612c20565b612c658683612c20565b95508019841693508086168417925050509392505050565b5f819050919050565b5f612ca0612c9b612c9684612148565b612c7d565b612148565b9050919050565b5f819050919050565b612cb983612c86565b612ccd612cc582612ca7565b848454612c2c565b825550505050565b5f5f905090565b612ce4612cd5565b612cef818484612cb0565b505050565b5b81811015612d1257612d075f82612cdc565b600181019050612cf5565b5050565b601f821115612d5757612d2881612bff565b612d3184612c11565b81016020851015612d40578190505b612d54612d4c85612c11565b830182612cf4565b50505b505050565b5f82821c905092915050565b5f612d775f1984600802612d5c565b1980831691505092915050565b5f612d8f8383612d68565b9150826002028217905092915050565b612da8826120d8565b67ffffffffffffffff811115612dc157612dc06124b4565b5b612dcb8254612846565b612dd6828285612d16565b5f60209050601f831160018114612e07575f8415612df5578287015190505b612dff8582612d84565b865550612e66565b601f198416612e1586612bff565b5f5b82811015612e3c57848901518255600182019150602085019450602081019050612e17565b86831015612e595784890151612e55601f891682612d68565b8355505b6001600288020188555050505b505050505050565b5f608082019050612e815f8301876129ba565b8181036020830152612e93818661267f565b90508181036040830152612ea7818561267f565b9050612eb660608301846126b7565b95945050505050565b7f416c7265616479207570766f7465642e000000000000000000000000000000005f82015250565b5f612ef360108361266f565b9150612efe82612ebf565b602082019050919050565b5f6020820190508181035f830152612f2081612ee7565b9050919050565b7f417574686f72206e616d6520746f6f206c6f6e670000000000000000000000005f82015250565b5f612f5b60148361266f565b9150612f6682612f27565b602082019050919050565b5f6020820190508181035f830152612f8881612f4f565b9050919050565b5f612f9a8287612b56565b601482019150612faa8286612b76565b602082019150612fba8285612b97565b9150612fc68284612b97565b915081905095945050505050565b5f6060820190508181035f830152612fec818661267f565b90508181036020830152613000818561267f565b905061300f60408301846126b7565b949350505050565b7f416c726561647920646f776e766f746564207468697320636f6d6d656e7400005f82015250565b5f61304b601e8361266f565b915061305682613017565b602082019050919050565b5f6020820190508181035f8301526130788161303f565b905091905056fea2646970667358221220a25265f38c09d395a4a8223a84a16e73d973ace2d22a71a84dfb871dffc8517564736f6c634300081e0033",
					"opcodes": "PUSH1 0x80 PUSH1 0x40 MSTORE CALLVALUE DUP1 ISZERO PUSH1 0xE JUMPI PUSH0 PUSH0 REVERT JUMPDEST POP PUSH2 0x30B5 DUP1 PUSH2 0x1C PUSH0 CODECOPY PUSH0 RETURN INVALID PUSH1 0x80 PUSH1 0x40 MSTORE CALLVALUE DUP1 ISZERO PUSH2 0xF JUMPI PUSH0 PUSH0 REVERT JUMPDEST POP PUSH1 0x4 CALLDATASIZE LT PUSH2 0xF3 JUMPI PUSH0 CALLDATALOAD PUSH1 0xE0 SHR DUP1 PUSH4 0xA54FF9AC GT PUSH2 0x95 JUMPI DUP1 PUSH4 0xE2FC2691 GT PUSH2 0x64 JUMPI DUP1 PUSH4 0xE2FC2691 EQ PUSH2 0x2BF JUMPI DUP1 PUSH4 0xE8A4A1EB EQ PUSH2 0x2DB JUMPI DUP1 PUSH4 0xEEE32095 EQ PUSH2 0x2F7 JUMPI DUP1 PUSH4 0xF7BA787D EQ PUSH2 0x313 JUMPI PUSH2 0xF3 JUMP JUMPDEST DUP1 PUSH4 0xA54FF9AC EQ PUSH2 0x221 JUMPI DUP1 PUSH4 0xA7503DB2 EQ PUSH2 0x23D JUMPI DUP1 PUSH4 0xAE362FF9 EQ PUSH2 0x259 JUMPI DUP1 PUSH4 0xB28AD613 EQ PUSH2 0x28F JUMPI PUSH2 0xF3 JUMP JUMPDEST DUP1 PUSH4 0x46305364 GT PUSH2 0xD1 JUMPI DUP1 PUSH4 0x46305364 EQ PUSH2 0x175 JUMPI DUP1 PUSH4 0x6B2377AB EQ PUSH2 0x191 JUMPI DUP1 PUSH4 0x6C00F807 EQ PUSH2 0x1C1 JUMPI DUP1 PUSH4 0x9E78B8A6 EQ PUSH2 0x1F1 JUMPI PUSH2 0xF3 JUMP JUMPDEST DUP1 PUSH4 0x20E46EA5 EQ PUSH2 0xF7 JUMPI DUP1 PUSH4 0x2CFDCC6B EQ PUSH2 0x127 JUMPI DUP1 PUSH4 0x30561100 EQ PUSH2 0x157 JUMPI JUMPDEST PUSH0 PUSH0 REVERT JUMPDEST PUSH2 0x111 PUSH1 0x4 DUP1 CALLDATASIZE SUB DUP2 ADD SWAP1 PUSH2 0x10C SWAP2 SWAP1 PUSH2 0x2004 JUMP JUMPDEST PUSH2 0x343 JUMP JUMPDEST PUSH1 0x40 MLOAD PUSH2 0x11E SWAP2 SWAP1 PUSH2 0x205C JUMP JUMPDEST PUSH1 0x40 MLOAD DUP1 SWAP2 SUB SWAP1 RETURN JUMPDEST PUSH2 0x141 PUSH1 0x4 DUP1 CALLDATASIZE SUB DUP2 ADD SWAP1 PUSH2 0x13C SWAP2 SWAP1 PUSH2 0x2075 JUMP JUMPDEST PUSH2 0x36D JUMP JUMPDEST PUSH1 0x40 MLOAD PUSH2 0x14E SWAP2 SWAP1 PUSH2 0x2299 JUMP JUMPDEST PUSH1 0x40 MLOAD DUP1 SWAP2 SUB SWAP1 RETURN JUMPDEST PUSH2 0x15F PUSH2 0x6A5 JUMP JUMPDEST PUSH1 0x40 MLOAD PUSH2 0x16C SWAP2 SWAP1 PUSH2 0x2299 JUMP JUMPDEST PUSH1 0x40 MLOAD DUP1 SWAP2 SUB SWAP1 RETURN JUMPDEST PUSH2 0x18F PUSH1 0x4 DUP1 CALLDATASIZE SUB DUP2 ADD SWAP1 PUSH2 0x18A SWAP2 SWAP1 PUSH2 0x22B9 JUMP JUMPDEST PUSH2 0x954 JUMP JUMPDEST STOP JUMPDEST PUSH2 0x1AB PUSH1 0x4 DUP1 CALLDATASIZE SUB DUP2 ADD SWAP1 PUSH2 0x1A6 SWAP2 SWAP1 PUSH2 0x2004 JUMP JUMPDEST PUSH2 0xBA9 JUMP JUMPDEST PUSH1 0x40 MLOAD PUSH2 0x1B8 SWAP2 SWAP1 PUSH2 0x205C JUMP JUMPDEST PUSH1 0x40 MLOAD DUP1 SWAP2 SUB SWAP1 RETURN JUMPDEST PUSH2 0x1DB PUSH1 0x4 DUP1 CALLDATASIZE SUB DUP2 ADD SWAP1 PUSH2 0x1D6 SWAP2 SWAP1 PUSH2 0x2004 JUMP JUMPDEST PUSH2 0xBD3 JUMP JUMPDEST PUSH1 0x40 MLOAD PUSH2 0x1E8 SWAP2 SWAP1 PUSH2 0x205C JUMP JUMPDEST PUSH1 0x40 MLOAD DUP1 SWAP2 SUB SWAP1 RETURN JUMPDEST PUSH2 0x20B PUSH1 0x4 DUP1 CALLDATASIZE SUB DUP2 ADD SWAP1 PUSH2 0x206 SWAP2 SWAP1 PUSH2 0x2075 JUMP JUMPDEST PUSH2 0xBFD JUMP JUMPDEST PUSH1 0x40 MLOAD PUSH2 0x218 SWAP2 SWAP1 PUSH2 0x2461 JUMP JUMPDEST PUSH1 0x40 MLOAD DUP1 SWAP2 SUB SWAP1 RETURN JUMPDEST PUSH2 0x23B PUSH1 0x4 DUP1 CALLDATASIZE SUB DUP2 ADD SWAP1 PUSH2 0x236 SWAP2 SWAP1 PUSH2 0x2481 JUMP JUMPDEST PUSH2 0xEFA JUMP JUMPDEST STOP JUMPDEST PUSH2 0x257 PUSH1 0x4 DUP1 CALLDATASIZE SUB DUP2 ADD SWAP1 PUSH2 0x252 SWAP2 SWAP1 PUSH2 0x25D8 JUMP JUMPDEST PUSH2 0x10C9 JUMP JUMPDEST STOP JUMPDEST PUSH2 0x273 PUSH1 0x4 DUP1 CALLDATASIZE SUB DUP2 ADD SWAP1 PUSH2 0x26E SWAP2 SWAP1 PUSH2 0x2481 JUMP JUMPDEST PUSH2 0x1405 JUMP JUMPDEST PUSH1 0x40 MLOAD PUSH2 0x286 SWAP8 SWAP7 SWAP6 SWAP5 SWAP4 SWAP3 SWAP2 SWAP1 PUSH2 0x26C6 JUMP JUMPDEST PUSH1 0x40 MLOAD DUP1 SWAP2 SUB SWAP1 RETURN JUMPDEST PUSH2 0x2A9 PUSH1 0x4 DUP1 CALLDATASIZE SUB DUP2 ADD SWAP1 PUSH2 0x2A4 SWAP2 SWAP1 PUSH2 0x2004 JUMP JUMPDEST PUSH2 0x1697 JUMP JUMPDEST PUSH1 0x40 MLOAD PUSH2 0x2B6 SWAP2 SWAP1 PUSH2 0x205C JUMP JUMPDEST PUSH1 0x40 MLOAD DUP1 SWAP2 SUB SWAP1 RETURN JUMPDEST PUSH2 0x2D9 PUSH1 0x4 DUP1 CALLDATASIZE SUB DUP2 ADD SWAP1 PUSH2 0x2D4 SWAP2 SWAP1 PUSH2 0x2481 JUMP JUMPDEST PUSH2 0x16C1 JUMP JUMPDEST STOP JUMPDEST PUSH2 0x2F5 PUSH1 0x4 DUP1 CALLDATASIZE SUB DUP2 ADD SWAP1 PUSH2 0x2F0 SWAP2 SWAP1 PUSH2 0x2748 JUMP JUMPDEST PUSH2 0x1891 JUMP JUMPDEST STOP JUMPDEST PUSH2 0x311 PUSH1 0x4 DUP1 CALLDATASIZE SUB DUP2 ADD SWAP1 PUSH2 0x30C SWAP2 SWAP1 PUSH2 0x22B9 JUMP JUMPDEST PUSH2 0x1A82 JUMP JUMPDEST STOP JUMPDEST PUSH2 0x32D PUSH1 0x4 DUP1 CALLDATASIZE SUB DUP2 ADD SWAP1 PUSH2 0x328 SWAP2 SWAP1 PUSH2 0x2481 JUMP JUMPDEST PUSH2 0x1CD6 JUMP JUMPDEST PUSH1 0x40 MLOAD PUSH2 0x33A SWAP2 SWAP1 PUSH2 0x2461 JUMP JUMPDEST PUSH1 0x40 MLOAD DUP1 SWAP2 SUB SWAP1 RETURN JUMPDEST PUSH1 0x5 PUSH1 0x20 MSTORE DUP2 PUSH0 MSTORE PUSH1 0x40 PUSH0 KECCAK256 PUSH1 0x20 MSTORE DUP1 PUSH0 MSTORE PUSH1 0x40 PUSH0 KECCAK256 PUSH0 SWAP2 POP SWAP2 POP SWAP1 SLOAD SWAP1 PUSH2 0x100 EXP SWAP1 DIV PUSH1 0xFF AND DUP2 JUMP JUMPDEST PUSH1 0x60 PUSH0 PUSH1 0x1 PUSH0 DUP5 PUSH20 0xFFFFFFFFFFFFFFFFFFFFFFFFFFFFFFFFFFFFFFFF AND PUSH20 0xFFFFFFFFFFFFFFFFFFFFFFFFFFFFFFFFFFFFFFFF AND DUP2 MSTORE PUSH1 0x20 ADD SWAP1 DUP2 MSTORE PUSH1 0x20 ADD PUSH0 KECCAK256 DUP1 SLOAD DUP1 PUSH1 0x20 MUL PUSH1 0x20 ADD PUSH1 0x40 MLOAD SWAP1 DUP2 ADD PUSH1 0x40 MSTORE DUP1 SWAP3 SWAP2 SWAP1 DUP2 DUP2 MSTORE PUSH1 0x20 ADD DUP3 DUP1 SLOAD DUP1 ISZERO PUSH2 0x3F5 JUMPI PUSH1 0x20 MUL DUP3 ADD SWAP2 SWAP1 PUSH0 MSTORE PUSH1 0x20 PUSH0 KECCAK256 SWAP1 JUMPDEST DUP2 SLOAD DUP2 MSTORE PUSH1 0x20 ADD SWAP1 PUSH1 0x1 ADD SWAP1 DUP1 DUP4 GT PUSH2 0x3E1 JUMPI JUMPDEST POP POP POP POP POP SWAP1 POP PUSH0 DUP2 MLOAD PUSH8 0xFFFFFFFFFFFFFFFF DUP2 GT ISZERO PUSH2 0x418 JUMPI PUSH2 0x417 PUSH2 0x24B4 JUMP JUMPDEST JUMPDEST PUSH1 0x40 MLOAD SWAP1 DUP1 DUP3 MSTORE DUP1 PUSH1 0x20 MUL PUSH1 0x20 ADD DUP3 ADD PUSH1 0x40 MSTORE DUP1 ISZERO PUSH2 0x451 JUMPI DUP2 PUSH1 0x20 ADD JUMPDEST PUSH2 0x43E PUSH2 0x1EDF JUMP JUMPDEST DUP2 MSTORE PUSH1 0x20 ADD SWAP1 PUSH1 0x1 SWAP1 SUB SWAP1 DUP2 PUSH2 0x436 JUMPI SWAP1 POP JUMPDEST POP SWAP1 POP PUSH0 PUSH0 SWAP1 POP JUMPDEST DUP3 MLOAD DUP2 LT ISZERO PUSH2 0x69A JUMPI PUSH1 0x2 PUSH0 DUP5 DUP4 DUP2 MLOAD DUP2 LT PUSH2 0x478 JUMPI PUSH2 0x477 PUSH2 0x27EC JUMP JUMPDEST JUMPDEST PUSH1 0x20 MUL PUSH1 0x20 ADD ADD MLOAD DUP2 MSTORE PUSH1 0x20 ADD SWAP1 DUP2 MSTORE PUSH1 0x20 ADD PUSH0 KECCAK256 PUSH1 0x40 MLOAD DUP1 PUSH1 0xE0 ADD PUSH1 0x40 MSTORE SWAP1 DUP2 PUSH0 DUP3 ADD SLOAD DUP2 MSTORE PUSH1 0x20 ADD PUSH1 0x1 DUP3 ADD DUP1 SLOAD PUSH2 0x4B1 SWAP1 PUSH2 0x2846 JUMP JUMPDEST DUP1 PUSH1 0x1F ADD PUSH1 0x20 DUP1 SWAP2 DIV MUL PUSH1 0x20 ADD PUSH1 0x40 MLOAD SWAP1 DUP2 ADD PUSH1 0x40 MSTORE DUP1 SWAP3 SWAP2 SWAP1 DUP2 DUP2 MSTORE PUSH1 0x20 ADD DUP3 DUP1 SLOAD PUSH2 0x4DD SWAP1 PUSH2 0x2846 JUMP JUMPDEST DUP1 ISZERO PUSH2 0x528 JUMPI DUP1 PUSH1 0x1F LT PUSH2 0x4FF JUMPI PUSH2 0x100 DUP1 DUP4 SLOAD DIV MUL DUP4 MSTORE SWAP2 PUSH1 0x20 ADD SWAP2 PUSH2 0x528 JUMP JUMPDEST DUP3 ADD SWAP2 SWAP1 PUSH0 MSTORE PUSH1 0x20 PUSH0 KECCAK256 SWAP1 JUMPDEST DUP2 SLOAD DUP2 MSTORE SWAP1 PUSH1 0x1 ADD SWAP1 PUSH1 0x20 ADD DUP1 DUP4 GT PUSH2 0x50B JUMPI DUP3 SWAP1 SUB PUSH1 0x1F AND DUP3 ADD SWAP2 JUMPDEST POP POP POP POP POP DUP2 MSTORE PUSH1 0x20 ADD PUSH1 0x2 DUP3 ADD DUP1 SLOAD PUSH2 0x541 SWAP1 PUSH2 0x2846 JUMP JUMPDEST DUP1 PUSH1 0x1F ADD PUSH1 0x20 DUP1 SWAP2 DIV MUL PUSH1 0x20 ADD PUSH1 0x40 MLOAD SWAP1 DUP2 ADD PUSH1 0x40 MSTORE DUP1 SWAP3 SWAP2 SWAP1 DUP2 DUP2 MSTORE PUSH1 0x20 ADD DUP3 DUP1 SLOAD PUSH2 0x56D SWAP1 PUSH2 0x2846 JUMP JUMPDEST DUP1 ISZERO PUSH2 0x5B8 JUMPI DUP1 PUSH1 0x1F LT PUSH2 0x58F JUMPI PUSH2 0x100 DUP1 DUP4 SLOAD DIV MUL DUP4 MSTORE SWAP2 PUSH1 0x20 ADD SWAP2 PUSH2 0x5B8 JUMP JUMPDEST DUP3 ADD SWAP2 SWAP1 PUSH0 MSTORE PUSH1 0x20 PUSH0 KECCAK256 SWAP1 JUMPDEST DUP2 SLOAD DUP2 MSTORE SWAP1 PUSH1 0x1 ADD SWAP1 PUSH1 0x20 ADD DUP1 DUP4 GT PUSH2 0x59B JUMPI DUP3 SWAP1 SUB PUSH1 0x1F AND DUP3 ADD SWAP2 JUMPDEST POP POP POP POP POP DUP2 MSTORE PUSH1 0x20 ADD PUSH1 0x3 DUP3 ADD DUP1 SLOAD PUSH2 0x5D1 SWAP1 PUSH2 0x2846 JUMP JUMPDEST DUP1 PUSH1 0x1F ADD PUSH1 0x20 DUP1 SWAP2 DIV MUL PUSH1 0x20 ADD PUSH1 0x40 MLOAD SWAP1 DUP2 ADD PUSH1 0x40 MSTORE DUP1 SWAP3 SWAP2 SWAP1 DUP2 DUP2 MSTORE PUSH1 0x20 ADD DUP3 DUP1 SLOAD PUSH2 0x5FD SWAP1 PUSH2 0x2846 JUMP JUMPDEST DUP1 ISZERO PUSH2 0x648 JUMPI DUP1 PUSH1 0x1F LT PUSH2 0x61F JUMPI PUSH2 0x100 DUP1 DUP4 SLOAD DIV MUL DUP4 MSTORE SWAP2 PUSH1 0x20 ADD SWAP2 PUSH2 0x648 JUMP JUMPDEST DUP3 ADD SWAP2 SWAP1 PUSH0 MSTORE PUSH1 0x20 PUSH0 KECCAK256 SWAP1 JUMPDEST DUP2 SLOAD DUP2 MSTORE SWAP1 PUSH1 0x1 ADD SWAP1 PUSH1 0x20 ADD DUP1 DUP4 GT PUSH2 0x62B JUMPI DUP3 SWAP1 SUB PUSH1 0x1F AND DUP3 ADD SWAP2 JUMPDEST POP POP POP POP POP DUP2 MSTORE PUSH1 0x20 ADD PUSH1 0x4 DUP3 ADD SLOAD DUP2 MSTORE PUSH1 0x20 ADD PUSH1 0x5 DUP3 ADD SLOAD DUP2 MSTORE PUSH1 0x20 ADD PUSH1 0x6 DUP3 ADD SLOAD DUP2 MSTORE POP POP DUP3 DUP3 DUP2 MLOAD DUP2 LT PUSH2 0x682 JUMPI PUSH2 0x681 PUSH2 0x27EC JUMP JUMPDEST JUMPDEST PUSH1 0x20 MUL PUSH1 0x20 ADD ADD DUP2 SWAP1 MSTORE POP DUP1 DUP1 PUSH1 0x1 ADD SWAP2 POP POP PUSH2 0x459 JUMP JUMPDEST POP DUP1 SWAP3 POP POP POP SWAP2 SWAP1 POP JUMP JUMPDEST PUSH1 0x60 PUSH0 PUSH0 DUP1 SLOAD SWAP1 POP PUSH8 0xFFFFFFFFFFFFFFFF DUP2 GT ISZERO PUSH2 0x6C6 JUMPI PUSH2 0x6C5 PUSH2 0x24B4 JUMP JUMPDEST JUMPDEST PUSH1 0x40 MLOAD SWAP1 DUP1 DUP3 MSTORE DUP1 PUSH1 0x20 MUL PUSH1 0x20 ADD DUP3 ADD PUSH1 0x40 MSTORE DUP1 ISZERO PUSH2 0x6FF JUMPI DUP2 PUSH1 0x20 ADD JUMPDEST PUSH2 0x6EC PUSH2 0x1EDF JUMP JUMPDEST DUP2 MSTORE PUSH1 0x20 ADD SWAP1 PUSH1 0x1 SWAP1 SUB SWAP1 DUP2 PUSH2 0x6E4 JUMPI SWAP1 POP JUMPDEST POP SWAP1 POP PUSH0 PUSH0 SWAP1 POP JUMPDEST PUSH0 DUP1 SLOAD SWAP1 POP DUP2 LT ISZERO PUSH2 0x94C JUMPI PUSH1 0x2 PUSH0 PUSH0 DUP4 DUP2 SLOAD DUP2 LT PUSH2 0x729 JUMPI PUSH2 0x728 PUSH2 0x27EC JUMP JUMPDEST JUMPDEST SWAP1 PUSH0 MSTORE PUSH1 0x20 PUSH0 KECCAK256 ADD SLOAD DUP2 MSTORE PUSH1 0x20 ADD SWAP1 DUP2 MSTORE PUSH1 0x20 ADD PUSH0 KECCAK256 PUSH1 0x40 MLOAD DUP1 PUSH1 0xE0 ADD PUSH1 0x40 MSTORE SWAP1 DUP2 PUSH0 DUP3 ADD SLOAD DUP2 MSTORE PUSH1 0x20 ADD PUSH1 0x1 DUP3 ADD DUP1 SLOAD PUSH2 0x763 SWAP1 PUSH2 0x2846 JUMP JUMPDEST DUP1 PUSH1 0x1F ADD PUSH1 0x20 DUP1 SWAP2 DIV MUL PUSH1 0x20 ADD PUSH1 0x40 MLOAD SWAP1 DUP2 ADD PUSH1 0x40 MSTORE DUP1 SWAP3 SWAP2 SWAP1 DUP2 DUP2 MSTORE PUSH1 0x20 ADD DUP3 DUP1 SLOAD PUSH2 0x78F SWAP1 PUSH2 0x2846 JUMP JUMPDEST DUP1 ISZERO PUSH2 0x7DA JUMPI DUP1 PUSH1 0x1F LT PUSH2 0x7B1 JUMPI PUSH2 0x100 DUP1 DUP4 SLOAD DIV MUL DUP4 MSTORE SWAP2 PUSH1 0x20 ADD SWAP2 PUSH2 0x7DA JUMP JUMPDEST DUP3 ADD SWAP2 SWAP1 PUSH0 MSTORE PUSH1 0x20 PUSH0 KECCAK256 SWAP1 JUMPDEST DUP2 SLOAD DUP2 MSTORE SWAP1 PUSH1 0x1 ADD SWAP1 PUSH1 0x20 ADD DUP1 DUP4 GT PUSH2 0x7BD JUMPI DUP3 SWAP1 SUB PUSH1 0x1F AND DUP3 ADD SWAP2 JUMPDEST POP POP POP POP POP DUP2 MSTORE PUSH1 0x20 ADD PUSH1 0x2 DUP3 ADD DUP1 SLOAD PUSH2 0x7F3 SWAP1 PUSH2 0x2846 JUMP JUMPDEST DUP1 PUSH1 0x1F ADD PUSH1 0x20 DUP1 SWAP2 DIV MUL PUSH1 0x20 ADD PUSH1 0x40 MLOAD SWAP1 DUP2 ADD PUSH1 0x40 MSTORE DUP1 SWAP3 SWAP2 SWAP1 DUP2 DUP2 MSTORE PUSH1 0x20 ADD DUP3 DUP1 SLOAD PUSH2 0x81F SWAP1 PUSH2 0x2846 JUMP JUMPDEST DUP1 ISZERO PUSH2 0x86A JUMPI DUP1 PUSH1 0x1F LT PUSH2 0x841 JUMPI PUSH2 0x100 DUP1 DUP4 SLOAD DIV MUL DUP4 MSTORE SWAP2 PUSH1 0x20 ADD SWAP2 PUSH2 0x86A JUMP JUMPDEST DUP3 ADD SWAP2 SWAP1 PUSH0 MSTORE PUSH1 0x20 PUSH0 KECCAK256 SWAP1 JUMPDEST DUP2 SLOAD DUP2 MSTORE SWAP1 PUSH1 0x1 ADD SWAP1 PUSH1 0x20 ADD DUP1 DUP4 GT PUSH2 0x84D JUMPI DUP3 SWAP1 SUB PUSH1 0x1F AND DUP3 ADD SWAP2 JUMPDEST POP POP POP POP POP DUP2 MSTORE PUSH1 0x20 ADD PUSH1 0x3 DUP3 ADD DUP1 SLOAD PUSH2 0x883 SWAP1 PUSH2 0x2846 JUMP JUMPDEST DUP1 PUSH1 0x1F ADD PUSH1 0x20 DUP1 SWAP2 DIV MUL PUSH1 0x20 ADD PUSH1 0x40 MLOAD SWAP1 DUP2 ADD PUSH1 0x40 MSTORE DUP1 SWAP3 SWAP2 SWAP1 DUP2 DUP2 MSTORE PUSH1 0x20 ADD DUP3 DUP1 SLOAD PUSH2 0x8AF SWAP1 PUSH2 0x2846 JUMP JUMPDEST DUP1 ISZERO PUSH2 0x8FA JUMPI DUP1 PUSH1 0x1F LT PUSH2 0x8D1 JUMPI PUSH2 0x100 DUP1 DUP4 SLOAD DIV MUL DUP4 MSTORE SWAP2 PUSH1 0x20 ADD SWAP2 PUSH2 0x8FA JUMP JUMPDEST DUP3 ADD SWAP2 SWAP1 PUSH0 MSTORE PUSH1 0x20 PUSH0 KECCAK256 SWAP1 JUMPDEST DUP2 SLOAD DUP2 MSTORE SWAP1 PUSH1 0x1 ADD SWAP1 PUSH1 0x20 ADD DUP1 DUP4 GT PUSH2 0x8DD JUMPI DUP3 SWAP1 SUB PUSH1 0x1F AND DUP3 ADD SWAP2 JUMPDEST POP POP POP POP POP DUP2 MSTORE PUSH1 0x20 ADD PUSH1 0x4 DUP3 ADD SLOAD DUP2 MSTORE PUSH1 0x20 ADD PUSH1 0x5 DUP3 ADD SLOAD DUP2 MSTORE PUSH1 0x20 ADD PUSH1 0x6 DUP3 ADD SLOAD DUP2 MSTORE POP POP DUP3 DUP3 DUP2 MLOAD DUP2 LT PUSH2 0x934 JUMPI PUSH2 0x933 PUSH2 0x27EC JUMP JUMPDEST JUMPDEST PUSH1 0x20 MUL PUSH1 0x20 ADD ADD DUP2 SWAP1 MSTORE POP DUP1 DUP1 PUSH1 0x1 ADD SWAP2 POP POP PUSH2 0x707 JUMP JUMPDEST POP DUP1 SWAP2 POP POP SWAP1 JUMP JUMPDEST PUSH0 PUSH0 SHL PUSH1 0x8 PUSH0 DUP4 DUP2 MSTORE PUSH1 0x20 ADD SWAP1 DUP2 MSTORE PUSH1 0x20 ADD PUSH0 KECCAK256 PUSH0 ADD SLOAD SUB PUSH2 0x9AB JUMPI PUSH1 0x40 MLOAD PUSH32 0x8C379A000000000000000000000000000000000000000000000000000000000 DUP2 MSTORE PUSH1 0x4 ADD PUSH2 0x9A2 SWAP1 PUSH2 0x28C0 JUMP JUMPDEST PUSH1 0x40 MLOAD DUP1 SWAP2 SUB SWAP1 REVERT JUMPDEST PUSH1 0x6 PUSH0 DUP3 DUP2 MSTORE PUSH1 0x20 ADD SWAP1 DUP2 MSTORE PUSH1 0x20 ADD PUSH0 KECCAK256 PUSH0 CALLER PUSH20 0xFFFFFFFFFFFFFFFFFFFFFFFFFFFFFFFFFFFFFFFF AND PUSH20 0xFFFFFFFFFFFFFFFFFFFFFFFFFFFFFFFFFFFFFFFF AND DUP2 MSTORE PUSH1 0x20 ADD SWAP1 DUP2 MSTORE PUSH1 0x20 ADD PUSH0 KECCAK256 PUSH0 SWAP1 SLOAD SWAP1 PUSH2 0x100 EXP SWAP1 DIV PUSH1 0xFF AND ISZERO PUSH2 0xA44 JUMPI PUSH1 0x40 MLOAD PUSH32 0x8C379A000000000000000000000000000000000000000000000000000000000 DUP2 MSTORE PUSH1 0x4 ADD PUSH2 0xA3B SWAP1 PUSH2 0x2928 JUMP JUMPDEST PUSH1 0x40 MLOAD DUP1 SWAP2 SUB SWAP1 REVERT JUMPDEST PUSH1 0x1 PUSH1 0x6 PUSH0 DUP4 DUP2 MSTORE PUSH1 0x20 ADD SWAP1 DUP2 MSTORE PUSH1 0x20 ADD PUSH0 KECCAK256 PUSH0 CALLER PUSH20 0xFFFFFFFFFFFFFFFFFFFFFFFFFFFFFFFFFFFFFFFF AND PUSH20 0xFFFFFFFFFFFFFFFFFFFFFFFFFFFFFFFFFFFFFFFF AND DUP2 MSTORE PUSH1 0x20 ADD SWAP1 DUP2 MSTORE PUSH1 0x20 ADD PUSH0 KECCAK256 PUSH0 PUSH2 0x100 EXP DUP2 SLOAD DUP2 PUSH1 0xFF MUL NOT AND SWAP1 DUP4 ISZERO ISZERO MUL OR SWAP1 SSTORE POP PUSH1 0x8 PUSH0 DUP3 DUP2 MSTORE PUSH1 0x20 ADD SWAP1 DUP2 MSTORE PUSH1 0x20 ADD PUSH0 KECCAK256 PUSH1 0x4 ADD PUSH0 DUP2 SLOAD DUP1 SWAP3 SWAP2 SWAP1 PUSH2 0xACC SWAP1 PUSH2 0x2973 JUMP JUMPDEST SWAP2 SWAP1 POP SSTORE POP PUSH0 PUSH1 0x3 PUSH0 DUP5 DUP2 MSTORE PUSH1 0x20 ADD SWAP1 DUP2 MSTORE PUSH1 0x20 ADD PUSH0 KECCAK256 SWAP1 POP PUSH0 PUSH0 SWAP1 POP JUMPDEST DUP2 DUP1 SLOAD SWAP1 POP DUP2 LT ISZERO PUSH2 0xB67 JUMPI DUP3 DUP3 DUP3 DUP2 SLOAD DUP2 LT PUSH2 0xB0A JUMPI PUSH2 0xB09 PUSH2 0x27EC JUMP JUMPDEST JUMPDEST SWAP1 PUSH0 MSTORE PUSH1 0x20 PUSH0 KECCAK256 SWAP1 PUSH1 0x7 MUL ADD PUSH0 ADD SLOAD SUB PUSH2 0xB5A JUMPI DUP2 DUP2 DUP2 SLOAD DUP2 LT PUSH2 0xB31 JUMPI PUSH2 0xB30 PUSH2 0x27EC JUMP JUMPDEST JUMPDEST SWAP1 PUSH0 MSTORE PUSH1 0x20 PUSH0 KECCAK256 SWAP1 PUSH1 0x7 MUL ADD PUSH1 0x4 ADD PUSH0 DUP2 SLOAD DUP1 SWAP3 SWAP2 SWAP1 PUSH2 0xB50 SWAP1 PUSH2 0x2973 JUMP JUMPDEST SWAP2 SWAP1 POP SSTORE POP PUSH2 0xB67 JUMP JUMPDEST DUP1 DUP1 PUSH1 0x1 ADD SWAP2 POP POP PUSH2 0xAEA JUMP JUMPDEST POP DUP2 DUP4 PUSH32 0xA718B91703005C7FF3C85EF47CB2B96B8BF518A0934598A085E074A84AD79BA1 CALLER PUSH1 0x1 PUSH1 0x40 MLOAD PUSH2 0xB9C SWAP3 SWAP2 SWAP1 PUSH2 0x29C9 JUMP JUMPDEST PUSH1 0x40 MLOAD DUP1 SWAP2 SUB SWAP1 LOG3 POP POP POP JUMP JUMPDEST PUSH1 0x7 PUSH1 0x20 MSTORE DUP2 PUSH0 MSTORE PUSH1 0x40 PUSH0 KECCAK256 PUSH1 0x20 MSTORE DUP1 PUSH0 MSTORE PUSH1 0x40 PUSH0 KECCAK256 PUSH0 SWAP2 POP SWAP2 POP SWAP1 SLOAD SWAP1 PUSH2 0x100 EXP SWAP1 DIV PUSH1 0xFF AND DUP2 JUMP JUMPDEST PUSH1 0x6 PUSH1 0x20 MSTORE DUP2 PUSH0 MSTORE PUSH1 0x40 PUSH0 KECCAK256 PUSH1 0x20 MSTORE DUP1 PUSH0 MSTORE PUSH1 0x40 PUSH0 KECCAK256 PUSH0 SWAP2 POP SWAP2 POP SWAP1 SLOAD SWAP1 PUSH2 0x100 EXP SWAP1 DIV PUSH1 0xFF AND DUP2 JUMP JUMPDEST PUSH1 0x60 PUSH0 PUSH1 0x9 PUSH0 DUP5 PUSH20 0xFFFFFFFFFFFFFFFFFFFFFFFFFFFFFFFFFFFFFFFF AND PUSH20 0xFFFFFFFFFFFFFFFFFFFFFFFFFFFFFFFFFFFFFFFF AND DUP2 MSTORE PUSH1 0x20 ADD SWAP1 DUP2 MSTORE PUSH1 0x20 ADD PUSH0 KECCAK256 DUP1 SLOAD DUP1 PUSH1 0x20 MUL PUSH1 0x20 ADD PUSH1 0x40 MLOAD SWAP1 DUP2 ADD PUSH1 0x40 MSTORE DUP1 SWAP3 SWAP2 SWAP1 DUP2 DUP2 MSTORE PUSH1 0x20 ADD DUP3 DUP1 SLOAD DUP1 ISZERO PUSH2 0xC85 JUMPI PUSH1 0x20 MUL DUP3 ADD SWAP2 SWAP1 PUSH0 MSTORE PUSH1 0x20 PUSH0 KECCAK256 SWAP1 JUMPDEST DUP2 SLOAD DUP2 MSTORE PUSH1 0x20 ADD SWAP1 PUSH1 0x1 ADD SWAP1 DUP1 DUP4 GT PUSH2 0xC71 JUMPI JUMPDEST POP POP POP POP POP SWAP1 POP PUSH0 DUP2 MLOAD PUSH8 0xFFFFFFFFFFFFFFFF DUP2 GT ISZERO PUSH2 0xCA8 JUMPI PUSH2 0xCA7 PUSH2 0x24B4 JUMP JUMPDEST JUMPDEST PUSH1 0x40 MLOAD SWAP1 DUP1 DUP3 MSTORE DUP1 PUSH1 0x20 MUL PUSH1 0x20 ADD DUP3 ADD PUSH1 0x40 MSTORE DUP1 ISZERO PUSH2 0xCE1 JUMPI DUP2 PUSH1 0x20 ADD JUMPDEST PUSH2 0xCCE PUSH2 0x1F18 JUMP JUMPDEST DUP2 MSTORE PUSH1 0x20 ADD SWAP1 PUSH1 0x1 SWAP1 SUB SWAP1 DUP2 PUSH2 0xCC6 JUMPI SWAP1 POP JUMPDEST POP SWAP1 POP PUSH0 PUSH0 SWAP1 POP JUMPDEST DUP3 MLOAD DUP2 LT ISZERO PUSH2 0xEEF JUMPI PUSH1 0x8 PUSH0 DUP5 DUP4 DUP2 MLOAD DUP2 LT PUSH2 0xD08 JUMPI PUSH2 0xD07 PUSH2 0x27EC JUMP JUMPDEST JUMPDEST PUSH1 0x20 MUL PUSH1 0x20 ADD ADD MLOAD DUP2 MSTORE PUSH1 0x20 ADD SWAP1 DUP2 MSTORE PUSH1 0x20 ADD PUSH0 KECCAK256 PUSH1 0x40 MLOAD DUP1 PUSH1 0xE0 ADD PUSH1 0x40 MSTORE SWAP1 DUP2 PUSH0 DUP3 ADD SLOAD DUP2 MSTORE PUSH1 0x20 ADD PUSH1 0x1 DUP3 ADD PUSH0 SWAP1 SLOAD SWAP1 PUSH2 0x100 EXP SWAP1 DIV PUSH20 0xFFFFFFFFFFFFFFFFFFFFFFFFFFFFFFFFFFFFFFFF AND PUSH20 0xFFFFFFFFFFFFFFFFFFFFFFFFFFFFFFFFFFFFFFFF AND PUSH20 0xFFFFFFFFFFFFFFFFFFFFFFFFFFFFFFFFFFFFFFFF AND DUP2 MSTORE PUSH1 0x20 ADD PUSH1 0x2 DUP3 ADD DUP1 SLOAD PUSH2 0xD96 SWAP1 PUSH2 0x2846 JUMP JUMPDEST DUP1 PUSH1 0x1F ADD PUSH1 0x20 DUP1 SWAP2 DIV MUL PUSH1 0x20 ADD PUSH1 0x40 MLOAD SWAP1 DUP2 ADD PUSH1 0x40 MSTORE DUP1 SWAP3 SWAP2 SWAP1 DUP2 DUP2 MSTORE PUSH1 0x20 ADD DUP3 DUP1 SLOAD PUSH2 0xDC2 SWAP1 PUSH2 0x2846 JUMP JUMPDEST DUP1 ISZERO PUSH2 0xE0D JUMPI DUP1 PUSH1 0x1F LT PUSH2 0xDE4 JUMPI PUSH2 0x100 DUP1 DUP4 SLOAD DIV MUL DUP4 MSTORE SWAP2 PUSH1 0x20 ADD SWAP2 PUSH2 0xE0D JUMP JUMPDEST DUP3 ADD SWAP2 SWAP1 PUSH0 MSTORE PUSH1 0x20 PUSH0 KECCAK256 SWAP1 JUMPDEST DUP2 SLOAD DUP2 MSTORE SWAP1 PUSH1 0x1 ADD SWAP1 PUSH1 0x20 ADD DUP1 DUP4 GT PUSH2 0xDF0 JUMPI DUP3 SWAP1 SUB PUSH1 0x1F AND DUP3 ADD SWAP2 JUMPDEST POP POP POP POP POP DUP2 MSTORE PUSH1 0x20 ADD PUSH1 0x3 DUP3 ADD DUP1 SLOAD PUSH2 0xE26 SWAP1 PUSH2 0x2846 JUMP JUMPDEST DUP1 PUSH1 0x1F ADD PUSH1 0x20 DUP1 SWAP2 DIV MUL PUSH1 0x20 ADD PUSH1 0x40 MLOAD SWAP1 DUP2 ADD PUSH1 0x40 MSTORE DUP1 SWAP3 SWAP2 SWAP1 DUP2 DUP2 MSTORE PUSH1 0x20 ADD DUP3 DUP1 SLOAD PUSH2 0xE52 SWAP1 PUSH2 0x2846 JUMP JUMPDEST DUP1 ISZERO PUSH2 0xE9D JUMPI DUP1 PUSH1 0x1F LT PUSH2 0xE74 JUMPI PUSH2 0x100 DUP1 DUP4 SLOAD DIV MUL DUP4 MSTORE SWAP2 PUSH1 0x20 ADD SWAP2 PUSH2 0xE9D JUMP JUMPDEST DUP3 ADD SWAP2 SWAP1 PUSH0 MSTORE PUSH1 0x20 PUSH0 KECCAK256 SWAP1 JUMPDEST DUP2 SLOAD DUP2 MSTORE SWAP1 PUSH1 0x1 ADD SWAP1 PUSH1 0x20 ADD DUP1 DUP4 GT PUSH2 0xE80 JUMPI DUP3 SWAP1 SUB PUSH1 0x1F AND DUP3 ADD SWAP2 JUMPDEST POP POP POP POP POP DUP2 MSTORE PUSH1 0x20 ADD PUSH1 0x4 DUP3 ADD SLOAD DUP2 MSTORE PUSH1 0x20 ADD PUSH1 0x5 DUP3 ADD SLOAD DUP2 MSTORE PUSH1 0x20 ADD PUSH1 0x6 DUP3 ADD SLOAD DUP2 MSTORE POP POP DUP3 DUP3 DUP2 MLOAD DUP2 LT PUSH2 0xED7 JUMPI PUSH2 0xED6 PUSH2 0x27EC JUMP JUMPDEST JUMPDEST PUSH1 0x20 MUL PUSH1 0x20 ADD ADD DUP2 SWAP1 MSTORE POP DUP1 DUP1 PUSH1 0x1 ADD SWAP2 POP POP PUSH2 0xCE9 JUMP JUMPDEST POP DUP1 SWAP3 POP POP POP SWAP2 SWAP1 POP JUMP JUMPDEST PUSH0 PUSH0 SHL PUSH1 0x2 PUSH0 DUP4 DUP2 MSTORE PUSH1 0x20 ADD SWAP1 DUP2 MSTORE PUSH1 0x20 ADD PUSH0 KECCAK256 PUSH0 ADD SLOAD SUB PUSH2 0xF51 JUMPI PUSH1 0x40 MLOAD PUSH32 0x8C379A000000000000000000000000000000000000000000000000000000000 DUP2 MSTORE PUSH1 0x4 ADD PUSH2 0xF48 SWAP1 PUSH2 0x2A3A JUMP JUMPDEST PUSH1 0x40 MLOAD DUP1 SWAP2 SUB SWAP1 REVERT JUMPDEST PUSH1 0x5 PUSH0 DUP3 DUP2 MSTORE PUSH1 0x20 ADD SWAP1 DUP2 MSTORE PUSH1 0x20 ADD PUSH0 KECCAK256 PUSH0 CALLER PUSH20 0xFFFFFFFFFFFFFFFFFFFFFFFFFFFFFFFFFFFFFFFF AND PUSH20 0xFFFFFFFFFFFFFFFFFFFFFFFFFFFFFFFFFFFFFFFF AND DUP2 MSTORE PUSH1 0x20 ADD SWAP1 DUP2 MSTORE PUSH1 0x20 ADD PUSH0 KECCAK256 PUSH0 SWAP1 SLOAD SWAP1 PUSH2 0x100 EXP SWAP1 DIV PUSH1 0xFF AND ISZERO PUSH2 0xFEA JUMPI PUSH1 0x40 MLOAD PUSH32 0x8C379A000000000000000000000000000000000000000000000000000000000 DUP2 MSTORE PUSH1 0x4 ADD PUSH2 0xFE1 SWAP1 PUSH2 0x2AA2 JUMP JUMPDEST PUSH1 0x40 MLOAD DUP1 SWAP2 SUB SWAP1 REVERT JUMPDEST PUSH1 0x2 PUSH0 DUP3 DUP2 MSTORE PUSH1 0x20 ADD SWAP1 DUP2 MSTORE PUSH1 0x20 ADD PUSH0 KECCAK256 PUSH1 0x5 ADD PUSH0 DUP2 SLOAD DUP1 SWAP3 SWAP2 SWAP1 PUSH2 0x100E SWAP1 PUSH2 0x2973 JUMP JUMPDEST SWAP2 SWAP1 POP SSTORE POP PUSH1 0x1 PUSH1 0x5 PUSH0 DUP4 DUP2 MSTORE PUSH1 0x20 ADD SWAP1 DUP2 MSTORE PUSH1 0x20 ADD PUSH0 KECCAK256 PUSH0 CALLER PUSH20 0xFFFFFFFFFFFFFFFFFFFFFFFFFFFFFFFFFFFFFFFF AND PUSH20 0xFFFFFFFFFFFFFFFFFFFFFFFFFFFFFFFFFFFFFFFF AND DUP2 MSTORE PUSH1 0x20 ADD SWAP1 DUP2 MSTORE PUSH1 0x20 ADD PUSH0 KECCAK256 PUSH0 PUSH2 0x100 EXP DUP2 SLOAD DUP2 PUSH1 0xFF MUL NOT AND SWAP1 DUP4 ISZERO ISZERO MUL OR SWAP1 SSTORE POP CALLER PUSH20 0xFFFFFFFFFFFFFFFFFFFFFFFFFFFFFFFFFFFFFFFF AND DUP2 PUSH32 0xA7E4C5082F867EA22A45A95C2043209B9CE83D70CA31CCB947E67592EA14C4B1 PUSH0 PUSH1 0x40 MLOAD PUSH2 0x10BE SWAP2 SWAP1 PUSH2 0x205C JUMP JUMPDEST PUSH1 0x40 MLOAD DUP1 SWAP2 SUB SWAP1 LOG3 POP JUMP JUMPDEST PUSH0 PUSH0 SHL PUSH1 0x2 PUSH0 DUP6 DUP2 MSTORE PUSH1 0x20 ADD SWAP1 DUP2 MSTORE PUSH1 0x20 ADD PUSH0 KECCAK256 PUSH0 ADD SLOAD SUB PUSH2 0x1120 JUMPI PUSH1 0x40 MLOAD PUSH32 0x8C379A000000000000000000000000000000000000000000000000000000000 DUP2 MSTORE PUSH1 0x4 ADD PUSH2 0x1117 SWAP1 PUSH2 0x2A3A JUMP JUMPDEST PUSH1 0x40 MLOAD DUP1 SWAP2 SUB SWAP1 REVERT JUMPDEST PUSH1 0x20 DUP3 MLOAD GT ISZERO PUSH2 0x1165 JUMPI PUSH1 0x40 MLOAD PUSH32 0x8C379A000000000000000000000000000000000000000000000000000000000 DUP2 MSTORE PUSH1 0x4 ADD PUSH2 0x115C SWAP1 PUSH2 0x2B0A JUMP JUMPDEST PUSH1 0x40 MLOAD DUP1 SWAP2 SUB SWAP1 REVERT JUMPDEST PUSH0 CALLER TIMESTAMP DUP4 PUSH1 0x40 MLOAD PUSH1 0x20 ADD PUSH2 0x117B SWAP4 SWAP3 SWAP2 SWAP1 PUSH2 0x2BC7 JUMP JUMPDEST PUSH1 0x40 MLOAD PUSH1 0x20 DUP2 DUP4 SUB SUB DUP2 MSTORE SWAP1 PUSH1 0x40 MSTORE DUP1 MLOAD SWAP1 PUSH1 0x20 ADD KECCAK256 SWAP1 POP PUSH0 PUSH1 0x40 MLOAD DUP1 PUSH1 0xE0 ADD PUSH1 0x40 MSTORE DUP1 DUP4 DUP2 MSTORE PUSH1 0x20 ADD CALLER PUSH20 0xFFFFFFFFFFFFFFFFFFFFFFFFFFFFFFFFFFFFFFFF AND DUP2 MSTORE PUSH1 0x20 ADD DUP6 DUP2 MSTORE PUSH1 0x20 ADD DUP5 DUP2 MSTORE PUSH1 0x20 ADD PUSH0 DUP2 MSTORE PUSH1 0x20 ADD PUSH0 DUP2 MSTORE PUSH1 0x20 ADD TIMESTAMP DUP2 MSTORE POP SWAP1 POP PUSH1 0x3 PUSH0 DUP7 DUP2 MSTORE PUSH1 0x20 ADD SWAP1 DUP2 MSTORE PUSH1 0x20 ADD PUSH0 KECCAK256 DUP2 SWAP1 DUP1 PUSH1 0x1 DUP2 SLOAD ADD DUP1 DUP3 SSTORE DUP1 SWAP2 POP POP PUSH1 0x1 SWAP1 SUB SWAP1 PUSH0 MSTORE PUSH1 0x20 PUSH0 KECCAK256 SWAP1 PUSH1 0x7 MUL ADD PUSH0 SWAP1 SWAP2 SWAP1 SWAP2 SWAP1 SWAP2 POP PUSH0 DUP3 ADD MLOAD DUP2 PUSH0 ADD SSTORE PUSH1 0x20 DUP3 ADD MLOAD DUP2 PUSH1 0x1 ADD PUSH0 PUSH2 0x100 EXP DUP2 SLOAD DUP2 PUSH20 0xFFFFFFFFFFFFFFFFFFFFFFFFFFFFFFFFFFFFFFFF MUL NOT AND SWAP1 DUP4 PUSH20 0xFFFFFFFFFFFFFFFFFFFFFFFFFFFFFFFFFFFFFFFF AND MUL OR SWAP1 SSTORE POP PUSH1 0x40 DUP3 ADD MLOAD DUP2 PUSH1 0x2 ADD SWAP1 DUP2 PUSH2 0x127A SWAP2 SWAP1 PUSH2 0x2D9F JUMP JUMPDEST POP PUSH1 0x60 DUP3 ADD MLOAD DUP2 PUSH1 0x3 ADD SWAP1 DUP2 PUSH2 0x1290 SWAP2 SWAP1 PUSH2 0x2D9F JUMP JUMPDEST POP PUSH1 0x80 DUP3 ADD MLOAD DUP2 PUSH1 0x4 ADD SSTORE PUSH1 0xA0 DUP3 ADD MLOAD DUP2 PUSH1 0x5 ADD SSTORE PUSH1 0xC0 DUP3 ADD MLOAD DUP2 PUSH1 0x6 ADD SSTORE POP POP DUP1 PUSH1 0x8 PUSH0 DUP5 DUP2 MSTORE PUSH1 0x20 ADD SWAP1 DUP2 MSTORE PUSH1 0x20 ADD PUSH0 KECCAK256 PUSH0 DUP3 ADD MLOAD DUP2 PUSH0 ADD SSTORE PUSH1 0x20 DUP3 ADD MLOAD DUP2 PUSH1 0x1 ADD PUSH0 PUSH2 0x100 EXP DUP2 SLOAD DUP2 PUSH20 0xFFFFFFFFFFFFFFFFFFFFFFFFFFFFFFFFFFFFFFFF MUL NOT AND SWAP1 DUP4 PUSH20 0xFFFFFFFFFFFFFFFFFFFFFFFFFFFFFFFFFFFFFFFF AND MUL OR SWAP1 SSTORE POP PUSH1 0x40 DUP3 ADD MLOAD DUP2 PUSH1 0x2 ADD SWAP1 DUP2 PUSH2 0x1326 SWAP2 SWAP1 PUSH2 0x2D9F JUMP JUMPDEST POP PUSH1 0x60 DUP3 ADD MLOAD DUP2 PUSH1 0x3 ADD SWAP1 DUP2 PUSH2 0x133C SWAP2 SWAP1 PUSH2 0x2D9F JUMP JUMPDEST POP PUSH1 0x80 DUP3 ADD MLOAD DUP2 PUSH1 0x4 ADD SSTORE PUSH1 0xA0 DUP3 ADD MLOAD DUP2 PUSH1 0x5 ADD SSTORE PUSH1 0xC0 DUP3 ADD MLOAD DUP2 PUSH1 0x6 ADD SSTORE SWAP1 POP POP PUSH1 0x9 PUSH0 CALLER PUSH20 0xFFFFFFFFFFFFFFFFFFFFFFFFFFFFFFFFFFFFFFFF AND PUSH20 0xFFFFFFFFFFFFFFFFFFFFFFFFFFFFFFFFFFFFFFFF AND DUP2 MSTORE PUSH1 0x20 ADD SWAP1 DUP2 MSTORE PUSH1 0x20 ADD PUSH0 KECCAK256 DUP3 SWAP1 DUP1 PUSH1 0x1 DUP2 SLOAD ADD DUP1 DUP3 SSTORE DUP1 SWAP2 POP POP PUSH1 0x1 SWAP1 SUB SWAP1 PUSH0 MSTORE PUSH1 0x20 PUSH0 KECCAK256 ADD PUSH0 SWAP1 SWAP2 SWAP1 SWAP2 SWAP1 SWAP2 POP SSTORE DUP2 DUP6 PUSH32 0x121F72518586F939BFB34C62BBF7D31B0A8AE8ECBCAC0869550705EE4CFF80F5 CALLER DUP8 DUP8 TIMESTAMP PUSH1 0x40 MLOAD PUSH2 0x13F6 SWAP5 SWAP4 SWAP3 SWAP2 SWAP1 PUSH2 0x2E6E JUMP JUMPDEST PUSH1 0x40 MLOAD DUP1 SWAP2 SUB SWAP1 LOG3 POP POP POP POP POP JUMP JUMPDEST PUSH0 PUSH1 0x60 DUP1 PUSH1 0x60 PUSH0 PUSH0 PUSH0 PUSH0 PUSH0 SHL PUSH1 0x2 PUSH0 DUP11 DUP2 MSTORE PUSH1 0x20 ADD SWAP1 DUP2 MSTORE PUSH1 0x20 ADD PUSH0 KECCAK256 PUSH0 ADD SLOAD SUB PUSH2 0x1465 JUMPI PUSH1 0x40 MLOAD PUSH32 0x8C379A000000000000000000000000000000000000000000000000000000000 DUP2 MSTORE PUSH1 0x4 ADD PUSH2 0x145C SWAP1 PUSH2 0x2A3A JUMP JUMPDEST PUSH1 0x40 MLOAD DUP1 SWAP2 SUB SWAP1 REVERT JUMPDEST PUSH0 PUSH1 0x2 PUSH0 DUP11 DUP2 MSTORE PUSH1 0x20 ADD SWAP1 DUP2 MSTORE PUSH1 0x20 ADD PUSH0 KECCAK256 PUSH1 0x40 MLOAD DUP1 PUSH1 0xE0 ADD PUSH1 0x40 MSTORE SWAP1 DUP2 PUSH0 DUP3 ADD SLOAD DUP2 MSTORE PUSH1 0x20 ADD PUSH1 0x1 DUP3 ADD DUP1 SLOAD PUSH2 0x149B SWAP1 PUSH2 0x2846 JUMP JUMPDEST DUP1 PUSH1 0x1F ADD PUSH1 0x20 DUP1 SWAP2 DIV MUL PUSH1 0x20 ADD PUSH1 0x40 MLOAD SWAP1 DUP2 ADD PUSH1 0x40 MSTORE DUP1 SWAP3 SWAP2 SWAP1 DUP2 DUP2 MSTORE PUSH1 0x20 ADD DUP3 DUP1 SLOAD PUSH2 0x14C7 SWAP1 PUSH2 0x2846 JUMP JUMPDEST DUP1 ISZERO PUSH2 0x1512 JUMPI DUP1 PUSH1 0x1F LT PUSH2 0x14E9 JUMPI PUSH2 0x100 DUP1 DUP4 SLOAD DIV MUL DUP4 MSTORE SWAP2 PUSH1 0x20 ADD SWAP2 PUSH2 0x1512 JUMP JUMPDEST DUP3 ADD SWAP2 SWAP1 PUSH0 MSTORE PUSH1 0x20 PUSH0 KECCAK256 SWAP1 JUMPDEST DUP2 SLOAD DUP2 MSTORE SWAP1 PUSH1 0x1 ADD SWAP1 PUSH1 0x20 ADD DUP1 DUP4 GT PUSH2 0x14F5 JUMPI DUP3 SWAP1 SUB PUSH1 0x1F AND DUP3 ADD SWAP2 JUMPDEST POP POP POP POP POP DUP2 MSTORE PUSH1 0x20 ADD PUSH1 0x2 DUP3 ADD DUP1 SLOAD PUSH2 0x152B SWAP1 PUSH2 0x2846 JUMP JUMPDEST DUP1 PUSH1 0x1F ADD PUSH1 0x20 DUP1 SWAP2 DIV MUL PUSH1 0x20 ADD PUSH1 0x40 MLOAD SWAP1 DUP2 ADD PUSH1 0x40 MSTORE DUP1 SWAP3 SWAP2 SWAP1 DUP2 DUP2 MSTORE PUSH1 0x20 ADD DUP3 DUP1 SLOAD PUSH2 0x1557 SWAP1 PUSH2 0x2846 JUMP JUMPDEST DUP1 ISZERO PUSH2 0x15A2 JUMPI DUP1 PUSH1 0x1F LT PUSH2 0x1579 JUMPI PUSH2 0x100 DUP1 DUP4 SLOAD DIV MUL DUP4 MSTORE SWAP2 PUSH1 0x20 ADD SWAP2 PUSH2 0x15A2 JUMP JUMPDEST DUP3 ADD SWAP2 SWAP1 PUSH0 MSTORE PUSH1 0x20 PUSH0 KECCAK256 SWAP1 JUMPDEST DUP2 SLOAD DUP2 MSTORE SWAP1 PUSH1 0x1 ADD SWAP1 PUSH1 0x20 ADD DUP1 DUP4 GT PUSH2 0x1585 JUMPI DUP3 SWAP1 SUB PUSH1 0x1F AND DUP3 ADD SWAP2 JUMPDEST POP POP POP POP POP DUP2 MSTORE PUSH1 0x20 ADD PUSH1 0x3 DUP3 ADD DUP1 SLOAD PUSH2 0x15BB SWAP1 PUSH2 0x2846 JUMP JUMPDEST DUP1 PUSH1 0x1F ADD PUSH1 0x20 DUP1 SWAP2 DIV MUL PUSH1 0x20 ADD PUSH1 0x40 MLOAD SWAP1 DUP2 ADD PUSH1 0x40 MSTORE DUP1 SWAP3 SWAP2 SWAP1 DUP2 DUP2 MSTORE PUSH1 0x20 ADD DUP3 DUP1 SLOAD PUSH2 0x15E7 SWAP1 PUSH2 0x2846 JUMP JUMPDEST DUP1 ISZERO PUSH2 0x1632 JUMPI DUP1 PUSH1 0x1F LT PUSH2 0x1609 JUMPI PUSH2 0x100 DUP1 DUP4 SLOAD DIV MUL DUP4 MSTORE SWAP2 PUSH1 0x20 ADD SWAP2 PUSH2 0x1632 JUMP JUMPDEST DUP3 ADD SWAP2 SWAP1 PUSH0 MSTORE PUSH1 0x20 PUSH0 KECCAK256 SWAP1 JUMPDEST DUP2 SLOAD DUP2 MSTORE SWAP1 PUSH1 0x1 ADD SWAP1 PUSH1 0x20 ADD DUP1 DUP4 GT PUSH2 0x1615 JUMPI DUP3 SWAP1 SUB PUSH1 0x1F AND DUP3 ADD SWAP2 JUMPDEST POP POP POP POP POP DUP2 MSTORE PUSH1 0x20 ADD PUSH1 0x4 DUP3 ADD SLOAD DUP2 MSTORE PUSH1 0x20 ADD PUSH1 0x5 DUP3 ADD SLOAD DUP2 MSTORE PUSH1 0x20 ADD PUSH1 0x6 DUP3 ADD SLOAD DUP2 MSTORE POP POP SWAP1 POP DUP1 PUSH0 ADD MLOAD DUP2 PUSH1 0x20 ADD MLOAD DUP3 PUSH1 0x40 ADD MLOAD DUP4 PUSH1 0x60 ADD MLOAD DUP5 PUSH1 0x80 ADD MLOAD DUP6 PUSH1 0xA0 ADD MLOAD DUP7 PUSH1 0xC0 ADD MLOAD SWAP8 POP SWAP8 POP SWAP8 POP SWAP8 POP SWAP8 POP SWAP8 POP SWAP8 POP POP SWAP2 SWAP4 SWAP6 SWAP8 SWAP1 SWAP3 SWAP5 SWAP7 POP JUMP JUMPDEST PUSH1 0x4 PUSH1 0x20 MSTORE DUP2 PUSH0 MSTORE PUSH1 0x40 PUSH0 KECCAK256 PUSH1 0x20 MSTORE DUP1 PUSH0 MSTORE PUSH1 0x40 PUSH0 KECCAK256 PUSH0 SWAP2 POP SWAP2 POP SWAP1 SLOAD SWAP1 PUSH2 0x100 EXP SWAP1 DIV PUSH1 0xFF AND DUP2 JUMP JUMPDEST PUSH0 PUSH0 SHL PUSH1 0x2 PUSH0 DUP4 DUP2 MSTORE PUSH1 0x20 ADD SWAP1 DUP2 MSTORE PUSH1 0x20 ADD PUSH0 KECCAK256 PUSH0 ADD SLOAD SUB PUSH2 0x1718 JUMPI PUSH1 0x40 MLOAD PUSH32 0x8C379A000000000000000000000000000000000000000000000000000000000 DUP2 MSTORE PUSH1 0x4 ADD PUSH2 0x170F SWAP1 PUSH2 0x2A3A JUMP JUMPDEST PUSH1 0x40 MLOAD DUP1 SWAP2 SUB SWAP1 REVERT JUMPDEST PUSH1 0x4 PUSH0 DUP3 DUP2 MSTORE PUSH1 0x20 ADD SWAP1 DUP2 MSTORE PUSH1 0x20 ADD PUSH0 KECCAK256 PUSH0 CALLER PUSH20 0xFFFFFFFFFFFFFFFFFFFFFFFFFFFFFFFFFFFFFFFF AND PUSH20 0xFFFFFFFFFFFFFFFFFFFFFFFFFFFFFFFFFFFFFFFF AND DUP2 MSTORE PUSH1 0x20 ADD SWAP1 DUP2 MSTORE PUSH1 0x20 ADD PUSH0 KECCAK256 PUSH0 SWAP1 SLOAD SWAP1 PUSH2 0x100 EXP SWAP1 DIV PUSH1 0xFF AND ISZERO PUSH2 0x17B1 JUMPI PUSH1 0x40 MLOAD PUSH32 0x8C379A000000000000000000000000000000000000000000000000000000000 DUP2 MSTORE PUSH1 0x4 ADD PUSH2 0x17A8 SWAP1 PUSH2 0x2F09 JUMP JUMPDEST PUSH1 0x40 MLOAD DUP1 SWAP2 SUB SWAP1 REVERT JUMPDEST PUSH1 0x2 PUSH0 DUP3 DUP2 MSTORE PUSH1 0x20 ADD SWAP1 DUP2 MSTORE PUSH1 0x20 ADD PUSH0 KECCAK256 PUSH1 0x4 ADD PUSH0 DUP2 SLOAD DUP1 SWAP3 SWAP2 SWAP1 PUSH2 0x17D5 SWAP1 PUSH2 0x2973 JUMP JUMPDEST SWAP2 SWAP1 POP SSTORE POP PUSH1 0x1 PUSH1 0x4 PUSH0 DUP4 DUP2 MSTORE PUSH1 0x20 ADD SWAP1 DUP2 MSTORE PUSH1 0x20 ADD PUSH0 KECCAK256 PUSH0 CALLER PUSH20 0xFFFFFFFFFFFFFFFFFFFFFFFFFFFFFFFFFFFFFFFF AND PUSH20 0xFFFFFFFFFFFFFFFFFFFFFFFFFFFFFFFFFFFFFFFF AND DUP2 MSTORE PUSH1 0x20 ADD SWAP1 DUP2 MSTORE PUSH1 0x20 ADD PUSH0 KECCAK256 PUSH0 PUSH2 0x100 EXP DUP2 SLOAD DUP2 PUSH1 0xFF MUL NOT AND SWAP1 DUP4 ISZERO ISZERO MUL OR SWAP1 SSTORE POP CALLER PUSH20 0xFFFFFFFFFFFFFFFFFFFFFFFFFFFFFFFFFFFFFFFF AND DUP2 PUSH32 0xA7E4C5082F867EA22A45A95C2043209B9CE83D70CA31CCB947E67592EA14C4B1 PUSH1 0x1 PUSH1 0x40 MLOAD PUSH2 0x1886 SWAP2 SWAP1 PUSH2 0x205C JUMP JUMPDEST PUSH1 0x40 MLOAD DUP1 SWAP2 SUB SWAP1 LOG3 POP JUMP JUMPDEST PUSH1 0x20 DUP4 MLOAD GT ISZERO PUSH2 0x18D6 JUMPI PUSH1 0x40 MLOAD PUSH32 0x8C379A000000000000000000000000000000000000000000000000000000000 DUP2 MSTORE PUSH1 0x4 ADD PUSH2 0x18CD SWAP1 PUSH2 0x2F71 JUMP JUMPDEST PUSH1 0x40 MLOAD DUP1 SWAP2 SUB SWAP1 REVERT JUMPDEST PUSH0 CALLER TIMESTAMP DUP5 DUP5 PUSH1 0x40 MLOAD PUSH1 0x20 ADD PUSH2 0x18EE SWAP5 SWAP4 SWAP3 SWAP2 SWAP1 PUSH2 0x2F8F JUMP JUMPDEST PUSH1 0x40 MLOAD PUSH1 0x20 DUP2 DUP4 SUB SUB DUP2 MSTORE SWAP1 PUSH1 0x40 MSTORE DUP1 MLOAD SWAP1 PUSH1 0x20 ADD KECCAK256 SWAP1 POP PUSH0 PUSH1 0x40 MLOAD DUP1 PUSH1 0xE0 ADD PUSH1 0x40 MSTORE DUP1 DUP4 DUP2 MSTORE PUSH1 0x20 ADD DUP7 DUP2 MSTORE PUSH1 0x20 ADD DUP6 DUP2 MSTORE PUSH1 0x20 ADD DUP5 DUP2 MSTORE PUSH1 0x20 ADD PUSH0 DUP2 MSTORE PUSH1 0x20 ADD PUSH0 DUP2 MSTORE PUSH1 0x20 ADD TIMESTAMP DUP2 MSTORE POP SWAP1 POP PUSH0 DUP3 SWAP1 DUP1 PUSH1 0x1 DUP2 SLOAD ADD DUP1 DUP3 SSTORE DUP1 SWAP2 POP POP PUSH1 0x1 SWAP1 SUB SWAP1 PUSH0 MSTORE PUSH1 0x20 PUSH0 KECCAK256 ADD PUSH0 SWAP1 SWAP2 SWAP1 SWAP2 SWAP1 SWAP2 POP SSTORE PUSH1 0x1 PUSH0 CALLER PUSH20 0xFFFFFFFFFFFFFFFFFFFFFFFFFFFFFFFFFFFFFFFF AND PUSH20 0xFFFFFFFFFFFFFFFFFFFFFFFFFFFFFFFFFFFFFFFF AND DUP2 MSTORE PUSH1 0x20 ADD SWAP1 DUP2 MSTORE PUSH1 0x20 ADD PUSH0 KECCAK256 DUP3 SWAP1 DUP1 PUSH1 0x1 DUP2 SLOAD ADD DUP1 DUP3 SSTORE DUP1 SWAP2 POP POP PUSH1 0x1 SWAP1 SUB SWAP1 PUSH0 MSTORE PUSH1 0x20 PUSH0 KECCAK256 ADD PUSH0 SWAP1 SWAP2 SWAP1 SWAP2 SWAP1 SWAP2 POP SSTORE DUP1 PUSH1 0x2 PUSH0 DUP5 DUP2 MSTORE PUSH1 0x20 ADD SWAP1 DUP2 MSTORE PUSH1 0x20 ADD PUSH0 KECCAK256 PUSH0 DUP3 ADD MLOAD DUP2 PUSH0 ADD SSTORE PUSH1 0x20 DUP3 ADD MLOAD DUP2 PUSH1 0x1 ADD SWAP1 DUP2 PUSH2 0x19F1 SWAP2 SWAP1 PUSH2 0x2D9F JUMP JUMPDEST POP PUSH1 0x40 DUP3 ADD MLOAD DUP2 PUSH1 0x2 ADD SWAP1 DUP2 PUSH2 0x1A07 SWAP2 SWAP1 PUSH2 0x2D9F JUMP JUMPDEST POP PUSH1 0x60 DUP3 ADD MLOAD DUP2 PUSH1 0x3 ADD SWAP1 DUP2 PUSH2 0x1A1D SWAP2 SWAP1 PUSH2 0x2D9F JUMP JUMPDEST POP PUSH1 0x80 DUP3 ADD MLOAD DUP2 PUSH1 0x4 ADD SSTORE PUSH1 0xA0 DUP3 ADD MLOAD DUP2 PUSH1 0x5 ADD SSTORE PUSH1 0xC0 DUP3 ADD MLOAD DUP2 PUSH1 0x6 ADD SSTORE SWAP1 POP POP DUP2 PUSH32 0x17F34748F078A06D3C7C034EF1CDF60A8B2BAF4592DF676D3A2AE61596619F98 DUP6 DUP8 TIMESTAMP PUSH1 0x40 MLOAD PUSH2 0x1A73 SWAP4 SWAP3 SWAP2 SWAP1 PUSH2 0x2FD4 JUMP JUMPDEST PUSH1 0x40 MLOAD DUP1 SWAP2 SUB SWAP1 LOG2 POP POP POP POP POP JUMP JUMPDEST PUSH0 PUSH0 SHL PUSH1 0x8 PUSH0 DUP4 DUP2 MSTORE PUSH1 0x20 ADD SWAP1 DUP2 MSTORE PUSH1 0x20 ADD PUSH0 KECCAK256 PUSH0 ADD SLOAD SUB PUSH2 0x1AD9 JUMPI PUSH1 0x40 MLOAD PUSH32 0x8C379A000000000000000000000000000000000000000000000000000000000 DUP2 MSTORE PUSH1 0x4 ADD PUSH2 0x1AD0 SWAP1 PUSH2 0x28C0 JUMP JUMPDEST PUSH1 0x40 MLOAD DUP1 SWAP2 SUB SWAP1 REVERT JUMPDEST PUSH1 0x7 PUSH0 DUP3 DUP2 MSTORE PUSH1 0x20 ADD SWAP1 DUP2 MSTORE PUSH1 0x20 ADD PUSH0 KECCAK256 PUSH0 CALLER PUSH20 0xFFFFFFFFFFFFFFFFFFFFFFFFFFFFFFFFFFFFFFFF AND PUSH20 0xFFFFFFFFFFFFFFFFFFFFFFFFFFFFFFFFFFFFFFFF AND DUP2 MSTORE PUSH1 0x20 ADD SWAP1 DUP2 MSTORE PUSH1 0x20 ADD PUSH0 KECCAK256 PUSH0 SWAP1 SLOAD SWAP1 PUSH2 0x100 EXP SWAP1 DIV PUSH1 0xFF AND ISZERO PUSH2 0x1B72 JUMPI PUSH1 0x40 MLOAD PUSH32 0x8C379A000000000000000000000000000000000000000000000000000000000 DUP2 MSTORE PUSH1 0x4 ADD PUSH2 0x1B69 SWAP1 PUSH2 0x3061 JUMP JUMPDEST PUSH1 0x40 MLOAD DUP1 SWAP2 SUB SWAP1 REVERT JUMPDEST PUSH1 0x1 PUSH1 0x7 PUSH0 DUP4 DUP2 MSTORE PUSH1 0x20 ADD SWAP1 DUP2 MSTORE PUSH1 0x20 ADD PUSH0 KECCAK256 PUSH0 CALLER PUSH20 0xFFFFFFFFFFFFFFFFFFFFFFFFFFFFFFFFFFFFFFFF AND PUSH20 0xFFFFFFFFFFFFFFFFFFFFFFFFFFFFFFFFFFFFFFFF AND DUP2 MSTORE PUSH1 0x20 ADD SWAP1 DUP2 MSTORE PUSH1 0x20 ADD PUSH0 KECCAK256 PUSH0 PUSH2 0x100 EXP DUP2 SLOAD DUP2 PUSH1 0xFF MUL NOT AND SWAP1 DUP4 ISZERO ISZERO MUL OR SWAP1 SSTORE POP PUSH1 0x8 PUSH0 DUP3 DUP2 MSTORE PUSH1 0x20 ADD SWAP1 DUP2 MSTORE PUSH1 0x20 ADD PUSH0 KECCAK256 PUSH1 0x5 ADD PUSH0 DUP2 SLOAD DUP1 SWAP3 SWAP2 SWAP1 PUSH2 0x1BFA SWAP1 PUSH2 0x2973 JUMP JUMPDEST SWAP2 SWAP1 POP SSTORE POP PUSH0 PUSH1 0x3 PUSH0 DUP5 DUP2 MSTORE PUSH1 0x20 ADD SWAP1 DUP2 MSTORE PUSH1 0x20 ADD PUSH0 KECCAK256 SWAP1 POP PUSH0 PUSH0 SWAP1 POP JUMPDEST DUP2 DUP1 SLOAD SWAP1 POP DUP2 LT ISZERO PUSH2 0x1C95 JUMPI DUP3 DUP3 DUP3 DUP2 SLOAD DUP2 LT PUSH2 0x1C38 JUMPI PUSH2 0x1C37 PUSH2 0x27EC JUMP JUMPDEST JUMPDEST SWAP1 PUSH0 MSTORE PUSH1 0x20 PUSH0 KECCAK256 SWAP1 PUSH1 0x7 MUL ADD PUSH0 ADD SLOAD SUB PUSH2 0x1C88 JUMPI DUP2 DUP2 DUP2 SLOAD DUP2 LT PUSH2 0x1C5F JUMPI PUSH2 0x1C5E PUSH2 0x27EC JUMP JUMPDEST JUMPDEST SWAP1 PUSH0 MSTORE PUSH1 0x20 PUSH0 KECCAK256 SWAP1 PUSH1 0x7 MUL ADD PUSH1 0x5 ADD PUSH0 DUP2 SLOAD DUP1 SWAP3 SWAP2 SWAP1 PUSH2 0x1C7E SWAP1 PUSH2 0x2973 JUMP JUMPDEST SWAP2 SWAP1 POP SSTORE POP PUSH2 0x1C95 JUMP JUMPDEST DUP1 DUP1 PUSH1 0x1 ADD SWAP2 POP POP PUSH2 0x1C18 JUMP JUMPDEST POP DUP2 DUP4 PUSH32 0xA718B91703005C7FF3C85EF47CB2B96B8BF518A0934598A085E074A84AD79BA1 CALLER PUSH0 PUSH1 0x40 MLOAD PUSH2 0x1CC9 SWAP3 SWAP2 SWAP1 PUSH2 0x29C9 JUMP JUMPDEST PUSH1 0x40 MLOAD DUP1 SWAP2 SUB SWAP1 LOG3 POP POP POP JUMP JUMPDEST PUSH1 0x60 PUSH1 0x3 PUSH0 DUP4 DUP2 MSTORE PUSH1 0x20 ADD SWAP1 DUP2 MSTORE PUSH1 0x20 ADD PUSH0 KECCAK256 DUP1 SLOAD DUP1 PUSH1 0x20 MUL PUSH1 0x20 ADD PUSH1 0x40 MLOAD SWAP1 DUP2 ADD PUSH1 0x40 MSTORE DUP1 SWAP3 SWAP2 SWAP1 DUP2 DUP2 MSTORE PUSH1 0x20 ADD PUSH0 SWAP1 JUMPDEST DUP3 DUP3 LT ISZERO PUSH2 0x1ED4 JUMPI DUP4 DUP3 SWAP1 PUSH0 MSTORE PUSH1 0x20 PUSH0 KECCAK256 SWAP1 PUSH1 0x7 MUL ADD PUSH1 0x40 MLOAD DUP1 PUSH1 0xE0 ADD PUSH1 0x40 MSTORE SWAP1 DUP2 PUSH0 DUP3 ADD SLOAD DUP2 MSTORE PUSH1 0x20 ADD PUSH1 0x1 DUP3 ADD PUSH0 SWAP1 SLOAD SWAP1 PUSH2 0x100 EXP SWAP1 DIV PUSH20 0xFFFFFFFFFFFFFFFFFFFFFFFFFFFFFFFFFFFFFFFF AND PUSH20 0xFFFFFFFFFFFFFFFFFFFFFFFFFFFFFFFFFFFFFFFF AND PUSH20 0xFFFFFFFFFFFFFFFFFFFFFFFFFFFFFFFFFFFFFFFF AND DUP2 MSTORE PUSH1 0x20 ADD PUSH1 0x2 DUP3 ADD DUP1 SLOAD PUSH2 0x1D97 SWAP1 PUSH2 0x2846 JUMP JUMPDEST DUP1 PUSH1 0x1F ADD PUSH1 0x20 DUP1 SWAP2 DIV MUL PUSH1 0x20 ADD PUSH1 0x40 MLOAD SWAP1 DUP2 ADD PUSH1 0x40 MSTORE DUP1 SWAP3 SWAP2 SWAP1 DUP2 DUP2 MSTORE PUSH1 0x20 ADD DUP3 DUP1 SLOAD PUSH2 0x1DC3 SWAP1 PUSH2 0x2846 JUMP JUMPDEST DUP1 ISZERO PUSH2 0x1E0E JUMPI DUP1 PUSH1 0x1F LT PUSH2 0x1DE5 JUMPI PUSH2 0x100 DUP1 DUP4 SLOAD DIV MUL DUP4 MSTORE SWAP2 PUSH1 0x20 ADD SWAP2 PUSH2 0x1E0E JUMP JUMPDEST DUP3 ADD SWAP2 SWAP1 PUSH0 MSTORE PUSH1 0x20 PUSH0 KECCAK256 SWAP1 JUMPDEST DUP2 SLOAD DUP2 MSTORE SWAP1 PUSH1 0x1 ADD SWAP1 PUSH1 0x20 ADD DUP1 DUP4 GT PUSH2 0x1DF1 JUMPI DUP3 SWAP1 SUB PUSH1 0x1F AND DUP3 ADD SWAP2 JUMPDEST POP POP POP POP POP DUP2 MSTORE PUSH1 0x20 ADD PUSH1 0x3 DUP3 ADD DUP1 SLOAD PUSH2 0x1E27 SWAP1 PUSH2 0x2846 JUMP JUMPDEST DUP1 PUSH1 0x1F ADD PUSH1 0x20 DUP1 SWAP2 DIV MUL PUSH1 0x20 ADD PUSH1 0x40 MLOAD SWAP1 DUP2 ADD PUSH1 0x40 MSTORE DUP1 SWAP3 SWAP2 SWAP1 DUP2 DUP2 MSTORE PUSH1 0x20 ADD DUP3 DUP1 SLOAD PUSH2 0x1E53 SWAP1 PUSH2 0x2846 JUMP JUMPDEST DUP1 ISZERO PUSH2 0x1E9E JUMPI DUP1 PUSH1 0x1F LT PUSH2 0x1E75 JUMPI PUSH2 0x100 DUP1 DUP4 SLOAD DIV MUL DUP4 MSTORE SWAP2 PUSH1 0x20 ADD SWAP2 PUSH2 0x1E9E JUMP JUMPDEST DUP3 ADD SWAP2 SWAP1 PUSH0 MSTORE PUSH1 0x20 PUSH0 KECCAK256 SWAP1 JUMPDEST DUP2 SLOAD DUP2 MSTORE SWAP1 PUSH1 0x1 ADD SWAP1 PUSH1 0x20 ADD DUP1 DUP4 GT PUSH2 0x1E81 JUMPI DUP3 SWAP1 SUB PUSH1 0x1F AND DUP3 ADD SWAP2 JUMPDEST POP POP POP POP POP DUP2 MSTORE PUSH1 0x20 ADD PUSH1 0x4 DUP3 ADD SLOAD DUP2 MSTORE PUSH1 0x20 ADD PUSH1 0x5 DUP3 ADD SLOAD DUP2 MSTORE PUSH1 0x20 ADD PUSH1 0x6 DUP3 ADD SLOAD DUP2 MSTORE POP POP DUP2 MSTORE PUSH1 0x20 ADD SWAP1 PUSH1 0x1 ADD SWAP1 PUSH2 0x1D08 JUMP JUMPDEST POP POP POP POP SWAP1 POP SWAP2 SWAP1 POP JUMP JUMPDEST PUSH1 0x40 MLOAD DUP1 PUSH1 0xE0 ADD PUSH1 0x40 MSTORE DUP1 PUSH0 DUP2 MSTORE PUSH1 0x20 ADD PUSH1 0x60 DUP2 MSTORE PUSH1 0x20 ADD PUSH1 0x60 DUP2 MSTORE PUSH1 0x20 ADD PUSH1 0x60 DUP2 MSTORE PUSH1 0x20 ADD PUSH0 DUP2 MSTORE PUSH1 0x20 ADD PUSH0 DUP2 MSTORE PUSH1 0x20 ADD PUSH0 DUP2 MSTORE POP SWAP1 JUMP JUMPDEST PUSH1 0x40 MLOAD DUP1 PUSH1 0xE0 ADD PUSH1 0x40 MSTORE DUP1 PUSH0 DUP2 MSTORE PUSH1 0x20 ADD PUSH0 PUSH20 0xFFFFFFFFFFFFFFFFFFFFFFFFFFFFFFFFFFFFFFFF AND DUP2 MSTORE PUSH1 0x20 ADD PUSH1 0x60 DUP2 MSTORE PUSH1 0x20 ADD PUSH1 0x60 DUP2 MSTORE PUSH1 0x20 ADD PUSH0 DUP2 MSTORE PUSH1 0x20 ADD PUSH0 DUP2 MSTORE PUSH1 0x20 ADD PUSH0 DUP2 MSTORE POP SWAP1 JUMP JUMPDEST PUSH0 PUSH1 0x40 MLOAD SWAP1 POP SWAP1 JUMP JUMPDEST PUSH0 PUSH0 REVERT JUMPDEST PUSH0 PUSH0 REVERT JUMPDEST PUSH0 DUP2 SWAP1 POP SWAP2 SWAP1 POP JUMP JUMPDEST PUSH2 0x1F89 DUP2 PUSH2 0x1F77 JUMP JUMPDEST DUP2 EQ PUSH2 0x1F93 JUMPI PUSH0 PUSH0 REVERT JUMPDEST POP JUMP JUMPDEST PUSH0 DUP2 CALLDATALOAD SWAP1 POP PUSH2 0x1FA4 DUP2 PUSH2 0x1F80 JUMP JUMPDEST SWAP3 SWAP2 POP POP JUMP JUMPDEST PUSH0 PUSH20 0xFFFFFFFFFFFFFFFFFFFFFFFFFFFFFFFFFFFFFFFF DUP3 AND SWAP1 POP SWAP2 SWAP1 POP JUMP JUMPDEST PUSH0 PUSH2 0x1FD3 DUP3 PUSH2 0x1FAA JUMP JUMPDEST SWAP1 POP SWAP2 SWAP1 POP JUMP JUMPDEST PUSH2 0x1FE3 DUP2 PUSH2 0x1FC9 JUMP JUMPDEST DUP2 EQ PUSH2 0x1FED JUMPI PUSH0 PUSH0 REVERT JUMPDEST POP JUMP JUMPDEST PUSH0 DUP2 CALLDATALOAD SWAP1 POP PUSH2 0x1FFE DUP2 PUSH2 0x1FDA JUMP JUMPDEST SWAP3 SWAP2 POP POP JUMP JUMPDEST PUSH0 PUSH0 PUSH1 0x40 DUP4 DUP6 SUB SLT ISZERO PUSH2 0x201A JUMPI PUSH2 0x2019 PUSH2 0x1F6F JUMP JUMPDEST JUMPDEST PUSH0 PUSH2 0x2027 DUP6 DUP3 DUP7 ADD PUSH2 0x1F96 JUMP JUMPDEST SWAP3 POP POP PUSH1 0x20 PUSH2 0x2038 DUP6 DUP3 DUP7 ADD PUSH2 0x1FF0 JUMP JUMPDEST SWAP2 POP POP SWAP3 POP SWAP3 SWAP1 POP JUMP JUMPDEST PUSH0 DUP2 ISZERO ISZERO SWAP1 POP SWAP2 SWAP1 POP JUMP JUMPDEST PUSH2 0x2056 DUP2 PUSH2 0x2042 JUMP JUMPDEST DUP3 MSTORE POP POP JUMP JUMPDEST PUSH0 PUSH1 0x20 DUP3 ADD SWAP1 POP PUSH2 0x206F PUSH0 DUP4 ADD DUP5 PUSH2 0x204D JUMP JUMPDEST SWAP3 SWAP2 POP POP JUMP JUMPDEST PUSH0 PUSH1 0x20 DUP3 DUP5 SUB SLT ISZERO PUSH2 0x208A JUMPI PUSH2 0x2089 PUSH2 0x1F6F JUMP JUMPDEST JUMPDEST PUSH0 PUSH2 0x2097 DUP5 DUP3 DUP6 ADD PUSH2 0x1FF0 JUMP JUMPDEST SWAP2 POP POP SWAP3 SWAP2 POP POP JUMP JUMPDEST PUSH0 DUP2 MLOAD SWAP1 POP SWAP2 SWAP1 POP JUMP JUMPDEST PUSH0 DUP3 DUP3 MSTORE PUSH1 0x20 DUP3 ADD SWAP1 POP SWAP3 SWAP2 POP POP JUMP JUMPDEST PUSH0 DUP2 SWAP1 POP PUSH1 0x20 DUP3 ADD SWAP1 POP SWAP2 SWAP1 POP JUMP JUMPDEST PUSH2 0x20D2 DUP2 PUSH2 0x1F77 JUMP JUMPDEST DUP3 MSTORE POP POP JUMP JUMPDEST PUSH0 DUP2 MLOAD SWAP1 POP SWAP2 SWAP1 POP JUMP JUMPDEST PUSH0 DUP3 DUP3 MSTORE PUSH1 0x20 DUP3 ADD SWAP1 POP SWAP3 SWAP2 POP POP JUMP JUMPDEST DUP3 DUP2 DUP4 MCOPY PUSH0 DUP4 DUP4 ADD MSTORE POP POP POP JUMP JUMPDEST PUSH0 PUSH1 0x1F NOT PUSH1 0x1F DUP4 ADD AND SWAP1 POP SWAP2 SWAP1 POP JUMP JUMPDEST PUSH0 PUSH2 0x211A DUP3 PUSH2 0x20D8 JUMP JUMPDEST PUSH2 0x2124 DUP2 DUP6 PUSH2 0x20E2 JUMP JUMPDEST SWAP4 POP PUSH2 0x2134 DUP2 DUP6 PUSH1 0x20 DUP7 ADD PUSH2 0x20F2 JUMP JUMPDEST PUSH2 0x213D DUP2 PUSH2 0x2100 JUMP JUMPDEST DUP5 ADD SWAP2 POP POP SWAP3 SWAP2 POP POP JUMP JUMPDEST PUSH0 DUP2 SWAP1 POP SWAP2 SWAP1 POP JUMP JUMPDEST PUSH2 0x215A DUP2 PUSH2 0x2148 JUMP JUMPDEST DUP3 MSTORE POP POP JUMP JUMPDEST PUSH0 PUSH1 0xE0 DUP4 ADD PUSH0 DUP4 ADD MLOAD PUSH2 0x2175 PUSH0 DUP7 ADD DUP3 PUSH2 0x20C9 JUMP JUMPDEST POP PUSH1 0x20 DUP4 ADD MLOAD DUP5 DUP3 SUB PUSH1 0x20 DUP7 ADD MSTORE PUSH2 0x218D DUP3 DUP3 PUSH2 0x2110 JUMP JUMPDEST SWAP2 POP POP PUSH1 0x40 DUP4 ADD MLOAD DUP5 DUP3 SUB PUSH1 0x40 DUP7 ADD MSTORE PUSH2 0x21A7 DUP3 DUP3 PUSH2 0x2110 JUMP JUMPDEST SWAP2 POP POP PUSH1 0x60 DUP4 ADD MLOAD DUP5 DUP3 SUB PUSH1 0x60 DUP7 ADD MSTORE PUSH2 0x21C1 DUP3 DUP3 PUSH2 0x2110 JUMP JUMPDEST SWAP2 POP POP PUSH1 0x80 DUP4 ADD MLOAD PUSH2 0x21D6 PUSH1 0x80 DUP7 ADD DUP3 PUSH2 0x2151 JUMP JUMPDEST POP PUSH1 0xA0 DUP4 ADD MLOAD PUSH2 0x21E9 PUSH1 0xA0 DUP7 ADD DUP3 PUSH2 0x2151 JUMP JUMPDEST POP PUSH1 0xC0 DUP4 ADD MLOAD PUSH2 0x21FC PUSH1 0xC0 DUP7 ADD DUP3 PUSH2 0x2151 JUMP JUMPDEST POP DUP1 SWAP2 POP POP SWAP3 SWAP2 POP POP JUMP JUMPDEST PUSH0 PUSH2 0x2212 DUP4 DUP4 PUSH2 0x2160 JUMP JUMPDEST SWAP1 POP SWAP3 SWAP2 POP POP JUMP JUMPDEST PUSH0 PUSH1 0x20 DUP3 ADD SWAP1 POP SWAP2 SWAP1 POP JUMP JUMPDEST PUSH0 PUSH2 0x2230 DUP3 PUSH2 0x20A0 JUMP JUMPDEST PUSH2 0x223A DUP2 DUP6 PUSH2 0x20AA JUMP JUMPDEST SWAP4 POP DUP4 PUSH1 0x20 DUP3 MUL DUP6 ADD PUSH2 0x224C DUP6 PUSH2 0x20BA JUMP JUMPDEST DUP1 PUSH0 JUMPDEST DUP6 DUP2 LT ISZERO PUSH2 0x2287 JUMPI DUP5 DUP5 SUB DUP10 MSTORE DUP2 MLOAD PUSH2 0x2268 DUP6 DUP3 PUSH2 0x2207 JUMP JUMPDEST SWAP5 POP PUSH2 0x2273 DUP4 PUSH2 0x221A JUMP JUMPDEST SWAP3 POP PUSH1 0x20 DUP11 ADD SWAP10 POP POP PUSH1 0x1 DUP2 ADD SWAP1 POP PUSH2 0x224F JUMP JUMPDEST POP DUP3 SWAP8 POP DUP8 SWAP6 POP POP POP POP POP POP SWAP3 SWAP2 POP POP JUMP JUMPDEST PUSH0 PUSH1 0x20 DUP3 ADD SWAP1 POP DUP2 DUP2 SUB PUSH0 DUP4 ADD MSTORE PUSH2 0x22B1 DUP2 DUP5 PUSH2 0x2226 JUMP JUMPDEST SWAP1 POP SWAP3 SWAP2 POP POP JUMP JUMPDEST PUSH0 PUSH0 PUSH1 0x40 DUP4 DUP6 SUB SLT ISZERO PUSH2 0x22CF JUMPI PUSH2 0x22CE PUSH2 0x1F6F JUMP JUMPDEST JUMPDEST PUSH0 PUSH2 0x22DC DUP6 DUP3 DUP7 ADD PUSH2 0x1F96 JUMP JUMPDEST SWAP3 POP POP PUSH1 0x20 PUSH2 0x22ED DUP6 DUP3 DUP7 ADD PUSH2 0x1F96 JUMP JUMPDEST SWAP2 POP POP SWAP3 POP SWAP3 SWAP1 POP JUMP JUMPDEST PUSH0 DUP2 MLOAD SWAP1 POP SWAP2 SWAP1 POP JUMP JUMPDEST PUSH0 DUP3 DUP3 MSTORE PUSH1 0x20 DUP3 ADD SWAP1 POP SWAP3 SWAP2 POP POP JUMP JUMPDEST PUSH0 DUP2 SWAP1 POP PUSH1 0x20 DUP3 ADD SWAP1 POP SWAP2 SWAP1 POP JUMP JUMPDEST PUSH2 0x2329 DUP2 PUSH2 0x1FC9 JUMP JUMPDEST DUP3 MSTORE POP POP JUMP JUMPDEST PUSH0 PUSH1 0xE0 DUP4 ADD PUSH0 DUP4 ADD MLOAD PUSH2 0x2344 PUSH0 DUP7 ADD DUP3 PUSH2 0x20C9 JUMP JUMPDEST POP PUSH1 0x20 DUP4 ADD MLOAD PUSH2 0x2357 PUSH1 0x20 DUP7 ADD DUP3 PUSH2 0x2320 JUMP JUMPDEST POP PUSH1 0x40 DUP4 ADD MLOAD DUP5 DUP3 SUB PUSH1 0x40 DUP7 ADD MSTORE PUSH2 0x236F DUP3 DUP3 PUSH2 0x2110 JUMP JUMPDEST SWAP2 POP POP PUSH1 0x60 DUP4 ADD MLOAD DUP5 DUP3 SUB PUSH1 0x60 DUP7 ADD MSTORE PUSH2 0x2389 DUP3 DUP3 PUSH2 0x2110 JUMP JUMPDEST SWAP2 POP POP PUSH1 0x80 DUP4 ADD MLOAD PUSH2 0x239E PUSH1 0x80 DUP7 ADD DUP3 PUSH2 0x2151 JUMP JUMPDEST POP PUSH1 0xA0 DUP4 ADD MLOAD PUSH2 0x23B1 PUSH1 0xA0 DUP7 ADD DUP3 PUSH2 0x2151 JUMP JUMPDEST POP PUSH1 0xC0 DUP4 ADD MLOAD PUSH2 0x23C4 PUSH1 0xC0 DUP7 ADD DUP3 PUSH2 0x2151 JUMP JUMPDEST POP DUP1 SWAP2 POP POP SWAP3 SWAP2 POP POP JUMP JUMPDEST PUSH0 PUSH2 0x23DA DUP4 DUP4 PUSH2 0x232F JUMP JUMPDEST SWAP1 POP SWAP3 SWAP2 POP POP JUMP JUMPDEST PUSH0 PUSH1 0x20 DUP3 ADD SWAP1 POP SWAP2 SWAP1 POP JUMP JUMPDEST PUSH0 PUSH2 0x23F8 DUP3 PUSH2 0x22F7 JUMP JUMPDEST PUSH2 0x2402 DUP2 DUP6 PUSH2 0x2301 JUMP JUMPDEST SWAP4 POP DUP4 PUSH1 0x20 DUP3 MUL DUP6 ADD PUSH2 0x2414 DUP6 PUSH2 0x2311 JUMP JUMPDEST DUP1 PUSH0 JUMPDEST DUP6 DUP2 LT ISZERO PUSH2 0x244F JUMPI DUP5 DUP5 SUB DUP10 MSTORE DUP2 MLOAD PUSH2 0x2430 DUP6 DUP3 PUSH2 0x23CF JUMP JUMPDEST SWAP5 POP PUSH2 0x243B DUP4 PUSH2 0x23E2 JUMP JUMPDEST SWAP3 POP PUSH1 0x20 DUP11 ADD SWAP10 POP POP PUSH1 0x1 DUP2 ADD SWAP1 POP PUSH2 0x2417 JUMP JUMPDEST POP DUP3 SWAP8 POP DUP8 SWAP6 POP POP POP POP POP POP SWAP3 SWAP2 POP POP JUMP JUMPDEST PUSH0 PUSH1 0x20 DUP3 ADD SWAP1 POP DUP2 DUP2 SUB PUSH0 DUP4 ADD MSTORE PUSH2 0x2479 DUP2 DUP5 PUSH2 0x23EE JUMP JUMPDEST SWAP1 POP SWAP3 SWAP2 POP POP JUMP JUMPDEST PUSH0 PUSH1 0x20 DUP3 DUP5 SUB SLT ISZERO PUSH2 0x2496 JUMPI PUSH2 0x2495 PUSH2 0x1F6F JUMP JUMPDEST JUMPDEST PUSH0 PUSH2 0x24A3 DUP5 DUP3 DUP6 ADD PUSH2 0x1F96 JUMP JUMPDEST SWAP2 POP POP SWAP3 SWAP2 POP POP JUMP JUMPDEST PUSH0 PUSH0 REVERT JUMPDEST PUSH0 PUSH0 REVERT JUMPDEST PUSH32 0x4E487B7100000000000000000000000000000000000000000000000000000000 PUSH0 MSTORE PUSH1 0x41 PUSH1 0x4 MSTORE PUSH1 0x24 PUSH0 REVERT JUMPDEST PUSH2 0x24EA DUP3 PUSH2 0x2100 JUMP JUMPDEST DUP2 ADD DUP2 DUP2 LT PUSH8 0xFFFFFFFFFFFFFFFF DUP3 GT OR ISZERO PUSH2 0x2509 JUMPI PUSH2 0x2508 PUSH2 0x24B4 JUMP JUMPDEST JUMPDEST DUP1 PUSH1 0x40 MSTORE POP POP POP JUMP JUMPDEST PUSH0 PUSH2 0x251B PUSH2 0x1F66 JUMP JUMPDEST SWAP1 POP PUSH2 0x2527 DUP3 DUP3 PUSH2 0x24E1 JUMP JUMPDEST SWAP2 SWAP1 POP JUMP JUMPDEST PUSH0 PUSH8 0xFFFFFFFFFFFFFFFF DUP3 GT ISZERO PUSH2 0x2546 JUMPI PUSH2 0x2545 PUSH2 0x24B4 JUMP JUMPDEST JUMPDEST PUSH2 0x254F DUP3 PUSH2 0x2100 JUMP JUMPDEST SWAP1 POP PUSH1 0x20 DUP2 ADD SWAP1 POP SWAP2 SWAP1 POP JUMP JUMPDEST DUP3 DUP2 DUP4 CALLDATACOPY PUSH0 DUP4 DUP4 ADD MSTORE POP POP POP JUMP JUMPDEST PUSH0 PUSH2 0x257C PUSH2 0x2577 DUP5 PUSH2 0x252C JUMP JUMPDEST PUSH2 0x2512 JUMP JUMPDEST SWAP1 POP DUP3 DUP2 MSTORE PUSH1 0x20 DUP2 ADD DUP5 DUP5 DUP5 ADD GT ISZERO PUSH2 0x2598 JUMPI PUSH2 0x2597 PUSH2 0x24B0 JUMP JUMPDEST JUMPDEST PUSH2 0x25A3 DUP5 DUP3 DUP6 PUSH2 0x255C JUMP JUMPDEST POP SWAP4 SWAP3 POP POP POP JUMP JUMPDEST PUSH0 DUP3 PUSH1 0x1F DUP4 ADD SLT PUSH2 0x25BF JUMPI PUSH2 0x25BE PUSH2 0x24AC JUMP JUMPDEST JUMPDEST DUP2 CALLDATALOAD PUSH2 0x25CF DUP5 DUP3 PUSH1 0x20 DUP7 ADD PUSH2 0x256A JUMP JUMPDEST SWAP2 POP POP SWAP3 SWAP2 POP POP JUMP JUMPDEST PUSH0 PUSH0 PUSH0 PUSH1 0x60 DUP5 DUP7 SUB SLT ISZERO PUSH2 0x25EF JUMPI PUSH2 0x25EE PUSH2 0x1F6F JUMP JUMPDEST JUMPDEST PUSH0 PUSH2 0x25FC DUP7 DUP3 DUP8 ADD PUSH2 0x1F96 JUMP JUMPDEST SWAP4 POP POP PUSH1 0x20 DUP5 ADD CALLDATALOAD PUSH8 0xFFFFFFFFFFFFFFFF DUP2 GT ISZERO PUSH2 0x261D JUMPI PUSH2 0x261C PUSH2 0x1F73 JUMP JUMPDEST JUMPDEST PUSH2 0x2629 DUP7 DUP3 DUP8 ADD PUSH2 0x25AB JUMP JUMPDEST SWAP3 POP POP PUSH1 0x40 DUP5 ADD CALLDATALOAD PUSH8 0xFFFFFFFFFFFFFFFF DUP2 GT ISZERO PUSH2 0x264A JUMPI PUSH2 0x2649 PUSH2 0x1F73 JUMP JUMPDEST JUMPDEST PUSH2 0x2656 DUP7 DUP3 DUP8 ADD PUSH2 0x25AB JUMP JUMPDEST SWAP2 POP POP SWAP3 POP SWAP3 POP SWAP3 JUMP JUMPDEST PUSH2 0x2669 DUP2 PUSH2 0x1F77 JUMP JUMPDEST DUP3 MSTORE POP POP JUMP JUMPDEST PUSH0 DUP3 DUP3 MSTORE PUSH1 0x20 DUP3 ADD SWAP1 POP SWAP3 SWAP2 POP POP JUMP JUMPDEST PUSH0 PUSH2 0x2689 DUP3 PUSH2 0x20D8 JUMP JUMPDEST PUSH2 0x2693 DUP2 DUP6 PUSH2 0x266F JUMP JUMPDEST SWAP4 POP PUSH2 0x26A3 DUP2 DUP6 PUSH1 0x20 DUP7 ADD PUSH2 0x20F2 JUMP JUMPDEST PUSH2 0x26AC DUP2 PUSH2 0x2100 JUMP JUMPDEST DUP5 ADD SWAP2 POP POP SWAP3 SWAP2 POP POP JUMP JUMPDEST PUSH2 0x26C0 DUP2 PUSH2 0x2148 JUMP JUMPDEST DUP3 MSTORE POP POP JUMP JUMPDEST PUSH0 PUSH1 0xE0 DUP3 ADD SWAP1 POP PUSH2 0x26D9 PUSH0 DUP4 ADD DUP11 PUSH2 0x2660 JUMP JUMPDEST DUP2 DUP2 SUB PUSH1 0x20 DUP4 ADD MSTORE PUSH2 0x26EB DUP2 DUP10 PUSH2 0x267F JUMP JUMPDEST SWAP1 POP DUP2 DUP2 SUB PUSH1 0x40 DUP4 ADD MSTORE PUSH2 0x26FF DUP2 DUP9 PUSH2 0x267F JUMP JUMPDEST SWAP1 POP DUP2 DUP2 SUB PUSH1 0x60 DUP4 ADD MSTORE PUSH2 0x2713 DUP2 DUP8 PUSH2 0x267F JUMP JUMPDEST SWAP1 POP PUSH2 0x2722 PUSH1 0x80 DUP4 ADD DUP7 PUSH2 0x26B7 JUMP JUMPDEST PUSH2 0x272F PUSH1 0xA0 DUP4 ADD DUP6 PUSH2 0x26B7 JUMP JUMPDEST PUSH2 0x273C PUSH1 0xC0 DUP4 ADD DUP5 PUSH2 0x26B7 JUMP JUMPDEST SWAP9 SWAP8 POP POP POP POP POP POP POP POP JUMP JUMPDEST PUSH0 PUSH0 PUSH0 PUSH1 0x60 DUP5 DUP7 SUB SLT ISZERO PUSH2 0x275F JUMPI PUSH2 0x275E PUSH2 0x1F6F JUMP JUMPDEST JUMPDEST PUSH0 DUP5 ADD CALLDATALOAD PUSH8 0xFFFFFFFFFFFFFFFF DUP2 GT ISZERO PUSH2 0x277C JUMPI PUSH2 0x277B PUSH2 0x1F73 JUMP JUMPDEST JUMPDEST PUSH2 0x2788 DUP7 DUP3 DUP8 ADD PUSH2 0x25AB JUMP JUMPDEST SWAP4 POP POP PUSH1 0x20 DUP5 ADD CALLDATALOAD PUSH8 0xFFFFFFFFFFFFFFFF DUP2 GT ISZERO PUSH2 0x27A9 JUMPI PUSH2 0x27A8 PUSH2 0x1F73 JUMP JUMPDEST JUMPDEST PUSH2 0x27B5 DUP7 DUP3 DUP8 ADD PUSH2 0x25AB JUMP JUMPDEST SWAP3 POP POP PUSH1 0x40 DUP5 ADD CALLDATALOAD PUSH8 0xFFFFFFFFFFFFFFFF DUP2 GT ISZERO PUSH2 0x27D6 JUMPI PUSH2 0x27D5 PUSH2 0x1F73 JUMP JUMPDEST JUMPDEST PUSH2 0x27E2 DUP7 DUP3 DUP8 ADD PUSH2 0x25AB JUMP JUMPDEST SWAP2 POP POP SWAP3 POP SWAP3 POP SWAP3 JUMP JUMPDEST PUSH32 0x4E487B7100000000000000000000000000000000000000000000000000000000 PUSH0 MSTORE PUSH1 0x32 PUSH1 0x4 MSTORE PUSH1 0x24 PUSH0 REVERT JUMPDEST PUSH32 0x4E487B7100000000000000000000000000000000000000000000000000000000 PUSH0 MSTORE PUSH1 0x22 PUSH1 0x4 MSTORE PUSH1 0x24 PUSH0 REVERT JUMPDEST PUSH0 PUSH1 0x2 DUP3 DIV SWAP1 POP PUSH1 0x1 DUP3 AND DUP1 PUSH2 0x285D JUMPI PUSH1 0x7F DUP3 AND SWAP2 POP JUMPDEST PUSH1 0x20 DUP3 LT DUP2 SUB PUSH2 0x2870 JUMPI PUSH2 0x286F PUSH2 0x2819 JUMP JUMPDEST JUMPDEST POP SWAP2 SWAP1 POP JUMP JUMPDEST PUSH32 0x436F6D6D656E7420646F6573206E6F7420657869737400000000000000000000 PUSH0 DUP3 ADD MSTORE POP JUMP JUMPDEST PUSH0 PUSH2 0x28AA PUSH1 0x16 DUP4 PUSH2 0x266F JUMP JUMPDEST SWAP2 POP PUSH2 0x28B5 DUP3 PUSH2 0x2876 JUMP JUMPDEST PUSH1 0x20 DUP3 ADD SWAP1 POP SWAP2 SWAP1 POP JUMP JUMPDEST PUSH0 PUSH1 0x20 DUP3 ADD SWAP1 POP DUP2 DUP2 SUB PUSH0 DUP4 ADD MSTORE PUSH2 0x28D7 DUP2 PUSH2 0x289E JUMP JUMPDEST SWAP1 POP SWAP2 SWAP1 POP JUMP JUMPDEST PUSH32 0x416C7265616479207570766F746564207468697320636F6D6D656E7400000000 PUSH0 DUP3 ADD MSTORE POP JUMP JUMPDEST PUSH0 PUSH2 0x2912 PUSH1 0x1C DUP4 PUSH2 0x266F JUMP JUMPDEST SWAP2 POP PUSH2 0x291D DUP3 PUSH2 0x28DE JUMP JUMPDEST PUSH1 0x20 DUP3 ADD SWAP1 POP SWAP2 SWAP1 POP JUMP JUMPDEST PUSH0 PUSH1 0x20 DUP3 ADD SWAP1 POP DUP2 DUP2 SUB PUSH0 DUP4 ADD MSTORE PUSH2 0x293F DUP2 PUSH2 0x2906 JUMP JUMPDEST SWAP1 POP SWAP2 SWAP1 POP JUMP JUMPDEST PUSH32 0x4E487B7100000000000000000000000000000000000000000000000000000000 PUSH0 MSTORE PUSH1 0x11 PUSH1 0x4 MSTORE PUSH1 0x24 PUSH0 REVERT JUMPDEST PUSH0 PUSH2 0x297D DUP3 PUSH2 0x2148 JUMP JUMPDEST SWAP2 POP PUSH32 0xFFFFFFFFFFFFFFFFFFFFFFFFFFFFFFFFFFFFFFFFFFFFFFFFFFFFFFFFFFFFFFFF DUP3 SUB PUSH2 0x29AF JUMPI PUSH2 0x29AE PUSH2 0x2946 JUMP JUMPDEST JUMPDEST PUSH1 0x1 DUP3 ADD SWAP1 POP SWAP2 SWAP1 POP JUMP JUMPDEST PUSH2 0x29C3 DUP2 PUSH2 0x1FC9 JUMP JUMPDEST DUP3 MSTORE POP POP JUMP JUMPDEST PUSH0 PUSH1 0x40 DUP3 ADD SWAP1 POP PUSH2 0x29DC PUSH0 DUP4 ADD DUP6 PUSH2 0x29BA JUMP JUMPDEST PUSH2 0x29E9 PUSH1 0x20 DUP4 ADD DUP5 PUSH2 0x204D JUMP JUMPDEST SWAP4 SWAP3 POP POP POP JUMP JUMPDEST PUSH32 0x506F737420646F6573206E6F742065786973742E000000000000000000000000 PUSH0 DUP3 ADD MSTORE POP JUMP JUMPDEST PUSH0 PUSH2 0x2A24 PUSH1 0x14 DUP4 PUSH2 0x266F JUMP JUMPDEST SWAP2 POP PUSH2 0x2A2F DUP3 PUSH2 0x29F0 JUMP JUMPDEST PUSH1 0x20 DUP3 ADD SWAP1 POP SWAP2 SWAP1 POP JUMP JUMPDEST PUSH0 PUSH1 0x20 DUP3 ADD SWAP1 POP DUP2 DUP2 SUB PUSH0 DUP4 ADD MSTORE PUSH2 0x2A51 DUP2 PUSH2 0x2A18 JUMP JUMPDEST SWAP1 POP SWAP2 SWAP1 POP JUMP JUMPDEST PUSH32 0x416C726561647920646F776E766F7465642E0000000000000000000000000000 PUSH0 DUP3 ADD MSTORE POP JUMP JUMPDEST PUSH0 PUSH2 0x2A8C PUSH1 0x12 DUP4 PUSH2 0x266F JUMP JUMPDEST SWAP2 POP PUSH2 0x2A97 DUP3 PUSH2 0x2A58 JUMP JUMPDEST PUSH1 0x20 DUP3 ADD SWAP1 POP SWAP2 SWAP1 POP JUMP JUMPDEST PUSH0 PUSH1 0x20 DUP3 ADD SWAP1 POP DUP2 DUP2 SUB PUSH0 DUP4 ADD MSTORE PUSH2 0x2AB9 DUP2 PUSH2 0x2A80 JUMP JUMPDEST SWAP1 POP SWAP2 SWAP1 POP JUMP JUMPDEST PUSH32 0x436F6D6D656E746572206E616D6520746F6F206C6F6E67000000000000000000 PUSH0 DUP3 ADD MSTORE POP JUMP JUMPDEST PUSH0 PUSH2 0x2AF4 PUSH1 0x17 DUP4 PUSH2 0x266F JUMP JUMPDEST SWAP2 POP PUSH2 0x2AFF DUP3 PUSH2 0x2AC0 JUMP JUMPDEST PUSH1 0x20 DUP3 ADD SWAP1 POP SWAP2 SWAP1 POP JUMP JUMPDEST PUSH0 PUSH1 0x20 DUP3 ADD SWAP1 POP DUP2 DUP2 SUB PUSH0 DUP4 ADD MSTORE PUSH2 0x2B21 DUP2 PUSH2 0x2AE8 JUMP JUMPDEST SWAP1 POP SWAP2 SWAP1 POP JUMP JUMPDEST PUSH0 DUP2 PUSH1 0x60 SHL SWAP1 POP SWAP2 SWAP1 POP JUMP JUMPDEST PUSH0 PUSH2 0x2B3E DUP3 PUSH2 0x2B28 JUMP JUMPDEST SWAP1 POP SWAP2 SWAP1 POP JUMP JUMPDEST PUSH0 PUSH2 0x2B4F DUP3 PUSH2 0x2B34 JUMP JUMPDEST SWAP1 POP SWAP2 SWAP1 POP JUMP JUMPDEST PUSH2 0x2B67 PUSH2 0x2B62 DUP3 PUSH2 0x1FC9 JUMP JUMPDEST PUSH2 0x2B45 JUMP JUMPDEST DUP3 MSTORE POP POP JUMP JUMPDEST PUSH0 DUP2 SWAP1 POP SWAP2 SWAP1 POP JUMP JUMPDEST PUSH2 0x2B87 PUSH2 0x2B82 DUP3 PUSH2 0x2148 JUMP JUMPDEST PUSH2 0x2B6D JUMP JUMPDEST DUP3 MSTORE POP POP JUMP JUMPDEST PUSH0 DUP2 SWAP1 POP SWAP3 SWAP2 POP POP JUMP JUMPDEST PUSH0 PUSH2 0x2BA1 DUP3 PUSH2 0x20D8 JUMP JUMPDEST PUSH2 0x2BAB DUP2 DUP6 PUSH2 0x2B8D JUMP JUMPDEST SWAP4 POP PUSH2 0x2BBB DUP2 DUP6 PUSH1 0x20 DUP7 ADD PUSH2 0x20F2 JUMP JUMPDEST DUP1 DUP5 ADD SWAP2 POP POP SWAP3 SWAP2 POP POP JUMP JUMPDEST PUSH0 PUSH2 0x2BD2 DUP3 DUP7 PUSH2 0x2B56 JUMP JUMPDEST PUSH1 0x14 DUP3 ADD SWAP2 POP PUSH2 0x2BE2 DUP3 DUP6 PUSH2 0x2B76 JUMP JUMPDEST PUSH1 0x20 DUP3 ADD SWAP2 POP PUSH2 0x2BF2 DUP3 DUP5 PUSH2 0x2B97 JUMP JUMPDEST SWAP2 POP DUP2 SWAP1 POP SWAP5 SWAP4 POP POP POP POP JUMP JUMPDEST PUSH0 DUP2 SWAP1 POP DUP2 PUSH0 MSTORE PUSH1 0x20 PUSH0 KECCAK256 SWAP1 POP SWAP2 SWAP1 POP JUMP JUMPDEST PUSH0 PUSH1 0x20 PUSH1 0x1F DUP4 ADD DIV SWAP1 POP SWAP2 SWAP1 POP JUMP JUMPDEST PUSH0 DUP3 DUP3 SHL SWAP1 POP SWAP3 SWAP2 POP POP JUMP JUMPDEST PUSH0 PUSH1 0x8 DUP4 MUL PUSH2 0x2C5B PUSH32 0xFFFFFFFFFFFFFFFFFFFFFFFFFFFFFFFFFFFFFFFFFFFFFFFFFFFFFFFFFFFFFFFF DUP3 PUSH2 0x2C20 JUMP JUMPDEST PUSH2 0x2C65 DUP7 DUP4 PUSH2 0x2C20 JUMP JUMPDEST SWAP6 POP DUP1 NOT DUP5 AND SWAP4 POP DUP1 DUP7 AND DUP5 OR SWAP3 POP POP POP SWAP4 SWAP3 POP POP POP JUMP JUMPDEST PUSH0 DUP2 SWAP1 POP SWAP2 SWAP1 POP JUMP JUMPDEST PUSH0 PUSH2 0x2CA0 PUSH2 0x2C9B PUSH2 0x2C96 DUP5 PUSH2 0x2148 JUMP JUMPDEST PUSH2 0x2C7D JUMP JUMPDEST PUSH2 0x2148 JUMP JUMPDEST SWAP1 POP SWAP2 SWAP1 POP JUMP JUMPDEST PUSH0 DUP2 SWAP1 POP SWAP2 SWAP1 POP JUMP JUMPDEST PUSH2 0x2CB9 DUP4 PUSH2 0x2C86 JUMP JUMPDEST PUSH2 0x2CCD PUSH2 0x2CC5 DUP3 PUSH2 0x2CA7 JUMP JUMPDEST DUP5 DUP5 SLOAD PUSH2 0x2C2C JUMP JUMPDEST DUP3 SSTORE POP POP POP POP JUMP JUMPDEST PUSH0 PUSH0 SWAP1 POP SWAP1 JUMP JUMPDEST PUSH2 0x2CE4 PUSH2 0x2CD5 JUMP JUMPDEST PUSH2 0x2CEF DUP2 DUP5 DUP5 PUSH2 0x2CB0 JUMP JUMPDEST POP POP POP JUMP JUMPDEST JUMPDEST DUP2 DUP2 LT ISZERO PUSH2 0x2D12 JUMPI PUSH2 0x2D07 PUSH0 DUP3 PUSH2 0x2CDC JUMP JUMPDEST PUSH1 0x1 DUP2 ADD SWAP1 POP PUSH2 0x2CF5 JUMP JUMPDEST POP POP JUMP JUMPDEST PUSH1 0x1F DUP3 GT ISZERO PUSH2 0x2D57 JUMPI PUSH2 0x2D28 DUP2 PUSH2 0x2BFF JUMP JUMPDEST PUSH2 0x2D31 DUP5 PUSH2 0x2C11 JUMP JUMPDEST DUP2 ADD PUSH1 0x20 DUP6 LT ISZERO PUSH2 0x2D40 JUMPI DUP2 SWAP1 POP JUMPDEST PUSH2 0x2D54 PUSH2 0x2D4C DUP6 PUSH2 0x2C11 JUMP JUMPDEST DUP4 ADD DUP3 PUSH2 0x2CF4 JUMP JUMPDEST POP POP JUMPDEST POP POP POP JUMP JUMPDEST PUSH0 DUP3 DUP3 SHR SWAP1 POP SWAP3 SWAP2 POP POP JUMP JUMPDEST PUSH0 PUSH2 0x2D77 PUSH0 NOT DUP5 PUSH1 0x8 MUL PUSH2 0x2D5C JUMP JUMPDEST NOT DUP1 DUP4 AND SWAP2 POP POP SWAP3 SWAP2 POP POP JUMP JUMPDEST PUSH0 PUSH2 0x2D8F DUP4 DUP4 PUSH2 0x2D68 JUMP JUMPDEST SWAP2 POP DUP3 PUSH1 0x2 MUL DUP3 OR SWAP1 POP SWAP3 SWAP2 POP POP JUMP JUMPDEST PUSH2 0x2DA8 DUP3 PUSH2 0x20D8 JUMP JUMPDEST PUSH8 0xFFFFFFFFFFFFFFFF DUP2 GT ISZERO PUSH2 0x2DC1 JUMPI PUSH2 0x2DC0 PUSH2 0x24B4 JUMP JUMPDEST JUMPDEST PUSH2 0x2DCB DUP3 SLOAD PUSH2 0x2846 JUMP JUMPDEST PUSH2 0x2DD6 DUP3 DUP3 DUP6 PUSH2 0x2D16 JUMP JUMPDEST PUSH0 PUSH1 0x20 SWAP1 POP PUSH1 0x1F DUP4 GT PUSH1 0x1 DUP2 EQ PUSH2 0x2E07 JUMPI PUSH0 DUP5 ISZERO PUSH2 0x2DF5 JUMPI DUP3 DUP8 ADD MLOAD SWAP1 POP JUMPDEST PUSH2 0x2DFF DUP6 DUP3 PUSH2 0x2D84 JUMP JUMPDEST DUP7 SSTORE POP PUSH2 0x2E66 JUMP JUMPDEST PUSH1 0x1F NOT DUP5 AND PUSH2 0x2E15 DUP7 PUSH2 0x2BFF JUMP JUMPDEST PUSH0 JUMPDEST DUP3 DUP2 LT ISZERO PUSH2 0x2E3C JUMPI DUP5 DUP10 ADD MLOAD DUP3 SSTORE PUSH1 0x1 DUP3 ADD SWAP2 POP PUSH1 0x20 DUP6 ADD SWAP5 POP PUSH1 0x20 DUP2 ADD SWAP1 POP PUSH2 0x2E17 JUMP JUMPDEST DUP7 DUP4 LT ISZERO PUSH2 0x2E59 JUMPI DUP5 DUP10 ADD MLOAD PUSH2 0x2E55 PUSH1 0x1F DUP10 AND DUP3 PUSH2 0x2D68 JUMP JUMPDEST DUP4 SSTORE POP JUMPDEST PUSH1 0x1 PUSH1 0x2 DUP9 MUL ADD DUP9 SSTORE POP POP POP JUMPDEST POP POP POP POP POP POP JUMP JUMPDEST PUSH0 PUSH1 0x80 DUP3 ADD SWAP1 POP PUSH2 0x2E81 PUSH0 DUP4 ADD DUP8 PUSH2 0x29BA JUMP JUMPDEST DUP2 DUP2 SUB PUSH1 0x20 DUP4 ADD MSTORE PUSH2 0x2E93 DUP2 DUP7 PUSH2 0x267F JUMP JUMPDEST SWAP1 POP DUP2 DUP2 SUB PUSH1 0x40 DUP4 ADD MSTORE PUSH2 0x2EA7 DUP2 DUP6 PUSH2 0x267F JUMP JUMPDEST SWAP1 POP PUSH2 0x2EB6 PUSH1 0x60 DUP4 ADD DUP5 PUSH2 0x26B7 JUMP JUMPDEST SWAP6 SWAP5 POP POP POP POP POP JUMP JUMPDEST PUSH32 0x416C7265616479207570766F7465642E00000000000000000000000000000000 PUSH0 DUP3 ADD MSTORE POP JUMP JUMPDEST PUSH0 PUSH2 0x2EF3 PUSH1 0x10 DUP4 PUSH2 0x266F JUMP JUMPDEST SWAP2 POP PUSH2 0x2EFE DUP3 PUSH2 0x2EBF JUMP JUMPDEST PUSH1 0x20 DUP3 ADD SWAP1 POP SWAP2 SWAP1 POP JUMP JUMPDEST PUSH0 PUSH1 0x20 DUP3 ADD SWAP1 POP DUP2 DUP2 SUB PUSH0 DUP4 ADD MSTORE PUSH2 0x2F20 DUP2 PUSH2 0x2EE7 JUMP JUMPDEST SWAP1 POP SWAP2 SWAP1 POP JUMP JUMPDEST PUSH32 0x417574686F72206E616D6520746F6F206C6F6E67000000000000000000000000 PUSH0 DUP3 ADD MSTORE POP JUMP JUMPDEST PUSH0 PUSH2 0x2F5B PUSH1 0x14 DUP4 PUSH2 0x266F JUMP JUMPDEST SWAP2 POP PUSH2 0x2F66 DUP3 PUSH2 0x2F27 JUMP JUMPDEST PUSH1 0x20 DUP3 ADD SWAP1 POP SWAP2 SWAP1 POP JUMP JUMPDEST PUSH0 PUSH1 0x20 DUP3 ADD SWAP1 POP DUP2 DUP2 SUB PUSH0 DUP4 ADD MSTORE PUSH2 0x2F88 DUP2 PUSH2 0x2F4F JUMP JUMPDEST SWAP1 POP SWAP2 SWAP1 POP JUMP JUMPDEST PUSH0 PUSH2 0x2F9A DUP3 DUP8 PUSH2 0x2B56 JUMP JUMPDEST PUSH1 0x14 DUP3 ADD SWAP2 POP PUSH2 0x2FAA DUP3 DUP7 PUSH2 0x2B76 JUMP JUMPDEST PUSH1 0x20 DUP3 ADD SWAP2 POP PUSH2 0x2FBA DUP3 DUP6 PUSH2 0x2B97 JUMP JUMPDEST SWAP2 POP PUSH2 0x2FC6 DUP3 DUP5 PUSH2 0x2B97 JUMP JUMPDEST SWAP2 POP DUP2 SWAP1 POP SWAP6 SWAP5 POP POP POP POP POP JUMP JUMPDEST PUSH0 PUSH1 0x60 DUP3 ADD SWAP1 POP DUP2 DUP2 SUB PUSH0 DUP4 ADD MSTORE PUSH2 0x2FEC DUP2 DUP7 PUSH2 0x267F JUMP JUMPDEST SWAP1 POP DUP2 DUP2 SUB PUSH1 0x20 DUP4 ADD MSTORE PUSH2 0x3000 DUP2 DUP6 PUSH2 0x267F JUMP JUMPDEST SWAP1 POP PUSH2 0x300F PUSH1 0x40 DUP4 ADD DUP5 PUSH2 0x26B7 JUMP JUMPDEST SWAP5 SWAP4 POP POP POP POP JUMP JUMPDEST PUSH32 0x416C726561647920646F776E766F746564207468697320636F6D6D656E740000 PUSH0 DUP3 ADD MSTORE POP JUMP JUMPDEST PUSH0 PUSH2 0x304B PUSH1 0x1E DUP4 PUSH2 0x266F JUMP JUMPDEST SWAP2 POP PUSH2 0x3056 DUP3 PUSH2 0x3017 JUMP JUMPDEST PUSH1 0x20 DUP3 ADD SWAP1 POP SWAP2 SWAP1 POP JUMP JUMPDEST PUSH0 PUSH1 0x20 DUP3 ADD SWAP1 POP DUP2 DUP2 SUB PUSH0 DUP4 ADD MSTORE PUSH2 0x3078 DUP2 PUSH2 0x303F JUMP JUMPDEST SWAP1 POP SWAP2 SWAP1 POP JUMP INVALID LOG2 PUSH5 0x6970667358 0x22 SLT KECCAK256 LOG2 MSTORE PUSH6 0xF38C09D395A4 0xA8 0x22 GASPRICE DUP5 LOG1 PUSH15 0x73D973ACE2D22A71A84DFB871DFFC8 MLOAD PUSH22 0x64736F6C634300081E00330000000000000000000000 "
				},
				"gasEstimates": {
					"creation": {
						"codeDepositCost": "2493800",
						"executionCost": "2686",
						"totalCost": "2496486"
					},
					"external": {
						"addComment(bytes32,string,string)": "infinite",
						"createPost(string,string,string)": "infinite",
						"downvoteComment(bytes32,bytes32)": "infinite",
						"downvotePost(bytes32)": "55769",
						"getAllPosts()": "infinite",
						"getAllPostsOfUser(address)": "infinite",
						"getComments(bytes32)": "infinite",
						"getCommentsByUser(address)": "infinite",
						"getPostById(bytes32)": "infinite",
						"hasDownVoted(bytes32,address)": "3094",
						"hasDownVotedComment(bytes32,address)": "3115",
						"hasUpVoted(bytes32,address)": "3159",
						"hasUpVotedComment(bytes32,address)": "3137",
						"upvoteComment(bytes32,bytes32)": "infinite",
						"upvotePost(bytes32)": "55769"
					}
				},
				"methodIdentifiers": {
					"addComment(bytes32,string,string)": "a7503db2",
					"createPost(string,string,string)": "e8a4a1eb",
					"downvoteComment(bytes32,bytes32)": "eee32095",
					"downvotePost(bytes32)": "a54ff9ac",
					"getAllPosts()": "30561100",
					"getAllPostsOfUser(address)": "2cfdcc6b",
					"getComments(bytes32)": "f7ba787d",
					"getCommentsByUser(address)": "9e78b8a6",
					"getPostById(bytes32)": "ae362ff9",
					"hasDownVoted(bytes32,address)": "20e46ea5",
					"hasDownVotedComment(bytes32,address)": "6b2377ab",
					"hasUpVoted(bytes32,address)": "b28ad613",
					"hasUpVotedComment(bytes32,address)": "6c00f807",
					"upvoteComment(bytes32,bytes32)": "46305364",
					"upvotePost(bytes32)": "e2fc2691"
				}
			},
			"storageLayout": {
				"storage": [
					{
						"astId": 34,
						"contract": "contracts/MyblogApp.sol:MyblogApp",
						"label": "allPostsIds",
						"offset": 0,
						"slot": "0",
						"type": "t_array(t_bytes32)dyn_storage"
					},
					{
						"astId": 39,
						"contract": "contracts/MyblogApp.sol:MyblogApp",
						"label": "userPosts",
						"offset": 0,
						"slot": "1",
						"type": "t_mapping(t_address,t_array(t_bytes32)dyn_storage)"
					},
					{
						"astId": 44,
						"contract": "contracts/MyblogApp.sol:MyblogApp",
						"label": "posts",
						"offset": 0,
						"slot": "2",
						"type": "t_mapping(t_bytes32,t_struct(Post)16_storage)"
					},
					{
						"astId": 50,
						"contract": "contracts/MyblogApp.sol:MyblogApp",
						"label": "postComments",
						"offset": 0,
						"slot": "3",
						"type": "t_mapping(t_bytes32,t_array(t_struct(Comment)31_storage)dyn_storage)"
					},
					{
						"astId": 56,
						"contract": "contracts/MyblogApp.sol:MyblogApp",
						"label": "hasUpVoted",
						"offset": 0,
						"slot": "4",
						"type": "t_mapping(t_bytes32,t_mapping(t_address,t_bool))"
					},
					{
						"astId": 62,
						"contract": "contracts/MyblogApp.sol:MyblogApp",
						"label": "hasDownVoted",
						"offset": 0,
						"slot": "5",
						"type": "t_mapping(t_bytes32,t_mapping(t_address,t_bool))"
					},
					{
						"astId": 68,
						"contract": "contracts/MyblogApp.sol:MyblogApp",
						"label": "hasUpVotedComment",
						"offset": 0,
						"slot": "6",
						"type": "t_mapping(t_bytes32,t_mapping(t_address,t_bool))"
					},
					{
						"astId": 74,
						"contract": "contracts/MyblogApp.sol:MyblogApp",
						"label": "hasDownVotedComment",
						"offset": 0,
						"slot": "7",
						"type": "t_mapping(t_bytes32,t_mapping(t_address,t_bool))"
					},
					{
						"astId": 79,
						"contract": "contracts/MyblogApp.sol:MyblogApp",
						"label": "commentById",
						"offset": 0,
						"slot": "8",
						"type": "t_mapping(t_bytes32,t_struct(Comment)31_storage)"
					},
					{
						"astId": 84,
						"contract": "contracts/MyblogApp.sol:MyblogApp",
						"label": "userCommentIds",
						"offset": 0,
						"slot": "9",
						"type": "t_mapping(t_address,t_array(t_bytes32)dyn_storage)"
					}
				],
				"types": {
					"t_address": {
						"encoding": "inplace",
						"label": "address",
						"numberOfBytes": "20"
					},
					"t_array(t_bytes32)dyn_storage": {
						"base": "t_bytes32",
						"encoding": "dynamic_array",
						"label": "bytes32[]",
						"numberOfBytes": "32"
					},
					"t_array(t_struct(Comment)31_storage)dyn_storage": {
						"base": "t_struct(Comment)31_storage",
						"encoding": "dynamic_array",
						"label": "struct MyblogApp.Comment[]",
						"numberOfBytes": "32"
					},
					"t_bool": {
						"encoding": "inplace",
						"label": "bool",
						"numberOfBytes": "1"
					},
					"t_bytes32": {
						"encoding": "inplace",
						"label": "bytes32",
						"numberOfBytes": "32"
					},
					"t_mapping(t_address,t_array(t_bytes32)dyn_storage)": {
						"encoding": "mapping",
						"key": "t_address",
						"label": "mapping(address => bytes32[])",
						"numberOfBytes": "32",
						"value": "t_array(t_bytes32)dyn_storage"
					},
					"t_mapping(t_address,t_bool)": {
						"encoding": "mapping",
						"key": "t_address",
						"label": "mapping(address => bool)",
						"numberOfBytes": "32",
						"value": "t_bool"
					},
					"t_mapping(t_bytes32,t_array(t_struct(Comment)31_storage)dyn_storage)": {
						"encoding": "mapping",
						"key": "t_bytes32",
						"label": "mapping(bytes32 => struct MyblogApp.Comment[])",
						"numberOfBytes": "32",
						"value": "t_array(t_struct(Comment)31_storage)dyn_storage"
					},
					"t_mapping(t_bytes32,t_mapping(t_address,t_bool))": {
						"encoding": "mapping",
						"key": "t_bytes32",
						"label": "mapping(bytes32 => mapping(address => bool))",
						"numberOfBytes": "32",
						"value": "t_mapping(t_address,t_bool)"
					},
					"t_mapping(t_bytes32,t_struct(Comment)31_storage)": {
						"encoding": "mapping",
						"key": "t_bytes32",
						"label": "mapping(bytes32 => struct MyblogApp.Comment)",
						"numberOfBytes": "32",
						"value": "t_struct(Comment)31_storage"
					},
					"t_mapping(t_bytes32,t_struct(Post)16_storage)": {
						"encoding": "mapping",
						"key": "t_bytes32",
						"label": "mapping(bytes32 => struct MyblogApp.Post)",
						"numberOfBytes": "32",
						"value": "t_struct(Post)16_storage"
					},
					"t_string_storage": {
						"encoding": "bytes",
						"label": "string",
						"numberOfBytes": "32"
					},
					"t_struct(Comment)31_storage": {
						"encoding": "inplace",
						"label": "struct MyblogApp.Comment",
						"members": [
							{
								"astId": 18,
								"contract": "contracts/MyblogApp.sol:MyblogApp",
								"label": "id",
								"offset": 0,
								"slot": "0",
								"type": "t_bytes32"
							},
							{
								"astId": 20,
								"contract": "contracts/MyblogApp.sol:MyblogApp",
								"label": "commenterAddress",
								"offset": 0,
								"slot": "1",
								"type": "t_address"
							},
							{
								"astId": 22,
								"contract": "contracts/MyblogApp.sol:MyblogApp",
								"label": "commenterName",
								"offset": 0,
								"slot": "2",
								"type": "t_string_storage"
							},
							{
								"astId": 24,
								"contract": "contracts/MyblogApp.sol:MyblogApp",
								"label": "content",
								"offset": 0,
								"slot": "3",
								"type": "t_string_storage"
							},
							{
								"astId": 26,
								"contract": "contracts/MyblogApp.sol:MyblogApp",
								"label": "upvote",
								"offset": 0,
								"slot": "4",
								"type": "t_uint256"
							},
							{
								"astId": 28,
								"contract": "contracts/MyblogApp.sol:MyblogApp",
								"label": "downvote",
								"offset": 0,
								"slot": "5",
								"type": "t_uint256"
							},
							{
								"astId": 30,
								"contract": "contracts/MyblogApp.sol:MyblogApp",
								"label": "timestamp",
								"offset": 0,
								"slot": "6",
								"type": "t_uint256"
							}
						],
						"numberOfBytes": "224"
					},
					"t_struct(Post)16_storage": {
						"encoding": "inplace",
						"label": "struct MyblogApp.Post",
						"members": [
							{
								"astId": 3,
								"contract": "contracts/MyblogApp.sol:MyblogApp",
								"label": "id",
								"offset": 0,
								"slot": "0",
								"type": "t_bytes32"
							},
							{
								"astId": 5,
								"contract": "contracts/MyblogApp.sol:MyblogApp",
								"label": "author",
								"offset": 0,
								"slot": "1",
								"type": "t_string_storage"
							},
							{
								"astId": 7,
								"contract": "contracts/MyblogApp.sol:MyblogApp",
								"label": "title",
								"offset": 0,
								"slot": "2",
								"type": "t_string_storage"
							},
							{
								"astId": 9,
								"contract": "contracts/MyblogApp.sol:MyblogApp",
								"label": "contentHash",
								"offset": 0,
								"slot": "3",
								"type": "t_string_storage"
							},
							{
								"astId": 11,
								"contract": "contracts/MyblogApp.sol:MyblogApp",
								"label": "upvote",
								"offset": 0,
								"slot": "4",
								"type": "t_uint256"
							},
							{
								"astId": 13,
								"contract": "contracts/MyblogApp.sol:MyblogApp",
								"label": "downvote",
								"offset": 0,
								"slot": "5",
								"type": "t_uint256"
							},
							{
								"astId": 15,
								"contract": "contracts/MyblogApp.sol:MyblogApp",
								"label": "timestamp",
								"offset": 0,
								"slot": "6",
								"type": "t_uint256"
							}
						],
						"numberOfBytes": "224"
					},
					"t_uint256": {
						"encoding": "inplace",
						"label": "uint256",
						"numberOfBytes": "32"
					}
				}
			},
			"userdoc": {
				"kind": "user",
				"methods": {},
				"version": 1
			}
		}
	}
}